{"contracts/AgentIdentityRegistry.sol":{"AgentIdentityRegistry":{"abi":[{"inputs":[],"stateMutability":"nonpayable","type":"constructor"},{"inputs":[{"internalType":"address","name":"sender","type":"address"},{"internalType":"uint256","name":"tokenId","type":"uint256"},{"internalType":"address","name":"owner","type":"address"}],"name":"ERC721IncorrectOwner","type":"error"},{"inputs":[{"internalType":"address","name":"operator","type":"address"},{"internalType":"uint256","name":"tokenId","type":"uint256"}],"name":"ERC721InsufficientApproval","type":"error"},{"inputs":[{"internalType":"address","name":"approver","type":"address"}],"name":"ERC721InvalidApprover","type":"error"},{"inputs":[{"internalType":"address","name":"operator","type":"address"}],"name":"ERC721InvalidOperator","type":"error"},{"inputs":[{"internalType":"address","name":"owner","type":"address"}],"name":"ERC721InvalidOwner","type":"error"},{"inputs":[{"internalType":"address","name":"receiver","type":"address"}],"name":"ERC721InvalidReceiver","type":"error"},{"inputs":[{"internalType":"address","name":"sender","type":"address"}],"name":"ERC721InvalidSender","type":"error"},{"inputs":[{"internalType":"uint256","name":"tokenId","type":"uint256"}],"name":"ERC721NonexistentToken","type":"error"},{"inputs":[],"name":"ReentrancyGuardReentrantCall","type":"error"},{"anonymous":false,"inputs":[{"indexed":true,"internalType":"address","name":"owner","type":"address"},{"indexed":true,"internalType":"address","name":"approved","type":"address"},{"indexed":true,"internalType":"uint256","name":"tokenId","type":"uint256"}],"name":"Approval","type":"event"},{"anonymous":false,"inputs":[{"indexed":true,"internalType":"address","name":"owner","type":"address"},{"indexed":true,"internalType":"address","name":"operator","type":"address"},{"indexed":false,"internalType":"bool","name":"approved","type":"bool"}],"name":"ApprovalForAll","type":"event"},{"anonymous":false,"inputs":[{"indexed":false,"internalType":"uint256","name":"_fromTokenId","type":"uint256"},{"indexed":false,"internalType":"uint256","name":"_toTokenId","type":"uint256"}],"name":"BatchMetadataUpdate","type":"event"},{"anonymous":false,"inputs":[{"indexed":true,"internalType":"uint256","name":"agentId","type":"uint256"},{"indexed":true,"internalType":"string","name":"indexedKey","type":"string"},{"indexed":false,"internalType":"string","name":"key","type":"string"},{"indexed":false,"internalType":"bytes","name":"value","type":"bytes"}],"name":"MetadataSet","type":"event"},{"anonymous":false,"inputs":[{"indexed":false,"internalType":"uint256","name":"_tokenId","type":"uint256"}],"name":"MetadataUpdate","type":"event"},{"anonymous":false,"inputs":[{"indexed":true,"internalType":"uint256","name":"agentId","type":"uint256"},{"indexed":false,"internalType":"string","name":"tokenURI","type":"string"},{"indexed":true,"internalType":"address","name":"owner","type":"address"}],"name":"Registered","type":"event"},{"anonymous":false,"inputs":[{"indexed":true,"internalType":"address","name":"from","type":"address"},{"indexed":true,"internalType":"address","name":"to","type":"address"},{"indexed":true,"internalType":"uint256","name":"tokenId","type":"uint256"}],"name":"Transfer","type":"event"},{"inputs":[{"internalType":"address","name":"to","type":"address"},{"internalType":"uint256","name":"tokenId","type":"uint256"}],"name":"approve","outputs":[],"stateMutability":"nonpayable","type":"function"},{"inputs":[{"internalType":"address","name":"owner","type":"address"}],"name":"balanceOf","outputs":[{"internalType":"uint256","name":"","type":"uint256"}],"stateMutability":"view","type":"function"},{"inputs":[{"internalType":"uint256","name":"tokenId","type":"uint256"}],"name":"getApproved","outputs":[{"internalType":"address","name":"","type":"address"}],"stateMutability":"view","type":"function"},{"inputs":[{"internalType":"uint256","name":"agentId","type":"uint256"},{"internalType":"string","name":"key","type":"string"}],"name":"getMetadata","outputs":[{"internalType":"bytes","name":"","type":"bytes"}],"stateMutability":"view","type":"function"},{"inputs":[{"internalType":"address","name":"owner","type":"address"},{"internalType":"address","name":"operator","type":"address"}],"name":"isApprovedForAll","outputs":[{"internalType":"bool","name":"","type":"bool"}],"stateMutability":"view","type":"function"},{"inputs":[],"name":"name","outputs":[{"internalType":"string","name":"","type":"string"}],"stateMutability":"view","type":"function"},{"inputs":[{"internalType":"uint256","name":"tokenId","type":"uint256"}],"name":"ownerOf","outputs":[{"internalType":"address","name":"","type":"address"}],"stateMutability":"view","type":"function"},{"inputs":[],"name":"register","outputs":[{"internalType":"uint256","name":"agentId","type":"uint256"}],"stateMutability":"nonpayable","type":"function"},{"inputs":[{"internalType":"string","name":"agentURI","type":"string"},{"components":[{"internalType":"string","name":"key","type":"string"},{"internalType":"bytes","name":"value","type":"bytes"}],"internalType":"struct AgentIdentityRegistry.MetadataEntry[]","name":"metadata","type":"tuple[]"}],"name":"register","outputs":[{"internalType":"uint256","name":"agentId","type":"uint256"}],"stateMutability":"nonpayable","type":"function"},{"inputs":[{"internalType":"string","name":"agentURI","type":"string"}],"name":"register","outputs":[{"internalType":"uint256","name":"agentId","type":"uint256"}],"stateMutability":"nonpayable","type":"function"},{"inputs":[{"internalType":"address","name":"from","type":"address"},{"internalType":"address","name":"to","type":"address"},{"internalType":"uint256","name":"tokenId","type":"uint256"}],"name":"safeTransferFrom","outputs":[],"stateMutability":"nonpayable","type":"function"},{"inputs":[{"internalType":"address","name":"from","type":"address"},{"internalType":"address","name":"to","type":"address"},{"internalType":"uint256","name":"tokenId","type":"uint256"},{"internalType":"bytes","name":"data","type":"bytes"}],"name":"safeTransferFrom","outputs":[],"stateMutability":"nonpayable","type":"function"},{"inputs":[{"internalType":"address","name":"operator","type":"address"},{"internalType":"bool","name":"approved","type":"bool"}],"name":"setApprovalForAll","outputs":[],"stateMutability":"nonpayable","type":"function"},{"inputs":[{"internalType":"uint256","name":"agentId","type":"uint256"},{"internalType":"string","name":"key","type":"string"},{"internalType":"bytes","name":"value","type":"bytes"}],"name":"setMetadata","outputs":[],"stateMutability":"nonpayable","type":"function"},{"inputs":[{"internalType":"bytes4","name":"interfaceId","type":"bytes4"}],"name":"supportsInterface","outputs":[{"internalType":"bool","name":"","type":"bool"}],"stateMutability":"view","type":"function"},{"inputs":[],"name":"symbol","outputs":[{"internalType":"string","name":"","type":"string"}],"stateMutability":"view","type":"function"},{"inputs":[{"internalType":"uint256","name":"tokenId","type":"uint256"}],"name":"tokenURI","outputs":[{"internalType":"string","name":"","type":"string"}],"stateMutability":"view","type":"function"},{"inputs":[],"name":"totalAgents","outputs":[{"internalType":"uint256","name":"","type":"uint256"}],"stateMutability":"view","type":"function"},{"inputs":[{"internalType":"address","name":"from","type":"address"},{"internalType":"address","name":"to","type":"address"},{"internalType":"uint256","name":"tokenId","type":"uint256"}],"name":"transferFrom","outputs":[],"stateMutability":"nonpayable","type":"function"}],"evm":{"bytecode":{"linkReferences":{},"object":"6080346200031b576001600160401b03906040908082018381118282101762000239578252601881526020927f4552432d383030342054727573746c657373204167656e74000000000000000084830152825193838501858110838211176200023957845260058552641051d1539560da1b8186015282519082821162000239575f54916001948584811c9416801562000310575b838510146200021a578190601f94858111620002bd575b50839085831160011462000259575f926200024d575b50505f19600383901b1c191690851b175f555b8551928311620002395783548481811c911680156200022e575b828210146200021a57828111620001d2575b50809183116001146200016d5750819293945f9262000161575b50505f19600383901b1c191690821b1781555b807f9b779b17422d0df92223018b32b4d1fa46e071723d6817e2486d003becc55f0055600755516117cd9081620003208239f35b015190505f806200011a565b90601f19831695845f52825f20925f905b888210620001ba5750508385969710620001a1575b505050811b0181556200012d565b01515f1960f88460031b161c191690555f808062000193565b8087859682949686015181550195019301906200017e565b845f52815f208380860160051c82019284871062000210575b0160051c019085905b8281106200020457505062000100565b5f8155018590620001f4565b92508192620001eb565b634e487b7160e01b5f52602260045260245ffd5b90607f1690620000ee565b634e487b7160e01b5f52604160045260245ffd5b015190505f80620000c1565b90879350601f198316915f8052855f20925f5b87828210620002a657505084116200028d575b505050811b015f55620000d4565b01515f1960f88460031b161c191690555f80806200027f565b8385015186558b979095019493840193016200026c565b9091505f8052835f208580850160051c82019286861062000306575b918991869594930160051c01915b828110620002f7575050620000ab565b5f8155859450899101620002e7565b92508192620002d9565b93607f169362000094565b5f80fdfe6080604081815260049182361015610015575f80fd5b5f3560e01c90816301ffc9a714610bac5750806306fdde0314610aff578063081812fc14610ac7578063095ea7b3146109ec5780631aa3a008146109ba57806323b872dd146109a357806342842e0e14610975578063466648da1461079a5780636352211e1461076b57806370a08231146107175780638ea42286146104a757806395d89b41146103c4578063a22cb4651461030d578063b88d4fde146102a0578063c505371214610263578063c87b56dd14610231578063cb4799f2146101b8578063e985e9c51461016a5763f2c298be146100f0575f80fd5b3461016657602036600319011261016657813567ffffffffffffffff81116101665761013661012760209461013b93369101610cd7565b61012f61121c565b3691610d73565b61125e565b9060017f9b779b17422d0df92223018b32b4d1fa46e071723d6817e2486d003becc55f005551908152f35b5f80fd5b5034610166578060031936011261016657602090610186610c76565b61018e610c8c565b9060018060a01b038091165f5260058452825f2091165f52825260ff815f20541690519015158152f35b50346101665780600319360112610166576024359067ffffffffffffffff82116101665761021b61020961022d946101f66102149536908301610cd7565b9091355f526008602052845f2091611008565b825193848092610de1565b0383610d35565b51918291602083526020830190610c51565b0390f35b50346101665760203660031901126101665761025061022d9235611123565b9051918291602083526020830190610c51565b5034610166575f366003190112610166576007545f1981019190821161028d576020925051908152f35b601183634e487b7160e01b5f525260245ffd5b8234610166576080366003190112610166576102ba610c76565b6102c2610c8c565b6044359060643567ffffffffffffffff811161016657366023820112156101665761030b948160246102f993369301359101610d73565b92610305838383610e72565b33611633565b005b5034610166578060031936011261016657610326610c76565b90602435918215158093036101665733156103ae576001600160a01b03169283156103995750335f526005602052805f20835f52602052805f2060ff1981541660ff8416179055519081527f17307eab39ab6107e8899845ad3d59bd9653f200f220920489ca2b5937696c3160203392a3005b836024925191630b61174360e31b8352820152fd5b815163a9fbf51f60e01b81525f81860152602490fd5b5034610166575f366003190112610166578051905f9082600192600154936103eb85610da9565b90818452602095866001821691825f1461048557505060011461042a575b505061022d929161041b910385610d35565b51928284938452830190610c51565b9085925060015f527fb10e2d527612073b26eecdfd717e6a320cf44b4afac2b0732d9fcbe2b7fa0cf6915f925b82841061046d575050508201018161041b610409565b8054848a018601528895508794909301928101610457565b60ff19168682015292151560051b8501909201925083915061041b9050610409565b503461016657806003193601126101665767ffffffffffffffff908235828111610166576104d89036908501610cd7565b602491602435908582116101665736602383011215610166578187013592868411610166576024830192602436918660051b01011161016657610521916101369161012f61121c565b945f5b838110610559576020878760017f9b779b17422d0df92223018b32b4d1fa46e071723d6817e2486d003becc55f005551908152f35b6105648185856110ba565b610573602091828101906110f0565b895f526008835261059a895f2061059461058e878b8b6110ba565b806110f0565b90611008565b9185821161070557879493838389936105c08f968f986105ba9054610da9565b85611021565b5f90601f831160011461067257935f8051602061177883398151915295936106098461065e956106409560019e995f92610667575b50508160011b915f199060031b1c19161790565b90555b61061a61058e8a87876110ba565b9290916106378b61062f61058e828b8b6110ba565b9990986110ba565b908101906110f0565b929091818a51928392833781015f8152039020975194859485611090565b0390a301610524565b013590505f806105f5565b601f19831691845f52855f20925f5b8181106106d65750936106409360019c97935f805160206117788339815191529997938361065e98106106bd575b5050508b1b8b01905561060c565b01355f19600384901b60f8161c191690555f80806106af565b95995093975095509380989950600181928787013581550195019201938b9897938f9692938f98948d97610681565b8860418d634e487b7160e01b5f52525ffd5b5034610166576020366003190112610166576001600160a01b03610739610c76565b16801561075557602092505f5260038252805f20549051908152f35b81516322718ad960e21b81525f81850152602490fd5b503461016657602036600319011261016657610789602092356111e2565b90516001600160a01b039091168152f35b5090346101665760603660031901126101665780359067ffffffffffffffff90602435828111610166576107d19036908301610cd7565b929091604435828111610166576107eb9036908301610cd7565b9290916107f7876111e2565b336001600160a01b039091160361093b57865f526020906008602052610820895f208888611008565b928511610928575061083c846108368454610da9565b84611021565b5f90601f85116001146108ae5750918391610880835f8051602061177883398151915298979661089e965f916108a3575b508160011b915f199060031b1c19161790565b90555b875185858237808681015f8152039020975194859485611090565b0390a3005b90508401355f61086d565b90601f198516835f5260205f20925f905b828210610910575050918593915f8051602061177883398151915298979661089e9694106108f7575b5050600183811b019055610883565b8301355f19600386901b60f8161c191690555f806108e8565b80600185968294968a013581550195019301906108bf565b604190634e487b7160e01b5f525260245ffd5b606490602089519162461bcd60e51b8352820152601460248201527320a4a91d103737ba1030b3b2b73a1037bbb732b960611b6044820152fd5b50346101665761030b9061098836610ca2565b9192519261099584610d05565b5f8452610305838383610e72565b346101665761030b6109b436610ca2565b91610e72565b5034610166575f366003190112610166576020906109d661121c565b61013b81516109e481610d05565b5f815261125e565b5034610166578060031936011261016657610a05610c76565b91602435610a12816111e2565b33151580610ab4575b80610a8d575b610a77576001600160a01b039485169482918691167f8c5be1e5ebec7d5bd14f71427d1e84f3dd0314c0f7b2291e5b200ac8c7c3b9255f80a45f526020525f20906001600160601b0360a01b8254161790555f80f35b835163a9fbf51f60e01b81523381850152602490fd5b5060018060a01b0381165f526005602052835f20335f5260205260ff845f20541615610a21565b506001600160a01b038116331415610a1b565b5034610166576020366003190112610166578160209235610ae7816111e2565b505f52825260018060a01b03815f2054169051908152f35b5034610166575f366003190112610166578051905f90825f5492610b2284610da9565b808352602094600190866001821691825f14610485575050600114610b5357505061022d929161041b910385610d35565b5f80805286935091907f290decd9548b62a8d60345a988386fc84ba6bc95484008f6362f93160ef3e5635b828410610b94575050508201018161041b610409565b8054848a018601528895508794909301928101610b7e565b833461016657602036600319011261016657359063ffffffff60e01b821680920361016657602091632483248360e11b8114908115610bed575b5015158152f35b6380ac58cd60e01b811491508115610c1f575b8115610c0e575b5083610be6565b6301ffc9a760e01b14905083610c07565b635b5e139f60e01b81149150610c00565b5f5b838110610c415750505f910152565b8181015183820152602001610c32565b90602091610c6a81518092818552858086019101610c30565b601f01601f1916010190565b600435906001600160a01b038216820361016657565b602435906001600160a01b038216820361016657565b6060906003190112610166576001600160a01b0390600435828116810361016657916024359081168103610166579060443590565b9181601f840112156101665782359167ffffffffffffffff8311610166576020838186019501011161016657565b6020810190811067ffffffffffffffff821117610d2157604052565b634e487b7160e01b5f52604160045260245ffd5b90601f8019910116810190811067ffffffffffffffff821117610d2157604052565b67ffffffffffffffff8111610d2157601f01601f191660200190565b929192610d7f82610d57565b91610d8d6040519384610d35565b829481845281830111610166578281602093845f960137010152565b90600182811c92168015610dd7575b6020831014610dc357565b634e487b7160e01b5f52602260045260245ffd5b91607f1691610db8565b80545f9392610def82610da9565b918282526020936001916001811690815f14610e535750600114610e15575b5050505050565b90939495505f92919252835f2092845f945b838610610e3f57505050500101905f80808080610e0e565b805485870183015294019385908201610e27565b60ff19168685015250505090151560051b010191505f80808080610e0e565b6001600160a01b039182169290918315610ff057815f52602092600284528260409583875f2054169533151580610f5e575b5060029087610f2d575b825f5260038152885f2060018154019055835f5252865f20816001600160601b0360a01b825416179055857fddf252ad1be2c89b69c2b068fc378daa952ba7f163c4a11628f55a4df523b3ef5f80a41692838303610f0c5750505050565b6064945051926364283d7b60e01b8452600484015260248301526044820152fd5b5f84815260046020526040812080546001600160a01b03191690558881526003825289902080545f19019055610eae565b9192509080610faf575b15610f76579084915f610ea4565b868587610f93576024915190637e27328960e01b82526004820152fd5b604491519063177e802f60e01b82523360048301526024820152fd5b503386148015610fd4575b80610f685750845f52600481523384885f20541614610f68565b50855f5260058152865f20335f52815260ff875f205416610fba565b604051633250574960e11b81525f6004820152602490fd5b6020919283604051948593843782019081520301902090565b601f821161102e57505050565b5f5260205f20906020601f840160051c83019310611066575b601f0160051c01905b81811061105b575050565b5f8155600101611050565b9091508190611047565b908060209392818452848401375f828201840152601f01601f1916010190565b92906110a9906110b79593604086526040860191611070565b926020818503910152611070565b90565b91908110156110dc5760051b81013590603e1981360301821215610166570190565b634e487b7160e01b5f52603260045260245ffd5b903590601e1981360301821215610166570180359067ffffffffffffffff82116101665760200191813603831361016657565b61112c816111e2565b5060409061115c825161113e81610d05565b5f8152825f5260209060068252611163855f20865194858092610de1565b0384610d35565b80519283156111d957805161119d575050505061117f906111e2565b505f815161118c81610d05565b525161119781610d05565b5f815290565b9091926110b794506111b9819651968794868087019101610c30565b82016111cd82518093868085019101610c30565b01038084520182610d35565b94505050505090565b5f818152600260205260409020546001600160a01b0316908115611204575090565b60249060405190637e27328960e01b82526004820152fd5b7f9b779b17422d0df92223018b32b4d1fa46e071723d6817e2486d003becc55f00600281541461124c5760029055565b604051633ee5aeb560e01b8152600490fd5b6007545f1992919083811461161f5760019160018201600755819460409081519461128886610d05565b5f8652331561160857845f526020956002875260018060a01b03845f2054168681151591826115d8575b335f5260038a52865f2060018154019055815f5260028a52865f20336001600160601b0360a01b82541617905533907fddf252ad1be2c89b69c2b068fc378daa952ba7f163c4a11628f55a4df523b3ef5f80a46115c157333b6114a8575b508351611356575b50507fca52e62c367d81bb2e328eb795f7c7ba24afb478408a26c0e201d155c449bc4a9161135191519182918683523396830190610c51565b0390a3565b845f5260068652825f209184519167ffffffffffffffff8311610d2157611387836113818654610da9565b86611021565b8791601f841160011461141b575050916113dc8261135195937fca52e62c367d81bb2e328eb795f7c7ba24afb478408a26c0e201d155c449bc4a97955f9161141057508160011b915f199060031b1c19161790565b90555b7ff8e1a15aba9398e019f0b49df1a4fde98ee17ae345cb5f6b5e2c27f5033e8ce7868251878152a191819350611318565b90508501515f61086d565b9091601f198416855f52895f20935f905b8b8383106114915750505092600192859261135198967fca52e62c367d81bb2e328eb795f7c7ba24afb478408a26c0e201d155c449bc4a9a989610611479575b505050811b0190556113df565b8701519060f88460031b161c191690555f808061146c565b818597829394968d0151815501960193019061142c565b8397959493989698518981806114e6630a85bd0160e11b958683523360048401525f60248401528a6044840152608060648401526084830190610c51565b03815f335af15f9181611581575b5061154e5789893d15611546573d9161150c83610d57565b9261151983519485610d35565b83523d5f8285013e5b82519283611541578251633250574960e11b8152336004820152602490fd5b019050fd5b606091611522565b63ffffffff60e09a989a99959697991b160361156a575f611310565b8251633250574960e11b8152336004820152602490fd5b9091508a81813d83116115ba575b6115998183610d35565b8101031261016657516001600160e01b03198116810361016657905f6114f4565b503d61158f565b83516339e3563760e11b81525f6004820152602490fd5b5f82815260046020526040902080546001600160a01b0319169055805f5260038a52865f208681540190556112b2565b8251633250574960e11b81525f6004820152602490fd5b634e487b7160e01b5f52601160045260245ffd5b9293909193843b611645575050505050565b604051630a85bd0160e11b8082526001600160a01b039586166004830152938516602482015260448101919091526080606482015260209594909316939290859082908190611698906084830190610c51565b03815f885af15f9181611737575b50611700575050503d5f146116f8573d916116c083610d57565b926116ce6040519485610d35565b83523d5f8285013e5b8251928361154157604051633250574960e11b815260048101849052602490fd5b6060916116d7565b9193506001600160e01b03199091160361171f57505f80808080610e0e565b60249060405190633250574960e11b82526004820152fd5b9091508581813d8311611770575b61174f8183610d35565b8101031261016657516001600160e01b03198116810361016657905f6116a6565b503d61174556fe2c149ed548c6d2993cd73efe187df6eccabe4538091b33adbd25fafdb8a1468ba2646970667358221220b5a55d22d5bf91e2654c750b4cacba7c05d684a4b4f714695614aff2cff00b1d64736f6c63430008180033","opcodes":"PUSH1 0x80 CALLVALUE PUSH3 0x31B JUMPI PUSH1 0x1 PUSH1 0x1 PUSH1 0x40 SHL SUB SWAP1 PUSH1 0x40 SWAP1 DUP1 DUP3 ADD DUP4 DUP2 GT DUP3 DUP3 LT OR PUSH3 0x239 JUMPI DUP3 MSTORE PUSH1 0x18 DUP2 MSTORE PUSH1 0x20 SWAP3 PUSH32 0x4552432D383030342054727573746C657373204167656E740000000000000000 DUP5 DUP4 ADD MSTORE DUP3 MLOAD SWAP4 DUP4 DUP6 ADD DUP6 DUP2 LT DUP4 DUP3 GT OR PUSH3 0x239 JUMPI DUP5 MSTORE PUSH1 0x5 DUP6 MSTORE PUSH5 0x1051D15395 PUSH1 0xDA SHL DUP2 DUP7 ADD MSTORE DUP3 MLOAD SWAP1 DUP3 DUP3 GT PUSH3 0x239 JUMPI PUSH0 SLOAD SWAP2 PUSH1 0x1 SWAP5 DUP6 DUP5 DUP2 SHR SWAP5 AND DUP1 ISZERO PUSH3 0x310 JUMPI JUMPDEST DUP4 DUP6 LT EQ PUSH3 0x21A JUMPI DUP2 SWAP1 PUSH1 0x1F SWAP5 DUP6 DUP2 GT PUSH3 0x2BD JUMPI JUMPDEST POP DUP4 SWAP1 DUP6 DUP4 GT PUSH1 0x1 EQ PUSH3 0x259 JUMPI PUSH0 SWAP3 PUSH3 0x24D JUMPI JUMPDEST POP POP PUSH0 NOT PUSH1 0x3 DUP4 SWAP1 SHL SHR NOT AND SWAP1 DUP6 SHL OR PUSH0 SSTORE JUMPDEST DUP6 MLOAD SWAP3 DUP4 GT PUSH3 0x239 JUMPI DUP4 SLOAD DUP5 DUP2 DUP2 SHR SWAP2 AND DUP1 ISZERO PUSH3 0x22E JUMPI JUMPDEST DUP3 DUP3 LT EQ PUSH3 0x21A JUMPI DUP3 DUP2 GT PUSH3 0x1D2 JUMPI JUMPDEST POP DUP1 SWAP2 DUP4 GT PUSH1 0x1 EQ PUSH3 0x16D JUMPI POP DUP2 SWAP3 SWAP4 SWAP5 PUSH0 SWAP3 PUSH3 0x161 JUMPI JUMPDEST POP POP PUSH0 NOT PUSH1 0x3 DUP4 SWAP1 SHL SHR NOT AND SWAP1 DUP3 SHL OR DUP2 SSTORE JUMPDEST DUP1 PUSH32 0x9B779B17422D0DF92223018B32B4D1FA46E071723D6817E2486D003BECC55F00 SSTORE PUSH1 0x7 SSTORE MLOAD PUSH2 0x17CD SWAP1 DUP2 PUSH3 0x320 DUP3 CODECOPY RETURN JUMPDEST ADD MLOAD SWAP1 POP PUSH0 DUP1 PUSH3 0x11A JUMP JUMPDEST SWAP1 PUSH1 0x1F NOT DUP4 AND SWAP6 DUP5 PUSH0 MSTORE DUP3 PUSH0 KECCAK256 SWAP3 PUSH0 SWAP1 JUMPDEST DUP9 DUP3 LT PUSH3 0x1BA JUMPI POP POP DUP4 DUP6 SWAP7 SWAP8 LT PUSH3 0x1A1 JUMPI JUMPDEST POP POP POP DUP2 SHL ADD DUP2 SSTORE PUSH3 0x12D JUMP JUMPDEST ADD MLOAD PUSH0 NOT PUSH1 0xF8 DUP5 PUSH1 0x3 SHL AND SHR NOT AND SWAP1 SSTORE PUSH0 DUP1 DUP1 PUSH3 0x193 JUMP JUMPDEST DUP1 DUP8 DUP6 SWAP7 DUP3 SWAP5 SWAP7 DUP7 ADD MLOAD DUP2 SSTORE ADD SWAP6 ADD SWAP4 ADD SWAP1 PUSH3 0x17E JUMP JUMPDEST DUP5 PUSH0 MSTORE DUP2 PUSH0 KECCAK256 DUP4 DUP1 DUP7 ADD PUSH1 0x5 SHR DUP3 ADD SWAP3 DUP5 DUP8 LT PUSH3 0x210 JUMPI JUMPDEST ADD PUSH1 0x5 SHR ADD SWAP1 DUP6 SWAP1 JUMPDEST DUP3 DUP2 LT PUSH3 0x204 JUMPI POP POP PUSH3 0x100 JUMP JUMPDEST PUSH0 DUP2 SSTORE ADD DUP6 SWAP1 PUSH3 0x1F4 JUMP JUMPDEST SWAP3 POP DUP2 SWAP3 PUSH3 0x1EB JUMP JUMPDEST PUSH4 0x4E487B71 PUSH1 0xE0 SHL PUSH0 MSTORE PUSH1 0x22 PUSH1 0x4 MSTORE PUSH1 0x24 PUSH0 REVERT JUMPDEST SWAP1 PUSH1 0x7F AND SWAP1 PUSH3 0xEE JUMP JUMPDEST PUSH4 0x4E487B71 PUSH1 0xE0 SHL PUSH0 MSTORE PUSH1 0x41 PUSH1 0x4 MSTORE PUSH1 0x24 PUSH0 REVERT JUMPDEST ADD MLOAD SWAP1 POP PUSH0 DUP1 PUSH3 0xC1 JUMP JUMPDEST SWAP1 DUP8 SWAP4 POP PUSH1 0x1F NOT DUP4 AND SWAP2 PUSH0 DUP1 MSTORE DUP6 PUSH0 KECCAK256 SWAP3 PUSH0 JUMPDEST DUP8 DUP3 DUP3 LT PUSH3 0x2A6 JUMPI POP POP DUP5 GT PUSH3 0x28D JUMPI JUMPDEST POP POP POP DUP2 SHL ADD PUSH0 SSTORE PUSH3 0xD4 JUMP JUMPDEST ADD MLOAD PUSH0 NOT PUSH1 0xF8 DUP5 PUSH1 0x3 SHL AND SHR NOT AND SWAP1 SSTORE PUSH0 DUP1 DUP1 PUSH3 0x27F JUMP JUMPDEST DUP4 DUP6 ADD MLOAD DUP7 SSTORE DUP12 SWAP8 SWAP1 SWAP6 ADD SWAP5 SWAP4 DUP5 ADD SWAP4 ADD PUSH3 0x26C JUMP JUMPDEST SWAP1 SWAP2 POP PUSH0 DUP1 MSTORE DUP4 PUSH0 KECCAK256 DUP6 DUP1 DUP6 ADD PUSH1 0x5 SHR DUP3 ADD SWAP3 DUP7 DUP7 LT PUSH3 0x306 JUMPI JUMPDEST SWAP2 DUP10 SWAP2 DUP7 SWAP6 SWAP5 SWAP4 ADD PUSH1 0x5 SHR ADD SWAP2 JUMPDEST DUP3 DUP2 LT PUSH3 0x2F7 JUMPI POP POP PUSH3 0xAB JUMP JUMPDEST PUSH0 DUP2 SSTORE DUP6 SWAP5 POP DUP10 SWAP2 ADD PUSH3 0x2E7 JUMP JUMPDEST SWAP3 POP DUP2 SWAP3 PUSH3 0x2D9 JUMP JUMPDEST SWAP4 PUSH1 0x7F AND SWAP4 PUSH3 0x94 JUMP JUMPDEST PUSH0 DUP1 REVERT INVALID PUSH1 0x80 PUSH1 0x40 DUP2 DUP2 MSTORE PUSH1 0x4 SWAP2 DUP3 CALLDATASIZE LT ISZERO PUSH2 0x15 JUMPI PUSH0 DUP1 REVERT JUMPDEST PUSH0 CALLDATALOAD PUSH1 0xE0 SHR SWAP1 DUP2 PUSH4 0x1FFC9A7 EQ PUSH2 0xBAC JUMPI POP DUP1 PUSH4 0x6FDDE03 EQ PUSH2 0xAFF JUMPI DUP1 PUSH4 0x81812FC EQ PUSH2 0xAC7 JUMPI DUP1 PUSH4 0x95EA7B3 EQ PUSH2 0x9EC JUMPI DUP1 PUSH4 0x1AA3A008 EQ PUSH2 0x9BA JUMPI DUP1 PUSH4 0x23B872DD EQ PUSH2 0x9A3 JUMPI DUP1 PUSH4 0x42842E0E EQ PUSH2 0x975 JUMPI DUP1 PUSH4 0x466648DA EQ PUSH2 0x79A JUMPI DUP1 PUSH4 0x6352211E EQ PUSH2 0x76B JUMPI DUP1 PUSH4 0x70A08231 EQ PUSH2 0x717 JUMPI DUP1 PUSH4 0x8EA42286 EQ PUSH2 0x4A7 JUMPI DUP1 PUSH4 0x95D89B41 EQ PUSH2 0x3C4 JUMPI DUP1 PUSH4 0xA22CB465 EQ PUSH2 0x30D JUMPI DUP1 PUSH4 0xB88D4FDE EQ PUSH2 0x2A0 JUMPI DUP1 PUSH4 0xC5053712 EQ PUSH2 0x263 JUMPI DUP1 PUSH4 0xC87B56DD EQ PUSH2 0x231 JUMPI DUP1 PUSH4 0xCB4799F2 EQ PUSH2 0x1B8 JUMPI DUP1 PUSH4 0xE985E9C5 EQ PUSH2 0x16A JUMPI PUSH4 0xF2C298BE EQ PUSH2 0xF0 JUMPI PUSH0 DUP1 REVERT JUMPDEST CALLVALUE PUSH2 0x166 JUMPI PUSH1 0x20 CALLDATASIZE PUSH1 0x3 NOT ADD SLT PUSH2 0x166 JUMPI DUP2 CALLDATALOAD PUSH8 0xFFFFFFFFFFFFFFFF DUP2 GT PUSH2 0x166 JUMPI PUSH2 0x136 PUSH2 0x127 PUSH1 0x20 SWAP5 PUSH2 0x13B SWAP4 CALLDATASIZE SWAP2 ADD PUSH2 0xCD7 JUMP JUMPDEST PUSH2 0x12F PUSH2 0x121C JUMP JUMPDEST CALLDATASIZE SWAP2 PUSH2 0xD73 JUMP JUMPDEST PUSH2 0x125E JUMP JUMPDEST SWAP1 PUSH1 0x1 PUSH32 0x9B779B17422D0DF92223018B32B4D1FA46E071723D6817E2486D003BECC55F00 SSTORE MLOAD SWAP1 DUP2 MSTORE RETURN JUMPDEST PUSH0 DUP1 REVERT JUMPDEST POP CALLVALUE PUSH2 0x166 JUMPI DUP1 PUSH1 0x3 NOT CALLDATASIZE ADD SLT PUSH2 0x166 JUMPI PUSH1 0x20 SWAP1 PUSH2 0x186 PUSH2 0xC76 JUMP JUMPDEST PUSH2 0x18E PUSH2 0xC8C JUMP JUMPDEST SWAP1 PUSH1 0x1 DUP1 PUSH1 0xA0 SHL SUB DUP1 SWAP2 AND PUSH0 MSTORE PUSH1 0x5 DUP5 MSTORE DUP3 PUSH0 KECCAK256 SWAP2 AND PUSH0 MSTORE DUP3 MSTORE PUSH1 0xFF DUP2 PUSH0 KECCAK256 SLOAD AND SWAP1 MLOAD SWAP1 ISZERO ISZERO DUP2 MSTORE RETURN JUMPDEST POP CALLVALUE PUSH2 0x166 JUMPI DUP1 PUSH1 0x3 NOT CALLDATASIZE ADD SLT PUSH2 0x166 JUMPI PUSH1 0x24 CALLDATALOAD SWAP1 PUSH8 0xFFFFFFFFFFFFFFFF DUP3 GT PUSH2 0x166 JUMPI PUSH2 0x21B PUSH2 0x209 PUSH2 0x22D SWAP5 PUSH2 0x1F6 PUSH2 0x214 SWAP6 CALLDATASIZE SWAP1 DUP4 ADD PUSH2 0xCD7 JUMP JUMPDEST SWAP1 SWAP2 CALLDATALOAD PUSH0 MSTORE PUSH1 0x8 PUSH1 0x20 MSTORE DUP5 PUSH0 KECCAK256 SWAP2 PUSH2 0x1008 JUMP JUMPDEST DUP3 MLOAD SWAP4 DUP5 DUP1 SWAP3 PUSH2 0xDE1 JUMP JUMPDEST SUB DUP4 PUSH2 0xD35 JUMP JUMPDEST MLOAD SWAP2 DUP3 SWAP2 PUSH1 0x20 DUP4 MSTORE PUSH1 0x20 DUP4 ADD SWAP1 PUSH2 0xC51 JUMP JUMPDEST SUB SWAP1 RETURN JUMPDEST POP CALLVALUE PUSH2 0x166 JUMPI PUSH1 0x20 CALLDATASIZE PUSH1 0x3 NOT ADD SLT PUSH2 0x166 JUMPI PUSH2 0x250 PUSH2 0x22D SWAP3 CALLDATALOAD PUSH2 0x1123 JUMP JUMPDEST SWAP1 MLOAD SWAP2 DUP3 SWAP2 PUSH1 0x20 DUP4 MSTORE PUSH1 0x20 DUP4 ADD SWAP1 PUSH2 0xC51 JUMP JUMPDEST POP CALLVALUE PUSH2 0x166 JUMPI PUSH0 CALLDATASIZE PUSH1 0x3 NOT ADD SLT PUSH2 0x166 JUMPI PUSH1 0x7 SLOAD PUSH0 NOT DUP2 ADD SWAP2 SWAP1 DUP3 GT PUSH2 0x28D JUMPI PUSH1 0x20 SWAP3 POP MLOAD SWAP1 DUP2 MSTORE RETURN JUMPDEST PUSH1 0x11 DUP4 PUSH4 0x4E487B71 PUSH1 0xE0 SHL PUSH0 MSTORE MSTORE PUSH1 0x24 PUSH0 REVERT JUMPDEST DUP3 CALLVALUE PUSH2 0x166 JUMPI PUSH1 0x80 CALLDATASIZE PUSH1 0x3 NOT ADD SLT PUSH2 0x166 JUMPI PUSH2 0x2BA PUSH2 0xC76 JUMP JUMPDEST PUSH2 0x2C2 PUSH2 0xC8C JUMP JUMPDEST PUSH1 0x44 CALLDATALOAD SWAP1 PUSH1 0x64 CALLDATALOAD PUSH8 0xFFFFFFFFFFFFFFFF DUP2 GT PUSH2 0x166 JUMPI CALLDATASIZE PUSH1 0x23 DUP3 ADD SLT ISZERO PUSH2 0x166 JUMPI PUSH2 0x30B SWAP5 DUP2 PUSH1 0x24 PUSH2 0x2F9 SWAP4 CALLDATASIZE SWAP4 ADD CALLDATALOAD SWAP2 ADD PUSH2 0xD73 JUMP JUMPDEST SWAP3 PUSH2 0x305 DUP4 DUP4 DUP4 PUSH2 0xE72 JUMP JUMPDEST CALLER PUSH2 0x1633 JUMP JUMPDEST STOP JUMPDEST POP CALLVALUE PUSH2 0x166 JUMPI DUP1 PUSH1 0x3 NOT CALLDATASIZE ADD SLT PUSH2 0x166 JUMPI PUSH2 0x326 PUSH2 0xC76 JUMP JUMPDEST SWAP1 PUSH1 0x24 CALLDATALOAD SWAP2 DUP3 ISZERO ISZERO DUP1 SWAP4 SUB PUSH2 0x166 JUMPI CALLER ISZERO PUSH2 0x3AE JUMPI PUSH1 0x1 PUSH1 0x1 PUSH1 0xA0 SHL SUB AND SWAP3 DUP4 ISZERO PUSH2 0x399 JUMPI POP CALLER PUSH0 MSTORE PUSH1 0x5 PUSH1 0x20 MSTORE DUP1 PUSH0 KECCAK256 DUP4 PUSH0 MSTORE PUSH1 0x20 MSTORE DUP1 PUSH0 KECCAK256 PUSH1 0xFF NOT DUP2 SLOAD AND PUSH1 0xFF DUP5 AND OR SWAP1 SSTORE MLOAD SWAP1 DUP2 MSTORE PUSH32 0x17307EAB39AB6107E8899845AD3D59BD9653F200F220920489CA2B5937696C31 PUSH1 0x20 CALLER SWAP3 LOG3 STOP JUMPDEST DUP4 PUSH1 0x24 SWAP3 MLOAD SWAP2 PUSH4 0xB611743 PUSH1 0xE3 SHL DUP4 MSTORE DUP3 ADD MSTORE REVERT JUMPDEST DUP2 MLOAD PUSH4 0xA9FBF51F PUSH1 0xE0 SHL DUP2 MSTORE PUSH0 DUP2 DUP7 ADD MSTORE PUSH1 0x24 SWAP1 REVERT JUMPDEST POP CALLVALUE PUSH2 0x166 JUMPI PUSH0 CALLDATASIZE PUSH1 0x3 NOT ADD SLT PUSH2 0x166 JUMPI DUP1 MLOAD SWAP1 PUSH0 SWAP1 DUP3 PUSH1 0x1 SWAP3 PUSH1 0x1 SLOAD SWAP4 PUSH2 0x3EB DUP6 PUSH2 0xDA9 JUMP JUMPDEST SWAP1 DUP2 DUP5 MSTORE PUSH1 0x20 SWAP6 DUP7 PUSH1 0x1 DUP3 AND SWAP2 DUP3 PUSH0 EQ PUSH2 0x485 JUMPI POP POP PUSH1 0x1 EQ PUSH2 0x42A JUMPI JUMPDEST POP POP PUSH2 0x22D SWAP3 SWAP2 PUSH2 0x41B SWAP2 SUB DUP6 PUSH2 0xD35 JUMP JUMPDEST MLOAD SWAP3 DUP3 DUP5 SWAP4 DUP5 MSTORE DUP4 ADD SWAP1 PUSH2 0xC51 JUMP JUMPDEST SWAP1 DUP6 SWAP3 POP PUSH1 0x1 PUSH0 MSTORE PUSH32 0xB10E2D527612073B26EECDFD717E6A320CF44B4AFAC2B0732D9FCBE2B7FA0CF6 SWAP2 PUSH0 SWAP3 JUMPDEST DUP3 DUP5 LT PUSH2 0x46D JUMPI POP POP POP DUP3 ADD ADD DUP2 PUSH2 0x41B PUSH2 0x409 JUMP JUMPDEST DUP1 SLOAD DUP5 DUP11 ADD DUP7 ADD MSTORE DUP9 SWAP6 POP DUP8 SWAP5 SWAP1 SWAP4 ADD SWAP3 DUP2 ADD PUSH2 0x457 JUMP JUMPDEST PUSH1 0xFF NOT AND DUP7 DUP3 ADD MSTORE SWAP3 ISZERO ISZERO PUSH1 0x5 SHL DUP6 ADD SWAP1 SWAP3 ADD SWAP3 POP DUP4 SWAP2 POP PUSH2 0x41B SWAP1 POP PUSH2 0x409 JUMP JUMPDEST POP CALLVALUE PUSH2 0x166 JUMPI DUP1 PUSH1 0x3 NOT CALLDATASIZE ADD SLT PUSH2 0x166 JUMPI PUSH8 0xFFFFFFFFFFFFFFFF SWAP1 DUP3 CALLDATALOAD DUP3 DUP2 GT PUSH2 0x166 JUMPI PUSH2 0x4D8 SWAP1 CALLDATASIZE SWAP1 DUP6 ADD PUSH2 0xCD7 JUMP JUMPDEST PUSH1 0x24 SWAP2 PUSH1 0x24 CALLDATALOAD SWAP1 DUP6 DUP3 GT PUSH2 0x166 JUMPI CALLDATASIZE PUSH1 0x23 DUP4 ADD SLT ISZERO PUSH2 0x166 JUMPI DUP2 DUP8 ADD CALLDATALOAD SWAP3 DUP7 DUP5 GT PUSH2 0x166 JUMPI PUSH1 0x24 DUP4 ADD SWAP3 PUSH1 0x24 CALLDATASIZE SWAP2 DUP7 PUSH1 0x5 SHL ADD ADD GT PUSH2 0x166 JUMPI PUSH2 0x521 SWAP2 PUSH2 0x136 SWAP2 PUSH2 0x12F PUSH2 0x121C JUMP JUMPDEST SWAP5 PUSH0 JUMPDEST DUP4 DUP2 LT PUSH2 0x559 JUMPI PUSH1 0x20 DUP8 DUP8 PUSH1 0x1 PUSH32 0x9B779B17422D0DF92223018B32B4D1FA46E071723D6817E2486D003BECC55F00 SSTORE MLOAD SWAP1 DUP2 MSTORE RETURN JUMPDEST PUSH2 0x564 DUP2 DUP6 DUP6 PUSH2 0x10BA JUMP JUMPDEST PUSH2 0x573 PUSH1 0x20 SWAP2 DUP3 DUP2 ADD SWAP1 PUSH2 0x10F0 JUMP JUMPDEST DUP10 PUSH0 MSTORE PUSH1 0x8 DUP4 MSTORE PUSH2 0x59A DUP10 PUSH0 KECCAK256 PUSH2 0x594 PUSH2 0x58E DUP8 DUP12 DUP12 PUSH2 0x10BA JUMP JUMPDEST DUP1 PUSH2 0x10F0 JUMP JUMPDEST SWAP1 PUSH2 0x1008 JUMP JUMPDEST SWAP2 DUP6 DUP3 GT PUSH2 0x705 JUMPI DUP8 SWAP5 SWAP4 DUP4 DUP4 DUP10 SWAP4 PUSH2 0x5C0 DUP16 SWAP7 DUP16 SWAP9 PUSH2 0x5BA SWAP1 SLOAD PUSH2 0xDA9 JUMP JUMPDEST DUP6 PUSH2 0x1021 JUMP JUMPDEST PUSH0 SWAP1 PUSH1 0x1F DUP4 GT PUSH1 0x1 EQ PUSH2 0x672 JUMPI SWAP4 PUSH0 DUP1 MLOAD PUSH1 0x20 PUSH2 0x1778 DUP4 CODECOPY DUP2 MLOAD SWAP2 MSTORE SWAP6 SWAP4 PUSH2 0x609 DUP5 PUSH2 0x65E SWAP6 PUSH2 0x640 SWAP6 PUSH1 0x1 SWAP15 SWAP10 PUSH0 SWAP3 PUSH2 0x667 JUMPI JUMPDEST POP POP DUP2 PUSH1 0x1 SHL SWAP2 PUSH0 NOT SWAP1 PUSH1 0x3 SHL SHR NOT AND OR SWAP1 JUMP JUMPDEST SWAP1 SSTORE JUMPDEST PUSH2 0x61A PUSH2 0x58E DUP11 DUP8 DUP8 PUSH2 0x10BA JUMP JUMPDEST SWAP3 SWAP1 SWAP2 PUSH2 0x637 DUP12 PUSH2 0x62F PUSH2 0x58E DUP3 DUP12 DUP12 PUSH2 0x10BA JUMP JUMPDEST SWAP10 SWAP1 SWAP9 PUSH2 0x10BA JUMP JUMPDEST SWAP1 DUP2 ADD SWAP1 PUSH2 0x10F0 JUMP JUMPDEST SWAP3 SWAP1 SWAP2 DUP2 DUP11 MLOAD SWAP3 DUP4 SWAP3 DUP4 CALLDATACOPY DUP2 ADD PUSH0 DUP2 MSTORE SUB SWAP1 KECCAK256 SWAP8 MLOAD SWAP5 DUP6 SWAP5 DUP6 PUSH2 0x1090 JUMP JUMPDEST SUB SWAP1 LOG3 ADD PUSH2 0x524 JUMP JUMPDEST ADD CALLDATALOAD SWAP1 POP PUSH0 DUP1 PUSH2 0x5F5 JUMP JUMPDEST PUSH1 0x1F NOT DUP4 AND SWAP2 DUP5 PUSH0 MSTORE DUP6 PUSH0 KECCAK256 SWAP3 PUSH0 JUMPDEST DUP2 DUP2 LT PUSH2 0x6D6 JUMPI POP SWAP4 PUSH2 0x640 SWAP4 PUSH1 0x1 SWAP13 SWAP8 SWAP4 PUSH0 DUP1 MLOAD PUSH1 0x20 PUSH2 0x1778 DUP4 CODECOPY DUP2 MLOAD SWAP2 MSTORE SWAP10 SWAP8 SWAP4 DUP4 PUSH2 0x65E SWAP9 LT PUSH2 0x6BD JUMPI JUMPDEST POP POP POP DUP12 SHL DUP12 ADD SWAP1 SSTORE PUSH2 0x60C JUMP JUMPDEST ADD CALLDATALOAD PUSH0 NOT PUSH1 0x3 DUP5 SWAP1 SHL PUSH1 0xF8 AND SHR NOT AND SWAP1 SSTORE PUSH0 DUP1 DUP1 PUSH2 0x6AF JUMP JUMPDEST SWAP6 SWAP10 POP SWAP4 SWAP8 POP SWAP6 POP SWAP4 DUP1 SWAP9 SWAP10 POP PUSH1 0x1 DUP2 SWAP3 DUP8 DUP8 ADD CALLDATALOAD DUP2 SSTORE ADD SWAP6 ADD SWAP3 ADD SWAP4 DUP12 SWAP9 SWAP8 SWAP4 DUP16 SWAP7 SWAP3 SWAP4 DUP16 SWAP9 SWAP5 DUP14 SWAP8 PUSH2 0x681 JUMP JUMPDEST DUP9 PUSH1 0x41 DUP14 PUSH4 0x4E487B71 PUSH1 0xE0 SHL PUSH0 MSTORE MSTORE PUSH0 REVERT JUMPDEST POP CALLVALUE PUSH2 0x166 JUMPI PUSH1 0x20 CALLDATASIZE PUSH1 0x3 NOT ADD SLT PUSH2 0x166 JUMPI PUSH1 0x1 PUSH1 0x1 PUSH1 0xA0 SHL SUB PUSH2 0x739 PUSH2 0xC76 JUMP JUMPDEST AND DUP1 ISZERO PUSH2 0x755 JUMPI PUSH1 0x20 SWAP3 POP PUSH0 MSTORE PUSH1 0x3 DUP3 MSTORE DUP1 PUSH0 KECCAK256 SLOAD SWAP1 MLOAD SWAP1 DUP2 MSTORE RETURN JUMPDEST DUP2 MLOAD PUSH4 0x22718AD9 PUSH1 0xE2 SHL DUP2 MSTORE PUSH0 DUP2 DUP6 ADD MSTORE PUSH1 0x24 SWAP1 REVERT JUMPDEST POP CALLVALUE PUSH2 0x166 JUMPI PUSH1 0x20 CALLDATASIZE PUSH1 0x3 NOT ADD SLT PUSH2 0x166 JUMPI PUSH2 0x789 PUSH1 0x20 SWAP3 CALLDATALOAD PUSH2 0x11E2 JUMP JUMPDEST SWAP1 MLOAD PUSH1 0x1 PUSH1 0x1 PUSH1 0xA0 SHL SUB SWAP1 SWAP2 AND DUP2 MSTORE RETURN JUMPDEST POP SWAP1 CALLVALUE PUSH2 0x166 JUMPI PUSH1 0x60 CALLDATASIZE PUSH1 0x3 NOT ADD SLT PUSH2 0x166 JUMPI DUP1 CALLDATALOAD SWAP1 PUSH8 0xFFFFFFFFFFFFFFFF SWAP1 PUSH1 0x24 CALLDATALOAD DUP3 DUP2 GT PUSH2 0x166 JUMPI PUSH2 0x7D1 SWAP1 CALLDATASIZE SWAP1 DUP4 ADD PUSH2 0xCD7 JUMP JUMPDEST SWAP3 SWAP1 SWAP2 PUSH1 0x44 CALLDATALOAD DUP3 DUP2 GT PUSH2 0x166 JUMPI PUSH2 0x7EB SWAP1 CALLDATASIZE SWAP1 DUP4 ADD PUSH2 0xCD7 JUMP JUMPDEST SWAP3 SWAP1 SWAP2 PUSH2 0x7F7 DUP8 PUSH2 0x11E2 JUMP JUMPDEST CALLER PUSH1 0x1 PUSH1 0x1 PUSH1 0xA0 SHL SUB SWAP1 SWAP2 AND SUB PUSH2 0x93B JUMPI DUP7 PUSH0 MSTORE PUSH1 0x20 SWAP1 PUSH1 0x8 PUSH1 0x20 MSTORE PUSH2 0x820 DUP10 PUSH0 KECCAK256 DUP9 DUP9 PUSH2 0x1008 JUMP JUMPDEST SWAP3 DUP6 GT PUSH2 0x928 JUMPI POP PUSH2 0x83C DUP5 PUSH2 0x836 DUP5 SLOAD PUSH2 0xDA9 JUMP JUMPDEST DUP5 PUSH2 0x1021 JUMP JUMPDEST PUSH0 SWAP1 PUSH1 0x1F DUP6 GT PUSH1 0x1 EQ PUSH2 0x8AE JUMPI POP SWAP2 DUP4 SWAP2 PUSH2 0x880 DUP4 PUSH0 DUP1 MLOAD PUSH1 0x20 PUSH2 0x1778 DUP4 CODECOPY DUP2 MLOAD SWAP2 MSTORE SWAP9 SWAP8 SWAP7 PUSH2 0x89E SWAP7 PUSH0 SWAP2 PUSH2 0x8A3 JUMPI JUMPDEST POP DUP2 PUSH1 0x1 SHL SWAP2 PUSH0 NOT SWAP1 PUSH1 0x3 SHL SHR NOT AND OR SWAP1 JUMP JUMPDEST SWAP1 SSTORE JUMPDEST DUP8 MLOAD DUP6 DUP6 DUP3 CALLDATACOPY DUP1 DUP7 DUP2 ADD PUSH0 DUP2 MSTORE SUB SWAP1 KECCAK256 SWAP8 MLOAD SWAP5 DUP6 SWAP5 DUP6 PUSH2 0x1090 JUMP JUMPDEST SUB SWAP1 LOG3 STOP JUMPDEST SWAP1 POP DUP5 ADD CALLDATALOAD PUSH0 PUSH2 0x86D JUMP JUMPDEST SWAP1 PUSH1 0x1F NOT DUP6 AND DUP4 PUSH0 MSTORE PUSH1 0x20 PUSH0 KECCAK256 SWAP3 PUSH0 SWAP1 JUMPDEST DUP3 DUP3 LT PUSH2 0x910 JUMPI POP POP SWAP2 DUP6 SWAP4 SWAP2 PUSH0 DUP1 MLOAD PUSH1 0x20 PUSH2 0x1778 DUP4 CODECOPY DUP2 MLOAD SWAP2 MSTORE SWAP9 SWAP8 SWAP7 PUSH2 0x89E SWAP7 SWAP5 LT PUSH2 0x8F7 JUMPI JUMPDEST POP POP PUSH1 0x1 DUP4 DUP2 SHL ADD SWAP1 SSTORE PUSH2 0x883 JUMP JUMPDEST DUP4 ADD CALLDATALOAD PUSH0 NOT PUSH1 0x3 DUP7 SWAP1 SHL PUSH1 0xF8 AND SHR NOT AND SWAP1 SSTORE PUSH0 DUP1 PUSH2 0x8E8 JUMP JUMPDEST DUP1 PUSH1 0x1 DUP6 SWAP7 DUP3 SWAP5 SWAP7 DUP11 ADD CALLDATALOAD DUP2 SSTORE ADD SWAP6 ADD SWAP4 ADD SWAP1 PUSH2 0x8BF JUMP JUMPDEST PUSH1 0x41 SWAP1 PUSH4 0x4E487B71 PUSH1 0xE0 SHL PUSH0 MSTORE MSTORE PUSH1 0x24 PUSH0 REVERT JUMPDEST PUSH1 0x64 SWAP1 PUSH1 0x20 DUP10 MLOAD SWAP2 PUSH3 0x461BCD PUSH1 0xE5 SHL DUP4 MSTORE DUP3 ADD MSTORE PUSH1 0x14 PUSH1 0x24 DUP3 ADD MSTORE PUSH20 0x20A4A91D103737BA1030B3B2B73A1037BBB732B9 PUSH1 0x61 SHL PUSH1 0x44 DUP3 ADD MSTORE REVERT JUMPDEST POP CALLVALUE PUSH2 0x166 JUMPI PUSH2 0x30B SWAP1 PUSH2 0x988 CALLDATASIZE PUSH2 0xCA2 JUMP JUMPDEST SWAP2 SWAP3 MLOAD SWAP3 PUSH2 0x995 DUP5 PUSH2 0xD05 JUMP JUMPDEST PUSH0 DUP5 MSTORE PUSH2 0x305 DUP4 DUP4 DUP4 PUSH2 0xE72 JUMP JUMPDEST CALLVALUE PUSH2 0x166 JUMPI PUSH2 0x30B PUSH2 0x9B4 CALLDATASIZE PUSH2 0xCA2 JUMP JUMPDEST SWAP2 PUSH2 0xE72 JUMP JUMPDEST POP CALLVALUE PUSH2 0x166 JUMPI PUSH0 CALLDATASIZE PUSH1 0x3 NOT ADD SLT PUSH2 0x166 JUMPI PUSH1 0x20 SWAP1 PUSH2 0x9D6 PUSH2 0x121C JUMP JUMPDEST PUSH2 0x13B DUP2 MLOAD PUSH2 0x9E4 DUP2 PUSH2 0xD05 JUMP JUMPDEST PUSH0 DUP2 MSTORE PUSH2 0x125E JUMP JUMPDEST POP CALLVALUE PUSH2 0x166 JUMPI DUP1 PUSH1 0x3 NOT CALLDATASIZE ADD SLT PUSH2 0x166 JUMPI PUSH2 0xA05 PUSH2 0xC76 JUMP JUMPDEST SWAP2 PUSH1 0x24 CALLDATALOAD PUSH2 0xA12 DUP2 PUSH2 0x11E2 JUMP JUMPDEST CALLER ISZERO ISZERO DUP1 PUSH2 0xAB4 JUMPI JUMPDEST DUP1 PUSH2 0xA8D JUMPI JUMPDEST PUSH2 0xA77 JUMPI PUSH1 0x1 PUSH1 0x1 PUSH1 0xA0 SHL SUB SWAP5 DUP6 AND SWAP5 DUP3 SWAP2 DUP7 SWAP2 AND PUSH32 0x8C5BE1E5EBEC7D5BD14F71427D1E84F3DD0314C0F7B2291E5B200AC8C7C3B925 PUSH0 DUP1 LOG4 PUSH0 MSTORE PUSH1 0x20 MSTORE PUSH0 KECCAK256 SWAP1 PUSH1 0x1 PUSH1 0x1 PUSH1 0x60 SHL SUB PUSH1 0xA0 SHL DUP3 SLOAD AND OR SWAP1 SSTORE PUSH0 DUP1 RETURN JUMPDEST DUP4 MLOAD PUSH4 0xA9FBF51F PUSH1 0xE0 SHL DUP2 MSTORE CALLER DUP2 DUP6 ADD MSTORE PUSH1 0x24 SWAP1 REVERT JUMPDEST POP PUSH1 0x1 DUP1 PUSH1 0xA0 SHL SUB DUP2 AND PUSH0 MSTORE PUSH1 0x5 PUSH1 0x20 MSTORE DUP4 PUSH0 KECCAK256 CALLER PUSH0 MSTORE PUSH1 0x20 MSTORE PUSH1 0xFF DUP5 PUSH0 KECCAK256 SLOAD AND ISZERO PUSH2 0xA21 JUMP JUMPDEST POP PUSH1 0x1 PUSH1 0x1 PUSH1 0xA0 SHL SUB DUP2 AND CALLER EQ ISZERO PUSH2 0xA1B JUMP JUMPDEST POP CALLVALUE PUSH2 0x166 JUMPI PUSH1 0x20 CALLDATASIZE PUSH1 0x3 NOT ADD SLT PUSH2 0x166 JUMPI DUP2 PUSH1 0x20 SWAP3 CALLDATALOAD PUSH2 0xAE7 DUP2 PUSH2 0x11E2 JUMP JUMPDEST POP PUSH0 MSTORE DUP3 MSTORE PUSH1 0x1 DUP1 PUSH1 0xA0 SHL SUB DUP2 PUSH0 KECCAK256 SLOAD AND SWAP1 MLOAD SWAP1 DUP2 MSTORE RETURN JUMPDEST POP CALLVALUE PUSH2 0x166 JUMPI PUSH0 CALLDATASIZE PUSH1 0x3 NOT ADD SLT PUSH2 0x166 JUMPI DUP1 MLOAD SWAP1 PUSH0 SWAP1 DUP3 PUSH0 SLOAD SWAP3 PUSH2 0xB22 DUP5 PUSH2 0xDA9 JUMP JUMPDEST DUP1 DUP4 MSTORE PUSH1 0x20 SWAP5 PUSH1 0x1 SWAP1 DUP7 PUSH1 0x1 DUP3 AND SWAP2 DUP3 PUSH0 EQ PUSH2 0x485 JUMPI POP POP PUSH1 0x1 EQ PUSH2 0xB53 JUMPI POP POP PUSH2 0x22D SWAP3 SWAP2 PUSH2 0x41B SWAP2 SUB DUP6 PUSH2 0xD35 JUMP JUMPDEST PUSH0 DUP1 DUP1 MSTORE DUP7 SWAP4 POP SWAP2 SWAP1 PUSH32 0x290DECD9548B62A8D60345A988386FC84BA6BC95484008F6362F93160EF3E563 JUMPDEST DUP3 DUP5 LT PUSH2 0xB94 JUMPI POP POP POP DUP3 ADD ADD DUP2 PUSH2 0x41B PUSH2 0x409 JUMP JUMPDEST DUP1 SLOAD DUP5 DUP11 ADD DUP7 ADD MSTORE DUP9 SWAP6 POP DUP8 SWAP5 SWAP1 SWAP4 ADD SWAP3 DUP2 ADD PUSH2 0xB7E JUMP JUMPDEST DUP4 CALLVALUE PUSH2 0x166 JUMPI PUSH1 0x20 CALLDATASIZE PUSH1 0x3 NOT ADD SLT PUSH2 0x166 JUMPI CALLDATALOAD SWAP1 PUSH4 0xFFFFFFFF PUSH1 0xE0 SHL DUP3 AND DUP1 SWAP3 SUB PUSH2 0x166 JUMPI PUSH1 0x20 SWAP2 PUSH4 0x24832483 PUSH1 0xE1 SHL DUP2 EQ SWAP1 DUP2 ISZERO PUSH2 0xBED JUMPI JUMPDEST POP ISZERO ISZERO DUP2 MSTORE RETURN JUMPDEST PUSH4 0x80AC58CD PUSH1 0xE0 SHL DUP2 EQ SWAP2 POP DUP2 ISZERO PUSH2 0xC1F JUMPI JUMPDEST DUP2 ISZERO PUSH2 0xC0E JUMPI JUMPDEST POP DUP4 PUSH2 0xBE6 JUMP JUMPDEST PUSH4 0x1FFC9A7 PUSH1 0xE0 SHL EQ SWAP1 POP DUP4 PUSH2 0xC07 JUMP JUMPDEST PUSH4 0x5B5E139F PUSH1 0xE0 SHL DUP2 EQ SWAP2 POP PUSH2 0xC00 JUMP JUMPDEST PUSH0 JUMPDEST DUP4 DUP2 LT PUSH2 0xC41 JUMPI POP POP PUSH0 SWAP2 ADD MSTORE JUMP JUMPDEST DUP2 DUP2 ADD MLOAD DUP4 DUP3 ADD MSTORE PUSH1 0x20 ADD PUSH2 0xC32 JUMP JUMPDEST SWAP1 PUSH1 0x20 SWAP2 PUSH2 0xC6A DUP2 MLOAD DUP1 SWAP3 DUP2 DUP6 MSTORE DUP6 DUP1 DUP7 ADD SWAP2 ADD PUSH2 0xC30 JUMP JUMPDEST PUSH1 0x1F ADD PUSH1 0x1F NOT AND ADD ADD SWAP1 JUMP JUMPDEST PUSH1 0x4 CALLDATALOAD SWAP1 PUSH1 0x1 PUSH1 0x1 PUSH1 0xA0 SHL SUB DUP3 AND DUP3 SUB PUSH2 0x166 JUMPI JUMP JUMPDEST PUSH1 0x24 CALLDATALOAD SWAP1 PUSH1 0x1 PUSH1 0x1 PUSH1 0xA0 SHL SUB DUP3 AND DUP3 SUB PUSH2 0x166 JUMPI JUMP JUMPDEST PUSH1 0x60 SWAP1 PUSH1 0x3 NOT ADD SLT PUSH2 0x166 JUMPI PUSH1 0x1 PUSH1 0x1 PUSH1 0xA0 SHL SUB SWAP1 PUSH1 0x4 CALLDATALOAD DUP3 DUP2 AND DUP2 SUB PUSH2 0x166 JUMPI SWAP2 PUSH1 0x24 CALLDATALOAD SWAP1 DUP2 AND DUP2 SUB PUSH2 0x166 JUMPI SWAP1 PUSH1 0x44 CALLDATALOAD SWAP1 JUMP JUMPDEST SWAP2 DUP2 PUSH1 0x1F DUP5 ADD SLT ISZERO PUSH2 0x166 JUMPI DUP3 CALLDATALOAD SWAP2 PUSH8 0xFFFFFFFFFFFFFFFF DUP4 GT PUSH2 0x166 JUMPI PUSH1 0x20 DUP4 DUP2 DUP7 ADD SWAP6 ADD ADD GT PUSH2 0x166 JUMPI JUMP JUMPDEST PUSH1 0x20 DUP2 ADD SWAP1 DUP2 LT PUSH8 0xFFFFFFFFFFFFFFFF DUP3 GT OR PUSH2 0xD21 JUMPI PUSH1 0x40 MSTORE JUMP JUMPDEST PUSH4 0x4E487B71 PUSH1 0xE0 SHL PUSH0 MSTORE PUSH1 0x41 PUSH1 0x4 MSTORE PUSH1 0x24 PUSH0 REVERT JUMPDEST SWAP1 PUSH1 0x1F DUP1 NOT SWAP2 ADD AND DUP2 ADD SWAP1 DUP2 LT PUSH8 0xFFFFFFFFFFFFFFFF DUP3 GT OR PUSH2 0xD21 JUMPI PUSH1 0x40 MSTORE JUMP JUMPDEST PUSH8 0xFFFFFFFFFFFFFFFF DUP2 GT PUSH2 0xD21 JUMPI PUSH1 0x1F ADD PUSH1 0x1F NOT AND PUSH1 0x20 ADD SWAP1 JUMP JUMPDEST SWAP3 SWAP2 SWAP3 PUSH2 0xD7F DUP3 PUSH2 0xD57 JUMP JUMPDEST SWAP2 PUSH2 0xD8D PUSH1 0x40 MLOAD SWAP4 DUP5 PUSH2 0xD35 JUMP JUMPDEST DUP3 SWAP5 DUP2 DUP5 MSTORE DUP2 DUP4 ADD GT PUSH2 0x166 JUMPI DUP3 DUP2 PUSH1 0x20 SWAP4 DUP5 PUSH0 SWAP7 ADD CALLDATACOPY ADD ADD MSTORE JUMP JUMPDEST SWAP1 PUSH1 0x1 DUP3 DUP2 SHR SWAP3 AND DUP1 ISZERO PUSH2 0xDD7 JUMPI JUMPDEST PUSH1 0x20 DUP4 LT EQ PUSH2 0xDC3 JUMPI JUMP JUMPDEST PUSH4 0x4E487B71 PUSH1 0xE0 SHL PUSH0 MSTORE PUSH1 0x22 PUSH1 0x4 MSTORE PUSH1 0x24 PUSH0 REVERT JUMPDEST SWAP2 PUSH1 0x7F AND SWAP2 PUSH2 0xDB8 JUMP JUMPDEST DUP1 SLOAD PUSH0 SWAP4 SWAP3 PUSH2 0xDEF DUP3 PUSH2 0xDA9 JUMP JUMPDEST SWAP2 DUP3 DUP3 MSTORE PUSH1 0x20 SWAP4 PUSH1 0x1 SWAP2 PUSH1 0x1 DUP2 AND SWAP1 DUP2 PUSH0 EQ PUSH2 0xE53 JUMPI POP PUSH1 0x1 EQ PUSH2 0xE15 JUMPI JUMPDEST POP POP POP POP POP JUMP JUMPDEST SWAP1 SWAP4 SWAP5 SWAP6 POP PUSH0 SWAP3 SWAP2 SWAP3 MSTORE DUP4 PUSH0 KECCAK256 SWAP3 DUP5 PUSH0 SWAP5 JUMPDEST DUP4 DUP7 LT PUSH2 0xE3F JUMPI POP POP POP POP ADD ADD SWAP1 PUSH0 DUP1 DUP1 DUP1 DUP1 PUSH2 0xE0E JUMP JUMPDEST DUP1 SLOAD DUP6 DUP8 ADD DUP4 ADD MSTORE SWAP5 ADD SWAP4 DUP6 SWAP1 DUP3 ADD PUSH2 0xE27 JUMP JUMPDEST PUSH1 0xFF NOT AND DUP7 DUP6 ADD MSTORE POP POP POP SWAP1 ISZERO ISZERO PUSH1 0x5 SHL ADD ADD SWAP2 POP PUSH0 DUP1 DUP1 DUP1 DUP1 PUSH2 0xE0E JUMP JUMPDEST PUSH1 0x1 PUSH1 0x1 PUSH1 0xA0 SHL SUB SWAP2 DUP3 AND SWAP3 SWAP1 SWAP2 DUP4 ISZERO PUSH2 0xFF0 JUMPI DUP2 PUSH0 MSTORE PUSH1 0x20 SWAP3 PUSH1 0x2 DUP5 MSTORE DUP3 PUSH1 0x40 SWAP6 DUP4 DUP8 PUSH0 KECCAK256 SLOAD AND SWAP6 CALLER ISZERO ISZERO DUP1 PUSH2 0xF5E JUMPI JUMPDEST POP PUSH1 0x2 SWAP1 DUP8 PUSH2 0xF2D JUMPI JUMPDEST DUP3 PUSH0 MSTORE PUSH1 0x3 DUP2 MSTORE DUP9 PUSH0 KECCAK256 PUSH1 0x1 DUP2 SLOAD ADD SWAP1 SSTORE DUP4 PUSH0 MSTORE MSTORE DUP7 PUSH0 KECCAK256 DUP2 PUSH1 0x1 PUSH1 0x1 PUSH1 0x60 SHL SUB PUSH1 0xA0 SHL DUP3 SLOAD AND OR SWAP1 SSTORE DUP6 PUSH32 0xDDF252AD1BE2C89B69C2B068FC378DAA952BA7F163C4A11628F55A4DF523B3EF PUSH0 DUP1 LOG4 AND SWAP3 DUP4 DUP4 SUB PUSH2 0xF0C JUMPI POP POP POP POP JUMP JUMPDEST PUSH1 0x64 SWAP5 POP MLOAD SWAP3 PUSH4 0x64283D7B PUSH1 0xE0 SHL DUP5 MSTORE PUSH1 0x4 DUP5 ADD MSTORE PUSH1 0x24 DUP4 ADD MSTORE PUSH1 0x44 DUP3 ADD MSTORE REVERT JUMPDEST PUSH0 DUP5 DUP2 MSTORE PUSH1 0x4 PUSH1 0x20 MSTORE PUSH1 0x40 DUP2 KECCAK256 DUP1 SLOAD PUSH1 0x1 PUSH1 0x1 PUSH1 0xA0 SHL SUB NOT AND SWAP1 SSTORE DUP9 DUP2 MSTORE PUSH1 0x3 DUP3 MSTORE DUP10 SWAP1 KECCAK256 DUP1 SLOAD PUSH0 NOT ADD SWAP1 SSTORE PUSH2 0xEAE JUMP JUMPDEST SWAP2 SWAP3 POP SWAP1 DUP1 PUSH2 0xFAF JUMPI JUMPDEST ISZERO PUSH2 0xF76 JUMPI SWAP1 DUP5 SWAP2 PUSH0 PUSH2 0xEA4 JUMP JUMPDEST DUP7 DUP6 DUP8 PUSH2 0xF93 JUMPI PUSH1 0x24 SWAP2 MLOAD SWAP1 PUSH4 0x7E273289 PUSH1 0xE0 SHL DUP3 MSTORE PUSH1 0x4 DUP3 ADD MSTORE REVERT JUMPDEST PUSH1 0x44 SWAP2 MLOAD SWAP1 PUSH4 0x177E802F PUSH1 0xE0 SHL DUP3 MSTORE CALLER PUSH1 0x4 DUP4 ADD MSTORE PUSH1 0x24 DUP3 ADD MSTORE REVERT JUMPDEST POP CALLER DUP7 EQ DUP1 ISZERO PUSH2 0xFD4 JUMPI JUMPDEST DUP1 PUSH2 0xF68 JUMPI POP DUP5 PUSH0 MSTORE PUSH1 0x4 DUP2 MSTORE CALLER DUP5 DUP9 PUSH0 KECCAK256 SLOAD AND EQ PUSH2 0xF68 JUMP JUMPDEST POP DUP6 PUSH0 MSTORE PUSH1 0x5 DUP2 MSTORE DUP7 PUSH0 KECCAK256 CALLER PUSH0 MSTORE DUP2 MSTORE PUSH1 0xFF DUP8 PUSH0 KECCAK256 SLOAD AND PUSH2 0xFBA JUMP JUMPDEST PUSH1 0x40 MLOAD PUSH4 0x32505749 PUSH1 0xE1 SHL DUP2 MSTORE PUSH0 PUSH1 0x4 DUP3 ADD MSTORE PUSH1 0x24 SWAP1 REVERT JUMPDEST PUSH1 0x20 SWAP2 SWAP3 DUP4 PUSH1 0x40 MLOAD SWAP5 DUP6 SWAP4 DUP5 CALLDATACOPY DUP3 ADD SWAP1 DUP2 MSTORE SUB ADD SWAP1 KECCAK256 SWAP1 JUMP JUMPDEST PUSH1 0x1F DUP3 GT PUSH2 0x102E JUMPI POP POP POP JUMP JUMPDEST PUSH0 MSTORE PUSH1 0x20 PUSH0 KECCAK256 SWAP1 PUSH1 0x20 PUSH1 0x1F DUP5 ADD PUSH1 0x5 SHR DUP4 ADD SWAP4 LT PUSH2 0x1066 JUMPI JUMPDEST PUSH1 0x1F ADD PUSH1 0x5 SHR ADD SWAP1 JUMPDEST DUP2 DUP2 LT PUSH2 0x105B JUMPI POP POP JUMP JUMPDEST PUSH0 DUP2 SSTORE PUSH1 0x1 ADD PUSH2 0x1050 JUMP JUMPDEST SWAP1 SWAP2 POP DUP2 SWAP1 PUSH2 0x1047 JUMP JUMPDEST SWAP1 DUP1 PUSH1 0x20 SWAP4 SWAP3 DUP2 DUP5 MSTORE DUP5 DUP5 ADD CALLDATACOPY PUSH0 DUP3 DUP3 ADD DUP5 ADD MSTORE PUSH1 0x1F ADD PUSH1 0x1F NOT AND ADD ADD SWAP1 JUMP JUMPDEST SWAP3 SWAP1 PUSH2 0x10A9 SWAP1 PUSH2 0x10B7 SWAP6 SWAP4 PUSH1 0x40 DUP7 MSTORE PUSH1 0x40 DUP7 ADD SWAP2 PUSH2 0x1070 JUMP JUMPDEST SWAP3 PUSH1 0x20 DUP2 DUP6 SUB SWAP2 ADD MSTORE PUSH2 0x1070 JUMP JUMPDEST SWAP1 JUMP JUMPDEST SWAP2 SWAP1 DUP2 LT ISZERO PUSH2 0x10DC JUMPI PUSH1 0x5 SHL DUP2 ADD CALLDATALOAD SWAP1 PUSH1 0x3E NOT DUP2 CALLDATASIZE SUB ADD DUP3 SLT ISZERO PUSH2 0x166 JUMPI ADD SWAP1 JUMP JUMPDEST PUSH4 0x4E487B71 PUSH1 0xE0 SHL PUSH0 MSTORE PUSH1 0x32 PUSH1 0x4 MSTORE PUSH1 0x24 PUSH0 REVERT JUMPDEST SWAP1 CALLDATALOAD SWAP1 PUSH1 0x1E NOT DUP2 CALLDATASIZE SUB ADD DUP3 SLT ISZERO PUSH2 0x166 JUMPI ADD DUP1 CALLDATALOAD SWAP1 PUSH8 0xFFFFFFFFFFFFFFFF DUP3 GT PUSH2 0x166 JUMPI PUSH1 0x20 ADD SWAP2 DUP2 CALLDATASIZE SUB DUP4 SGT PUSH2 0x166 JUMPI JUMP JUMPDEST PUSH2 0x112C DUP2 PUSH2 0x11E2 JUMP JUMPDEST POP PUSH1 0x40 SWAP1 PUSH2 0x115C DUP3 MLOAD PUSH2 0x113E DUP2 PUSH2 0xD05 JUMP JUMPDEST PUSH0 DUP2 MSTORE DUP3 PUSH0 MSTORE PUSH1 0x20 SWAP1 PUSH1 0x6 DUP3 MSTORE PUSH2 0x1163 DUP6 PUSH0 KECCAK256 DUP7 MLOAD SWAP5 DUP6 DUP1 SWAP3 PUSH2 0xDE1 JUMP JUMPDEST SUB DUP5 PUSH2 0xD35 JUMP JUMPDEST DUP1 MLOAD SWAP3 DUP4 ISZERO PUSH2 0x11D9 JUMPI DUP1 MLOAD PUSH2 0x119D JUMPI POP POP POP POP PUSH2 0x117F SWAP1 PUSH2 0x11E2 JUMP JUMPDEST POP PUSH0 DUP2 MLOAD PUSH2 0x118C DUP2 PUSH2 0xD05 JUMP JUMPDEST MSTORE MLOAD PUSH2 0x1197 DUP2 PUSH2 0xD05 JUMP JUMPDEST PUSH0 DUP2 MSTORE SWAP1 JUMP JUMPDEST SWAP1 SWAP2 SWAP3 PUSH2 0x10B7 SWAP5 POP PUSH2 0x11B9 DUP2 SWAP7 MLOAD SWAP7 DUP8 SWAP5 DUP7 DUP1 DUP8 ADD SWAP2 ADD PUSH2 0xC30 JUMP JUMPDEST DUP3 ADD PUSH2 0x11CD DUP3 MLOAD DUP1 SWAP4 DUP7 DUP1 DUP6 ADD SWAP2 ADD PUSH2 0xC30 JUMP JUMPDEST ADD SUB DUP1 DUP5 MSTORE ADD DUP3 PUSH2 0xD35 JUMP JUMPDEST SWAP5 POP POP POP POP POP SWAP1 JUMP JUMPDEST PUSH0 DUP2 DUP2 MSTORE PUSH1 0x2 PUSH1 0x20 MSTORE PUSH1 0x40 SWAP1 KECCAK256 SLOAD PUSH1 0x1 PUSH1 0x1 PUSH1 0xA0 SHL SUB AND SWAP1 DUP2 ISZERO PUSH2 0x1204 JUMPI POP SWAP1 JUMP JUMPDEST PUSH1 0x24 SWAP1 PUSH1 0x40 MLOAD SWAP1 PUSH4 0x7E273289 PUSH1 0xE0 SHL DUP3 MSTORE PUSH1 0x4 DUP3 ADD MSTORE REVERT JUMPDEST PUSH32 0x9B779B17422D0DF92223018B32B4D1FA46E071723D6817E2486D003BECC55F00 PUSH1 0x2 DUP2 SLOAD EQ PUSH2 0x124C JUMPI PUSH1 0x2 SWAP1 SSTORE JUMP JUMPDEST PUSH1 0x40 MLOAD PUSH4 0x3EE5AEB5 PUSH1 0xE0 SHL DUP2 MSTORE PUSH1 0x4 SWAP1 REVERT JUMPDEST PUSH1 0x7 SLOAD PUSH0 NOT SWAP3 SWAP2 SWAP1 DUP4 DUP2 EQ PUSH2 0x161F JUMPI PUSH1 0x1 SWAP2 PUSH1 0x1 DUP3 ADD PUSH1 0x7 SSTORE DUP2 SWAP5 PUSH1 0x40 SWAP1 DUP2 MLOAD SWAP5 PUSH2 0x1288 DUP7 PUSH2 0xD05 JUMP JUMPDEST PUSH0 DUP7 MSTORE CALLER ISZERO PUSH2 0x1608 JUMPI DUP5 PUSH0 MSTORE PUSH1 0x20 SWAP6 PUSH1 0x2 DUP8 MSTORE PUSH1 0x1 DUP1 PUSH1 0xA0 SHL SUB DUP5 PUSH0 KECCAK256 SLOAD AND DUP7 DUP2 ISZERO ISZERO SWAP2 DUP3 PUSH2 0x15D8 JUMPI JUMPDEST CALLER PUSH0 MSTORE PUSH1 0x3 DUP11 MSTORE DUP7 PUSH0 KECCAK256 PUSH1 0x1 DUP2 SLOAD ADD SWAP1 SSTORE DUP2 PUSH0 MSTORE PUSH1 0x2 DUP11 MSTORE DUP7 PUSH0 KECCAK256 CALLER PUSH1 0x1 PUSH1 0x1 PUSH1 0x60 SHL SUB PUSH1 0xA0 SHL DUP3 SLOAD AND OR SWAP1 SSTORE CALLER SWAP1 PUSH32 0xDDF252AD1BE2C89B69C2B068FC378DAA952BA7F163C4A11628F55A4DF523B3EF PUSH0 DUP1 LOG4 PUSH2 0x15C1 JUMPI CALLER EXTCODESIZE PUSH2 0x14A8 JUMPI JUMPDEST POP DUP4 MLOAD PUSH2 0x1356 JUMPI JUMPDEST POP POP PUSH32 0xCA52E62C367D81BB2E328EB795F7C7BA24AFB478408A26C0E201D155C449BC4A SWAP2 PUSH2 0x1351 SWAP2 MLOAD SWAP2 DUP3 SWAP2 DUP7 DUP4 MSTORE CALLER SWAP7 DUP4 ADD SWAP1 PUSH2 0xC51 JUMP JUMPDEST SUB SWAP1 LOG3 JUMP JUMPDEST DUP5 PUSH0 MSTORE PUSH1 0x6 DUP7 MSTORE DUP3 PUSH0 KECCAK256 SWAP2 DUP5 MLOAD SWAP2 PUSH8 0xFFFFFFFFFFFFFFFF DUP4 GT PUSH2 0xD21 JUMPI PUSH2 0x1387 DUP4 PUSH2 0x1381 DUP7 SLOAD PUSH2 0xDA9 JUMP JUMPDEST DUP7 PUSH2 0x1021 JUMP JUMPDEST DUP8 SWAP2 PUSH1 0x1F DUP5 GT PUSH1 0x1 EQ PUSH2 0x141B JUMPI POP POP SWAP2 PUSH2 0x13DC DUP3 PUSH2 0x1351 SWAP6 SWAP4 PUSH32 0xCA52E62C367D81BB2E328EB795F7C7BA24AFB478408A26C0E201D155C449BC4A SWAP8 SWAP6 PUSH0 SWAP2 PUSH2 0x1410 JUMPI POP DUP2 PUSH1 0x1 SHL SWAP2 PUSH0 NOT SWAP1 PUSH1 0x3 SHL SHR NOT AND OR SWAP1 JUMP JUMPDEST SWAP1 SSTORE JUMPDEST PUSH32 0xF8E1A15ABA9398E019F0B49DF1A4FDE98EE17AE345CB5F6B5E2C27F5033E8CE7 DUP7 DUP3 MLOAD DUP8 DUP2 MSTORE LOG1 SWAP2 DUP2 SWAP4 POP PUSH2 0x1318 JUMP JUMPDEST SWAP1 POP DUP6 ADD MLOAD PUSH0 PUSH2 0x86D JUMP JUMPDEST SWAP1 SWAP2 PUSH1 0x1F NOT DUP5 AND DUP6 PUSH0 MSTORE DUP10 PUSH0 KECCAK256 SWAP4 PUSH0 SWAP1 JUMPDEST DUP12 DUP4 DUP4 LT PUSH2 0x1491 JUMPI POP POP POP SWAP3 PUSH1 0x1 SWAP3 DUP6 SWAP3 PUSH2 0x1351 SWAP9 SWAP7 PUSH32 0xCA52E62C367D81BB2E328EB795F7C7BA24AFB478408A26C0E201D155C449BC4A SWAP11 SWAP9 SWAP7 LT PUSH2 0x1479 JUMPI JUMPDEST POP POP POP DUP2 SHL ADD SWAP1 SSTORE PUSH2 0x13DF JUMP JUMPDEST DUP8 ADD MLOAD SWAP1 PUSH1 0xF8 DUP5 PUSH1 0x3 SHL AND SHR NOT AND SWAP1 SSTORE PUSH0 DUP1 DUP1 PUSH2 0x146C JUMP JUMPDEST DUP2 DUP6 SWAP8 DUP3 SWAP4 SWAP5 SWAP7 DUP14 ADD MLOAD DUP2 SSTORE ADD SWAP7 ADD SWAP4 ADD SWAP1 PUSH2 0x142C JUMP JUMPDEST DUP4 SWAP8 SWAP6 SWAP5 SWAP4 SWAP9 SWAP7 SWAP9 MLOAD DUP10 DUP2 DUP1 PUSH2 0x14E6 PUSH4 0xA85BD01 PUSH1 0xE1 SHL SWAP6 DUP7 DUP4 MSTORE CALLER PUSH1 0x4 DUP5 ADD MSTORE PUSH0 PUSH1 0x24 DUP5 ADD MSTORE DUP11 PUSH1 0x44 DUP5 ADD MSTORE PUSH1 0x80 PUSH1 0x64 DUP5 ADD MSTORE PUSH1 0x84 DUP4 ADD SWAP1 PUSH2 0xC51 JUMP JUMPDEST SUB DUP2 PUSH0 CALLER GAS CALL PUSH0 SWAP2 DUP2 PUSH2 0x1581 JUMPI JUMPDEST POP PUSH2 0x154E JUMPI DUP10 DUP10 RETURNDATASIZE ISZERO PUSH2 0x1546 JUMPI RETURNDATASIZE SWAP2 PUSH2 0x150C DUP4 PUSH2 0xD57 JUMP JUMPDEST SWAP3 PUSH2 0x1519 DUP4 MLOAD SWAP5 DUP6 PUSH2 0xD35 JUMP JUMPDEST DUP4 MSTORE RETURNDATASIZE PUSH0 DUP3 DUP6 ADD RETURNDATACOPY JUMPDEST DUP3 MLOAD SWAP3 DUP4 PUSH2 0x1541 JUMPI DUP3 MLOAD PUSH4 0x32505749 PUSH1 0xE1 SHL DUP2 MSTORE CALLER PUSH1 0x4 DUP3 ADD MSTORE PUSH1 0x24 SWAP1 REVERT JUMPDEST ADD SWAP1 POP REVERT JUMPDEST PUSH1 0x60 SWAP2 PUSH2 0x1522 JUMP JUMPDEST PUSH4 0xFFFFFFFF PUSH1 0xE0 SWAP11 SWAP9 SWAP11 SWAP10 SWAP6 SWAP7 SWAP8 SWAP10 SHL AND SUB PUSH2 0x156A JUMPI PUSH0 PUSH2 0x1310 JUMP JUMPDEST DUP3 MLOAD PUSH4 0x32505749 PUSH1 0xE1 SHL DUP2 MSTORE CALLER PUSH1 0x4 DUP3 ADD MSTORE PUSH1 0x24 SWAP1 REVERT JUMPDEST SWAP1 SWAP2 POP DUP11 DUP2 DUP2 RETURNDATASIZE DUP4 GT PUSH2 0x15BA JUMPI JUMPDEST PUSH2 0x1599 DUP2 DUP4 PUSH2 0xD35 JUMP JUMPDEST DUP2 ADD SUB SLT PUSH2 0x166 JUMPI MLOAD PUSH1 0x1 PUSH1 0x1 PUSH1 0xE0 SHL SUB NOT DUP2 AND DUP2 SUB PUSH2 0x166 JUMPI SWAP1 PUSH0 PUSH2 0x14F4 JUMP JUMPDEST POP RETURNDATASIZE PUSH2 0x158F JUMP JUMPDEST DUP4 MLOAD PUSH4 0x39E35637 PUSH1 0xE1 SHL DUP2 MSTORE PUSH0 PUSH1 0x4 DUP3 ADD MSTORE PUSH1 0x24 SWAP1 REVERT JUMPDEST PUSH0 DUP3 DUP2 MSTORE PUSH1 0x4 PUSH1 0x20 MSTORE PUSH1 0x40 SWAP1 KECCAK256 DUP1 SLOAD PUSH1 0x1 PUSH1 0x1 PUSH1 0xA0 SHL SUB NOT AND SWAP1 SSTORE DUP1 PUSH0 MSTORE PUSH1 0x3 DUP11 MSTORE DUP7 PUSH0 KECCAK256 DUP7 DUP2 SLOAD ADD SWAP1 SSTORE PUSH2 0x12B2 JUMP JUMPDEST DUP3 MLOAD PUSH4 0x32505749 PUSH1 0xE1 SHL DUP2 MSTORE PUSH0 PUSH1 0x4 DUP3 ADD MSTORE PUSH1 0x24 SWAP1 REVERT JUMPDEST PUSH4 0x4E487B71 PUSH1 0xE0 SHL PUSH0 MSTORE PUSH1 0x11 PUSH1 0x4 MSTORE PUSH1 0x24 PUSH0 REVERT JUMPDEST SWAP3 SWAP4 SWAP1 SWAP2 SWAP4 DUP5 EXTCODESIZE PUSH2 0x1645 JUMPI POP POP POP POP POP JUMP JUMPDEST PUSH1 0x40 MLOAD PUSH4 0xA85BD01 PUSH1 0xE1 SHL DUP1 DUP3 MSTORE PUSH1 0x1 PUSH1 0x1 PUSH1 0xA0 SHL SUB SWAP6 DUP7 AND PUSH1 0x4 DUP4 ADD MSTORE SWAP4 DUP6 AND PUSH1 0x24 DUP3 ADD MSTORE PUSH1 0x44 DUP2 ADD SWAP2 SWAP1 SWAP2 MSTORE PUSH1 0x80 PUSH1 0x64 DUP3 ADD MSTORE PUSH1 0x20 SWAP6 SWAP5 SWAP1 SWAP4 AND SWAP4 SWAP3 SWAP1 DUP6 SWAP1 DUP3 SWAP1 DUP2 SWAP1 PUSH2 0x1698 SWAP1 PUSH1 0x84 DUP4 ADD SWAP1 PUSH2 0xC51 JUMP JUMPDEST SUB DUP2 PUSH0 DUP9 GAS CALL PUSH0 SWAP2 DUP2 PUSH2 0x1737 JUMPI JUMPDEST POP PUSH2 0x1700 JUMPI POP POP POP RETURNDATASIZE PUSH0 EQ PUSH2 0x16F8 JUMPI RETURNDATASIZE SWAP2 PUSH2 0x16C0 DUP4 PUSH2 0xD57 JUMP JUMPDEST SWAP3 PUSH2 0x16CE PUSH1 0x40 MLOAD SWAP5 DUP6 PUSH2 0xD35 JUMP JUMPDEST DUP4 MSTORE RETURNDATASIZE PUSH0 DUP3 DUP6 ADD RETURNDATACOPY JUMPDEST DUP3 MLOAD SWAP3 DUP4 PUSH2 0x1541 JUMPI PUSH1 0x40 MLOAD PUSH4 0x32505749 PUSH1 0xE1 SHL DUP2 MSTORE PUSH1 0x4 DUP2 ADD DUP5 SWAP1 MSTORE PUSH1 0x24 SWAP1 REVERT JUMPDEST PUSH1 0x60 SWAP2 PUSH2 0x16D7 JUMP JUMPDEST SWAP2 SWAP4 POP PUSH1 0x1 PUSH1 0x1 PUSH1 0xE0 SHL SUB NOT SWAP1 SWAP2 AND SUB PUSH2 0x171F JUMPI POP PUSH0 DUP1 DUP1 DUP1 DUP1 PUSH2 0xE0E JUMP JUMPDEST PUSH1 0x24 SWAP1 PUSH1 0x40 MLOAD SWAP1 PUSH4 0x32505749 PUSH1 0xE1 SHL DUP3 MSTORE PUSH1 0x4 DUP3 ADD MSTORE REVERT JUMPDEST SWAP1 SWAP2 POP DUP6 DUP2 DUP2 RETURNDATASIZE DUP4 GT PUSH2 0x1770 JUMPI JUMPDEST PUSH2 0x174F DUP2 DUP4 PUSH2 0xD35 JUMP JUMPDEST DUP2 ADD SUB SLT PUSH2 0x166 JUMPI MLOAD PUSH1 0x1 PUSH1 0x1 PUSH1 0xE0 SHL SUB NOT DUP2 AND DUP2 SUB PUSH2 0x166 JUMPI SWAP1 PUSH0 PUSH2 0x16A6 JUMP JUMPDEST POP RETURNDATASIZE PUSH2 0x1745 JUMP INVALID 0x2C EQ SWAP15 0xD5 BASEFEE 0xC6 0xD2 SWAP10 EXTCODECOPY 0xD7 RETURNDATACOPY INVALID XOR PUSH30 0xF6ECCABE4538091B33ADBD25FAFDB8A1468BA2646970667358221220B5A5 TSTORE 0x22 0xD5 0xBF SWAP2 0xE2 PUSH6 0x4C750B4CACBA PUSH29 0x5D684A4B4F714695614AFF2CFF00B1D64736F6C634300081800330000 "},"methodIdentifiers":{"approve(address,uint256)":"095ea7b3","balanceOf(address)":"70a08231","getApproved(uint256)":"081812fc","getMetadata(uint256,string)":"cb4799f2","isApprovedForAll(address,address)":"e985e9c5","name()":"06fdde03","ownerOf(uint256)":"6352211e","register()":"1aa3a008","register(string)":"f2c298be","register(string,(string,bytes)[])":"8ea42286","safeTransferFrom(address,address,uint256)":"42842e0e","safeTransferFrom(address,address,uint256,bytes)":"b88d4fde","setApprovalForAll(address,bool)":"a22cb465","setMetadata(uint256,string,bytes)":"466648da","supportsInterface(bytes4)":"01ffc9a7","symbol()":"95d89b41","tokenURI(uint256)":"c87b56dd","totalAgents()":"c5053712","transferFrom(address,address,uint256)":"23b872dd"}}}}}