{"contracts/FollowerRegistry.sol":{"FollowerRegistry":{"abi":[{"anonymous":false,"inputs":[{"indexed":true,"internalType":"address","name":"follower","type":"address"},{"indexed":true,"internalType":"address","name":"leader","type":"address"}],"name":"Followed","type":"event"},{"anonymous":false,"inputs":[{"indexed":true,"internalType":"address","name":"follower","type":"address"},{"indexed":true,"internalType":"address","name":"leader","type":"address"}],"name":"Unfollowed","type":"event"},{"anonymous":false,"inputs":[{"indexed":true,"internalType":"address","name":"user","type":"address"},{"indexed":false,"internalType":"uint256","name":"virtualUsdc","type":"uint256"}],"name":"VaultCreated","type":"event"},{"anonymous":false,"inputs":[{"indexed":true,"internalType":"address","name":"user","type":"address"},{"indexed":false,"internalType":"uint256","name":"virtualUsdc","type":"uint256"}],"name":"VaultReset","type":"event"},{"inputs":[{"internalType":"uint256","name":"virtualUsdc","type":"uint256"}],"name":"createVault","outputs":[],"stateMutability":"nonpayable","type":"function"},{"inputs":[{"internalType":"address","name":"leader","type":"address"}],"name":"follow","outputs":[],"stateMutability":"nonpayable","type":"function"},{"inputs":[{"internalType":"address","name":"","type":"address"},{"internalType":"address","name":"","type":"address"}],"name":"followIndex","outputs":[{"internalType":"uint256","name":"","type":"uint256"}],"stateMutability":"view","type":"function"},{"inputs":[{"internalType":"address","name":"","type":"address"},{"internalType":"uint256","name":"","type":"uint256"}],"name":"followers","outputs":[{"internalType":"address","name":"","type":"address"}],"stateMutability":"view","type":"function"},{"inputs":[{"internalType":"address","name":"","type":"address"},{"internalType":"uint256","name":"","type":"uint256"}],"name":"following","outputs":[{"internalType":"address","name":"","type":"address"}],"stateMutability":"view","type":"function"},{"inputs":[{"internalType":"address","name":"leader","type":"address"}],"name":"getFollowers","outputs":[{"internalType":"address[]","name":"","type":"address[]"}],"stateMutability":"view","type":"function"},{"inputs":[{"internalType":"address","name":"user","type":"address"}],"name":"getFollowing","outputs":[{"internalType":"address[]","name":"","type":"address[]"}],"stateMutability":"view","type":"function"},{"inputs":[{"internalType":"address","name":"user","type":"address"}],"name":"getVault","outputs":[{"internalType":"uint256","name":"virtualUsdc","type":"uint256"},{"internalType":"uint256","name":"startingCapital","type":"uint256"},{"internalType":"bool","name":"exists","type":"bool"}],"stateMutability":"view","type":"function"},{"inputs":[{"internalType":"address","name":"","type":"address"},{"internalType":"address","name":"","type":"address"}],"name":"isFollowing","outputs":[{"internalType":"bool","name":"","type":"bool"}],"stateMutability":"view","type":"function"},{"inputs":[{"internalType":"uint256","name":"virtualUsdc","type":"uint256"}],"name":"resetVault","outputs":[],"stateMutability":"nonpayable","type":"function"},{"inputs":[{"internalType":"address","name":"leader","type":"address"}],"name":"unfollow","outputs":[],"stateMutability":"nonpayable","type":"function"},{"inputs":[{"internalType":"address","name":"","type":"address"}],"name":"vaults","outputs":[{"internalType":"uint256","name":"virtualUsdc","type":"uint256"},{"internalType":"uint256","name":"startingCapital","type":"uint256"},{"internalType":"bool","name":"exists","type":"bool"}],"stateMutability":"view","type":"function"}],"evm":{"bytecode":{"linkReferences":{},"object":"6080806040523461001657610b64908161001b8239f35b5f80fdfe6080604090808252600480361015610015575f80fd5b5f3560e01c918263015a4ead14610796575081630eb9af381461039857816332a694471461074c5781634dbf27cc146105885781639139cda51461054157816399ec3a42146104f35781639abbdf4b146103ef578163a622ee7c14610398578163bdafaeef1461020257508063c2fe202214610187578063d8236dff146100fd5763ebd009d3146100a4575f80fd5b346100f957806003193601126100f9576100bc610905565b906024359160018060a01b038091165f526002602052815f2080548410156100f9576020936100ea91610931565b92905490519260031b1c168152f35b5f80fd5b50346100f9576020806003193601126100f957906001600160a01b039081610123610905565b165f526001926001602052815f209382518094602087549283815201965f5260205f20935f915b8383106101705761016c8888610162828d0383610a5b565b519182918261095a565b0390f35b85548116895297810197948401949184019161014a565b50346100f9576020806003193601126100f957906001600160a01b0390816101ad610905565b165f526002602052805f209281518093602086549283815201955f5260205f20925f915b8383106101e95761016c8787610162828c0383610a5b565b84548116885296810196600194850194909201916101d1565b9050346100f9576020806003193601126100f957813591335f525f825260ff6002855f200154161561036c575061023e620f4240831015610a1c565b335f5260019283825283815f2082518082868294549384815201905f52865f20925f5b868983831061034e575050505061027a92500382610a5b565b5f825b6102f3575b505050335f52838252805f208054905f8155816102d7575b5050827f3a8eabff634bb5475550a20ad9674a38e5fa723f3cea9fa567113bec80cb03ad9394335f525f8452825f208281550155519283523392a2005b5f52825f20908101905b8181101561029a575f815585016102e1565b81518110156103495782906001600160a01b0361031c33826103158588610a7d565b5116610a91565b335f5260038752855f20906103318386610a7d565b51165f528652845f2060ff198154169055018261027d565b610282565b86546001600160a01b03168552958101958795509093019201610261565b60649184519162461bcd60e51b83528201526008602482015267139bc81d985d5b1d60c21b6044820152fd5b82346100f95760203660031901126100f9576001600160a01b036103ba610905565b165f9081526020818152908290208054600182015460029092015493519081529182015260ff90911615156040820152606090f35b82346100f9576020806003193601126100f957823591335f525f825260ff6002825f200154166104bb57610428620f4240841015610a1c565b80516060810181811067ffffffffffffffff8211176104a8577fa510df27d6e51efd91d3f55722bad1f26bf924a63e5dcee07c2ab4c3d4992dcc94955082528481526002838201918683528381019260018452335f525f8652845f2091518255516001820155019051151560ff80198354169116179055519283523392a2005b604186634e487b7160e01b5f525260245ffd5b5162461bcd60e51b8152928301525060146024820152735661756c7420616c72656164792065786973747360601b6044820152606490fd5b82346100f957806003193601126100f95760209061050f610905565b61051761091b565b9060018060a01b038091165f5260038452825f2091165f52825260ff815f20541690519015158152f35b82346100f957806003193601126100f95761055a610905565b906024359160018060a01b038091165f526001602052815f2080548410156100f9576020936100ea91610931565b82346100f9576020806003193601126100f9576105a3610905565b335f525f825260ff6002845f200154161561071557335f5260038252825f209360018060a01b03821694855f52835260ff845f2054166106de573385146106a257841561066e579061061891335f5260018452845f2054908452845f20865f528452845f2055335f5260018352835f206109de565b825f526002815261062b33835f206109de565b335f5260038152815f2090835f52525f20600160ff19825416179055337f6178e95c138f06036cdc07a49ed6a3d23008969fa143baeceb037ebae22e8d145f80a3005b835162461bcd60e51b8152908101839052600e60248201526d24b73b30b634b2103632b0b232b960911b6044820152606490fd5b835162461bcd60e51b8152908101839052601660248201527521b0b73737ba103337b63637bb903cb7bab939b2b63360511b6044820152606490fd5b835162461bcd60e51b81529081018390526011602482015270416c726561647920666f6c6c6f77696e6760781b6044820152606490fd5b50905162461bcd60e51b815291820152601260248201527110dc99585d19481d985d5b1d08199a5c9cdd60721b6044820152606490fd5b82346100f957806003193601126100f957602091610768610905565b61077061091b565b6001600160a01b039182165f908152928552838320911682528352819020549051908152f35b83346100f957602090816003193601126100f9576107b2610905565b91335f5260038152815f209360018060a01b039081851695865f52835260ff845f205416156108d45750335f5260038252825f20855f528252825f2060ff198154169055335f52858252825f20855f528252825f2054335f5260018352835f209182545f1981019081116108c1579261089a979892610883926108385f98979684610931565b90549060031b1c1661086c8161084e8486610931565b90919060018060a01b038084549260031b9316831b921b1916179055565b33885284865286882090885285528587205561099e565b338452815281832090868452528120553390610a91565b337f25b48012798806863072289354ed0b3849b73152482d9c6694e5cbb35f38d5e35f80a3005b601189634e487b7160e01b5f525260245ffd5b62461bcd60e51b8152868101839052600d60248201526c4e6f7420666f6c6c6f77696e6760981b6044820152606490fd5b600435906001600160a01b03821682036100f957565b602435906001600160a01b03821682036100f957565b8054821015610946575f5260205f2001905f90565b634e487b7160e01b5f52603260045260245ffd5b60209060206040818301928281528551809452019301915f5b828110610981575050505090565b83516001600160a01b031685529381019392810192600101610973565b805480156109ca575f1901906109b48282610931565b81549060018060a01b039060031b1b1916905555565b634e487b7160e01b5f52603160045260245ffd5b9081549168010000000000000000831015610a08578261084e916001610a0695018155610931565b565b634e487b7160e01b5f52604160045260245ffd5b15610a2357565b60405162461bcd60e51b815260206004820152601060248201526f4d696e696d756d203120555344432e6560801b6044820152606490fd5b90601f8019910116810190811067ffffffffffffffff821117610a0857604052565b80518210156109465760209160051b010190565b6001600160a01b039081165f908152600260205260408120905b815480821015610b2757610abf8284610931565b905460039291831b1c851686861614610adc575050600101610aab565b93945091925f198101908111610b1357610a0694610b0e93610b0161084e9387610931565b9054911b1c169184610931565b61099e565b634e487b7160e01b5f52601160045260245ffd5b505050505056fea2646970667358221220cede11f992172e18968c01281b0951ada04dd2f244488fe52b870ae2212ca83764736f6c63430008180033","opcodes":"PUSH1 0x80 DUP1 PUSH1 0x40 MSTORE CALLVALUE PUSH2 0x16 JUMPI PUSH2 0xB64 SWAP1 DUP2 PUSH2 0x1B DUP3 CODECOPY RETURN JUMPDEST PUSH0 DUP1 REVERT INVALID PUSH1 0x80 PUSH1 0x40 SWAP1 DUP1 DUP3 MSTORE PUSH1 0x4 DUP1 CALLDATASIZE LT ISZERO PUSH2 0x15 JUMPI PUSH0 DUP1 REVERT JUMPDEST PUSH0 CALLDATALOAD PUSH1 0xE0 SHR SWAP2 DUP3 PUSH4 0x15A4EAD EQ PUSH2 0x796 JUMPI POP DUP2 PUSH4 0xEB9AF38 EQ PUSH2 0x398 JUMPI DUP2 PUSH4 0x32A69447 EQ PUSH2 0x74C JUMPI DUP2 PUSH4 0x4DBF27CC EQ PUSH2 0x588 JUMPI DUP2 PUSH4 0x9139CDA5 EQ PUSH2 0x541 JUMPI DUP2 PUSH4 0x99EC3A42 EQ PUSH2 0x4F3 JUMPI DUP2 PUSH4 0x9ABBDF4B EQ PUSH2 0x3EF JUMPI DUP2 PUSH4 0xA622EE7C EQ PUSH2 0x398 JUMPI DUP2 PUSH4 0xBDAFAEEF EQ PUSH2 0x202 JUMPI POP DUP1 PUSH4 0xC2FE2022 EQ PUSH2 0x187 JUMPI DUP1 PUSH4 0xD8236DFF EQ PUSH2 0xFD JUMPI PUSH4 0xEBD009D3 EQ PUSH2 0xA4 JUMPI PUSH0 DUP1 REVERT JUMPDEST CALLVALUE PUSH2 0xF9 JUMPI DUP1 PUSH1 0x3 NOT CALLDATASIZE ADD SLT PUSH2 0xF9 JUMPI PUSH2 0xBC PUSH2 0x905 JUMP JUMPDEST SWAP1 PUSH1 0x24 CALLDATALOAD SWAP2 PUSH1 0x1 DUP1 PUSH1 0xA0 SHL SUB DUP1 SWAP2 AND PUSH0 MSTORE PUSH1 0x2 PUSH1 0x20 MSTORE DUP2 PUSH0 KECCAK256 DUP1 SLOAD DUP5 LT ISZERO PUSH2 0xF9 JUMPI PUSH1 0x20 SWAP4 PUSH2 0xEA SWAP2 PUSH2 0x931 JUMP JUMPDEST SWAP3 SWAP1 SLOAD SWAP1 MLOAD SWAP3 PUSH1 0x3 SHL SHR AND DUP2 MSTORE RETURN JUMPDEST PUSH0 DUP1 REVERT JUMPDEST POP CALLVALUE PUSH2 0xF9 JUMPI PUSH1 0x20 DUP1 PUSH1 0x3 NOT CALLDATASIZE ADD SLT PUSH2 0xF9 JUMPI SWAP1 PUSH1 0x1 PUSH1 0x1 PUSH1 0xA0 SHL SUB SWAP1 DUP2 PUSH2 0x123 PUSH2 0x905 JUMP JUMPDEST AND PUSH0 MSTORE PUSH1 0x1 SWAP3 PUSH1 0x1 PUSH1 0x20 MSTORE DUP2 PUSH0 KECCAK256 SWAP4 DUP3 MLOAD DUP1 SWAP5 PUSH1 0x20 DUP8 SLOAD SWAP3 DUP4 DUP2 MSTORE ADD SWAP7 PUSH0 MSTORE PUSH1 0x20 PUSH0 KECCAK256 SWAP4 PUSH0 SWAP2 JUMPDEST DUP4 DUP4 LT PUSH2 0x170 JUMPI PUSH2 0x16C DUP9 DUP9 PUSH2 0x162 DUP3 DUP14 SUB DUP4 PUSH2 0xA5B JUMP JUMPDEST MLOAD SWAP2 DUP3 SWAP2 DUP3 PUSH2 0x95A JUMP JUMPDEST SUB SWAP1 RETURN JUMPDEST DUP6 SLOAD DUP2 AND DUP10 MSTORE SWAP8 DUP2 ADD SWAP8 SWAP5 DUP5 ADD SWAP5 SWAP2 DUP5 ADD SWAP2 PUSH2 0x14A JUMP JUMPDEST POP CALLVALUE PUSH2 0xF9 JUMPI PUSH1 0x20 DUP1 PUSH1 0x3 NOT CALLDATASIZE ADD SLT PUSH2 0xF9 JUMPI SWAP1 PUSH1 0x1 PUSH1 0x1 PUSH1 0xA0 SHL SUB SWAP1 DUP2 PUSH2 0x1AD PUSH2 0x905 JUMP JUMPDEST AND PUSH0 MSTORE PUSH1 0x2 PUSH1 0x20 MSTORE DUP1 PUSH0 KECCAK256 SWAP3 DUP2 MLOAD DUP1 SWAP4 PUSH1 0x20 DUP7 SLOAD SWAP3 DUP4 DUP2 MSTORE ADD SWAP6 PUSH0 MSTORE PUSH1 0x20 PUSH0 KECCAK256 SWAP3 PUSH0 SWAP2 JUMPDEST DUP4 DUP4 LT PUSH2 0x1E9 JUMPI PUSH2 0x16C DUP8 DUP8 PUSH2 0x162 DUP3 DUP13 SUB DUP4 PUSH2 0xA5B JUMP JUMPDEST DUP5 SLOAD DUP2 AND DUP9 MSTORE SWAP7 DUP2 ADD SWAP7 PUSH1 0x1 SWAP5 DUP6 ADD SWAP5 SWAP1 SWAP3 ADD SWAP2 PUSH2 0x1D1 JUMP JUMPDEST SWAP1 POP CALLVALUE PUSH2 0xF9 JUMPI PUSH1 0x20 DUP1 PUSH1 0x3 NOT CALLDATASIZE ADD SLT PUSH2 0xF9 JUMPI DUP2 CALLDATALOAD SWAP2 CALLER PUSH0 MSTORE PUSH0 DUP3 MSTORE PUSH1 0xFF PUSH1 0x2 DUP6 PUSH0 KECCAK256 ADD SLOAD AND ISZERO PUSH2 0x36C JUMPI POP PUSH2 0x23E PUSH3 0xF4240 DUP4 LT ISZERO PUSH2 0xA1C JUMP JUMPDEST CALLER PUSH0 MSTORE PUSH1 0x1 SWAP3 DUP4 DUP3 MSTORE DUP4 DUP2 PUSH0 KECCAK256 DUP3 MLOAD DUP1 DUP3 DUP7 DUP3 SWAP5 SLOAD SWAP4 DUP5 DUP2 MSTORE ADD SWAP1 PUSH0 MSTORE DUP7 PUSH0 KECCAK256 SWAP3 PUSH0 JUMPDEST DUP7 DUP10 DUP4 DUP4 LT PUSH2 0x34E JUMPI POP POP POP POP PUSH2 0x27A SWAP3 POP SUB DUP3 PUSH2 0xA5B JUMP JUMPDEST PUSH0 DUP3 JUMPDEST PUSH2 0x2F3 JUMPI JUMPDEST POP POP POP CALLER PUSH0 MSTORE DUP4 DUP3 MSTORE DUP1 PUSH0 KECCAK256 DUP1 SLOAD SWAP1 PUSH0 DUP2 SSTORE DUP2 PUSH2 0x2D7 JUMPI JUMPDEST POP POP DUP3 PUSH32 0x3A8EABFF634BB5475550A20AD9674A38E5FA723F3CEA9FA567113BEC80CB03AD SWAP4 SWAP5 CALLER PUSH0 MSTORE PUSH0 DUP5 MSTORE DUP3 PUSH0 KECCAK256 DUP3 DUP2 SSTORE ADD SSTORE MLOAD SWAP3 DUP4 MSTORE CALLER SWAP3 LOG2 STOP JUMPDEST PUSH0 MSTORE DUP3 PUSH0 KECCAK256 SWAP1 DUP2 ADD SWAP1 JUMPDEST DUP2 DUP2 LT ISZERO PUSH2 0x29A JUMPI PUSH0 DUP2 SSTORE DUP6 ADD PUSH2 0x2E1 JUMP JUMPDEST DUP2 MLOAD DUP2 LT ISZERO PUSH2 0x349 JUMPI DUP3 SWAP1 PUSH1 0x1 PUSH1 0x1 PUSH1 0xA0 SHL SUB PUSH2 0x31C CALLER DUP3 PUSH2 0x315 DUP6 DUP9 PUSH2 0xA7D JUMP JUMPDEST MLOAD AND PUSH2 0xA91 JUMP JUMPDEST CALLER PUSH0 MSTORE PUSH1 0x3 DUP8 MSTORE DUP6 PUSH0 KECCAK256 SWAP1 PUSH2 0x331 DUP4 DUP7 PUSH2 0xA7D JUMP JUMPDEST MLOAD AND PUSH0 MSTORE DUP7 MSTORE DUP5 PUSH0 KECCAK256 PUSH1 0xFF NOT DUP2 SLOAD AND SWAP1 SSTORE ADD DUP3 PUSH2 0x27D JUMP JUMPDEST PUSH2 0x282 JUMP JUMPDEST DUP7 SLOAD PUSH1 0x1 PUSH1 0x1 PUSH1 0xA0 SHL SUB AND DUP6 MSTORE SWAP6 DUP2 ADD SWAP6 DUP8 SWAP6 POP SWAP1 SWAP4 ADD SWAP3 ADD PUSH2 0x261 JUMP JUMPDEST PUSH1 0x64 SWAP2 DUP5 MLOAD SWAP2 PUSH3 0x461BCD PUSH1 0xE5 SHL DUP4 MSTORE DUP3 ADD MSTORE PUSH1 0x8 PUSH1 0x24 DUP3 ADD MSTORE PUSH8 0x139BC81D985D5B1D PUSH1 0xC2 SHL PUSH1 0x44 DUP3 ADD MSTORE REVERT JUMPDEST DUP3 CALLVALUE PUSH2 0xF9 JUMPI PUSH1 0x20 CALLDATASIZE PUSH1 0x3 NOT ADD SLT PUSH2 0xF9 JUMPI PUSH1 0x1 PUSH1 0x1 PUSH1 0xA0 SHL SUB PUSH2 0x3BA PUSH2 0x905 JUMP JUMPDEST AND PUSH0 SWAP1 DUP2 MSTORE PUSH1 0x20 DUP2 DUP2 MSTORE SWAP1 DUP3 SWAP1 KECCAK256 DUP1 SLOAD PUSH1 0x1 DUP3 ADD SLOAD PUSH1 0x2 SWAP1 SWAP3 ADD SLOAD SWAP4 MLOAD SWAP1 DUP2 MSTORE SWAP2 DUP3 ADD MSTORE PUSH1 0xFF SWAP1 SWAP2 AND ISZERO ISZERO PUSH1 0x40 DUP3 ADD MSTORE PUSH1 0x60 SWAP1 RETURN JUMPDEST DUP3 CALLVALUE PUSH2 0xF9 JUMPI PUSH1 0x20 DUP1 PUSH1 0x3 NOT CALLDATASIZE ADD SLT PUSH2 0xF9 JUMPI DUP3 CALLDATALOAD SWAP2 CALLER PUSH0 MSTORE PUSH0 DUP3 MSTORE PUSH1 0xFF PUSH1 0x2 DUP3 PUSH0 KECCAK256 ADD SLOAD AND PUSH2 0x4BB JUMPI PUSH2 0x428 PUSH3 0xF4240 DUP5 LT ISZERO PUSH2 0xA1C JUMP JUMPDEST DUP1 MLOAD PUSH1 0x60 DUP2 ADD DUP2 DUP2 LT PUSH8 0xFFFFFFFFFFFFFFFF DUP3 GT OR PUSH2 0x4A8 JUMPI PUSH32 0xA510DF27D6E51EFD91D3F55722BAD1F26BF924A63E5DCEE07C2AB4C3D4992DCC SWAP5 SWAP6 POP DUP3 MSTORE DUP5 DUP2 MSTORE PUSH1 0x2 DUP4 DUP3 ADD SWAP2 DUP7 DUP4 MSTORE DUP4 DUP2 ADD SWAP3 PUSH1 0x1 DUP5 MSTORE CALLER PUSH0 MSTORE PUSH0 DUP7 MSTORE DUP5 PUSH0 KECCAK256 SWAP2 MLOAD DUP3 SSTORE MLOAD PUSH1 0x1 DUP3 ADD SSTORE ADD SWAP1 MLOAD ISZERO ISZERO PUSH1 0xFF DUP1 NOT DUP4 SLOAD AND SWAP2 AND OR SWAP1 SSTORE MLOAD SWAP3 DUP4 MSTORE CALLER SWAP3 LOG2 STOP JUMPDEST PUSH1 0x41 DUP7 PUSH4 0x4E487B71 PUSH1 0xE0 SHL PUSH0 MSTORE MSTORE PUSH1 0x24 PUSH0 REVERT JUMPDEST MLOAD PUSH3 0x461BCD PUSH1 0xE5 SHL DUP2 MSTORE SWAP3 DUP4 ADD MSTORE POP PUSH1 0x14 PUSH1 0x24 DUP3 ADD MSTORE PUSH20 0x5661756C7420616C726561647920657869737473 PUSH1 0x60 SHL PUSH1 0x44 DUP3 ADD MSTORE PUSH1 0x64 SWAP1 REVERT JUMPDEST DUP3 CALLVALUE PUSH2 0xF9 JUMPI DUP1 PUSH1 0x3 NOT CALLDATASIZE ADD SLT PUSH2 0xF9 JUMPI PUSH1 0x20 SWAP1 PUSH2 0x50F PUSH2 0x905 JUMP JUMPDEST PUSH2 0x517 PUSH2 0x91B JUMP JUMPDEST SWAP1 PUSH1 0x1 DUP1 PUSH1 0xA0 SHL SUB DUP1 SWAP2 AND PUSH0 MSTORE PUSH1 0x3 DUP5 MSTORE DUP3 PUSH0 KECCAK256 SWAP2 AND PUSH0 MSTORE DUP3 MSTORE PUSH1 0xFF DUP2 PUSH0 KECCAK256 SLOAD AND SWAP1 MLOAD SWAP1 ISZERO ISZERO DUP2 MSTORE RETURN JUMPDEST DUP3 CALLVALUE PUSH2 0xF9 JUMPI DUP1 PUSH1 0x3 NOT CALLDATASIZE ADD SLT PUSH2 0xF9 JUMPI PUSH2 0x55A PUSH2 0x905 JUMP JUMPDEST SWAP1 PUSH1 0x24 CALLDATALOAD SWAP2 PUSH1 0x1 DUP1 PUSH1 0xA0 SHL SUB DUP1 SWAP2 AND PUSH0 MSTORE PUSH1 0x1 PUSH1 0x20 MSTORE DUP2 PUSH0 KECCAK256 DUP1 SLOAD DUP5 LT ISZERO PUSH2 0xF9 JUMPI PUSH1 0x20 SWAP4 PUSH2 0xEA SWAP2 PUSH2 0x931 JUMP JUMPDEST DUP3 CALLVALUE PUSH2 0xF9 JUMPI PUSH1 0x20 DUP1 PUSH1 0x3 NOT CALLDATASIZE ADD SLT PUSH2 0xF9 JUMPI PUSH2 0x5A3 PUSH2 0x905 JUMP JUMPDEST CALLER PUSH0 MSTORE PUSH0 DUP3 MSTORE PUSH1 0xFF PUSH1 0x2 DUP5 PUSH0 KECCAK256 ADD SLOAD AND ISZERO PUSH2 0x715 JUMPI CALLER PUSH0 MSTORE PUSH1 0x3 DUP3 MSTORE DUP3 PUSH0 KECCAK256 SWAP4 PUSH1 0x1 DUP1 PUSH1 0xA0 SHL SUB DUP3 AND SWAP5 DUP6 PUSH0 MSTORE DUP4 MSTORE PUSH1 0xFF DUP5 PUSH0 KECCAK256 SLOAD AND PUSH2 0x6DE JUMPI CALLER DUP6 EQ PUSH2 0x6A2 JUMPI DUP5 ISZERO PUSH2 0x66E JUMPI SWAP1 PUSH2 0x618 SWAP2 CALLER PUSH0 MSTORE PUSH1 0x1 DUP5 MSTORE DUP5 PUSH0 KECCAK256 SLOAD SWAP1 DUP5 MSTORE DUP5 PUSH0 KECCAK256 DUP7 PUSH0 MSTORE DUP5 MSTORE DUP5 PUSH0 KECCAK256 SSTORE CALLER PUSH0 MSTORE PUSH1 0x1 DUP4 MSTORE DUP4 PUSH0 KECCAK256 PUSH2 0x9DE JUMP JUMPDEST DUP3 PUSH0 MSTORE PUSH1 0x2 DUP2 MSTORE PUSH2 0x62B CALLER DUP4 PUSH0 KECCAK256 PUSH2 0x9DE JUMP JUMPDEST CALLER PUSH0 MSTORE PUSH1 0x3 DUP2 MSTORE DUP2 PUSH0 KECCAK256 SWAP1 DUP4 PUSH0 MSTORE MSTORE PUSH0 KECCAK256 PUSH1 0x1 PUSH1 0xFF NOT DUP3 SLOAD AND OR SWAP1 SSTORE CALLER PUSH32 0x6178E95C138F06036CDC07A49ED6A3D23008969FA143BAECEB037EBAE22E8D14 PUSH0 DUP1 LOG3 STOP JUMPDEST DUP4 MLOAD PUSH3 0x461BCD PUSH1 0xE5 SHL DUP2 MSTORE SWAP1 DUP2 ADD DUP4 SWAP1 MSTORE PUSH1 0xE PUSH1 0x24 DUP3 ADD MSTORE PUSH14 0x24B73B30B634B2103632B0B232B9 PUSH1 0x91 SHL PUSH1 0x44 DUP3 ADD MSTORE PUSH1 0x64 SWAP1 REVERT JUMPDEST DUP4 MLOAD PUSH3 0x461BCD PUSH1 0xE5 SHL DUP2 MSTORE SWAP1 DUP2 ADD DUP4 SWAP1 MSTORE PUSH1 0x16 PUSH1 0x24 DUP3 ADD MSTORE PUSH22 0x21B0B73737BA103337B63637BB903CB7BAB939B2B633 PUSH1 0x51 SHL PUSH1 0x44 DUP3 ADD MSTORE PUSH1 0x64 SWAP1 REVERT JUMPDEST DUP4 MLOAD PUSH3 0x461BCD PUSH1 0xE5 SHL DUP2 MSTORE SWAP1 DUP2 ADD DUP4 SWAP1 MSTORE PUSH1 0x11 PUSH1 0x24 DUP3 ADD MSTORE PUSH17 0x416C726561647920666F6C6C6F77696E67 PUSH1 0x78 SHL PUSH1 0x44 DUP3 ADD MSTORE PUSH1 0x64 SWAP1 REVERT JUMPDEST POP SWAP1 MLOAD PUSH3 0x461BCD PUSH1 0xE5 SHL DUP2 MSTORE SWAP2 DUP3 ADD MSTORE PUSH1 0x12 PUSH1 0x24 DUP3 ADD MSTORE PUSH18 0x10DC99585D19481D985D5B1D08199A5C9CDD PUSH1 0x72 SHL PUSH1 0x44 DUP3 ADD MSTORE PUSH1 0x64 SWAP1 REVERT JUMPDEST DUP3 CALLVALUE PUSH2 0xF9 JUMPI DUP1 PUSH1 0x3 NOT CALLDATASIZE ADD SLT PUSH2 0xF9 JUMPI PUSH1 0x20 SWAP2 PUSH2 0x768 PUSH2 0x905 JUMP JUMPDEST PUSH2 0x770 PUSH2 0x91B JUMP JUMPDEST PUSH1 0x1 PUSH1 0x1 PUSH1 0xA0 SHL SUB SWAP2 DUP3 AND PUSH0 SWAP1 DUP2 MSTORE SWAP3 DUP6 MSTORE DUP4 DUP4 KECCAK256 SWAP2 AND DUP3 MSTORE DUP4 MSTORE DUP2 SWAP1 KECCAK256 SLOAD SWAP1 MLOAD SWAP1 DUP2 MSTORE RETURN JUMPDEST DUP4 CALLVALUE PUSH2 0xF9 JUMPI PUSH1 0x20 SWAP1 DUP2 PUSH1 0x3 NOT CALLDATASIZE ADD SLT PUSH2 0xF9 JUMPI PUSH2 0x7B2 PUSH2 0x905 JUMP JUMPDEST SWAP2 CALLER PUSH0 MSTORE PUSH1 0x3 DUP2 MSTORE DUP2 PUSH0 KECCAK256 SWAP4 PUSH1 0x1 DUP1 PUSH1 0xA0 SHL SUB SWAP1 DUP2 DUP6 AND SWAP6 DUP7 PUSH0 MSTORE DUP4 MSTORE PUSH1 0xFF DUP5 PUSH0 KECCAK256 SLOAD AND ISZERO PUSH2 0x8D4 JUMPI POP CALLER PUSH0 MSTORE PUSH1 0x3 DUP3 MSTORE DUP3 PUSH0 KECCAK256 DUP6 PUSH0 MSTORE DUP3 MSTORE DUP3 PUSH0 KECCAK256 PUSH1 0xFF NOT DUP2 SLOAD AND SWAP1 SSTORE CALLER PUSH0 MSTORE DUP6 DUP3 MSTORE DUP3 PUSH0 KECCAK256 DUP6 PUSH0 MSTORE DUP3 MSTORE DUP3 PUSH0 KECCAK256 SLOAD CALLER PUSH0 MSTORE PUSH1 0x1 DUP4 MSTORE DUP4 PUSH0 KECCAK256 SWAP2 DUP3 SLOAD PUSH0 NOT DUP2 ADD SWAP1 DUP2 GT PUSH2 0x8C1 JUMPI SWAP3 PUSH2 0x89A SWAP8 SWAP9 SWAP3 PUSH2 0x883 SWAP3 PUSH2 0x838 PUSH0 SWAP9 SWAP8 SWAP7 DUP5 PUSH2 0x931 JUMP JUMPDEST SWAP1 SLOAD SWAP1 PUSH1 0x3 SHL SHR AND PUSH2 0x86C DUP2 PUSH2 0x84E DUP5 DUP7 PUSH2 0x931 JUMP JUMPDEST SWAP1 SWAP2 SWAP1 PUSH1 0x1 DUP1 PUSH1 0xA0 SHL SUB DUP1 DUP5 SLOAD SWAP3 PUSH1 0x3 SHL SWAP4 AND DUP4 SHL SWAP3 SHL NOT AND OR SWAP1 SSTORE JUMP JUMPDEST CALLER DUP9 MSTORE DUP5 DUP7 MSTORE DUP7 DUP9 KECCAK256 SWAP1 DUP9 MSTORE DUP6 MSTORE DUP6 DUP8 KECCAK256 SSTORE PUSH2 0x99E JUMP JUMPDEST CALLER DUP5 MSTORE DUP2 MSTORE DUP2 DUP4 KECCAK256 SWAP1 DUP7 DUP5 MSTORE MSTORE DUP2 KECCAK256 SSTORE CALLER SWAP1 PUSH2 0xA91 JUMP JUMPDEST CALLER PUSH32 0x25B48012798806863072289354ED0B3849B73152482D9C6694E5CBB35F38D5E3 PUSH0 DUP1 LOG3 STOP JUMPDEST PUSH1 0x11 DUP10 PUSH4 0x4E487B71 PUSH1 0xE0 SHL PUSH0 MSTORE MSTORE PUSH1 0x24 PUSH0 REVERT JUMPDEST PUSH3 0x461BCD PUSH1 0xE5 SHL DUP2 MSTORE DUP7 DUP2 ADD DUP4 SWAP1 MSTORE PUSH1 0xD PUSH1 0x24 DUP3 ADD MSTORE PUSH13 0x4E6F7420666F6C6C6F77696E67 PUSH1 0x98 SHL PUSH1 0x44 DUP3 ADD MSTORE PUSH1 0x64 SWAP1 REVERT JUMPDEST PUSH1 0x4 CALLDATALOAD SWAP1 PUSH1 0x1 PUSH1 0x1 PUSH1 0xA0 SHL SUB DUP3 AND DUP3 SUB PUSH2 0xF9 JUMPI JUMP JUMPDEST PUSH1 0x24 CALLDATALOAD SWAP1 PUSH1 0x1 PUSH1 0x1 PUSH1 0xA0 SHL SUB DUP3 AND DUP3 SUB PUSH2 0xF9 JUMPI JUMP JUMPDEST DUP1 SLOAD DUP3 LT ISZERO PUSH2 0x946 JUMPI PUSH0 MSTORE PUSH1 0x20 PUSH0 KECCAK256 ADD SWAP1 PUSH0 SWAP1 JUMP JUMPDEST PUSH4 0x4E487B71 PUSH1 0xE0 SHL PUSH0 MSTORE PUSH1 0x32 PUSH1 0x4 MSTORE PUSH1 0x24 PUSH0 REVERT JUMPDEST PUSH1 0x20 SWAP1 PUSH1 0x20 PUSH1 0x40 DUP2 DUP4 ADD SWAP3 DUP3 DUP2 MSTORE DUP6 MLOAD DUP1 SWAP5 MSTORE ADD SWAP4 ADD SWAP2 PUSH0 JUMPDEST DUP3 DUP2 LT PUSH2 0x981 JUMPI POP POP POP POP SWAP1 JUMP JUMPDEST DUP4 MLOAD PUSH1 0x1 PUSH1 0x1 PUSH1 0xA0 SHL SUB AND DUP6 MSTORE SWAP4 DUP2 ADD SWAP4 SWAP3 DUP2 ADD SWAP3 PUSH1 0x1 ADD PUSH2 0x973 JUMP JUMPDEST DUP1 SLOAD DUP1 ISZERO PUSH2 0x9CA JUMPI PUSH0 NOT ADD SWAP1 PUSH2 0x9B4 DUP3 DUP3 PUSH2 0x931 JUMP JUMPDEST DUP2 SLOAD SWAP1 PUSH1 0x1 DUP1 PUSH1 0xA0 SHL SUB SWAP1 PUSH1 0x3 SHL SHL NOT AND SWAP1 SSTORE SSTORE JUMP JUMPDEST PUSH4 0x4E487B71 PUSH1 0xE0 SHL PUSH0 MSTORE PUSH1 0x31 PUSH1 0x4 MSTORE PUSH1 0x24 PUSH0 REVERT JUMPDEST SWAP1 DUP2 SLOAD SWAP2 PUSH9 0x10000000000000000 DUP4 LT ISZERO PUSH2 0xA08 JUMPI DUP3 PUSH2 0x84E SWAP2 PUSH1 0x1 PUSH2 0xA06 SWAP6 ADD DUP2 SSTORE PUSH2 0x931 JUMP JUMPDEST JUMP JUMPDEST PUSH4 0x4E487B71 PUSH1 0xE0 SHL PUSH0 MSTORE PUSH1 0x41 PUSH1 0x4 MSTORE PUSH1 0x24 PUSH0 REVERT JUMPDEST ISZERO PUSH2 0xA23 JUMPI JUMP JUMPDEST PUSH1 0x40 MLOAD PUSH3 0x461BCD PUSH1 0xE5 SHL DUP2 MSTORE PUSH1 0x20 PUSH1 0x4 DUP3 ADD MSTORE PUSH1 0x10 PUSH1 0x24 DUP3 ADD MSTORE PUSH16 0x4D696E696D756D203120555344432E65 PUSH1 0x80 SHL PUSH1 0x44 DUP3 ADD MSTORE PUSH1 0x64 SWAP1 REVERT JUMPDEST SWAP1 PUSH1 0x1F DUP1 NOT SWAP2 ADD AND DUP2 ADD SWAP1 DUP2 LT PUSH8 0xFFFFFFFFFFFFFFFF DUP3 GT OR PUSH2 0xA08 JUMPI PUSH1 0x40 MSTORE JUMP JUMPDEST DUP1 MLOAD DUP3 LT ISZERO PUSH2 0x946 JUMPI PUSH1 0x20 SWAP2 PUSH1 0x5 SHL ADD ADD SWAP1 JUMP JUMPDEST PUSH1 0x1 PUSH1 0x1 PUSH1 0xA0 SHL SUB SWAP1 DUP2 AND PUSH0 SWAP1 DUP2 MSTORE PUSH1 0x2 PUSH1 0x20 MSTORE PUSH1 0x40 DUP2 KECCAK256 SWAP1 JUMPDEST DUP2 SLOAD DUP1 DUP3 LT ISZERO PUSH2 0xB27 JUMPI PUSH2 0xABF DUP3 DUP5 PUSH2 0x931 JUMP JUMPDEST SWAP1 SLOAD PUSH1 0x3 SWAP3 SWAP2 DUP4 SHL SHR DUP6 AND DUP7 DUP7 AND EQ PUSH2 0xADC JUMPI POP POP PUSH1 0x1 ADD PUSH2 0xAAB JUMP JUMPDEST SWAP4 SWAP5 POP SWAP2 SWAP3 PUSH0 NOT DUP2 ADD SWAP1 DUP2 GT PUSH2 0xB13 JUMPI PUSH2 0xA06 SWAP5 PUSH2 0xB0E SWAP4 PUSH2 0xB01 PUSH2 0x84E SWAP4 DUP8 PUSH2 0x931 JUMP JUMPDEST SWAP1 SLOAD SWAP2 SHL SHR AND SWAP2 DUP5 PUSH2 0x931 JUMP JUMPDEST PUSH2 0x99E JUMP JUMPDEST PUSH4 0x4E487B71 PUSH1 0xE0 SHL PUSH0 MSTORE PUSH1 0x11 PUSH1 0x4 MSTORE PUSH1 0x24 PUSH0 REVERT JUMPDEST POP POP POP POP POP JUMP INVALID LOG2 PUSH5 0x6970667358 0x22 SLT KECCAK256 0xCE 0xDE GT 0xF9 SWAP3 OR 0x2E XOR SWAP7 DUP13 ADD 0x28 SHL MULMOD MLOAD 0xAD LOG0 0x4D 0xD2 CALLCODE PREVRANDAO BASEFEE DUP16 0xE5 0x2B DUP8 EXP 0xE2 0x21 0x2C 0xA8 CALLDATACOPY PUSH5 0x736F6C6343 STOP ADDMOD XOR STOP CALLER "},"methodIdentifiers":{"createVault(uint256)":"9abbdf4b","follow(address)":"4dbf27cc","followIndex(address,address)":"32a69447","followers(address,uint256)":"ebd009d3","following(address,uint256)":"9139cda5","getFollowers(address)":"c2fe2022","getFollowing(address)":"d8236dff","getVault(address)":"0eb9af38","isFollowing(address,address)":"99ec3a42","resetVault(uint256)":"bdafaeef","unfollow(address)":"015a4ead","vaults(address)":"a622ee7c"}}}}}