{"contracts/aUSD.sol":{"aUSD":{"abi":[{"inputs":[],"stateMutability":"nonpayable","type":"constructor"},{"inputs":[{"internalType":"address","name":"spender","type":"address"},{"internalType":"uint256","name":"allowance","type":"uint256"},{"internalType":"uint256","name":"needed","type":"uint256"}],"name":"ERC20InsufficientAllowance","type":"error"},{"inputs":[{"internalType":"address","name":"sender","type":"address"},{"internalType":"uint256","name":"balance","type":"uint256"},{"internalType":"uint256","name":"needed","type":"uint256"}],"name":"ERC20InsufficientBalance","type":"error"},{"inputs":[{"internalType":"address","name":"approver","type":"address"}],"name":"ERC20InvalidApprover","type":"error"},{"inputs":[{"internalType":"address","name":"receiver","type":"address"}],"name":"ERC20InvalidReceiver","type":"error"},{"inputs":[{"internalType":"address","name":"sender","type":"address"}],"name":"ERC20InvalidSender","type":"error"},{"inputs":[{"internalType":"address","name":"spender","type":"address"}],"name":"ERC20InvalidSpender","type":"error"},{"anonymous":false,"inputs":[{"indexed":true,"internalType":"address","name":"owner","type":"address"},{"indexed":true,"internalType":"address","name":"spender","type":"address"},{"indexed":false,"internalType":"uint256","name":"value","type":"uint256"}],"name":"Approval","type":"event"},{"anonymous":false,"inputs":[{"indexed":true,"internalType":"address","name":"user","type":"address"},{"indexed":false,"internalType":"uint256","name":"amount","type":"uint256"}],"name":"FaucetClaimed","type":"event"},{"anonymous":false,"inputs":[{"indexed":true,"internalType":"address","name":"minter","type":"address"}],"name":"MinterAdded","type":"event"},{"anonymous":false,"inputs":[{"indexed":true,"internalType":"address","name":"minter","type":"address"}],"name":"MinterRemoved","type":"event"},{"anonymous":false,"inputs":[{"indexed":true,"internalType":"address","name":"previousOwner","type":"address"},{"indexed":true,"internalType":"address","name":"newOwner","type":"address"}],"name":"OwnershipTransferred","type":"event"},{"anonymous":false,"inputs":[{"indexed":true,"internalType":"address","name":"from","type":"address"},{"indexed":true,"internalType":"address","name":"to","type":"address"},{"indexed":false,"internalType":"uint256","name":"value","type":"uint256"}],"name":"Transfer","type":"event"},{"inputs":[],"name":"FAUCET_AMOUNT","outputs":[{"internalType":"uint256","name":"","type":"uint256"}],"stateMutability":"view","type":"function"},{"inputs":[],"name":"FAUCET_COOLDOWN","outputs":[{"internalType":"uint256","name":"","type":"uint256"}],"stateMutability":"view","type":"function"},{"inputs":[{"internalType":"address","name":"minter","type":"address"}],"name":"addMinter","outputs":[],"stateMutability":"nonpayable","type":"function"},{"inputs":[{"internalType":"address","name":"owner","type":"address"},{"internalType":"address","name":"spender","type":"address"}],"name":"allowance","outputs":[{"internalType":"uint256","name":"","type":"uint256"}],"stateMutability":"view","type":"function"},{"inputs":[{"internalType":"address","name":"spender","type":"address"},{"internalType":"uint256","name":"value","type":"uint256"}],"name":"approve","outputs":[{"internalType":"bool","name":"","type":"bool"}],"stateMutability":"nonpayable","type":"function"},{"inputs":[{"internalType":"address","name":"account","type":"address"}],"name":"balanceOf","outputs":[{"internalType":"uint256","name":"","type":"uint256"}],"stateMutability":"view","type":"function"},{"inputs":[],"name":"decimals","outputs":[{"internalType":"uint8","name":"","type":"uint8"}],"stateMutability":"pure","type":"function"},{"inputs":[],"name":"faucet","outputs":[],"stateMutability":"nonpayable","type":"function"},{"inputs":[{"internalType":"address","name":"user","type":"address"}],"name":"faucetCooldownRemaining","outputs":[{"internalType":"uint256","name":"","type":"uint256"}],"stateMutability":"view","type":"function"},{"inputs":[{"internalType":"address","name":"","type":"address"}],"name":"lastFaucet","outputs":[{"internalType":"uint256","name":"","type":"uint256"}],"stateMutability":"view","type":"function"},{"inputs":[{"internalType":"address","name":"to","type":"address"},{"internalType":"uint256","name":"amount","type":"uint256"}],"name":"mint","outputs":[],"stateMutability":"nonpayable","type":"function"},{"inputs":[{"internalType":"address","name":"","type":"address"}],"name":"minters","outputs":[{"internalType":"bool","name":"","type":"bool"}],"stateMutability":"view","type":"function"},{"inputs":[],"name":"name","outputs":[{"internalType":"string","name":"","type":"string"}],"stateMutability":"view","type":"function"},{"inputs":[],"name":"owner","outputs":[{"internalType":"address","name":"","type":"address"}],"stateMutability":"view","type":"function"},{"inputs":[{"internalType":"address","name":"minter","type":"address"}],"name":"removeMinter","outputs":[],"stateMutability":"nonpayable","type":"function"},{"inputs":[],"name":"symbol","outputs":[{"internalType":"string","name":"","type":"string"}],"stateMutability":"view","type":"function"},{"inputs":[],"name":"totalSupply","outputs":[{"internalType":"uint256","name":"","type":"uint256"}],"stateMutability":"view","type":"function"},{"inputs":[{"internalType":"address","name":"to","type":"address"},{"internalType":"uint256","name":"value","type":"uint256"}],"name":"transfer","outputs":[{"internalType":"bool","name":"","type":"bool"}],"stateMutability":"nonpayable","type":"function"},{"inputs":[{"internalType":"address","name":"from","type":"address"},{"internalType":"address","name":"to","type":"address"},{"internalType":"uint256","name":"value","type":"uint256"}],"name":"transferFrom","outputs":[{"internalType":"bool","name":"","type":"bool"}],"stateMutability":"nonpayable","type":"function"},{"inputs":[{"internalType":"address","name":"newOwner","type":"address"}],"name":"transferOwnership","outputs":[],"stateMutability":"nonpayable","type":"function"}],"evm":{"bytecode":{"linkReferences":{},"object":"60803462000330576040906001600160401b0390808301828111828210176200031c578352600a815260209169105a5bdb9a5cc81554d160b21b83830152835192848401848110838211176200031c57855260049384815263185554d160e21b8282015283519083821162000309576003928354926001968785811c95168015620002fe575b83861014620002eb578190601f9586811162000298575b50839086831160011462000235575f9262000229575b50505f1982871b1c191690871b1784555b8151948511620002165786548681811c911680156200020b575b82821014620001f857838111620001b0575b50809285116001146200014657509383949184925f956200013a575b50501b925f19911b1c19161790555b600580546001600160a01b0319163317905551610c619081620003358239f35b015193505f806200010b565b92919084601f198116885f52855f20955f905b898383106200019557505050106200017b575b50505050811b0190556200011a565b01519060f8845f19921b161c191690555f8080806200016c565b85870151895590970196948501948893509081019062000159565b875f52815f208480880160051c820192848910620001ee575b0160051c019087905b828110620001e2575050620000ef565b5f8155018790620001d2565b92508192620001c9565b602288634e487b7160e01b5f525260245ffd5b90607f1690620000dd565b604187634e487b7160e01b5f525260245ffd5b015190505f80620000b2565b90899350601f19831691885f52855f20925f5b8782821062000281575050841162000269575b505050811b018455620000c3565b01515f1983891b60f8161c191690555f80806200025b565b8385015186558d9790950194938401930162000248565b909150865f52835f208680850160051c820192868610620002e1575b918b91869594930160051c01915b828110620002d25750506200009c565b5f81558594508b9101620002c2565b92508192620002b4565b602289634e487b7160e01b5f525260245ffd5b94607f169462000085565b604186634e487b7160e01b5f525260245ffd5b634e487b7160e01b5f52604160045260245ffd5b5f80fdfe6080604090808252600480361015610015575f80fd5b5f3560e01c91826306fdde031461097157508163095ea7b3146108c957816318160ddd146108ab57816323b872dd146107b95781633092afd51461074b578163313ce5671461073057816340c10f19146106265781634799e212146105ef57816370a08231146105b9578163766976401461059a5781637d1d5d191461057d5781638da5cb5b1461055557816395d89b4114610436578163983b2d56146103c5578163a9059cbb14610395578163b44bae8e14610369578163dd62ed3e14610320578163de5f72fd146101e9578163f2fde38b1461013b575063f46eccc4146100fc575f80fd5b34610137576020366003190112610137576020906001600160a01b03610120610a90565b165f526006825260ff815f20541690519015158152f35b5f80fd5b90503461013757602036600319011261013757610156610a90565b600554916001600160a01b0380841692610171338514610abc565b169384156101b157505082907f8be0079c531659141344cd1fd0a4f28419497f9722a3daafe3b4186f6b6457e05f80a36001600160a01b03191617600555005b906020606492519162461bcd60e51b83528201526012602482015271615553443a207a65726f206164647265737360701b6044820152fd5b8234610137575f36600319011261013757335f52602060078152815f205462015180810180911161030d5742106102d457335f526007815242825f205533156102be57600254916402540be400928381018091116102ab577f5d4f415c63cd8a5874d9d291cdd64cec37e5dc236d90d659c958d109d78074b3939450600255335f525f8252805f2084815401905580518481525f7fddf252ad1be2c89b69c2b068fc378daa952ba7f163c4a11628f55a4df523b3ef843393a3519283523392a2005b601185634e487b7160e01b5f525260245ffd5b815163ec442f0560e01b81525f81850152602490fd5b905162461bcd60e51b8152918201526015602482015274615553443a20636f6f6c646f776e2061637469766560581b6044820152606490fd5b601184634e487b7160e01b5f525260245ffd5b823461013757806003193601126101375760209061033c610a90565b610344610aa6565b9060018060a01b038091165f5260018452825f2091165f528252805f20549051908152f35b82346101375760203660031901126101375760209061038e610389610a90565b610afa565b9051908152f35b82346101375780600319360112610137576020906103be6103b4610a90565b6024359033610b51565b5160018152f35b8234610137576020366003190112610137576103df610a90565b6005546001600160a01b0391906103f99083163314610abc565b1690815f5260066020525f20600160ff198254161790557f6ae172837ea30b801fbfcdd4108aa1d5bf8ff775444fd70256b44e6bf3dfc3f65f80a2005b8234610137575f366003190112610137578051905f835460018160011c906001831692831561054b575b60209384841081146105385783885290811561051c57506001146104c8575b505050829003601f01601f191682019267ffffffffffffffff8411838510176104b557508291826104b1925282610a49565b0390f35b604190634e487b7160e01b5f525260245ffd5b5f878152929350837f8a35acfbc15ff81a39ae7d344fd709f28e8600b4aa8c65c6b64bfe7fe36bd19b5b838510610508575050505083010184808061047f565b8054888601830152930192849082016104f2565b60ff1916878501525050151560051b840101905084808061047f565b602289634e487b7160e01b5f525260245ffd5b91607f1691610460565b8234610137575f3660031901126101375760055490516001600160a01b039091168152602090f35b8234610137575f3660031901126101375760209051620151808152f35b8234610137575f36600319011261013757602090516402540be4008152f35b8234610137576020366003190112610137576020906001600160a01b036105de610a90565b165f525f8252805f20549051908152f35b8234610137576020366003190112610137576020906001600160a01b03610614610a90565b165f5260078252805f20549051908152f35b823461013757806003193601126101375761063f610a90565b9060243591335f52600660205260ff825f205416801561071c575b156106e6576001600160a01b03169283156106d157600254908382018092116106be57505f927fddf252ad1be2c89b69c2b068fc378daa952ba7f163c4a11628f55a4df523b3ef9260209260025585855284835280852082815401905551908152a3005b601190634e487b7160e01b5f525260245ffd5b5f602492519163ec442f0560e01b8352820152fd5b815162461bcd60e51b8152602081860152601060248201526f30aaa9a21d103737ba1036b4b73a32b960811b6044820152606490fd5b506005546001600160a01b0316331461065a565b8234610137575f366003190112610137576020905160068152f35b823461013757602036600319011261013757610765610a90565b6005546001600160a01b03919061077f9083163314610abc565b1690815f5260066020525f2060ff1981541690557fe94479a9f7e1952cc78f2d6baab678adc1b772d936c6583def489e524cb666925f80a2005b905034610137576060366003190112610137576107d4610a90565b6107dc610aa6565b906044359260018060a01b038216805f526001602052855f20335f52602052855f2054915f198310610817575b6020876103be888888610b51565b85831061087f57811561086957331561085357505f908152600160209081528682203383528152908690209185900390915582906103be610809565b6024905f885191634a1406b160e11b8352820152fd5b6024905f88519163e602df0560e01b8352820152fd5b8651637dc7a0d960e11b8152339181019182526020820193909352604081018690528291506060010390fd5b8234610137575f366003190112610137576020906002549051908152f35b82346101375780600319360112610137576108e2610a90565b60243590331561095b576001600160a01b03169081156109455760209350335f5260018452825f20825f52845280835f205582519081527f8c5be1e5ebec7d5bd14f71427d1e84f3dd0314c0f7b2291e5b200ac8c7c3b925843392a35160018152f35b8251634a1406b160e11b81525f81860152602490fd5b825163e602df0560e01b81525f81860152602490fd5b8334610137575f366003190112610137575f60035460018160011c9060018316928315610a3f575b60209384841081146105385783885290811561051c57506001146109e957505050829003601f01601f191682019267ffffffffffffffff8411838510176104b557508291826104b1925282610a49565b60035f908152929350837fc2575a0e9e593c00f959f8c92f12db2869c3395a3b0502d05e2516446f71f85b5b838510610a2b575050505083010184808061047f565b805488860183015293019284908201610a15565b91607f1691610999565b602080825282518183018190529093925f5b828110610a7c57505060409293505f838284010152601f8019910116010190565b818101860151848201604001528501610a5b565b600435906001600160a01b038216820361013757565b602435906001600160a01b038216820361013757565b15610ac357565b60405162461bcd60e51b815260206004820152600f60248201526e30aaa9a21d103737ba1037bbb732b960891b6044820152606490fd5b6001600160a01b03165f908152600760205260409020546201518080820191828111610b365782421015610b4a5742900301908111610b365790565b634e487b7160e01b5f52601160045260245ffd5b5050505f90565b916001600160a01b03808416928315610c135716928315610bfb57825f525f60205260405f205490828210610bc95750817fddf252ad1be2c89b69c2b068fc378daa952ba7f163c4a11628f55a4df523b3ef92602092855f525f84520360405f2055845f5260405f20818154019055604051908152a3565b60405163391434e360e21b81526001600160a01b03919091166004820152602481019190915260448101829052606490fd5b60405163ec442f0560e01b81525f6004820152602490fd5b604051634b637e8f60e11b81525f6004820152602490fdfea264697066735822122094239fdc56e5631ec2fd5bf2a5d834764a8f6c1198f516d9c523ee3802bfdca464736f6c63430008180033","opcodes":"PUSH1 0x80 CALLVALUE PUSH3 0x330 JUMPI PUSH1 0x40 SWAP1 PUSH1 0x1 PUSH1 0x1 PUSH1 0x40 SHL SUB SWAP1 DUP1 DUP4 ADD DUP3 DUP2 GT DUP3 DUP3 LT OR PUSH3 0x31C JUMPI DUP4 MSTORE PUSH1 0xA DUP2 MSTORE PUSH1 0x20 SWAP2 PUSH10 0x105A5BDB9A5CC81554D1 PUSH1 0xB2 SHL DUP4 DUP4 ADD MSTORE DUP4 MLOAD SWAP3 DUP5 DUP5 ADD DUP5 DUP2 LT DUP4 DUP3 GT OR PUSH3 0x31C JUMPI DUP6 MSTORE PUSH1 0x4 SWAP4 DUP5 DUP2 MSTORE PUSH4 0x185554D1 PUSH1 0xE2 SHL DUP3 DUP3 ADD MSTORE DUP4 MLOAD SWAP1 DUP4 DUP3 GT PUSH3 0x309 JUMPI PUSH1 0x3 SWAP3 DUP4 SLOAD SWAP3 PUSH1 0x1 SWAP7 DUP8 DUP6 DUP2 SHR SWAP6 AND DUP1 ISZERO PUSH3 0x2FE JUMPI JUMPDEST DUP4 DUP7 LT EQ PUSH3 0x2EB JUMPI DUP2 SWAP1 PUSH1 0x1F SWAP6 DUP7 DUP2 GT PUSH3 0x298 JUMPI JUMPDEST POP DUP4 SWAP1 DUP7 DUP4 GT PUSH1 0x1 EQ PUSH3 0x235 JUMPI PUSH0 SWAP3 PUSH3 0x229 JUMPI JUMPDEST POP POP PUSH0 NOT DUP3 DUP8 SHL SHR NOT AND SWAP1 DUP8 SHL OR DUP5 SSTORE JUMPDEST DUP2 MLOAD SWAP5 DUP6 GT PUSH3 0x216 JUMPI DUP7 SLOAD DUP7 DUP2 DUP2 SHR SWAP2 AND DUP1 ISZERO PUSH3 0x20B JUMPI JUMPDEST DUP3 DUP3 LT EQ PUSH3 0x1F8 JUMPI DUP4 DUP2 GT PUSH3 0x1B0 JUMPI JUMPDEST POP DUP1 SWAP3 DUP6 GT PUSH1 0x1 EQ PUSH3 0x146 JUMPI POP SWAP4 DUP4 SWAP5 SWAP2 DUP5 SWAP3 PUSH0 SWAP6 PUSH3 0x13A JUMPI JUMPDEST POP POP SHL SWAP3 PUSH0 NOT SWAP2 SHL SHR NOT AND OR SWAP1 SSTORE JUMPDEST PUSH1 0x5 DUP1 SLOAD PUSH1 0x1 PUSH1 0x1 PUSH1 0xA0 SHL SUB NOT AND CALLER OR SWAP1 SSTORE MLOAD PUSH2 0xC61 SWAP1 DUP2 PUSH3 0x335 DUP3 CODECOPY RETURN JUMPDEST ADD MLOAD SWAP4 POP PUSH0 DUP1 PUSH3 0x10B JUMP JUMPDEST SWAP3 SWAP2 SWAP1 DUP5 PUSH1 0x1F NOT DUP2 AND DUP9 PUSH0 MSTORE DUP6 PUSH0 KECCAK256 SWAP6 PUSH0 SWAP1 JUMPDEST DUP10 DUP4 DUP4 LT PUSH3 0x195 JUMPI POP POP POP LT PUSH3 0x17B JUMPI JUMPDEST POP POP POP POP DUP2 SHL ADD SWAP1 SSTORE PUSH3 0x11A JUMP JUMPDEST ADD MLOAD SWAP1 PUSH1 0xF8 DUP5 PUSH0 NOT SWAP3 SHL AND SHR NOT AND SWAP1 SSTORE PUSH0 DUP1 DUP1 DUP1 PUSH3 0x16C JUMP JUMPDEST DUP6 DUP8 ADD MLOAD DUP10 SSTORE SWAP1 SWAP8 ADD SWAP7 SWAP5 DUP6 ADD SWAP5 DUP9 SWAP4 POP SWAP1 DUP2 ADD SWAP1 PUSH3 0x159 JUMP JUMPDEST DUP8 PUSH0 MSTORE DUP2 PUSH0 KECCAK256 DUP5 DUP1 DUP9 ADD PUSH1 0x5 SHR DUP3 ADD SWAP3 DUP5 DUP10 LT PUSH3 0x1EE JUMPI JUMPDEST ADD PUSH1 0x5 SHR ADD SWAP1 DUP8 SWAP1 JUMPDEST DUP3 DUP2 LT PUSH3 0x1E2 JUMPI POP POP PUSH3 0xEF JUMP JUMPDEST PUSH0 DUP2 SSTORE ADD DUP8 SWAP1 PUSH3 0x1D2 JUMP JUMPDEST SWAP3 POP DUP2 SWAP3 PUSH3 0x1C9 JUMP JUMPDEST PUSH1 0x22 DUP9 PUSH4 0x4E487B71 PUSH1 0xE0 SHL PUSH0 MSTORE MSTORE PUSH1 0x24 PUSH0 REVERT JUMPDEST SWAP1 PUSH1 0x7F AND SWAP1 PUSH3 0xDD JUMP JUMPDEST PUSH1 0x41 DUP8 PUSH4 0x4E487B71 PUSH1 0xE0 SHL PUSH0 MSTORE MSTORE PUSH1 0x24 PUSH0 REVERT JUMPDEST ADD MLOAD SWAP1 POP PUSH0 DUP1 PUSH3 0xB2 JUMP JUMPDEST SWAP1 DUP10 SWAP4 POP PUSH1 0x1F NOT DUP4 AND SWAP2 DUP9 PUSH0 MSTORE DUP6 PUSH0 KECCAK256 SWAP3 PUSH0 JUMPDEST DUP8 DUP3 DUP3 LT PUSH3 0x281 JUMPI POP POP DUP5 GT PUSH3 0x269 JUMPI JUMPDEST POP POP POP DUP2 SHL ADD DUP5 SSTORE PUSH3 0xC3 JUMP JUMPDEST ADD MLOAD PUSH0 NOT DUP4 DUP10 SHL PUSH1 0xF8 AND SHR NOT AND SWAP1 SSTORE PUSH0 DUP1 DUP1 PUSH3 0x25B JUMP JUMPDEST DUP4 DUP6 ADD MLOAD DUP7 SSTORE DUP14 SWAP8 SWAP1 SWAP6 ADD SWAP5 SWAP4 DUP5 ADD SWAP4 ADD PUSH3 0x248 JUMP JUMPDEST SWAP1 SWAP2 POP DUP7 PUSH0 MSTORE DUP4 PUSH0 KECCAK256 DUP7 DUP1 DUP6 ADD PUSH1 0x5 SHR DUP3 ADD SWAP3 DUP7 DUP7 LT PUSH3 0x2E1 JUMPI JUMPDEST SWAP2 DUP12 SWAP2 DUP7 SWAP6 SWAP5 SWAP4 ADD PUSH1 0x5 SHR ADD SWAP2 JUMPDEST DUP3 DUP2 LT PUSH3 0x2D2 JUMPI POP POP PUSH3 0x9C JUMP JUMPDEST PUSH0 DUP2 SSTORE DUP6 SWAP5 POP DUP12 SWAP2 ADD PUSH3 0x2C2 JUMP JUMPDEST SWAP3 POP DUP2 SWAP3 PUSH3 0x2B4 JUMP JUMPDEST PUSH1 0x22 DUP10 PUSH4 0x4E487B71 PUSH1 0xE0 SHL PUSH0 MSTORE MSTORE PUSH1 0x24 PUSH0 REVERT JUMPDEST SWAP5 PUSH1 0x7F AND SWAP5 PUSH3 0x85 JUMP JUMPDEST PUSH1 0x41 DUP7 PUSH4 0x4E487B71 PUSH1 0xE0 SHL PUSH0 MSTORE MSTORE PUSH1 0x24 PUSH0 REVERT JUMPDEST PUSH4 0x4E487B71 PUSH1 0xE0 SHL PUSH0 MSTORE PUSH1 0x41 PUSH1 0x4 MSTORE PUSH1 0x24 PUSH0 REVERT JUMPDEST PUSH0 DUP1 REVERT INVALID PUSH1 0x80 PUSH1 0x40 SWAP1 DUP1 DUP3 MSTORE PUSH1 0x4 DUP1 CALLDATASIZE LT ISZERO PUSH2 0x15 JUMPI PUSH0 DUP1 REVERT JUMPDEST PUSH0 CALLDATALOAD PUSH1 0xE0 SHR SWAP2 DUP3 PUSH4 0x6FDDE03 EQ PUSH2 0x971 JUMPI POP DUP2 PUSH4 0x95EA7B3 EQ PUSH2 0x8C9 JUMPI DUP2 PUSH4 0x18160DDD EQ PUSH2 0x8AB JUMPI DUP2 PUSH4 0x23B872DD EQ PUSH2 0x7B9 JUMPI DUP2 PUSH4 0x3092AFD5 EQ PUSH2 0x74B JUMPI DUP2 PUSH4 0x313CE567 EQ PUSH2 0x730 JUMPI DUP2 PUSH4 0x40C10F19 EQ PUSH2 0x626 JUMPI DUP2 PUSH4 0x4799E212 EQ PUSH2 0x5EF JUMPI DUP2 PUSH4 0x70A08231 EQ PUSH2 0x5B9 JUMPI DUP2 PUSH4 0x76697640 EQ PUSH2 0x59A JUMPI DUP2 PUSH4 0x7D1D5D19 EQ PUSH2 0x57D JUMPI DUP2 PUSH4 0x8DA5CB5B EQ PUSH2 0x555 JUMPI DUP2 PUSH4 0x95D89B41 EQ PUSH2 0x436 JUMPI DUP2 PUSH4 0x983B2D56 EQ PUSH2 0x3C5 JUMPI DUP2 PUSH4 0xA9059CBB EQ PUSH2 0x395 JUMPI DUP2 PUSH4 0xB44BAE8E EQ PUSH2 0x369 JUMPI DUP2 PUSH4 0xDD62ED3E EQ PUSH2 0x320 JUMPI DUP2 PUSH4 0xDE5F72FD EQ PUSH2 0x1E9 JUMPI DUP2 PUSH4 0xF2FDE38B EQ PUSH2 0x13B JUMPI POP PUSH4 0xF46ECCC4 EQ PUSH2 0xFC JUMPI PUSH0 DUP1 REVERT JUMPDEST CALLVALUE PUSH2 0x137 JUMPI PUSH1 0x20 CALLDATASIZE PUSH1 0x3 NOT ADD SLT PUSH2 0x137 JUMPI PUSH1 0x20 SWAP1 PUSH1 0x1 PUSH1 0x1 PUSH1 0xA0 SHL SUB PUSH2 0x120 PUSH2 0xA90 JUMP JUMPDEST AND PUSH0 MSTORE PUSH1 0x6 DUP3 MSTORE PUSH1 0xFF DUP2 PUSH0 KECCAK256 SLOAD AND SWAP1 MLOAD SWAP1 ISZERO ISZERO DUP2 MSTORE RETURN JUMPDEST PUSH0 DUP1 REVERT JUMPDEST SWAP1 POP CALLVALUE PUSH2 0x137 JUMPI PUSH1 0x20 CALLDATASIZE PUSH1 0x3 NOT ADD SLT PUSH2 0x137 JUMPI PUSH2 0x156 PUSH2 0xA90 JUMP JUMPDEST PUSH1 0x5 SLOAD SWAP2 PUSH1 0x1 PUSH1 0x1 PUSH1 0xA0 SHL SUB DUP1 DUP5 AND SWAP3 PUSH2 0x171 CALLER DUP6 EQ PUSH2 0xABC JUMP JUMPDEST AND SWAP4 DUP5 ISZERO PUSH2 0x1B1 JUMPI POP POP DUP3 SWAP1 PUSH32 0x8BE0079C531659141344CD1FD0A4F28419497F9722A3DAAFE3B4186F6B6457E0 PUSH0 DUP1 LOG3 PUSH1 0x1 PUSH1 0x1 PUSH1 0xA0 SHL SUB NOT AND OR PUSH1 0x5 SSTORE STOP JUMPDEST SWAP1 PUSH1 0x20 PUSH1 0x64 SWAP3 MLOAD SWAP2 PUSH3 0x461BCD PUSH1 0xE5 SHL DUP4 MSTORE DUP3 ADD MSTORE PUSH1 0x12 PUSH1 0x24 DUP3 ADD MSTORE PUSH18 0x615553443A207A65726F2061646472657373 PUSH1 0x70 SHL PUSH1 0x44 DUP3 ADD MSTORE REVERT JUMPDEST DUP3 CALLVALUE PUSH2 0x137 JUMPI PUSH0 CALLDATASIZE PUSH1 0x3 NOT ADD SLT PUSH2 0x137 JUMPI CALLER PUSH0 MSTORE PUSH1 0x20 PUSH1 0x7 DUP2 MSTORE DUP2 PUSH0 KECCAK256 SLOAD PUSH3 0x15180 DUP2 ADD DUP1 SWAP2 GT PUSH2 0x30D JUMPI TIMESTAMP LT PUSH2 0x2D4 JUMPI CALLER PUSH0 MSTORE PUSH1 0x7 DUP2 MSTORE TIMESTAMP DUP3 PUSH0 KECCAK256 SSTORE CALLER ISZERO PUSH2 0x2BE JUMPI PUSH1 0x2 SLOAD SWAP2 PUSH5 0x2540BE400 SWAP3 DUP4 DUP2 ADD DUP1 SWAP2 GT PUSH2 0x2AB JUMPI PUSH32 0x5D4F415C63CD8A5874D9D291CDD64CEC37E5DC236D90D659C958D109D78074B3 SWAP4 SWAP5 POP PUSH1 0x2 SSTORE CALLER PUSH0 MSTORE PUSH0 DUP3 MSTORE DUP1 PUSH0 KECCAK256 DUP5 DUP2 SLOAD ADD SWAP1 SSTORE DUP1 MLOAD DUP5 DUP2 MSTORE PUSH0 PUSH32 0xDDF252AD1BE2C89B69C2B068FC378DAA952BA7F163C4A11628F55A4DF523B3EF DUP5 CALLER SWAP4 LOG3 MLOAD SWAP3 DUP4 MSTORE CALLER SWAP3 LOG2 STOP JUMPDEST PUSH1 0x11 DUP6 PUSH4 0x4E487B71 PUSH1 0xE0 SHL PUSH0 MSTORE MSTORE PUSH1 0x24 PUSH0 REVERT JUMPDEST DUP2 MLOAD PUSH4 0xEC442F05 PUSH1 0xE0 SHL DUP2 MSTORE PUSH0 DUP2 DUP6 ADD MSTORE PUSH1 0x24 SWAP1 REVERT JUMPDEST SWAP1 MLOAD PUSH3 0x461BCD PUSH1 0xE5 SHL DUP2 MSTORE SWAP2 DUP3 ADD MSTORE PUSH1 0x15 PUSH1 0x24 DUP3 ADD MSTORE PUSH21 0x615553443A20636F6F6C646F776E20616374697665 PUSH1 0x58 SHL PUSH1 0x44 DUP3 ADD MSTORE PUSH1 0x64 SWAP1 REVERT JUMPDEST PUSH1 0x11 DUP5 PUSH4 0x4E487B71 PUSH1 0xE0 SHL PUSH0 MSTORE MSTORE PUSH1 0x24 PUSH0 REVERT JUMPDEST DUP3 CALLVALUE PUSH2 0x137 JUMPI DUP1 PUSH1 0x3 NOT CALLDATASIZE ADD SLT PUSH2 0x137 JUMPI PUSH1 0x20 SWAP1 PUSH2 0x33C PUSH2 0xA90 JUMP JUMPDEST PUSH2 0x344 PUSH2 0xAA6 JUMP JUMPDEST SWAP1 PUSH1 0x1 DUP1 PUSH1 0xA0 SHL SUB DUP1 SWAP2 AND PUSH0 MSTORE PUSH1 0x1 DUP5 MSTORE DUP3 PUSH0 KECCAK256 SWAP2 AND PUSH0 MSTORE DUP3 MSTORE DUP1 PUSH0 KECCAK256 SLOAD SWAP1 MLOAD SWAP1 DUP2 MSTORE RETURN JUMPDEST DUP3 CALLVALUE PUSH2 0x137 JUMPI PUSH1 0x20 CALLDATASIZE PUSH1 0x3 NOT ADD SLT PUSH2 0x137 JUMPI PUSH1 0x20 SWAP1 PUSH2 0x38E PUSH2 0x389 PUSH2 0xA90 JUMP JUMPDEST PUSH2 0xAFA JUMP JUMPDEST SWAP1 MLOAD SWAP1 DUP2 MSTORE RETURN JUMPDEST DUP3 CALLVALUE PUSH2 0x137 JUMPI DUP1 PUSH1 0x3 NOT CALLDATASIZE ADD SLT PUSH2 0x137 JUMPI PUSH1 0x20 SWAP1 PUSH2 0x3BE PUSH2 0x3B4 PUSH2 0xA90 JUMP JUMPDEST PUSH1 0x24 CALLDATALOAD SWAP1 CALLER PUSH2 0xB51 JUMP JUMPDEST MLOAD PUSH1 0x1 DUP2 MSTORE RETURN JUMPDEST DUP3 CALLVALUE PUSH2 0x137 JUMPI PUSH1 0x20 CALLDATASIZE PUSH1 0x3 NOT ADD SLT PUSH2 0x137 JUMPI PUSH2 0x3DF PUSH2 0xA90 JUMP JUMPDEST PUSH1 0x5 SLOAD PUSH1 0x1 PUSH1 0x1 PUSH1 0xA0 SHL SUB SWAP2 SWAP1 PUSH2 0x3F9 SWAP1 DUP4 AND CALLER EQ PUSH2 0xABC JUMP JUMPDEST AND SWAP1 DUP2 PUSH0 MSTORE PUSH1 0x6 PUSH1 0x20 MSTORE PUSH0 KECCAK256 PUSH1 0x1 PUSH1 0xFF NOT DUP3 SLOAD AND OR SWAP1 SSTORE PUSH32 0x6AE172837EA30B801FBFCDD4108AA1D5BF8FF775444FD70256B44E6BF3DFC3F6 PUSH0 DUP1 LOG2 STOP JUMPDEST DUP3 CALLVALUE PUSH2 0x137 JUMPI PUSH0 CALLDATASIZE PUSH1 0x3 NOT ADD SLT PUSH2 0x137 JUMPI DUP1 MLOAD SWAP1 PUSH0 DUP4 SLOAD PUSH1 0x1 DUP2 PUSH1 0x1 SHR SWAP1 PUSH1 0x1 DUP4 AND SWAP3 DUP4 ISZERO PUSH2 0x54B JUMPI JUMPDEST PUSH1 0x20 SWAP4 DUP5 DUP5 LT DUP2 EQ PUSH2 0x538 JUMPI DUP4 DUP9 MSTORE SWAP1 DUP2 ISZERO PUSH2 0x51C JUMPI POP PUSH1 0x1 EQ PUSH2 0x4C8 JUMPI JUMPDEST POP POP POP DUP3 SWAP1 SUB PUSH1 0x1F ADD PUSH1 0x1F NOT AND DUP3 ADD SWAP3 PUSH8 0xFFFFFFFFFFFFFFFF DUP5 GT DUP4 DUP6 LT OR PUSH2 0x4B5 JUMPI POP DUP3 SWAP2 DUP3 PUSH2 0x4B1 SWAP3 MSTORE DUP3 PUSH2 0xA49 JUMP JUMPDEST SUB SWAP1 RETURN JUMPDEST PUSH1 0x41 SWAP1 PUSH4 0x4E487B71 PUSH1 0xE0 SHL PUSH0 MSTORE MSTORE PUSH1 0x24 PUSH0 REVERT JUMPDEST PUSH0 DUP8 DUP2 MSTORE SWAP3 SWAP4 POP DUP4 PUSH32 0x8A35ACFBC15FF81A39AE7D344FD709F28E8600B4AA8C65C6B64BFE7FE36BD19B JUMPDEST DUP4 DUP6 LT PUSH2 0x508 JUMPI POP POP POP POP DUP4 ADD ADD DUP5 DUP1 DUP1 PUSH2 0x47F JUMP JUMPDEST DUP1 SLOAD DUP9 DUP7 ADD DUP4 ADD MSTORE SWAP4 ADD SWAP3 DUP5 SWAP1 DUP3 ADD PUSH2 0x4F2 JUMP JUMPDEST PUSH1 0xFF NOT AND DUP8 DUP6 ADD MSTORE POP POP ISZERO ISZERO PUSH1 0x5 SHL DUP5 ADD ADD SWAP1 POP DUP5 DUP1 DUP1 PUSH2 0x47F JUMP JUMPDEST PUSH1 0x22 DUP10 PUSH4 0x4E487B71 PUSH1 0xE0 SHL PUSH0 MSTORE MSTORE PUSH1 0x24 PUSH0 REVERT JUMPDEST SWAP2 PUSH1 0x7F AND SWAP2 PUSH2 0x460 JUMP JUMPDEST DUP3 CALLVALUE PUSH2 0x137 JUMPI PUSH0 CALLDATASIZE PUSH1 0x3 NOT ADD SLT PUSH2 0x137 JUMPI PUSH1 0x5 SLOAD SWAP1 MLOAD PUSH1 0x1 PUSH1 0x1 PUSH1 0xA0 SHL SUB SWAP1 SWAP2 AND DUP2 MSTORE PUSH1 0x20 SWAP1 RETURN JUMPDEST DUP3 CALLVALUE PUSH2 0x137 JUMPI PUSH0 CALLDATASIZE PUSH1 0x3 NOT ADD SLT PUSH2 0x137 JUMPI PUSH1 0x20 SWAP1 MLOAD PUSH3 0x15180 DUP2 MSTORE RETURN JUMPDEST DUP3 CALLVALUE PUSH2 0x137 JUMPI PUSH0 CALLDATASIZE PUSH1 0x3 NOT ADD SLT PUSH2 0x137 JUMPI PUSH1 0x20 SWAP1 MLOAD PUSH5 0x2540BE400 DUP2 MSTORE RETURN JUMPDEST DUP3 CALLVALUE PUSH2 0x137 JUMPI PUSH1 0x20 CALLDATASIZE PUSH1 0x3 NOT ADD SLT PUSH2 0x137 JUMPI PUSH1 0x20 SWAP1 PUSH1 0x1 PUSH1 0x1 PUSH1 0xA0 SHL SUB PUSH2 0x5DE PUSH2 0xA90 JUMP JUMPDEST AND PUSH0 MSTORE PUSH0 DUP3 MSTORE DUP1 PUSH0 KECCAK256 SLOAD SWAP1 MLOAD SWAP1 DUP2 MSTORE RETURN JUMPDEST DUP3 CALLVALUE PUSH2 0x137 JUMPI PUSH1 0x20 CALLDATASIZE PUSH1 0x3 NOT ADD SLT PUSH2 0x137 JUMPI PUSH1 0x20 SWAP1 PUSH1 0x1 PUSH1 0x1 PUSH1 0xA0 SHL SUB PUSH2 0x614 PUSH2 0xA90 JUMP JUMPDEST AND PUSH0 MSTORE PUSH1 0x7 DUP3 MSTORE DUP1 PUSH0 KECCAK256 SLOAD SWAP1 MLOAD SWAP1 DUP2 MSTORE RETURN JUMPDEST DUP3 CALLVALUE PUSH2 0x137 JUMPI DUP1 PUSH1 0x3 NOT CALLDATASIZE ADD SLT PUSH2 0x137 JUMPI PUSH2 0x63F PUSH2 0xA90 JUMP JUMPDEST SWAP1 PUSH1 0x24 CALLDATALOAD SWAP2 CALLER PUSH0 MSTORE PUSH1 0x6 PUSH1 0x20 MSTORE PUSH1 0xFF DUP3 PUSH0 KECCAK256 SLOAD AND DUP1 ISZERO PUSH2 0x71C JUMPI JUMPDEST ISZERO PUSH2 0x6E6 JUMPI PUSH1 0x1 PUSH1 0x1 PUSH1 0xA0 SHL SUB AND SWAP3 DUP4 ISZERO PUSH2 0x6D1 JUMPI PUSH1 0x2 SLOAD SWAP1 DUP4 DUP3 ADD DUP1 SWAP3 GT PUSH2 0x6BE JUMPI POP PUSH0 SWAP3 PUSH32 0xDDF252AD1BE2C89B69C2B068FC378DAA952BA7F163C4A11628F55A4DF523B3EF SWAP3 PUSH1 0x20 SWAP3 PUSH1 0x2 SSTORE DUP6 DUP6 MSTORE DUP5 DUP4 MSTORE DUP1 DUP6 KECCAK256 DUP3 DUP2 SLOAD ADD SWAP1 SSTORE MLOAD SWAP1 DUP2 MSTORE LOG3 STOP JUMPDEST PUSH1 0x11 SWAP1 PUSH4 0x4E487B71 PUSH1 0xE0 SHL PUSH0 MSTORE MSTORE PUSH1 0x24 PUSH0 REVERT JUMPDEST PUSH0 PUSH1 0x24 SWAP3 MLOAD SWAP2 PUSH4 0xEC442F05 PUSH1 0xE0 SHL DUP4 MSTORE DUP3 ADD MSTORE REVERT JUMPDEST DUP2 MLOAD PUSH3 0x461BCD PUSH1 0xE5 SHL DUP2 MSTORE PUSH1 0x20 DUP2 DUP7 ADD MSTORE PUSH1 0x10 PUSH1 0x24 DUP3 ADD MSTORE PUSH16 0x30AAA9A21D103737BA1036B4B73A32B9 PUSH1 0x81 SHL PUSH1 0x44 DUP3 ADD MSTORE PUSH1 0x64 SWAP1 REVERT JUMPDEST POP PUSH1 0x5 SLOAD PUSH1 0x1 PUSH1 0x1 PUSH1 0xA0 SHL SUB AND CALLER EQ PUSH2 0x65A JUMP JUMPDEST DUP3 CALLVALUE PUSH2 0x137 JUMPI PUSH0 CALLDATASIZE PUSH1 0x3 NOT ADD SLT PUSH2 0x137 JUMPI PUSH1 0x20 SWAP1 MLOAD PUSH1 0x6 DUP2 MSTORE RETURN JUMPDEST DUP3 CALLVALUE PUSH2 0x137 JUMPI PUSH1 0x20 CALLDATASIZE PUSH1 0x3 NOT ADD SLT PUSH2 0x137 JUMPI PUSH2 0x765 PUSH2 0xA90 JUMP JUMPDEST PUSH1 0x5 SLOAD PUSH1 0x1 PUSH1 0x1 PUSH1 0xA0 SHL SUB SWAP2 SWAP1 PUSH2 0x77F SWAP1 DUP4 AND CALLER EQ PUSH2 0xABC JUMP JUMPDEST AND SWAP1 DUP2 PUSH0 MSTORE PUSH1 0x6 PUSH1 0x20 MSTORE PUSH0 KECCAK256 PUSH1 0xFF NOT DUP2 SLOAD AND SWAP1 SSTORE PUSH32 0xE94479A9F7E1952CC78F2D6BAAB678ADC1B772D936C6583DEF489E524CB66692 PUSH0 DUP1 LOG2 STOP JUMPDEST SWAP1 POP CALLVALUE PUSH2 0x137 JUMPI PUSH1 0x60 CALLDATASIZE PUSH1 0x3 NOT ADD SLT PUSH2 0x137 JUMPI PUSH2 0x7D4 PUSH2 0xA90 JUMP JUMPDEST PUSH2 0x7DC PUSH2 0xAA6 JUMP JUMPDEST SWAP1 PUSH1 0x44 CALLDATALOAD SWAP3 PUSH1 0x1 DUP1 PUSH1 0xA0 SHL SUB DUP3 AND DUP1 PUSH0 MSTORE PUSH1 0x1 PUSH1 0x20 MSTORE DUP6 PUSH0 KECCAK256 CALLER PUSH0 MSTORE PUSH1 0x20 MSTORE DUP6 PUSH0 KECCAK256 SLOAD SWAP2 PUSH0 NOT DUP4 LT PUSH2 0x817 JUMPI JUMPDEST PUSH1 0x20 DUP8 PUSH2 0x3BE DUP9 DUP9 DUP9 PUSH2 0xB51 JUMP JUMPDEST DUP6 DUP4 LT PUSH2 0x87F JUMPI DUP2 ISZERO PUSH2 0x869 JUMPI CALLER ISZERO PUSH2 0x853 JUMPI POP PUSH0 SWAP1 DUP2 MSTORE PUSH1 0x1 PUSH1 0x20 SWAP1 DUP2 MSTORE DUP7 DUP3 KECCAK256 CALLER DUP4 MSTORE DUP2 MSTORE SWAP1 DUP7 SWAP1 KECCAK256 SWAP2 DUP6 SWAP1 SUB SWAP1 SWAP2 SSTORE DUP3 SWAP1 PUSH2 0x3BE PUSH2 0x809 JUMP JUMPDEST PUSH1 0x24 SWAP1 PUSH0 DUP9 MLOAD SWAP2 PUSH4 0x4A1406B1 PUSH1 0xE1 SHL DUP4 MSTORE DUP3 ADD MSTORE REVERT JUMPDEST PUSH1 0x24 SWAP1 PUSH0 DUP9 MLOAD SWAP2 PUSH4 0xE602DF05 PUSH1 0xE0 SHL DUP4 MSTORE DUP3 ADD MSTORE REVERT JUMPDEST DUP7 MLOAD PUSH4 0x7DC7A0D9 PUSH1 0xE1 SHL DUP2 MSTORE CALLER SWAP2 DUP2 ADD SWAP2 DUP3 MSTORE PUSH1 0x20 DUP3 ADD SWAP4 SWAP1 SWAP4 MSTORE PUSH1 0x40 DUP2 ADD DUP7 SWAP1 MSTORE DUP3 SWAP2 POP PUSH1 0x60 ADD SUB SWAP1 REVERT JUMPDEST DUP3 CALLVALUE PUSH2 0x137 JUMPI PUSH0 CALLDATASIZE PUSH1 0x3 NOT ADD SLT PUSH2 0x137 JUMPI PUSH1 0x20 SWAP1 PUSH1 0x2 SLOAD SWAP1 MLOAD SWAP1 DUP2 MSTORE RETURN JUMPDEST DUP3 CALLVALUE PUSH2 0x137 JUMPI DUP1 PUSH1 0x3 NOT CALLDATASIZE ADD SLT PUSH2 0x137 JUMPI PUSH2 0x8E2 PUSH2 0xA90 JUMP JUMPDEST PUSH1 0x24 CALLDATALOAD SWAP1 CALLER ISZERO PUSH2 0x95B JUMPI PUSH1 0x1 PUSH1 0x1 PUSH1 0xA0 SHL SUB AND SWAP1 DUP2 ISZERO PUSH2 0x945 JUMPI PUSH1 0x20 SWAP4 POP CALLER PUSH0 MSTORE PUSH1 0x1 DUP5 MSTORE DUP3 PUSH0 KECCAK256 DUP3 PUSH0 MSTORE DUP5 MSTORE DUP1 DUP4 PUSH0 KECCAK256 SSTORE DUP3 MLOAD SWAP1 DUP2 MSTORE PUSH32 0x8C5BE1E5EBEC7D5BD14F71427D1E84F3DD0314C0F7B2291E5B200AC8C7C3B925 DUP5 CALLER SWAP3 LOG3 MLOAD PUSH1 0x1 DUP2 MSTORE RETURN JUMPDEST DUP3 MLOAD PUSH4 0x4A1406B1 PUSH1 0xE1 SHL DUP2 MSTORE PUSH0 DUP2 DUP7 ADD MSTORE PUSH1 0x24 SWAP1 REVERT JUMPDEST DUP3 MLOAD PUSH4 0xE602DF05 PUSH1 0xE0 SHL DUP2 MSTORE PUSH0 DUP2 DUP7 ADD MSTORE PUSH1 0x24 SWAP1 REVERT JUMPDEST DUP4 CALLVALUE PUSH2 0x137 JUMPI PUSH0 CALLDATASIZE PUSH1 0x3 NOT ADD SLT PUSH2 0x137 JUMPI PUSH0 PUSH1 0x3 SLOAD PUSH1 0x1 DUP2 PUSH1 0x1 SHR SWAP1 PUSH1 0x1 DUP4 AND SWAP3 DUP4 ISZERO PUSH2 0xA3F JUMPI JUMPDEST PUSH1 0x20 SWAP4 DUP5 DUP5 LT DUP2 EQ PUSH2 0x538 JUMPI DUP4 DUP9 MSTORE SWAP1 DUP2 ISZERO PUSH2 0x51C JUMPI POP PUSH1 0x1 EQ PUSH2 0x9E9 JUMPI POP POP POP DUP3 SWAP1 SUB PUSH1 0x1F ADD PUSH1 0x1F NOT AND DUP3 ADD SWAP3 PUSH8 0xFFFFFFFFFFFFFFFF DUP5 GT DUP4 DUP6 LT OR PUSH2 0x4B5 JUMPI POP DUP3 SWAP2 DUP3 PUSH2 0x4B1 SWAP3 MSTORE DUP3 PUSH2 0xA49 JUMP JUMPDEST PUSH1 0x3 PUSH0 SWAP1 DUP2 MSTORE SWAP3 SWAP4 POP DUP4 PUSH32 0xC2575A0E9E593C00F959F8C92F12DB2869C3395A3B0502D05E2516446F71F85B JUMPDEST DUP4 DUP6 LT PUSH2 0xA2B JUMPI POP POP POP POP DUP4 ADD ADD DUP5 DUP1 DUP1 PUSH2 0x47F JUMP JUMPDEST DUP1 SLOAD DUP9 DUP7 ADD DUP4 ADD MSTORE SWAP4 ADD SWAP3 DUP5 SWAP1 DUP3 ADD PUSH2 0xA15 JUMP JUMPDEST SWAP2 PUSH1 0x7F AND SWAP2 PUSH2 0x999 JUMP JUMPDEST PUSH1 0x20 DUP1 DUP3 MSTORE DUP3 MLOAD DUP2 DUP4 ADD DUP2 SWAP1 MSTORE SWAP1 SWAP4 SWAP3 PUSH0 JUMPDEST DUP3 DUP2 LT PUSH2 0xA7C JUMPI POP POP PUSH1 0x40 SWAP3 SWAP4 POP PUSH0 DUP4 DUP3 DUP5 ADD ADD MSTORE PUSH1 0x1F DUP1 NOT SWAP2 ADD AND ADD ADD SWAP1 JUMP JUMPDEST DUP2 DUP2 ADD DUP7 ADD MLOAD DUP5 DUP3 ADD PUSH1 0x40 ADD MSTORE DUP6 ADD PUSH2 0xA5B JUMP JUMPDEST PUSH1 0x4 CALLDATALOAD SWAP1 PUSH1 0x1 PUSH1 0x1 PUSH1 0xA0 SHL SUB DUP3 AND DUP3 SUB PUSH2 0x137 JUMPI JUMP JUMPDEST PUSH1 0x24 CALLDATALOAD SWAP1 PUSH1 0x1 PUSH1 0x1 PUSH1 0xA0 SHL SUB DUP3 AND DUP3 SUB PUSH2 0x137 JUMPI JUMP JUMPDEST ISZERO PUSH2 0xAC3 JUMPI JUMP JUMPDEST PUSH1 0x40 MLOAD PUSH3 0x461BCD PUSH1 0xE5 SHL DUP2 MSTORE PUSH1 0x20 PUSH1 0x4 DUP3 ADD MSTORE PUSH1 0xF PUSH1 0x24 DUP3 ADD MSTORE PUSH15 0x30AAA9A21D103737BA1037BBB732B9 PUSH1 0x89 SHL PUSH1 0x44 DUP3 ADD MSTORE PUSH1 0x64 SWAP1 REVERT JUMPDEST PUSH1 0x1 PUSH1 0x1 PUSH1 0xA0 SHL SUB AND PUSH0 SWAP1 DUP2 MSTORE PUSH1 0x7 PUSH1 0x20 MSTORE PUSH1 0x40 SWAP1 KECCAK256 SLOAD PUSH3 0x15180 DUP1 DUP3 ADD SWAP2 DUP3 DUP2 GT PUSH2 0xB36 JUMPI DUP3 TIMESTAMP LT ISZERO PUSH2 0xB4A JUMPI TIMESTAMP SWAP1 SUB ADD SWAP1 DUP2 GT PUSH2 0xB36 JUMPI SWAP1 JUMP JUMPDEST PUSH4 0x4E487B71 PUSH1 0xE0 SHL PUSH0 MSTORE PUSH1 0x11 PUSH1 0x4 MSTORE PUSH1 0x24 PUSH0 REVERT JUMPDEST POP POP POP PUSH0 SWAP1 JUMP JUMPDEST SWAP2 PUSH1 0x1 PUSH1 0x1 PUSH1 0xA0 SHL SUB DUP1 DUP5 AND SWAP3 DUP4 ISZERO PUSH2 0xC13 JUMPI AND SWAP3 DUP4 ISZERO PUSH2 0xBFB JUMPI DUP3 PUSH0 MSTORE PUSH0 PUSH1 0x20 MSTORE PUSH1 0x40 PUSH0 KECCAK256 SLOAD SWAP1 DUP3 DUP3 LT PUSH2 0xBC9 JUMPI POP DUP2 PUSH32 0xDDF252AD1BE2C89B69C2B068FC378DAA952BA7F163C4A11628F55A4DF523B3EF SWAP3 PUSH1 0x20 SWAP3 DUP6 PUSH0 MSTORE PUSH0 DUP5 MSTORE SUB PUSH1 0x40 PUSH0 KECCAK256 SSTORE DUP5 PUSH0 MSTORE PUSH1 0x40 PUSH0 KECCAK256 DUP2 DUP2 SLOAD ADD SWAP1 SSTORE PUSH1 0x40 MLOAD SWAP1 DUP2 MSTORE LOG3 JUMP JUMPDEST PUSH1 0x40 MLOAD PUSH4 0x391434E3 PUSH1 0xE2 SHL DUP2 MSTORE PUSH1 0x1 PUSH1 0x1 PUSH1 0xA0 SHL SUB SWAP2 SWAP1 SWAP2 AND PUSH1 0x4 DUP3 ADD MSTORE PUSH1 0x24 DUP2 ADD SWAP2 SWAP1 SWAP2 MSTORE PUSH1 0x44 DUP2 ADD DUP3 SWAP1 MSTORE PUSH1 0x64 SWAP1 REVERT JUMPDEST PUSH1 0x40 MLOAD PUSH4 0xEC442F05 PUSH1 0xE0 SHL DUP2 MSTORE PUSH0 PUSH1 0x4 DUP3 ADD MSTORE PUSH1 0x24 SWAP1 REVERT JUMPDEST PUSH1 0x40 MLOAD PUSH4 0x4B637E8F PUSH1 0xE1 SHL DUP2 MSTORE PUSH0 PUSH1 0x4 DUP3 ADD MSTORE PUSH1 0x24 SWAP1 REVERT INVALID LOG2 PUSH5 0x6970667358 0x22 SLT KECCAK256 SWAP5 0x23 SWAP16 0xDC JUMP 0xE5 PUSH4 0x1EC2FD5B CALLCODE 0xA5 0xD8 CALLVALUE PUSH23 0x4A8F6C1198F516D9C523EE3802BFDCA464736F6C634300 ADDMOD XOR STOP CALLER "},"methodIdentifiers":{"FAUCET_AMOUNT()":"76697640","FAUCET_COOLDOWN()":"7d1d5d19","addMinter(address)":"983b2d56","allowance(address,address)":"dd62ed3e","approve(address,uint256)":"095ea7b3","balanceOf(address)":"70a08231","decimals()":"313ce567","faucet()":"de5f72fd","faucetCooldownRemaining(address)":"b44bae8e","lastFaucet(address)":"4799e212","mint(address,uint256)":"40c10f19","minters(address)":"f46eccc4","name()":"06fdde03","owner()":"8da5cb5b","removeMinter(address)":"3092afd5","symbol()":"95d89b41","totalSupply()":"18160ddd","transfer(address,uint256)":"a9059cbb","transferFrom(address,address,uint256)":"23b872dd","transferOwnership(address)":"f2fde38b"}}}}}