{"contracts/VaultManager.sol":{"VaultManager":{"abi":[{"inputs":[{"internalType":"address","name":"_ausd","type":"address"}],"stateMutability":"nonpayable","type":"constructor"},{"anonymous":false,"inputs":[{"indexed":true,"internalType":"bytes32","name":"vaultId","type":"bytes32"},{"indexed":false,"internalType":"address[]","name":"tokens","type":"address[]"}],"name":"AllowlistAdded","type":"event"},{"anonymous":false,"inputs":[{"indexed":true,"internalType":"bytes32","name":"vaultId","type":"bytes32"},{"indexed":false,"internalType":"address[]","name":"tokens","type":"address[]"}],"name":"AllowlistRemoved","type":"event"},{"anonymous":false,"inputs":[{"indexed":true,"internalType":"address","name":"dex","type":"address"}],"name":"DexSet","type":"event"},{"anonymous":false,"inputs":[{"indexed":true,"internalType":"address","name":"follower","type":"address"},{"indexed":true,"internalType":"address","name":"keeper","type":"address"}],"name":"KeeperSet","type":"event"},{"anonymous":false,"inputs":[{"indexed":true,"internalType":"address","name":"oracle","type":"address"}],"name":"OracleSet","type":"event"},{"anonymous":false,"inputs":[{"indexed":true,"internalType":"bytes32","name":"positionId","type":"bytes32"},{"indexed":true,"internalType":"bytes32","name":"vaultId","type":"bytes32"},{"indexed":false,"internalType":"int256","name":"pnl","type":"int256"},{"indexed":false,"internalType":"uint256","name":"exitPrice","type":"uint256"}],"name":"PositionClosed","type":"event"},{"anonymous":false,"inputs":[{"indexed":true,"internalType":"bytes32","name":"positionId","type":"bytes32"},{"indexed":true,"internalType":"bytes32","name":"vaultId","type":"bytes32"},{"indexed":false,"internalType":"address","name":"token","type":"address"},{"indexed":false,"internalType":"uint256","name":"ausdAllocated","type":"uint256"},{"indexed":false,"internalType":"uint256","name":"entryPrice","type":"uint256"}],"name":"PositionOpened","type":"event"},{"anonymous":false,"inputs":[{"indexed":true,"internalType":"address","name":"token","type":"address"},{"indexed":false,"internalType":"uint256","name":"price","type":"uint256"}],"name":"PriceUpdated","type":"event"},{"anonymous":false,"inputs":[{"indexed":true,"internalType":"uint256","name":"requestId","type":"uint256"},{"indexed":true,"internalType":"bytes32","name":"vaultId","type":"bytes32"},{"indexed":false,"internalType":"uint8","name":"score","type":"uint8"},{"indexed":false,"internalType":"bool","name":"willExecute","type":"bool"}],"name":"StrategistResponse","type":"event"},{"anonymous":false,"inputs":[{"indexed":true,"internalType":"bytes32","name":"vaultId","type":"bytes32"},{"indexed":true,"internalType":"address","name":"token","type":"address"},{"indexed":false,"internalType":"uint256","name":"ausdAllocated","type":"uint256"},{"indexed":false,"internalType":"uint8","name":"copyScore","type":"uint8"}],"name":"TradeCopied","type":"event"},{"anonymous":false,"inputs":[{"indexed":true,"internalType":"bytes32","name":"vaultId","type":"bytes32"},{"indexed":false,"internalType":"string","name":"reason","type":"string"}],"name":"TradeSkipped","type":"event"},{"anonymous":false,"inputs":[{"indexed":true,"internalType":"bytes32","name":"vaultId","type":"bytes32"}],"name":"VaultClosed","type":"event"},{"anonymous":false,"inputs":[{"indexed":true,"internalType":"address","name":"follower","type":"address"},{"indexed":true,"internalType":"address","name":"leader","type":"address"},{"indexed":true,"internalType":"bytes32","name":"vaultId","type":"bytes32"},{"indexed":false,"internalType":"uint256","name":"amount","type":"uint256"}],"name":"VaultCreated","type":"event"},{"anonymous":false,"inputs":[{"indexed":true,"internalType":"bytes32","name":"vaultId","type":"bytes32"},{"indexed":false,"internalType":"uint256","name":"amount","type":"uint256"}],"name":"VaultDeposited","type":"event"},{"anonymous":false,"inputs":[{"indexed":true,"internalType":"bytes32","name":"vaultId","type":"bytes32"}],"name":"VaultPaused","type":"event"},{"anonymous":false,"inputs":[{"indexed":true,"internalType":"address","name":"follower","type":"address"},{"indexed":true,"internalType":"address","name":"leader","type":"address"},{"indexed":true,"internalType":"bytes32","name":"vaultId","type":"bytes32"},{"indexed":false,"internalType":"uint256","name":"amount","type":"uint256"}],"name":"VaultReopened","type":"event"},{"anonymous":false,"inputs":[{"indexed":true,"internalType":"bytes32","name":"vaultId","type":"bytes32"}],"name":"VaultResumed","type":"event"},{"anonymous":false,"inputs":[{"indexed":true,"internalType":"bytes32","name":"vaultId","type":"bytes32"},{"indexed":false,"internalType":"uint256","name":"amount","type":"uint256"}],"name":"VaultWithdrawn","type":"event"},{"anonymous":false,"inputs":[{"indexed":true,"internalType":"uint256","name":"requestId","type":"uint256"},{"indexed":true,"internalType":"bytes32","name":"vaultId","type":"bytes32"}],"name":"WatcherRequested","type":"event"},{"anonymous":false,"inputs":[{"indexed":true,"internalType":"uint256","name":"requestId","type":"uint256"},{"indexed":true,"internalType":"bytes32","name":"vaultId","type":"bytes32"},{"indexed":false,"internalType":"address","name":"tokenOut","type":"address"},{"indexed":false,"internalType":"uint256","name":"usdValue","type":"uint256"},{"indexed":false,"internalType":"uint256","name":"tradeTimestamp","type":"uint256"}],"name":"WatcherResponse","type":"event"},{"inputs":[],"name":"AUSD","outputs":[{"internalType":"address","name":"","type":"address"}],"stateMutability":"view","type":"function"},{"inputs":[],"name":"MAX_SLIPPAGE_BPS","outputs":[{"internalType":"uint16","name":"","type":"uint16"}],"stateMutability":"view","type":"function"},{"inputs":[],"name":"MAX_TRADE_AGE","outputs":[{"internalType":"uint256","name":"","type":"uint256"}],"stateMutability":"view","type":"function"},{"inputs":[],"name":"MIN_COPY_SCORE","outputs":[{"internalType":"uint8","name":"","type":"uint8"}],"stateMutability":"view","type":"function"},{"inputs":[],"name":"MIN_SLIPPAGE_BPS","outputs":[{"internalType":"uint16","name":"","type":"uint16"}],"stateMutability":"view","type":"function"},{"inputs":[],"name":"MIN_TRADE_AUSD","outputs":[{"internalType":"uint256","name":"","type":"uint256"}],"stateMutability":"view","type":"function"},{"inputs":[{"internalType":"address","name":"leader","type":"address"},{"internalType":"address[]","name":"tokens","type":"address[]"}],"name":"addToAllowlist","outputs":[],"stateMutability":"nonpayable","type":"function"},{"inputs":[{"internalType":"bytes32","name":"positionId","type":"bytes32"}],"name":"closePosition","outputs":[],"stateMutability":"nonpayable","type":"function"},{"inputs":[{"internalType":"address","name":"leader","type":"address"},{"internalType":"uint256","name":"amount","type":"uint256"},{"internalType":"uint8","name":"riskLevel","type":"uint8"},{"internalType":"uint8","name":"maxPerTradePct","type":"uint8"},{"internalType":"address[]","name":"allowlist","type":"address[]"},{"components":[{"internalType":"uint16","name":"slippageBps","type":"uint16"},{"internalType":"uint256","name":"minLeaderTradeUsd","type":"uint256"},{"internalType":"uint256","name":"maxLeaderTradeUsd","type":"uint256"},{"internalType":"uint256","name":"minAllocUsd","type":"uint256"},{"internalType":"uint256","name":"maxAllocUsd","type":"uint256"}],"internalType":"struct VaultManager.VaultLimits","name":"limits","type":"tuple"}],"name":"createVault","outputs":[],"stateMutability":"nonpayable","type":"function"},{"inputs":[{"internalType":"address","name":"leader","type":"address"},{"internalType":"uint256","name":"amount","type":"uint256"}],"name":"deposit","outputs":[],"stateMutability":"nonpayable","type":"function"},{"inputs":[],"name":"dex","outputs":[{"internalType":"address","name":"","type":"address"}],"stateMutability":"view","type":"function"},{"inputs":[{"internalType":"address","name":"follower","type":"address"},{"internalType":"address","name":"leader","type":"address"},{"internalType":"address","name":"tokenOut","type":"address"},{"internalType":"uint256","name":"usdValue","type":"uint256"},{"internalType":"uint256","name":"tradePrice","type":"uint256"},{"internalType":"uint256","name":"tradeTimestamp","type":"uint256"},{"internalType":"uint8","name":"score","type":"uint8"}],"name":"executeCopyTrade","outputs":[],"stateMutability":"nonpayable","type":"function"},{"inputs":[{"internalType":"address","name":"","type":"address"},{"internalType":"uint256","name":"","type":"uint256"}],"name":"followerVaults","outputs":[{"internalType":"bytes32","name":"","type":"bytes32"}],"stateMutability":"view","type":"function"},{"inputs":[{"internalType":"address","name":"follower","type":"address"},{"internalType":"address","name":"leader","type":"address"}],"name":"getAllowlist","outputs":[{"internalType":"address[]","name":"","type":"address[]"}],"stateMutability":"view","type":"function"},{"inputs":[{"internalType":"address","name":"follower","type":"address"}],"name":"getFollowerVaults","outputs":[{"internalType":"bytes32[]","name":"","type":"bytes32[]"}],"stateMutability":"view","type":"function"},{"inputs":[{"internalType":"address","name":"follower","type":"address"},{"internalType":"address","name":"leader","type":"address"}],"name":"getFreeBalance","outputs":[{"internalType":"uint256","name":"","type":"uint256"}],"stateMutability":"view","type":"function"},{"inputs":[{"internalType":"address","name":"follower","type":"address"},{"internalType":"address","name":"leader","type":"address"}],"name":"getOpenPositions","outputs":[{"internalType":"bytes32[]","name":"openIds","type":"bytes32[]"}],"stateMutability":"view","type":"function"},{"inputs":[{"internalType":"address","name":"follower","type":"address"},{"internalType":"address","name":"leader","type":"address"}],"name":"getUnrealizedPnL","outputs":[{"internalType":"int256","name":"totalPnl","type":"int256"}],"stateMutability":"view","type":"function"},{"inputs":[{"internalType":"address","name":"follower","type":"address"},{"internalType":"address","name":"leader","type":"address"}],"name":"getVault","outputs":[{"components":[{"internalType":"address","name":"follower","type":"address"},{"internalType":"address","name":"leader","type":"address"},{"internalType":"uint256","name":"ausdLocked","type":"uint256"},{"internalType":"uint256","name":"ausdAllocated","type":"uint256"},{"internalType":"uint8","name":"riskLevel","type":"uint8"},{"internalType":"uint8","name":"maxPerTradePct","type":"uint8"},{"internalType":"address[]","name":"allowlist","type":"address[]"},{"internalType":"enum VaultManager.VaultStatus","name":"status","type":"uint8"},{"components":[{"internalType":"uint16","name":"slippageBps","type":"uint16"},{"internalType":"uint256","name":"minLeaderTradeUsd","type":"uint256"},{"internalType":"uint256","name":"maxLeaderTradeUsd","type":"uint256"},{"internalType":"uint256","name":"minAllocUsd","type":"uint256"},{"internalType":"uint256","name":"maxAllocUsd","type":"uint256"}],"internalType":"struct VaultManager.VaultLimits","name":"limits","type":"tuple"}],"internalType":"struct VaultManager.VaultConfig","name":"","type":"tuple"}],"stateMutability":"view","type":"function"},{"inputs":[{"internalType":"address","name":"","type":"address"}],"name":"keeperOf","outputs":[{"internalType":"address","name":"","type":"address"}],"stateMutability":"view","type":"function"},{"inputs":[{"internalType":"address","name":"","type":"address"}],"name":"latestPrice","outputs":[{"internalType":"uint256","name":"","type":"uint256"}],"stateMutability":"view","type":"function"},{"inputs":[],"name":"oracle","outputs":[{"internalType":"address","name":"","type":"address"}],"stateMutability":"view","type":"function"},{"inputs":[],"name":"owner","outputs":[{"internalType":"address","name":"","type":"address"}],"stateMutability":"view","type":"function"},{"inputs":[{"internalType":"address","name":"leader","type":"address"}],"name":"pauseVault","outputs":[],"stateMutability":"nonpayable","type":"function"},{"inputs":[{"internalType":"bytes32","name":"","type":"bytes32"}],"name":"positions","outputs":[{"internalType":"address","name":"follower","type":"address"},{"internalType":"address","name":"leader","type":"address"},{"internalType":"bytes32","name":"vaultId","type":"bytes32"},{"internalType":"address","name":"token","type":"address"},{"internalType":"uint256","name":"ausdAllocated","type":"uint256"},{"internalType":"uint256","name":"tokenAmount","type":"uint256"},{"internalType":"uint256","name":"entryPrice","type":"uint256"},{"internalType":"uint256","name":"exitPrice","type":"uint256"},{"internalType":"int256","name":"pnl","type":"int256"},{"internalType":"enum VaultManager.PositionStatus","name":"status","type":"uint8"},{"internalType":"uint256","name":"openedAt","type":"uint256"},{"internalType":"uint256","name":"closedAt","type":"uint256"}],"stateMutability":"view","type":"function"},{"inputs":[{"internalType":"address","name":"leader","type":"address"},{"internalType":"address[]","name":"tokens","type":"address[]"}],"name":"removeFromAllowlist","outputs":[],"stateMutability":"nonpayable","type":"function"},{"inputs":[{"internalType":"address","name":"leader","type":"address"},{"internalType":"uint256","name":"amount","type":"uint256"},{"internalType":"uint8","name":"riskLevel","type":"uint8"},{"internalType":"uint8","name":"maxPerTradePct","type":"uint8"},{"internalType":"address[]","name":"allowlist","type":"address[]"},{"components":[{"internalType":"uint16","name":"slippageBps","type":"uint16"},{"internalType":"uint256","name":"minLeaderTradeUsd","type":"uint256"},{"internalType":"uint256","name":"maxLeaderTradeUsd","type":"uint256"},{"internalType":"uint256","name":"minAllocUsd","type":"uint256"},{"internalType":"uint256","name":"maxAllocUsd","type":"uint256"}],"internalType":"struct VaultManager.VaultLimits","name":"limits","type":"tuple"}],"name":"reopenVault","outputs":[],"stateMutability":"nonpayable","type":"function"},{"inputs":[{"internalType":"address","name":"leader","type":"address"}],"name":"resumeVault","outputs":[],"stateMutability":"nonpayable","type":"function"},{"inputs":[{"internalType":"address","name":"_dex","type":"address"}],"name":"setDex","outputs":[],"stateMutability":"nonpayable","type":"function"},{"inputs":[{"internalType":"address","name":"keeper","type":"address"}],"name":"setKeeper","outputs":[],"stateMutability":"nonpayable","type":"function"},{"inputs":[{"internalType":"address","name":"_oracle","type":"address"}],"name":"setOracle","outputs":[],"stateMutability":"nonpayable","type":"function"},{"inputs":[{"internalType":"address","name":"token","type":"address"},{"internalType":"uint256","name":"price","type":"uint256"}],"name":"setPrice","outputs":[],"stateMutability":"nonpayable","type":"function"},{"inputs":[{"internalType":"address","name":"newOwner","type":"address"}],"name":"transferOwnership","outputs":[],"stateMutability":"nonpayable","type":"function"},{"inputs":[{"internalType":"address","name":"follower","type":"address"},{"internalType":"address","name":"leader","type":"address"}],"name":"vaultId","outputs":[{"internalType":"bytes32","name":"","type":"bytes32"}],"stateMutability":"pure","type":"function"},{"inputs":[{"internalType":"bytes32","name":"","type":"bytes32"},{"internalType":"uint256","name":"","type":"uint256"}],"name":"vaultPositions","outputs":[{"internalType":"bytes32","name":"","type":"bytes32"}],"stateMutability":"view","type":"function"},{"inputs":[{"internalType":"bytes32","name":"","type":"bytes32"}],"name":"vaults","outputs":[{"internalType":"address","name":"follower","type":"address"},{"internalType":"address","name":"leader","type":"address"},{"internalType":"uint256","name":"ausdLocked","type":"uint256"},{"internalType":"uint256","name":"ausdAllocated","type":"uint256"},{"internalType":"uint8","name":"riskLevel","type":"uint8"},{"internalType":"uint8","name":"maxPerTradePct","type":"uint8"},{"internalType":"enum VaultManager.VaultStatus","name":"status","type":"uint8"},{"components":[{"internalType":"uint16","name":"slippageBps","type":"uint16"},{"internalType":"uint256","name":"minLeaderTradeUsd","type":"uint256"},{"internalType":"uint256","name":"maxLeaderTradeUsd","type":"uint256"},{"internalType":"uint256","name":"minAllocUsd","type":"uint256"},{"internalType":"uint256","name":"maxAllocUsd","type":"uint256"}],"internalType":"struct VaultManager.VaultLimits","name":"limits","type":"tuple"}],"stateMutability":"view","type":"function"},{"inputs":[{"internalType":"address","name":"leader","type":"address"}],"name":"withdraw","outputs":[],"stateMutability":"nonpayable","type":"function"}],"evm":{"bytecode":{"linkReferences":{},"object":"60a034620000f057601f6200350738819003918201601f19168301916001600160401b03831184841017620000f457808492602094604052833981010312620000f057516001600160a01b038116808203620000f05715620000ab576080525f80546001600160a01b031916331790556040516133fe9081620001098239608051818181610eae015281816114e8015281816118bb01528181611add01528181611ca10152612f220152f35b60405162461bcd60e51b815260206004820152601560248201527f564d3a207a65726f2061555344206164647265737300000000000000000000006044820152606490fd5b5f80fd5b634e487b7160e01b5f52604160045260245ffdfe6080806040526004361015610012575f80fd5b5f3560e01c908162e4768b14611e795750806319530a8214610c6a5780631aac919714611d195780631fb3e24e14611cd05780632fd7d1fd14611c8c5780633c4ce22114611c53578063447fa8b714611be657806347e7ef2414611a5b5780634a5010a0146117da5780634e6ec0e614611706578063514ea4bf1461164657806351cff8d91461144757806353084eff1461140f578063572fcdcd1461138d5780635a2d6f5d14611370578063692058c214611348578063748747e6146112df5780637adbf973146112725780637dc0d1d01461124a5780637e16902314610ddb5780638da5cb5b14610db457806392bc691414610ca15780639530b30f14610c85578063b8ff783d14610c6a578063bbd7edc514610a94578063bd44815f14610a76578063c0bd6f9e1461099c578063c81e62e614610957578063cca23bf21461088b578063d01ec4a614610842578063d480574214610816578063de700da6146107dd578063e229cd76146107c1578063e54a2ad514610455578063e8134712146102dc578063f2fde38b1461025b5763f4fe2f94146101b2575f80fd5b346102575760e0366003190112610257576101cb611faa565b6101d3611fc0565b6001600160a01b0391906044359083821682036102575760c4359260ff841684036102575761021c8561022d9683169081331491821561023d575b50811561022f575b506127cc565b60a43592608435926064359261287a565b005b90506001541633145f610216565b9091505f5260076020528060405f2054163314905f61020e565b5f80fd5b3461025757602036600319011261025757610274611faa565b5f54906001600160a01b039061028d33838516146122f6565b169081156102a4576001600160a01b031916175f55005b60405162461bcd60e51b815260206004820152601060248201526f564d3a207a65726f206164647265737360801b6044820152606490fd5b34610257576040366003190112610257576103066102f8611faa565b610300611fc0565b906125cf565b5f526020600660205260405f20905f905f908354915b828110610408575061032d8361252a565b9261033b60405194856121a6565b80845261034a601f199161252a565b013660208501375f935f5b83811061036e576040518061036a87826120e9565b0390f35b610378818361205f565b9054600391821b1c5f526004845260ff600960405f2001541660028110156103f457156103a9575b50600101610355565b6103b6828498939861205f565b9054911b1c956103c58261286c565b9686518310156103e0578460019360051b88010152906103a0565b634e487b7160e01b5f52603260045260245ffd5b634e487b7160e01b5f52602160045260245ffd5b610412818661205f565b90549060031b1c5f526004825260ff600960405f2001541660028110156103f45715610441575b60010161031c565b9261044d60019161286c565b939050610439565b346102575760208060031936011261025757600435805f526004825260405f2091600983019060ff82541660028110156103f4576107855783546001600160a01b039290831633811490811561076e575b508015610761575b6104b7906127cc565b8260025416916104c883151561280d565b600286015495865f526003825260405f20946003820195818754169560058401805461052087828b60405193849283926347bc983760e11b84526004840160209093929193604081019460018060a01b031681520152565b0381875afa9081156106f8575f91610730575b509061058e9961271061055a8a9461ffff6105538160078c01541661284b565b16906124c8565b04945f604051809d8195829463095ea7b360e01b84526004840160209093929193604081019460018060a01b031681520152565b03925af19182156106f8576105f1988793610703575b506002548a5492546040516379f3754560e11b81529387166001600160a01b03166004850152602484015260448301919091523060648301529097889185169082905f9082906084820190565b03925af19586156106f8575f9661069f575b50907fb8afeb408acd10e29c21161f211b1e177a3ce18923199654650821f940cff38a9683926106686003600460409a99989701805461065b610646828d612616565b9b6106566002880193845461285f565b61238b565b905554920191825461285f565b905554165f5260088252845f205492836007830155846008830155600160ff19825416179055600b429101558351928352820152a3005b9550939291908286813d83116106f1575b6106ba81836121a6565b81010312610257579451949293919290917fb8afeb408acd10e29c21161f211b1e177a3ce18923199654650821f940cff38a610603565b503d6106b0565b6040513d5f823e3d90fd5b61072290843d8611610729575b61071a81836121a6565b810190612332565b508c6105a4565b503d610710565b9190508782813d831161075a575b61074881836121a6565b8101031261025757905161058e610533565b503d61073e565b50600154831633146104ae565b90505f52600782528260405f2054163314866104a6565b6064906040519062461bcd60e51b8252600482015260156024820152742b269d103837b9b4ba34b7b7103737ba1037b832b760591b6044820152fd5b34610257575f3660031901126102575760206040516107d08152f35b34610257576040366003190112610257576107f96102f8611faa565b5f526003602052602061080e60405f20612e4d565b604051908152f35b3461025757604036600319011261025757602061080e610834611faa565b61083c611fc0565b9061262e565b346102575760403660031901126102575761085e6102f8611faa565b5f52600360205261036a610877600560405f2001612576565b604051918291602083526020830190612124565b34610257576020366003190112610257576004355f52600360205261018060405f2061095560018060a01b039161091d83825416936001830154169160ff600282015460038301546004840154916108ec60078560068801541696016121c8565b96604051998a5260208a015260408901526060880152818116608088015260081c1660a086015260c0850190612160565b805161ffff1660e084015260208101516101008401526040810151610120840152606081015161014084015260800151610160830152565bf35b34610257576040366003190112610257576024356004355f52600660205260405f2080548210156102575760209161098e9161205f565b90546040519160031b1c8152f35b34610257576020366003190112610257576109be6109b8611faa565b336125cf565b5f818152600360205260409020546109e0906001600160a01b03163314612246565b805f52600360205260ff600660405f2001541660038110156103f457610a4057805f526003602052600660405f2001600160ff198254161790557f7ca948eddccf3a65f738292fe09d47dd38a0616763f1a1a78715430c7a18a18b5f80a2005b60405162461bcd60e51b815260206004820152600e60248201526d564d3a206e6f742061637469766560901b6044820152606490fd5b3461025757604036600319011261025757602061080e6102f8611faa565b3461025757604036600319011261025757610aad611faa565b610ab5611fc0565b90610b2960405192610ac68461216d565b5f84526020925f848601525f60408601525f60608601525f60808601525f60a0860152606060c08601525f60e0860152610100948560405191610b088361218a565b5f83525f878401525f60408401525f60608401525f608084015201526125cf565b5f526003815260405f2060405192610b408461216d565b60018060a01b0390818354168552816001840154169184860192835260028401546040870190815260038501549060608801918252600486015491608089019160ff8416835260ff60a08b019460081c168452610b9f60058901612576565b9460c08b0195865260ff60068a0154169860e08c019960038110156103f4578a52600701610bcc906121c8565b97878c019889528a826040519d8e9d8e525116908c0152511660408a01525160608901525160808801525160ff1660a08701525160ff1660c08601525160e085016101a090526101c08501610c2091612124565b9251908401610c2e91612160565b51805161ffff16610120840152602081015161014084015260408101516101608401526060810151610180840152608001516101a08301520390f35b34610257575f366003190112610257576020604051600a8152f35b34610257575f36600319011261025757602060405161012c8152f35b3461025757610cc0610cb23661201b565b9290916109b8841515612208565b91825f526003602052610ce03360018060a01b0360405f20541614612246565b5f838152600360205260408120600501905b828110610d8f57505415610d36577f89216286babe3a315db35c8a44501c50b04e4af6db52228800178fa93abbcfa691610d31604051928392836122ab565b0390a2005b60405162461bcd60e51b815260206004820152602b60248201527f564d3a2063616e6e6f742072656d6f766520616c6c20746f6b656e732066726f60448201526a1b48185b1b1bdddb1a5cdd60aa1b6064820152608490fd5b80610dae610da8610da36001948789612287565b612297565b84612da0565b01610cf2565b34610257575f366003190112610257575f546040516001600160a01b039091168152602090f35b3461025757610de936612074565b9095939091906001600160a01b038516151580611237575b156111fd5760ff809116936001851015806111f2575b610e20906123ac565b16956001871015806111e7575b610e36906123ed565b610e4181151561242c565b610e4c861515612489565b610e5583612c28565b610e5f85336125cf565b5f818152600360205260409020549097906001600160a01b03166111a2576040516323b872dd60e01b8152336004820152306024820152604481018890526020816064815f6001600160a01b037f0000000000000000000000000000000000000000000000000000000000000000165af180156106f857610ee7915f91611183575b5061234a565b60405194610ef48661216d565b3386526001600160a01b0387166020870152604086018890525f6060870152608086015260a0850152610f268161252a565b91610f3460405193846121a6565b8183526020830190368360051b8201116102575780915b8360051b8201831061116b575050505060c08301525f60e083015260a0813603126102575760405190610f7d8261218a565b61ffff813516813503610257578060809135835260208101356020840152604081013560408401526060810135606084015201356080820152610100820152835f52600360205260405f209060018060a01b038151166001600160601b0360a01b9081845416178355600183019060018060a01b036020840151169082541617905560408101516002830155606081015160038301556004820161104b60ff6080840151169160ff19928382541617815560ff60a08501511661ff0082549160081b169061ff001916179055565b6005830160c08301519081519167ffffffffffffffff83116111575760209061107484846124db565b01905f5260205f205f5b83811061113a5750505050600683019160e08101519260038410156103f457600b9360ff6080948354169116179055610100600785019101519061ffff82511661ffff1982541617905560208101516008850155604081015160098501556060810151600a8501550151910155335f5260056020526111008360405f20612542565b6040519182526001600160a01b03169033907f6195d111f124dc39cb1ab083f9f1b6664e415bf60b71499b3a4b24cf07c337a890602090a4005b82516001600160a01b03168183015560209092019160010161107e565b634e487b7160e01b5f52604160045260245ffd5b6020809161117885611fd6565b815201920191610f4b565b61119c915060203d6020116107295761071a81836121a6565b8a610ee1565b60405162461bcd60e51b815260206004820152601860248201527f564d3a207661756c7420616c72656164792065786973747300000000000000006044820152606490fd5b506064871115610e2d565b50600a851115610e17565b60405162461bcd60e51b81526020600482015260126024820152712b269d1034b73b30b634b2103632b0b232b960711b6044820152606490fd5b506001600160a01b038516331415610e01565b34610257575f366003190112610257576001546040516001600160a01b039091168152602090f35b346102575760203660031901126102575761128b611faa565b5f546001600160a01b0391906112a490831633146122f6565b16806001600160601b0360a01b60015416176001557f3f32684a32a11dabdbb8c0177de80aa3ae36a004d75210335b49e544e48cd0aa5f80a2005b34610257576020366003190112610257576112f8611faa565b335f81815260076020526040812080546001600160a01b0319166001600160a01b0390941693841790557f50697e88bd427923002f5d3844f352091c05c0c9c3b69e43830863d2224631739080a3005b34610257575f366003190112610257576002546040516001600160a01b039091168152602090f35b34610257575f366003190112610257576020604051620f42408152f35b3461025757602080600319360112610257576001600160a01b036113af611faa565b165f52600560205260405f20906040519081602084549182815201935f5260205f20915f905b8282106113f85761036a856113ec818903826121a6565b604051918291826120e9565b8354865294850194600193840193909101906113d5565b34610257576020366003190112610257576001600160a01b03611430611faa565b165f526008602052602060405f2054604051908152f35b3461025757602080600319360112610257576114646109b8611faa565b90815f526003815260405f2060018060a01b03611485338284541614612246565b6006820180549260ff841660038110156103f45760021461160c5760038101546115c757600290810180545f9182905560ff199590951690911790915560405163a9059cbb60e01b815233600482015260248101849052918491839160449183917f0000000000000000000000000000000000000000000000000000000000000000165af19081156106f8575f916115aa575b501561156f5782917f1de10dc7adf633383767e576a9953d1b3c4f31a05c1635d7656d25604aca6b1f91604051908152a27fd06ef1be920eaf099a4e446ec48846abae39f5eb6b0877fea0913a68731af5515f80a2005b60405162461bcd60e51b815260048101839052601360248201527215934e881dda5d1a191c985dc819985a5b1959606a1b6044820152606490fd5b6115c19150833d85116107295761071a81836121a6565b84611518565b60405162461bcd60e51b815260048101869052601e60248201527f564d3a20636c6f7365206f70656e20706f736974696f6e7320666972737400006044820152606490fd5b60405162461bcd60e51b815260048101869052601260248201527115934e88185b1c9958591e4818db1bdcd95960721b6044820152606490fd5b34610257576020366003190112610257576004355f52600460205260405f2060018060a01b0390818154169082600182015416906002810154936003820154166004820154600583015460068401549060078501549260088601549460ff60098801541699600b600a890154980154986040519a8b5260208b015260408a01526060890152608088015260a087015260c086015260e085015261010084015260028410156103f45761018093610120840152610140830152610160820152f35b34610257576020366003190112610257576117226109b8611faa565b5f81815260036020526040902054611744906001600160a01b03163314612246565b805f52600360205260ff600660405f2001541660038110156103f4576001036117a457805f526003602052600660405f200160ff1981541690557fa7b437a7c0be1eaaad481743f822acf86d00e9707a0c18a609f0e3ad97370ba85f80a2005b60405162461bcd60e51b815260206004820152600e60248201526d15934e881b9bdd081c185d5cd95960921b6044820152606490fd5b346102575760ff6117ea36612074565b969091939592951695600195600188101580611a50575b61180a906123ac565b61182360ff821660018110159081611a44575b506123ed565b61182e83151561242c565b611839861515612489565b61184282612c28565b61184c84336125cf565b97885f526020976003895260405f209460018060a01b0397611872338a89541614612246565b600687019460ff86541660038110156103f457600203611a0e576040516323b872dd60e01b8152336004820152306024820152604481018c9052908c828c815f816064810103927f0000000000000000000000000000000000000000000000000000000000000000165af19182156106f85761192c926118fb918f5f926119f1575b505061234a565b8b60028a01555f60038a01556004890160ff1996878254161781559061ff0082549160081b169061ff001916179055565b600587019067ffffffffffffffff83116111575761194a83836124db565b905f528a5f205f5b8381106119d85750505050507fde9d4af6dc6156415163633265210b1348683a9a7e9b955616130ce9d6c58cb29594939282608092600b94541690556007840161ffff61199e8361251b565b1661ffff19825416179055888101356008850155604081013560098501556060810135600a850155013591015560405193845216923392a4005b84908d6119e485612297565b9401938184015501611952565b611a079250803d106107295761071a81836121a6565b5f8f6118f4565b60405162461bcd60e51b8152600481018d9052600e60248201526d15934e881b9bdd0818db1bdcd95960921b6044820152606490fd5b6064915011158a61181d565b50600a881115611801565b3461025757604036600319011261025757611a74611faa565b611a8160243591336125cf565b90815f5260206003815260ff600660405f2001541660038110156103f457600214611baf578115611b79576040516323b872dd60e01b8152336004820152306024820152604481018390529181836064815f6001600160a01b037f0000000000000000000000000000000000000000000000000000000000000000165af19283156106f8577ff4d5f4313db9d90750b55863740862117f1a26005f470df515d532580be167b293611b38915f91611b5c575061234a565b835f5260038252600260405f2001611b5182825461238b565b9055604051908152a2005b611b739150843d86116107295761071a81836121a6565b86610ee1565b6064906040519062461bcd60e51b82526004820152600f60248201526e15934e881e995c9bc8185b5bdd5b9d608a1b6044820152fd5b6064906040519062461bcd60e51b82526004820152601060248201526f15934e881d985d5b1d0818db1bdcd95960821b6044820152fd5b3461025757602036600319011261025757611bff611faa565b5f546001600160a01b039190611c1890831633146122f6565b16806001600160601b0360a01b60025416176002557f2a5aa8e2a11a8c03ede8d505c58640f635c8c77b57990c0b704b45e9a53d267b5f80a2005b346102575760203660031901126102575760206001600160a01b0380611c77611faa565b165f526007825260405f205416604051908152f35b34610257575f366003190112610257576040517f00000000000000000000000000000000000000000000000000000000000000006001600160a01b03168152602090f35b3461025757604036600319011261025757611ce9611faa565b6001600160a01b03165f908152600560205260409020805460243591908210156102575760209161098e9161205f565b3461025757611d39611d2a3661201b565b916109b8839492941515612208565b90815f52602092600360205260018060a01b03611d5d338260405f20541614612246565b5f84815260036020526040812060050195905b848110611daa57857f6daa1ff9696b2f02619a3f88b4b180ef2a65d070354484a2689f745bd640b7648686610d31604051928392836122ab565b82611db9610da3838888612287565b1615611e3b57611dd6611dd0610da3838888612287565b88612bdf565b15611de4575b600101611d70565b611df2610da3828787612287565b908754600160401b81101561115757600192611e168285611e3494018c558b61205f565b90919060018060a01b038084549260031b9316831b921b1916179055565b9050611ddc565b60405162461bcd60e51b8152600481018390526016602482015275564d3a207a65726f20746f6b656e206164647265737360501b6044820152606490fd5b3461025757604036600319011261025757611e92611faa565b600154602435926001600160a01b039291831633148015611f9e575b15611f6b575016908115611f35578015611efc5760207f0d86730737b142fc160892fa8a0f2db687a92a0e294d1ad70624cf5acef03b8491835f52600882528060405f2055604051908152a2005b60405162461bcd60e51b8152602060048201526011602482015270564d3a20696e76616c696420707269636560781b6044820152606490fd5b60405162461bcd60e51b815260206004820152600e60248201526d2b269d103d32b937903a37b5b2b760911b6044820152606490fd5b62461bcd60e51b815260206004820152600e60248201526d564d3a206e6f74206f7261636c6560901b6044820152606490fd5b50825f54163314611eae565b600435906001600160a01b038216820361025757565b602435906001600160a01b038216820361025757565b35906001600160a01b038216820361025757565b9181601f840112156102575782359167ffffffffffffffff8311610257576020808501948460051b01011161025757565b906040600319830112610257576004356001600160a01b038116810361025757916024359067ffffffffffffffff82116102575761205b91600401611fea565b9091565b80548210156103e0575f5260205f2001905f90565b610140600319820112610257576004356001600160a01b038116810361025757916024359160443560ff81168103610257579160643560ff8116810361025757916084359167ffffffffffffffff8311610257576120d78260a094600401611fea565b9093909260a31901126102575760a490565b60209060206040818301928281528551809452019301915f5b828110612110575050505090565b835185529381019392810192600101612102565b9081518082526020808093019301915f5b828110612143575050505090565b83516001600160a01b031685529381019392810192600101612135565b9060038210156103f45752565b610120810190811067ffffffffffffffff82111761115757604052565b60a0810190811067ffffffffffffffff82111761115757604052565b90601f8019910116810190811067ffffffffffffffff82111761115757604052565b906040516121d58161218a565b60806004829461ffff81541684526001810154602085015260028101546040850152600381015460608501520154910152565b1561220f57565b60405162461bcd60e51b815260206004820152600f60248201526e564d3a20656d70747920617272617960881b6044820152606490fd5b1561224d57565b60405162461bcd60e51b815260206004820152601260248201527115934e881b9bdd081e5bdd5c881d985d5b1d60721b6044820152606490fd5b91908110156103e05760051b0190565b356001600160a01b03811681036102575790565b90916040602092826020820160208352520192915f5b8281106122cf575050505090565b909192938280600192838060a01b036122e789611fd6565b168152019501939291016122c1565b156122fd57565b60405162461bcd60e51b815260206004820152600d60248201526c2b269d103737ba1037bbb732b960991b6044820152606490fd5b90816020910312610257575180151581036102575790565b1561235157565b60405162461bcd60e51b815260206004820152601260248201527115934e8819195c1bdcda5d0819985a5b195960721b6044820152606490fd5b9190820180921161239857565b634e487b7160e01b5f52601160045260245ffd5b156123b357565b60405162461bcd60e51b81526020600482015260126024820152710564d3a207269736b4c6576656c20312d31360741b6044820152606490fd5b156123f457565b60405162461bcd60e51b815260206004820152601060248201526f0564d3a206d617850637420312d3130360841b6044820152606490fd5b1561243357565b60405162461bcd60e51b815260206004820152602860248201527f564d3a20616c6c6f776c69737420656d7074792c206e6f207472616465732077604482015267696c6c20636f707960c01b6064820152608490fd5b1561249057565b60405162461bcd60e51b815260206004820152601060248201526f15934e881e995c9bc819195c1bdcda5d60821b6044820152606490fd5b8181029291811591840414171561239857565b90600160401b8111611157578154918181558282106124f957505050565b5f5260205f2091820191015b818110612510575050565b5f8155600101612505565b3561ffff811681036102575790565b67ffffffffffffffff81116111575760051b60200190565b8054600160401b8110156111575761255f9160018201815561205f565b819291549060031b91821b915f19901b1916179055565b90604051918281549182825260209260208301915f5260205f20935f905b8282106125ac575050506125aa925003836121a6565b565b85546001600160a01b031684526001958601958895509381019390910190612594565b6040519060208201926001600160601b0319809260601b16845260601b166034820152602881526060810181811067ffffffffffffffff8211176111575760405251902090565b81810392915f13801582851316918412161761239857565b600280545f94936001600160a01b0393918416929183156127c25790612656919493946125cf565b5f526020906006825260409060405f20925f958454945b85881061267e575050505050505050565b90919293949596986126908a8361205f565b9054600391821b1c5f52600490818652875f209060ff600983015416888110156127af57158015906127a3575b61279757810154600582015489516347bc983760e11b8152918c166001600160a01b031684830190815260208101919091529091908790839081906040010381895afa90811561278d5783905f9261275a575b61271d9350015490612616565b915f83820193841291129080158216911516176127475750600190995b019695949392919061266d565b601190634e487b7160e01b5f525260245ffd5b9150508682813d8311612786575b61277281836121a6565b81010312610257578261271d925191612710565b503d612768565b89513d5f823e3d90fd5b5050509860019061273a565b506005820154156126bd565b602184634e487b7160e01b5f525260245ffd5b505f955050505050565b156127d357565b60405162461bcd60e51b815260206004820152601260248201527115934e881b9bdd08185d5d1a1bdc9a5e995960721b6044820152606490fd5b1561281457565b60405162461bcd60e51b815260206004820152600f60248201526e15934e8819195e081b9bdd081cd95d608a1b6044820152606490fd5b9061ffff8092166127100391821161239857565b9190820391821161239857565b5f1981146123985760010190565b906128899196959293966125cf565b94855f5260209160038352604091825f209060ff60068301541660038110156103f457612ba45761012c61293f6128c1600a5461286c565b9485600a558b867fc242abebbe8a335db4bf285fc9a63ef4e3cbb891d4664707d44ae79a4ac505b9868c612936868d5193849388887f7d0d4a45b610c689953ac3d1df4e7739f7ba0e76107b191b9170d4eb27b90b4e5f80a36001600160a01b03168452602084015260408301526060820190565b0390a34261285f565b11612b6a576129518660058401612bdf565b15612b255760088201548015159081612b1b575b50612acf5760098201548015159182612ac5575b5050612a7a5761298c620f424091612e4d565b1115612a3057606460ff871611612a27575b8660ff8716917fac7c244f5a94874741bde286781fc342da57eb796ea3b4f271ba72c0b515b10584600a8510948151908152851588820152a36129e65750506125aa93612e72565b5f805160206133a9833981519152945060609350741cd8dbdc994818995b1bddc81d1a1c995cda1bdb19605a1b9192506015815193808552840152820152a2565b6064955061299e565b505f805160206133a98339815191529450606093507f696e73756666696369656e7420667265652062616c616e6365000000000000009192506019815193808552840152820152a2565b50505f805160206133a98339815191529450606093507f6c65616465722074726164652061626f7665206d6178696d756d000000000000919250601a815193808552840152820152a2565b1190505f80612979565b5050505f805160206133a98339815191529450606093507f6c65616465722074726164652062656c6f77206d696e696d756d000000000000919250601a815193808552840152820152a2565b905081105f612965565b5050505f805160206133a9833981519152945060609350751d1bdad95b881b9bdd081a5b88185b1b1bdddb1a5cdd60521b9192506016815193808552840152820152a2565b5050505f805160206133a98339815191529450606093506a7374616c6520747261646560a81b919250600b815193808552840152820152a2565b835162461bcd60e51b8152600481018690526014602482015273564d3a207661756c74206e6f742061637469766560601b6044820152606490fd5b905f5b8254811015612c2157612bf5818461205f565b905460039190911b1c6001600160a01b0390811690831614612c1957600101612be2565b505050600190565b5050505f90565b61ffff600a81612c378461251b565b1610159081612d89575b5015612d445760208101358015908115612d37575b8115612d28575b5015612ce35760608101358015918215612cd6575b8215612cc7575b505015612c8257565b60405162461bcd60e51b815260206004820152601760248201527f564d3a20616c6c6f632072616e676520696e76616c69640000000000000000006044820152606490fd5b60800135101590505f80612c79565b6080810135159250612c72565b60405162461bcd60e51b815260206004820152601e60248201527f564d3a206c65616465722074726164652072616e676520696e76616c696400006044820152606490fd5b9050604082013510155f612c5d565b6040830135159150612c56565b60405162461bcd60e51b815260206004820152601760248201527f564d3a20736c6970706167654270732031302d323030300000000000000000006044820152606490fd5b6107d09150612d978361251b565b1611155f612c41565b5f915b81549283811015612e4757612db8818461205f565b90546003956001600160a01b0392909190871b1c821684831614612de25750506001019250612da3565b9092505f199182820191821161239857611e1684612e03612e11948861205f565b905490891b1c16918661205f565b82548015612e33570192612e25848461205f565b81939154921b1b1916905555565b634e487b7160e01b5f52603160045260245ffd5b50505050565b600260038201549101549081811015612e6c57612e699161285f565b90565b50505f90565b5f818152600360205260409020600254939491936001600160a01b031691612e9b83151561280d565b612ea482612e4d565b916064612ec0600283015460ff600485015460081c16906124c8565b04918383116133a0575b612eda60ff6064921680946124c8565b0492600a820154620f42408082115f1461339957505b841061334a57808411613342575b50600b81015480151580613339575b613331575b506040516347bc983760e11b81527f00000000000000000000000000000000000000000000000000000000000000006001600160a01b038116600483015260248201859052909490602086604481855afa9586156106f8575f966132fc575b50602085612710612f91612fc79961ffff6105538160078b01541661284b565b60405163095ea7b360e01b81526001600160a01b0390961660048701526024860192909252939793900492879081906044820190565b03815f6001600160a01b0386165af19182156106f857613034966020936132df575b506002546040516379f3754560e11b81526001600160a01b039384166004820152602481018890526044810192909252306064830152909687929091169082905f9082906084820190565b03925af19384156106f8575f946132ab575b506001600160a01b0385165f81815260086020526040902054909781156132a35750945b61307560095461286c565b8060095560405160208101918983524260408301526001600160601b03198460601b1660608301526074820152607481526130af8161218a565b5190208254600184015460405197929392916001600160a01b039182169116610180890167ffffffffffffffff81118a821017611157576040528852602088015288604088015289606088015285608088015260a08701528660c08701525f60e08701525f6101008701525f610120870152426101408701525f610160870152815f52600460205260405f209060018060a01b038751166001600160601b0360a01b90818454161783556001830160018060a01b0360208a0151168282541617905560408801516002840155600383019060018060a01b0360608a015116908254161790556080870151600483015560a0870151600583015560c0870151600683015560e087015160078301556101008701516008830155600982019061012088015160028110156103f4577f0fac05f01c50ae793f1a1fb2912053546d62525ac2dfad4adbc641f37c09bf8a9960038c977fb1eefddb5e15079c801481dd2d9558f62b8d6e4ba1d15d3e8da341e1d07ccd1896600b61016060409e8e996132939860ff80198354169116179055610140810151600a8501550151910155885f526006602052613261888d5f20612542565b0161326d85825461238b565b9055895193849384604091949392606082019560018060a01b0316825260208201520152565b0390a382519182526020820152a3565b90509461306a565b9093506020813d6020116132d7575b816132c7602093836121a6565b810103126102575751925f613046565b3d91506132ba565b6132f590843d86116107295761071a81836121a6565b505f612fe9565b95506020863d602011613329575b81613317602093836121a6565b81010312610257579451946020612f71565b3d915061330a565b92505f612f12565b50808411612f0d565b92505f612efe565b50505050505090505f805160206133a9833981519152606060405160208152601860208201527f616c6c6f636174696f6e2062656c6f77206d696e696d756d00000000000000006040820152a2565b9050612ef0565b839250612eca56fe161609ed0659583c4124f93794aade207fa9fe3124c4ee08cb05a724f0e760caa26469706673582212201a4d5c28b365c3cf6fca9b7074842c167b545662ba339713b77bece1fbf7c00064736f6c63430008180033","opcodes":"PUSH1 0xA0 CALLVALUE PUSH3 0xF0 JUMPI PUSH1 0x1F PUSH3 0x3507 CODESIZE DUP2 SWAP1 SUB SWAP2 DUP3 ADD PUSH1 0x1F NOT AND DUP4 ADD SWAP2 PUSH1 0x1 PUSH1 0x1 PUSH1 0x40 SHL SUB DUP4 GT DUP5 DUP5 LT OR PUSH3 0xF4 JUMPI DUP1 DUP5 SWAP3 PUSH1 0x20 SWAP5 PUSH1 0x40 MSTORE DUP4 CODECOPY DUP2 ADD SUB SLT PUSH3 0xF0 JUMPI MLOAD PUSH1 0x1 PUSH1 0x1 PUSH1 0xA0 SHL SUB DUP2 AND DUP1 DUP3 SUB PUSH3 0xF0 JUMPI ISZERO PUSH3 0xAB JUMPI PUSH1 0x80 MSTORE PUSH0 DUP1 SLOAD PUSH1 0x1 PUSH1 0x1 PUSH1 0xA0 SHL SUB NOT AND CALLER OR SWAP1 SSTORE PUSH1 0x40 MLOAD PUSH2 0x33FE SWAP1 DUP2 PUSH3 0x109 DUP3 CODECOPY PUSH1 0x80 MLOAD DUP2 DUP2 DUP2 PUSH2 0xEAE ADD MSTORE DUP2 DUP2 PUSH2 0x14E8 ADD MSTORE DUP2 DUP2 PUSH2 0x18BB ADD MSTORE DUP2 DUP2 PUSH2 0x1ADD ADD MSTORE DUP2 DUP2 PUSH2 0x1CA1 ADD MSTORE PUSH2 0x2F22 ADD MSTORE RETURN JUMPDEST PUSH1 0x40 MLOAD PUSH3 0x461BCD PUSH1 0xE5 SHL DUP2 MSTORE PUSH1 0x20 PUSH1 0x4 DUP3 ADD MSTORE PUSH1 0x15 PUSH1 0x24 DUP3 ADD MSTORE PUSH32 0x564D3A207A65726F206155534420616464726573730000000000000000000000 PUSH1 0x44 DUP3 ADD MSTORE PUSH1 0x64 SWAP1 REVERT JUMPDEST PUSH0 DUP1 REVERT JUMPDEST PUSH4 0x4E487B71 PUSH1 0xE0 SHL PUSH0 MSTORE PUSH1 0x41 PUSH1 0x4 MSTORE PUSH1 0x24 PUSH0 REVERT INVALID PUSH1 0x80 DUP1 PUSH1 0x40 MSTORE PUSH1 0x4 CALLDATASIZE LT ISZERO PUSH2 0x12 JUMPI PUSH0 DUP1 REVERT JUMPDEST PUSH0 CALLDATALOAD PUSH1 0xE0 SHR SWAP1 DUP2 PUSH3 0xE4768B EQ PUSH2 0x1E79 JUMPI POP DUP1 PUSH4 0x19530A82 EQ PUSH2 0xC6A JUMPI DUP1 PUSH4 0x1AAC9197 EQ PUSH2 0x1D19 JUMPI DUP1 PUSH4 0x1FB3E24E EQ PUSH2 0x1CD0 JUMPI DUP1 PUSH4 0x2FD7D1FD EQ PUSH2 0x1C8C JUMPI DUP1 PUSH4 0x3C4CE221 EQ PUSH2 0x1C53 JUMPI DUP1 PUSH4 0x447FA8B7 EQ PUSH2 0x1BE6 JUMPI DUP1 PUSH4 0x47E7EF24 EQ PUSH2 0x1A5B JUMPI DUP1 PUSH4 0x4A5010A0 EQ PUSH2 0x17DA JUMPI DUP1 PUSH4 0x4E6EC0E6 EQ PUSH2 0x1706 JUMPI DUP1 PUSH4 0x514EA4BF EQ PUSH2 0x1646 JUMPI DUP1 PUSH4 0x51CFF8D9 EQ PUSH2 0x1447 JUMPI DUP1 PUSH4 0x53084EFF EQ PUSH2 0x140F JUMPI DUP1 PUSH4 0x572FCDCD EQ PUSH2 0x138D JUMPI DUP1 PUSH4 0x5A2D6F5D EQ PUSH2 0x1370 JUMPI DUP1 PUSH4 0x692058C2 EQ PUSH2 0x1348 JUMPI DUP1 PUSH4 0x748747E6 EQ PUSH2 0x12DF JUMPI DUP1 PUSH4 0x7ADBF973 EQ PUSH2 0x1272 JUMPI DUP1 PUSH4 0x7DC0D1D0 EQ PUSH2 0x124A JUMPI DUP1 PUSH4 0x7E169023 EQ PUSH2 0xDDB JUMPI DUP1 PUSH4 0x8DA5CB5B EQ PUSH2 0xDB4 JUMPI DUP1 PUSH4 0x92BC6914 EQ PUSH2 0xCA1 JUMPI DUP1 PUSH4 0x9530B30F EQ PUSH2 0xC85 JUMPI DUP1 PUSH4 0xB8FF783D EQ PUSH2 0xC6A JUMPI DUP1 PUSH4 0xBBD7EDC5 EQ PUSH2 0xA94 JUMPI DUP1 PUSH4 0xBD44815F EQ PUSH2 0xA76 JUMPI DUP1 PUSH4 0xC0BD6F9E EQ PUSH2 0x99C JUMPI DUP1 PUSH4 0xC81E62E6 EQ PUSH2 0x957 JUMPI DUP1 PUSH4 0xCCA23BF2 EQ PUSH2 0x88B JUMPI DUP1 PUSH4 0xD01EC4A6 EQ PUSH2 0x842 JUMPI DUP1 PUSH4 0xD4805742 EQ PUSH2 0x816 JUMPI DUP1 PUSH4 0xDE700DA6 EQ PUSH2 0x7DD JUMPI DUP1 PUSH4 0xE229CD76 EQ PUSH2 0x7C1 JUMPI DUP1 PUSH4 0xE54A2AD5 EQ PUSH2 0x455 JUMPI DUP1 PUSH4 0xE8134712 EQ PUSH2 0x2DC JUMPI DUP1 PUSH4 0xF2FDE38B EQ PUSH2 0x25B JUMPI PUSH4 0xF4FE2F94 EQ PUSH2 0x1B2 JUMPI PUSH0 DUP1 REVERT JUMPDEST CALLVALUE PUSH2 0x257 JUMPI PUSH1 0xE0 CALLDATASIZE PUSH1 0x3 NOT ADD SLT PUSH2 0x257 JUMPI PUSH2 0x1CB PUSH2 0x1FAA JUMP JUMPDEST PUSH2 0x1D3 PUSH2 0x1FC0 JUMP JUMPDEST PUSH1 0x1 PUSH1 0x1 PUSH1 0xA0 SHL SUB SWAP2 SWAP1 PUSH1 0x44 CALLDATALOAD SWAP1 DUP4 DUP3 AND DUP3 SUB PUSH2 0x257 JUMPI PUSH1 0xC4 CALLDATALOAD SWAP3 PUSH1 0xFF DUP5 AND DUP5 SUB PUSH2 0x257 JUMPI PUSH2 0x21C DUP6 PUSH2 0x22D SWAP7 DUP4 AND SWAP1 DUP2 CALLER EQ SWAP2 DUP3 ISZERO PUSH2 0x23D JUMPI JUMPDEST POP DUP2 ISZERO PUSH2 0x22F JUMPI JUMPDEST POP PUSH2 0x27CC JUMP JUMPDEST PUSH1 0xA4 CALLDATALOAD SWAP3 PUSH1 0x84 CALLDATALOAD SWAP3 PUSH1 0x64 CALLDATALOAD SWAP3 PUSH2 0x287A JUMP JUMPDEST STOP JUMPDEST SWAP1 POP PUSH1 0x1 SLOAD AND CALLER EQ PUSH0 PUSH2 0x216 JUMP JUMPDEST SWAP1 SWAP2 POP PUSH0 MSTORE PUSH1 0x7 PUSH1 0x20 MSTORE DUP1 PUSH1 0x40 PUSH0 KECCAK256 SLOAD AND CALLER EQ SWAP1 PUSH0 PUSH2 0x20E JUMP JUMPDEST PUSH0 DUP1 REVERT JUMPDEST CALLVALUE PUSH2 0x257 JUMPI PUSH1 0x20 CALLDATASIZE PUSH1 0x3 NOT ADD SLT PUSH2 0x257 JUMPI PUSH2 0x274 PUSH2 0x1FAA JUMP JUMPDEST PUSH0 SLOAD SWAP1 PUSH1 0x1 PUSH1 0x1 PUSH1 0xA0 SHL SUB SWAP1 PUSH2 0x28D CALLER DUP4 DUP6 AND EQ PUSH2 0x22F6 JUMP JUMPDEST AND SWAP1 DUP2 ISZERO PUSH2 0x2A4 JUMPI PUSH1 0x1 PUSH1 0x1 PUSH1 0xA0 SHL SUB NOT AND OR PUSH0 SSTORE STOP JUMPDEST PUSH1 0x40 MLOAD PUSH3 0x461BCD PUSH1 0xE5 SHL DUP2 MSTORE PUSH1 0x20 PUSH1 0x4 DUP3 ADD MSTORE PUSH1 0x10 PUSH1 0x24 DUP3 ADD MSTORE PUSH16 0x564D3A207A65726F2061646472657373 PUSH1 0x80 SHL PUSH1 0x44 DUP3 ADD MSTORE PUSH1 0x64 SWAP1 REVERT JUMPDEST CALLVALUE PUSH2 0x257 JUMPI PUSH1 0x40 CALLDATASIZE PUSH1 0x3 NOT ADD SLT PUSH2 0x257 JUMPI PUSH2 0x306 PUSH2 0x2F8 PUSH2 0x1FAA JUMP JUMPDEST PUSH2 0x300 PUSH2 0x1FC0 JUMP JUMPDEST SWAP1 PUSH2 0x25CF JUMP JUMPDEST PUSH0 MSTORE PUSH1 0x20 PUSH1 0x6 PUSH1 0x20 MSTORE PUSH1 0x40 PUSH0 KECCAK256 SWAP1 PUSH0 SWAP1 PUSH0 SWAP1 DUP4 SLOAD SWAP2 JUMPDEST DUP3 DUP2 LT PUSH2 0x408 JUMPI POP PUSH2 0x32D DUP4 PUSH2 0x252A JUMP JUMPDEST SWAP3 PUSH2 0x33B PUSH1 0x40 MLOAD SWAP5 DUP6 PUSH2 0x21A6 JUMP JUMPDEST DUP1 DUP5 MSTORE PUSH2 0x34A PUSH1 0x1F NOT SWAP2 PUSH2 0x252A JUMP JUMPDEST ADD CALLDATASIZE PUSH1 0x20 DUP6 ADD CALLDATACOPY PUSH0 SWAP4 PUSH0 JUMPDEST DUP4 DUP2 LT PUSH2 0x36E JUMPI PUSH1 0x40 MLOAD DUP1 PUSH2 0x36A DUP8 DUP3 PUSH2 0x20E9 JUMP JUMPDEST SUB SWAP1 RETURN JUMPDEST PUSH2 0x378 DUP2 DUP4 PUSH2 0x205F JUMP JUMPDEST SWAP1 SLOAD PUSH1 0x3 SWAP2 DUP3 SHL SHR PUSH0 MSTORE PUSH1 0x4 DUP5 MSTORE PUSH1 0xFF PUSH1 0x9 PUSH1 0x40 PUSH0 KECCAK256 ADD SLOAD AND PUSH1 0x2 DUP2 LT ISZERO PUSH2 0x3F4 JUMPI ISZERO PUSH2 0x3A9 JUMPI JUMPDEST POP PUSH1 0x1 ADD PUSH2 0x355 JUMP JUMPDEST PUSH2 0x3B6 DUP3 DUP5 SWAP9 SWAP4 SWAP9 PUSH2 0x205F JUMP JUMPDEST SWAP1 SLOAD SWAP2 SHL SHR SWAP6 PUSH2 0x3C5 DUP3 PUSH2 0x286C JUMP JUMPDEST SWAP7 DUP7 MLOAD DUP4 LT ISZERO PUSH2 0x3E0 JUMPI DUP5 PUSH1 0x1 SWAP4 PUSH1 0x5 SHL DUP9 ADD ADD MSTORE SWAP1 PUSH2 0x3A0 JUMP JUMPDEST PUSH4 0x4E487B71 PUSH1 0xE0 SHL PUSH0 MSTORE PUSH1 0x32 PUSH1 0x4 MSTORE PUSH1 0x24 PUSH0 REVERT JUMPDEST PUSH4 0x4E487B71 PUSH1 0xE0 SHL PUSH0 MSTORE PUSH1 0x21 PUSH1 0x4 MSTORE PUSH1 0x24 PUSH0 REVERT JUMPDEST PUSH2 0x412 DUP2 DUP7 PUSH2 0x205F JUMP JUMPDEST SWAP1 SLOAD SWAP1 PUSH1 0x3 SHL SHR PUSH0 MSTORE PUSH1 0x4 DUP3 MSTORE PUSH1 0xFF PUSH1 0x9 PUSH1 0x40 PUSH0 KECCAK256 ADD SLOAD AND PUSH1 0x2 DUP2 LT ISZERO PUSH2 0x3F4 JUMPI ISZERO PUSH2 0x441 JUMPI JUMPDEST PUSH1 0x1 ADD PUSH2 0x31C JUMP JUMPDEST SWAP3 PUSH2 0x44D PUSH1 0x1 SWAP2 PUSH2 0x286C JUMP JUMPDEST SWAP4 SWAP1 POP PUSH2 0x439 JUMP JUMPDEST CALLVALUE PUSH2 0x257 JUMPI PUSH1 0x20 DUP1 PUSH1 0x3 NOT CALLDATASIZE ADD SLT PUSH2 0x257 JUMPI PUSH1 0x4 CALLDATALOAD DUP1 PUSH0 MSTORE PUSH1 0x4 DUP3 MSTORE PUSH1 0x40 PUSH0 KECCAK256 SWAP2 PUSH1 0x9 DUP4 ADD SWAP1 PUSH1 0xFF DUP3 SLOAD AND PUSH1 0x2 DUP2 LT ISZERO PUSH2 0x3F4 JUMPI PUSH2 0x785 JUMPI DUP4 SLOAD PUSH1 0x1 PUSH1 0x1 PUSH1 0xA0 SHL SUB SWAP3 SWAP1 DUP4 AND CALLER DUP2 EQ SWAP1 DUP2 ISZERO PUSH2 0x76E JUMPI JUMPDEST POP DUP1 ISZERO PUSH2 0x761 JUMPI JUMPDEST PUSH2 0x4B7 SWAP1 PUSH2 0x27CC JUMP JUMPDEST DUP3 PUSH1 0x2 SLOAD AND SWAP2 PUSH2 0x4C8 DUP4 ISZERO ISZERO PUSH2 0x280D JUMP JUMPDEST PUSH1 0x2 DUP7 ADD SLOAD SWAP6 DUP7 PUSH0 MSTORE PUSH1 0x3 DUP3 MSTORE PUSH1 0x40 PUSH0 KECCAK256 SWAP5 PUSH1 0x3 DUP3 ADD SWAP6 DUP2 DUP8 SLOAD AND SWAP6 PUSH1 0x5 DUP5 ADD DUP1 SLOAD PUSH2 0x520 DUP8 DUP3 DUP12 PUSH1 0x40 MLOAD SWAP4 DUP5 SWAP3 DUP4 SWAP3 PUSH4 0x47BC9837 PUSH1 0xE1 SHL DUP5 MSTORE PUSH1 0x4 DUP5 ADD PUSH1 0x20 SWAP1 SWAP4 SWAP3 SWAP2 SWAP4 PUSH1 0x40 DUP2 ADD SWAP5 PUSH1 0x1 DUP1 PUSH1 0xA0 SHL SUB AND DUP2 MSTORE ADD MSTORE JUMP JUMPDEST SUB DUP2 DUP8 GAS STATICCALL SWAP1 DUP2 ISZERO PUSH2 0x6F8 JUMPI PUSH0 SWAP2 PUSH2 0x730 JUMPI JUMPDEST POP SWAP1 PUSH2 0x58E SWAP10 PUSH2 0x2710 PUSH2 0x55A DUP11 SWAP5 PUSH2 0xFFFF PUSH2 0x553 DUP2 PUSH1 0x7 DUP13 ADD SLOAD AND PUSH2 0x284B JUMP JUMPDEST AND SWAP1 PUSH2 0x24C8 JUMP JUMPDEST DIV SWAP5 PUSH0 PUSH1 0x40 MLOAD DUP1 SWAP14 DUP2 SWAP6 DUP3 SWAP5 PUSH4 0x95EA7B3 PUSH1 0xE0 SHL DUP5 MSTORE PUSH1 0x4 DUP5 ADD PUSH1 0x20 SWAP1 SWAP4 SWAP3 SWAP2 SWAP4 PUSH1 0x40 DUP2 ADD SWAP5 PUSH1 0x1 DUP1 PUSH1 0xA0 SHL SUB AND DUP2 MSTORE ADD MSTORE JUMP JUMPDEST SUB SWAP3 GAS CALL SWAP2 DUP3 ISZERO PUSH2 0x6F8 JUMPI PUSH2 0x5F1 SWAP9 DUP8 SWAP4 PUSH2 0x703 JUMPI JUMPDEST POP PUSH1 0x2 SLOAD DUP11 SLOAD SWAP3 SLOAD PUSH1 0x40 MLOAD PUSH4 0x79F37545 PUSH1 0xE1 SHL DUP2 MSTORE SWAP4 DUP8 AND PUSH1 0x1 PUSH1 0x1 PUSH1 0xA0 SHL SUB AND PUSH1 0x4 DUP6 ADD MSTORE PUSH1 0x24 DUP5 ADD MSTORE PUSH1 0x44 DUP4 ADD SWAP2 SWAP1 SWAP2 MSTORE ADDRESS PUSH1 0x64 DUP4 ADD MSTORE SWAP1 SWAP8 DUP9 SWAP2 DUP6 AND SWAP1 DUP3 SWAP1 PUSH0 SWAP1 DUP3 SWAP1 PUSH1 0x84 DUP3 ADD SWAP1 JUMP JUMPDEST SUB SWAP3 GAS CALL SWAP6 DUP7 ISZERO PUSH2 0x6F8 JUMPI PUSH0 SWAP7 PUSH2 0x69F JUMPI JUMPDEST POP SWAP1 PUSH32 0xB8AFEB408ACD10E29C21161F211B1E177A3CE18923199654650821F940CFF38A SWAP7 DUP4 SWAP3 PUSH2 0x668 PUSH1 0x3 PUSH1 0x4 PUSH1 0x40 SWAP11 SWAP10 SWAP9 SWAP8 ADD DUP1 SLOAD PUSH2 0x65B PUSH2 0x646 DUP3 DUP14 PUSH2 0x2616 JUMP JUMPDEST SWAP12 PUSH2 0x656 PUSH1 0x2 DUP9 ADD SWAP4 DUP5 SLOAD PUSH2 0x285F JUMP JUMPDEST PUSH2 0x238B JUMP JUMPDEST SWAP1 SSTORE SLOAD SWAP3 ADD SWAP2 DUP3 SLOAD PUSH2 0x285F JUMP JUMPDEST SWAP1 SSTORE SLOAD AND PUSH0 MSTORE PUSH1 0x8 DUP3 MSTORE DUP5 PUSH0 KECCAK256 SLOAD SWAP3 DUP4 PUSH1 0x7 DUP4 ADD SSTORE DUP5 PUSH1 0x8 DUP4 ADD SSTORE PUSH1 0x1 PUSH1 0xFF NOT DUP3 SLOAD AND OR SWAP1 SSTORE PUSH1 0xB TIMESTAMP SWAP2 ADD SSTORE DUP4 MLOAD SWAP3 DUP4 MSTORE DUP3 ADD MSTORE LOG3 STOP JUMPDEST SWAP6 POP SWAP4 SWAP3 SWAP2 SWAP1 DUP3 DUP7 DUP2 RETURNDATASIZE DUP4 GT PUSH2 0x6F1 JUMPI JUMPDEST PUSH2 0x6BA DUP2 DUP4 PUSH2 0x21A6 JUMP JUMPDEST DUP2 ADD SUB SLT PUSH2 0x257 JUMPI SWAP5 MLOAD SWAP5 SWAP3 SWAP4 SWAP2 SWAP3 SWAP1 SWAP2 PUSH32 0xB8AFEB408ACD10E29C21161F211B1E177A3CE18923199654650821F940CFF38A PUSH2 0x603 JUMP JUMPDEST POP RETURNDATASIZE PUSH2 0x6B0 JUMP JUMPDEST PUSH1 0x40 MLOAD RETURNDATASIZE PUSH0 DUP3 RETURNDATACOPY RETURNDATASIZE SWAP1 REVERT JUMPDEST PUSH2 0x722 SWAP1 DUP5 RETURNDATASIZE DUP7 GT PUSH2 0x729 JUMPI JUMPDEST PUSH2 0x71A DUP2 DUP4 PUSH2 0x21A6 JUMP JUMPDEST DUP2 ADD SWAP1 PUSH2 0x2332 JUMP JUMPDEST POP DUP13 PUSH2 0x5A4 JUMP JUMPDEST POP RETURNDATASIZE PUSH2 0x710 JUMP JUMPDEST SWAP2 SWAP1 POP DUP8 DUP3 DUP2 RETURNDATASIZE DUP4 GT PUSH2 0x75A JUMPI JUMPDEST PUSH2 0x748 DUP2 DUP4 PUSH2 0x21A6 JUMP JUMPDEST DUP2 ADD SUB SLT PUSH2 0x257 JUMPI SWAP1 MLOAD PUSH2 0x58E PUSH2 0x533 JUMP JUMPDEST POP RETURNDATASIZE PUSH2 0x73E JUMP JUMPDEST POP PUSH1 0x1 SLOAD DUP4 AND CALLER EQ PUSH2 0x4AE JUMP JUMPDEST SWAP1 POP PUSH0 MSTORE PUSH1 0x7 DUP3 MSTORE DUP3 PUSH1 0x40 PUSH0 KECCAK256 SLOAD AND CALLER EQ DUP7 PUSH2 0x4A6 JUMP JUMPDEST PUSH1 0x64 SWAP1 PUSH1 0x40 MLOAD SWAP1 PUSH3 0x461BCD PUSH1 0xE5 SHL DUP3 MSTORE PUSH1 0x4 DUP3 ADD MSTORE PUSH1 0x15 PUSH1 0x24 DUP3 ADD MSTORE PUSH21 0x2B269D103837B9B4BA34B7B7103737BA1037B832B7 PUSH1 0x59 SHL PUSH1 0x44 DUP3 ADD MSTORE REVERT JUMPDEST CALLVALUE PUSH2 0x257 JUMPI PUSH0 CALLDATASIZE PUSH1 0x3 NOT ADD SLT PUSH2 0x257 JUMPI PUSH1 0x20 PUSH1 0x40 MLOAD PUSH2 0x7D0 DUP2 MSTORE RETURN JUMPDEST CALLVALUE PUSH2 0x257 JUMPI PUSH1 0x40 CALLDATASIZE PUSH1 0x3 NOT ADD SLT PUSH2 0x257 JUMPI PUSH2 0x7F9 PUSH2 0x2F8 PUSH2 0x1FAA JUMP JUMPDEST PUSH0 MSTORE PUSH1 0x3 PUSH1 0x20 MSTORE PUSH1 0x20 PUSH2 0x80E PUSH1 0x40 PUSH0 KECCAK256 PUSH2 0x2E4D JUMP JUMPDEST PUSH1 0x40 MLOAD SWAP1 DUP2 MSTORE RETURN JUMPDEST CALLVALUE PUSH2 0x257 JUMPI PUSH1 0x40 CALLDATASIZE PUSH1 0x3 NOT ADD SLT PUSH2 0x257 JUMPI PUSH1 0x20 PUSH2 0x80E PUSH2 0x834 PUSH2 0x1FAA JUMP JUMPDEST PUSH2 0x83C PUSH2 0x1FC0 JUMP JUMPDEST SWAP1 PUSH2 0x262E JUMP JUMPDEST CALLVALUE PUSH2 0x257 JUMPI PUSH1 0x40 CALLDATASIZE PUSH1 0x3 NOT ADD SLT PUSH2 0x257 JUMPI PUSH2 0x85E PUSH2 0x2F8 PUSH2 0x1FAA JUMP JUMPDEST PUSH0 MSTORE PUSH1 0x3 PUSH1 0x20 MSTORE PUSH2 0x36A PUSH2 0x877 PUSH1 0x5 PUSH1 0x40 PUSH0 KECCAK256 ADD PUSH2 0x2576 JUMP JUMPDEST PUSH1 0x40 MLOAD SWAP2 DUP3 SWAP2 PUSH1 0x20 DUP4 MSTORE PUSH1 0x20 DUP4 ADD SWAP1 PUSH2 0x2124 JUMP JUMPDEST CALLVALUE PUSH2 0x257 JUMPI PUSH1 0x20 CALLDATASIZE PUSH1 0x3 NOT ADD SLT PUSH2 0x257 JUMPI PUSH1 0x4 CALLDATALOAD PUSH0 MSTORE PUSH1 0x3 PUSH1 0x20 MSTORE PUSH2 0x180 PUSH1 0x40 PUSH0 KECCAK256 PUSH2 0x955 PUSH1 0x1 DUP1 PUSH1 0xA0 SHL SUB SWAP2 PUSH2 0x91D DUP4 DUP3 SLOAD AND SWAP4 PUSH1 0x1 DUP4 ADD SLOAD AND SWAP2 PUSH1 0xFF PUSH1 0x2 DUP3 ADD SLOAD PUSH1 0x3 DUP4 ADD SLOAD PUSH1 0x4 DUP5 ADD SLOAD SWAP2 PUSH2 0x8EC PUSH1 0x7 DUP6 PUSH1 0x6 DUP9 ADD SLOAD AND SWAP7 ADD PUSH2 0x21C8 JUMP JUMPDEST SWAP7 PUSH1 0x40 MLOAD SWAP10 DUP11 MSTORE PUSH1 0x20 DUP11 ADD MSTORE PUSH1 0x40 DUP10 ADD MSTORE PUSH1 0x60 DUP9 ADD MSTORE DUP2 DUP2 AND PUSH1 0x80 DUP9 ADD MSTORE PUSH1 0x8 SHR AND PUSH1 0xA0 DUP7 ADD MSTORE PUSH1 0xC0 DUP6 ADD SWAP1 PUSH2 0x2160 JUMP JUMPDEST DUP1 MLOAD PUSH2 0xFFFF AND PUSH1 0xE0 DUP5 ADD MSTORE PUSH1 0x20 DUP2 ADD MLOAD PUSH2 0x100 DUP5 ADD MSTORE PUSH1 0x40 DUP2 ADD MLOAD PUSH2 0x120 DUP5 ADD MSTORE PUSH1 0x60 DUP2 ADD MLOAD PUSH2 0x140 DUP5 ADD MSTORE PUSH1 0x80 ADD MLOAD PUSH2 0x160 DUP4 ADD MSTORE JUMP JUMPDEST RETURN JUMPDEST CALLVALUE PUSH2 0x257 JUMPI PUSH1 0x40 CALLDATASIZE PUSH1 0x3 NOT ADD SLT PUSH2 0x257 JUMPI PUSH1 0x24 CALLDATALOAD PUSH1 0x4 CALLDATALOAD PUSH0 MSTORE PUSH1 0x6 PUSH1 0x20 MSTORE PUSH1 0x40 PUSH0 KECCAK256 DUP1 SLOAD DUP3 LT ISZERO PUSH2 0x257 JUMPI PUSH1 0x20 SWAP2 PUSH2 0x98E SWAP2 PUSH2 0x205F JUMP JUMPDEST SWAP1 SLOAD PUSH1 0x40 MLOAD SWAP2 PUSH1 0x3 SHL SHR DUP2 MSTORE RETURN JUMPDEST CALLVALUE PUSH2 0x257 JUMPI PUSH1 0x20 CALLDATASIZE PUSH1 0x3 NOT ADD SLT PUSH2 0x257 JUMPI PUSH2 0x9BE PUSH2 0x9B8 PUSH2 0x1FAA JUMP JUMPDEST CALLER PUSH2 0x25CF JUMP JUMPDEST PUSH0 DUP2 DUP2 MSTORE PUSH1 0x3 PUSH1 0x20 MSTORE PUSH1 0x40 SWAP1 KECCAK256 SLOAD PUSH2 0x9E0 SWAP1 PUSH1 0x1 PUSH1 0x1 PUSH1 0xA0 SHL SUB AND CALLER EQ PUSH2 0x2246 JUMP JUMPDEST DUP1 PUSH0 MSTORE PUSH1 0x3 PUSH1 0x20 MSTORE PUSH1 0xFF PUSH1 0x6 PUSH1 0x40 PUSH0 KECCAK256 ADD SLOAD AND PUSH1 0x3 DUP2 LT ISZERO PUSH2 0x3F4 JUMPI PUSH2 0xA40 JUMPI DUP1 PUSH0 MSTORE PUSH1 0x3 PUSH1 0x20 MSTORE PUSH1 0x6 PUSH1 0x40 PUSH0 KECCAK256 ADD PUSH1 0x1 PUSH1 0xFF NOT DUP3 SLOAD AND OR SWAP1 SSTORE PUSH32 0x7CA948EDDCCF3A65F738292FE09D47DD38A0616763F1A1A78715430C7A18A18B PUSH0 DUP1 LOG2 STOP JUMPDEST PUSH1 0x40 MLOAD PUSH3 0x461BCD PUSH1 0xE5 SHL DUP2 MSTORE PUSH1 0x20 PUSH1 0x4 DUP3 ADD MSTORE PUSH1 0xE PUSH1 0x24 DUP3 ADD MSTORE PUSH14 0x564D3A206E6F7420616374697665 PUSH1 0x90 SHL PUSH1 0x44 DUP3 ADD MSTORE PUSH1 0x64 SWAP1 REVERT JUMPDEST CALLVALUE PUSH2 0x257 JUMPI PUSH1 0x40 CALLDATASIZE PUSH1 0x3 NOT ADD SLT PUSH2 0x257 JUMPI PUSH1 0x20 PUSH2 0x80E PUSH2 0x2F8 PUSH2 0x1FAA JUMP JUMPDEST CALLVALUE PUSH2 0x257 JUMPI PUSH1 0x40 CALLDATASIZE PUSH1 0x3 NOT ADD SLT PUSH2 0x257 JUMPI PUSH2 0xAAD PUSH2 0x1FAA JUMP JUMPDEST PUSH2 0xAB5 PUSH2 0x1FC0 JUMP JUMPDEST SWAP1 PUSH2 0xB29 PUSH1 0x40 MLOAD SWAP3 PUSH2 0xAC6 DUP5 PUSH2 0x216D JUMP JUMPDEST PUSH0 DUP5 MSTORE PUSH1 0x20 SWAP3 PUSH0 DUP5 DUP7 ADD MSTORE PUSH0 PUSH1 0x40 DUP7 ADD MSTORE PUSH0 PUSH1 0x60 DUP7 ADD MSTORE PUSH0 PUSH1 0x80 DUP7 ADD MSTORE PUSH0 PUSH1 0xA0 DUP7 ADD MSTORE PUSH1 0x60 PUSH1 0xC0 DUP7 ADD MSTORE PUSH0 PUSH1 0xE0 DUP7 ADD MSTORE PUSH2 0x100 SWAP5 DUP6 PUSH1 0x40 MLOAD SWAP2 PUSH2 0xB08 DUP4 PUSH2 0x218A JUMP JUMPDEST PUSH0 DUP4 MSTORE PUSH0 DUP8 DUP5 ADD MSTORE PUSH0 PUSH1 0x40 DUP5 ADD MSTORE PUSH0 PUSH1 0x60 DUP5 ADD MSTORE PUSH0 PUSH1 0x80 DUP5 ADD MSTORE ADD MSTORE PUSH2 0x25CF JUMP JUMPDEST PUSH0 MSTORE PUSH1 0x3 DUP2 MSTORE PUSH1 0x40 PUSH0 KECCAK256 PUSH1 0x40 MLOAD SWAP3 PUSH2 0xB40 DUP5 PUSH2 0x216D JUMP JUMPDEST PUSH1 0x1 DUP1 PUSH1 0xA0 SHL SUB SWAP1 DUP2 DUP4 SLOAD AND DUP6 MSTORE DUP2 PUSH1 0x1 DUP5 ADD SLOAD AND SWAP2 DUP5 DUP7 ADD SWAP3 DUP4 MSTORE PUSH1 0x2 DUP5 ADD SLOAD PUSH1 0x40 DUP8 ADD SWAP1 DUP2 MSTORE PUSH1 0x3 DUP6 ADD SLOAD SWAP1 PUSH1 0x60 DUP9 ADD SWAP2 DUP3 MSTORE PUSH1 0x4 DUP7 ADD SLOAD SWAP2 PUSH1 0x80 DUP10 ADD SWAP2 PUSH1 0xFF DUP5 AND DUP4 MSTORE PUSH1 0xFF PUSH1 0xA0 DUP12 ADD SWAP5 PUSH1 0x8 SHR AND DUP5 MSTORE PUSH2 0xB9F PUSH1 0x5 DUP10 ADD PUSH2 0x2576 JUMP JUMPDEST SWAP5 PUSH1 0xC0 DUP12 ADD SWAP6 DUP7 MSTORE PUSH1 0xFF PUSH1 0x6 DUP11 ADD SLOAD AND SWAP9 PUSH1 0xE0 DUP13 ADD SWAP10 PUSH1 0x3 DUP2 LT ISZERO PUSH2 0x3F4 JUMPI DUP11 MSTORE PUSH1 0x7 ADD PUSH2 0xBCC SWAP1 PUSH2 0x21C8 JUMP JUMPDEST SWAP8 DUP8 DUP13 ADD SWAP9 DUP10 MSTORE DUP11 DUP3 PUSH1 0x40 MLOAD SWAP14 DUP15 SWAP14 DUP15 MSTORE MLOAD AND SWAP1 DUP13 ADD MSTORE MLOAD AND PUSH1 0x40 DUP11 ADD MSTORE MLOAD PUSH1 0x60 DUP10 ADD MSTORE MLOAD PUSH1 0x80 DUP9 ADD MSTORE MLOAD PUSH1 0xFF AND PUSH1 0xA0 DUP8 ADD MSTORE MLOAD PUSH1 0xFF AND PUSH1 0xC0 DUP7 ADD MSTORE MLOAD PUSH1 0xE0 DUP6 ADD PUSH2 0x1A0 SWAP1 MSTORE PUSH2 0x1C0 DUP6 ADD PUSH2 0xC20 SWAP2 PUSH2 0x2124 JUMP JUMPDEST SWAP3 MLOAD SWAP1 DUP5 ADD PUSH2 0xC2E SWAP2 PUSH2 0x2160 JUMP JUMPDEST MLOAD DUP1 MLOAD PUSH2 0xFFFF AND PUSH2 0x120 DUP5 ADD MSTORE PUSH1 0x20 DUP2 ADD MLOAD PUSH2 0x140 DUP5 ADD MSTORE PUSH1 0x40 DUP2 ADD MLOAD PUSH2 0x160 DUP5 ADD MSTORE PUSH1 0x60 DUP2 ADD MLOAD PUSH2 0x180 DUP5 ADD MSTORE PUSH1 0x80 ADD MLOAD PUSH2 0x1A0 DUP4 ADD MSTORE SUB SWAP1 RETURN JUMPDEST CALLVALUE PUSH2 0x257 JUMPI PUSH0 CALLDATASIZE PUSH1 0x3 NOT ADD SLT PUSH2 0x257 JUMPI PUSH1 0x20 PUSH1 0x40 MLOAD PUSH1 0xA DUP2 MSTORE RETURN JUMPDEST CALLVALUE PUSH2 0x257 JUMPI PUSH0 CALLDATASIZE PUSH1 0x3 NOT ADD SLT PUSH2 0x257 JUMPI PUSH1 0x20 PUSH1 0x40 MLOAD PUSH2 0x12C DUP2 MSTORE RETURN JUMPDEST CALLVALUE PUSH2 0x257 JUMPI PUSH2 0xCC0 PUSH2 0xCB2 CALLDATASIZE PUSH2 0x201B JUMP JUMPDEST SWAP3 SWAP1 SWAP2 PUSH2 0x9B8 DUP5 ISZERO ISZERO PUSH2 0x2208 JUMP JUMPDEST SWAP2 DUP3 PUSH0 MSTORE PUSH1 0x3 PUSH1 0x20 MSTORE PUSH2 0xCE0 CALLER PUSH1 0x1 DUP1 PUSH1 0xA0 SHL SUB PUSH1 0x40 PUSH0 KECCAK256 SLOAD AND EQ PUSH2 0x2246 JUMP JUMPDEST PUSH0 DUP4 DUP2 MSTORE PUSH1 0x3 PUSH1 0x20 MSTORE PUSH1 0x40 DUP2 KECCAK256 PUSH1 0x5 ADD SWAP1 JUMPDEST DUP3 DUP2 LT PUSH2 0xD8F JUMPI POP SLOAD ISZERO PUSH2 0xD36 JUMPI PUSH32 0x89216286BABE3A315DB35C8A44501C50B04E4AF6DB52228800178FA93ABBCFA6 SWAP2 PUSH2 0xD31 PUSH1 0x40 MLOAD SWAP3 DUP4 SWAP3 DUP4 PUSH2 0x22AB JUMP JUMPDEST SUB SWAP1 LOG2 STOP JUMPDEST PUSH1 0x40 MLOAD PUSH3 0x461BCD PUSH1 0xE5 SHL DUP2 MSTORE PUSH1 0x20 PUSH1 0x4 DUP3 ADD MSTORE PUSH1 0x2B PUSH1 0x24 DUP3 ADD MSTORE PUSH32 0x564D3A2063616E6E6F742072656D6F766520616C6C20746F6B656E732066726F PUSH1 0x44 DUP3 ADD MSTORE PUSH11 0x1B48185B1B1BDDDB1A5CDD PUSH1 0xAA SHL PUSH1 0x64 DUP3 ADD MSTORE PUSH1 0x84 SWAP1 REVERT JUMPDEST DUP1 PUSH2 0xDAE PUSH2 0xDA8 PUSH2 0xDA3 PUSH1 0x1 SWAP5 DUP8 DUP10 PUSH2 0x2287 JUMP JUMPDEST PUSH2 0x2297 JUMP JUMPDEST DUP5 PUSH2 0x2DA0 JUMP JUMPDEST ADD PUSH2 0xCF2 JUMP JUMPDEST CALLVALUE PUSH2 0x257 JUMPI PUSH0 CALLDATASIZE PUSH1 0x3 NOT ADD SLT PUSH2 0x257 JUMPI PUSH0 SLOAD PUSH1 0x40 MLOAD PUSH1 0x1 PUSH1 0x1 PUSH1 0xA0 SHL SUB SWAP1 SWAP2 AND DUP2 MSTORE PUSH1 0x20 SWAP1 RETURN JUMPDEST CALLVALUE PUSH2 0x257 JUMPI PUSH2 0xDE9 CALLDATASIZE PUSH2 0x2074 JUMP JUMPDEST SWAP1 SWAP6 SWAP4 SWAP1 SWAP2 SWAP1 PUSH1 0x1 PUSH1 0x1 PUSH1 0xA0 SHL SUB DUP6 AND ISZERO ISZERO DUP1 PUSH2 0x1237 JUMPI JUMPDEST ISZERO PUSH2 0x11FD JUMPI PUSH1 0xFF DUP1 SWAP2 AND SWAP4 PUSH1 0x1 DUP6 LT ISZERO DUP1 PUSH2 0x11F2 JUMPI JUMPDEST PUSH2 0xE20 SWAP1 PUSH2 0x23AC JUMP JUMPDEST AND SWAP6 PUSH1 0x1 DUP8 LT ISZERO DUP1 PUSH2 0x11E7 JUMPI JUMPDEST PUSH2 0xE36 SWAP1 PUSH2 0x23ED JUMP JUMPDEST PUSH2 0xE41 DUP2 ISZERO ISZERO PUSH2 0x242C JUMP JUMPDEST PUSH2 0xE4C DUP7 ISZERO ISZERO PUSH2 0x2489 JUMP JUMPDEST PUSH2 0xE55 DUP4 PUSH2 0x2C28 JUMP JUMPDEST PUSH2 0xE5F DUP6 CALLER PUSH2 0x25CF JUMP JUMPDEST PUSH0 DUP2 DUP2 MSTORE PUSH1 0x3 PUSH1 0x20 MSTORE PUSH1 0x40 SWAP1 KECCAK256 SLOAD SWAP1 SWAP8 SWAP1 PUSH1 0x1 PUSH1 0x1 PUSH1 0xA0 SHL SUB AND PUSH2 0x11A2 JUMPI PUSH1 0x40 MLOAD PUSH4 0x23B872DD PUSH1 0xE0 SHL DUP2 MSTORE CALLER PUSH1 0x4 DUP3 ADD MSTORE ADDRESS PUSH1 0x24 DUP3 ADD MSTORE PUSH1 0x44 DUP2 ADD DUP9 SWAP1 MSTORE PUSH1 0x20 DUP2 PUSH1 0x64 DUP2 PUSH0 PUSH1 0x1 PUSH1 0x1 PUSH1 0xA0 SHL SUB PUSH32 0x0 AND GAS CALL DUP1 ISZERO PUSH2 0x6F8 JUMPI PUSH2 0xEE7 SWAP2 PUSH0 SWAP2 PUSH2 0x1183 JUMPI JUMPDEST POP PUSH2 0x234A JUMP JUMPDEST PUSH1 0x40 MLOAD SWAP5 PUSH2 0xEF4 DUP7 PUSH2 0x216D JUMP JUMPDEST CALLER DUP7 MSTORE PUSH1 0x1 PUSH1 0x1 PUSH1 0xA0 SHL SUB DUP8 AND PUSH1 0x20 DUP8 ADD MSTORE PUSH1 0x40 DUP7 ADD DUP9 SWAP1 MSTORE PUSH0 PUSH1 0x60 DUP8 ADD MSTORE PUSH1 0x80 DUP7 ADD MSTORE PUSH1 0xA0 DUP6 ADD MSTORE PUSH2 0xF26 DUP2 PUSH2 0x252A JUMP JUMPDEST SWAP2 PUSH2 0xF34 PUSH1 0x40 MLOAD SWAP4 DUP5 PUSH2 0x21A6 JUMP JUMPDEST DUP2 DUP4 MSTORE PUSH1 0x20 DUP4 ADD SWAP1 CALLDATASIZE DUP4 PUSH1 0x5 SHL DUP3 ADD GT PUSH2 0x257 JUMPI DUP1 SWAP2 JUMPDEST DUP4 PUSH1 0x5 SHL DUP3 ADD DUP4 LT PUSH2 0x116B JUMPI POP POP POP POP PUSH1 0xC0 DUP4 ADD MSTORE PUSH0 PUSH1 0xE0 DUP4 ADD MSTORE PUSH1 0xA0 DUP2 CALLDATASIZE SUB SLT PUSH2 0x257 JUMPI PUSH1 0x40 MLOAD SWAP1 PUSH2 0xF7D DUP3 PUSH2 0x218A JUMP JUMPDEST PUSH2 0xFFFF DUP2 CALLDATALOAD AND DUP2 CALLDATALOAD SUB PUSH2 0x257 JUMPI DUP1 PUSH1 0x80 SWAP2 CALLDATALOAD DUP4 MSTORE PUSH1 0x20 DUP2 ADD CALLDATALOAD PUSH1 0x20 DUP5 ADD MSTORE PUSH1 0x40 DUP2 ADD CALLDATALOAD PUSH1 0x40 DUP5 ADD MSTORE PUSH1 0x60 DUP2 ADD CALLDATALOAD PUSH1 0x60 DUP5 ADD MSTORE ADD CALLDATALOAD PUSH1 0x80 DUP3 ADD MSTORE PUSH2 0x100 DUP3 ADD MSTORE DUP4 PUSH0 MSTORE PUSH1 0x3 PUSH1 0x20 MSTORE PUSH1 0x40 PUSH0 KECCAK256 SWAP1 PUSH1 0x1 DUP1 PUSH1 0xA0 SHL SUB DUP2 MLOAD AND PUSH1 0x1 PUSH1 0x1 PUSH1 0x60 SHL SUB PUSH1 0xA0 SHL SWAP1 DUP2 DUP5 SLOAD AND OR DUP4 SSTORE PUSH1 0x1 DUP4 ADD SWAP1 PUSH1 0x1 DUP1 PUSH1 0xA0 SHL SUB PUSH1 0x20 DUP5 ADD MLOAD AND SWAP1 DUP3 SLOAD AND OR SWAP1 SSTORE PUSH1 0x40 DUP2 ADD MLOAD PUSH1 0x2 DUP4 ADD SSTORE PUSH1 0x60 DUP2 ADD MLOAD PUSH1 0x3 DUP4 ADD SSTORE PUSH1 0x4 DUP3 ADD PUSH2 0x104B PUSH1 0xFF PUSH1 0x80 DUP5 ADD MLOAD AND SWAP2 PUSH1 0xFF NOT SWAP3 DUP4 DUP3 SLOAD AND OR DUP2 SSTORE PUSH1 0xFF PUSH1 0xA0 DUP6 ADD MLOAD AND PUSH2 0xFF00 DUP3 SLOAD SWAP2 PUSH1 0x8 SHL AND SWAP1 PUSH2 0xFF00 NOT AND OR SWAP1 SSTORE JUMP JUMPDEST PUSH1 0x5 DUP4 ADD PUSH1 0xC0 DUP4 ADD MLOAD SWAP1 DUP2 MLOAD SWAP2 PUSH8 0xFFFFFFFFFFFFFFFF DUP4 GT PUSH2 0x1157 JUMPI PUSH1 0x20 SWAP1 PUSH2 0x1074 DUP5 DUP5 PUSH2 0x24DB JUMP JUMPDEST ADD SWAP1 PUSH0 MSTORE PUSH1 0x20 PUSH0 KECCAK256 PUSH0 JUMPDEST DUP4 DUP2 LT PUSH2 0x113A JUMPI POP POP POP POP PUSH1 0x6 DUP4 ADD SWAP2 PUSH1 0xE0 DUP2 ADD MLOAD SWAP3 PUSH1 0x3 DUP5 LT ISZERO PUSH2 0x3F4 JUMPI PUSH1 0xB SWAP4 PUSH1 0xFF PUSH1 0x80 SWAP5 DUP4 SLOAD AND SWAP2 AND OR SWAP1 SSTORE PUSH2 0x100 PUSH1 0x7 DUP6 ADD SWAP2 ADD MLOAD SWAP1 PUSH2 0xFFFF DUP3 MLOAD AND PUSH2 0xFFFF NOT DUP3 SLOAD AND OR SWAP1 SSTORE PUSH1 0x20 DUP2 ADD MLOAD PUSH1 0x8 DUP6 ADD SSTORE PUSH1 0x40 DUP2 ADD MLOAD PUSH1 0x9 DUP6 ADD SSTORE PUSH1 0x60 DUP2 ADD MLOAD PUSH1 0xA DUP6 ADD SSTORE ADD MLOAD SWAP2 ADD SSTORE CALLER PUSH0 MSTORE PUSH1 0x5 PUSH1 0x20 MSTORE PUSH2 0x1100 DUP4 PUSH1 0x40 PUSH0 KECCAK256 PUSH2 0x2542 JUMP JUMPDEST PUSH1 0x40 MLOAD SWAP2 DUP3 MSTORE PUSH1 0x1 PUSH1 0x1 PUSH1 0xA0 SHL SUB AND SWAP1 CALLER SWAP1 PUSH32 0x6195D111F124DC39CB1AB083F9F1B6664E415BF60B71499B3A4B24CF07C337A8 SWAP1 PUSH1 0x20 SWAP1 LOG4 STOP JUMPDEST DUP3 MLOAD PUSH1 0x1 PUSH1 0x1 PUSH1 0xA0 SHL SUB AND DUP2 DUP4 ADD SSTORE PUSH1 0x20 SWAP1 SWAP3 ADD SWAP2 PUSH1 0x1 ADD PUSH2 0x107E JUMP JUMPDEST PUSH4 0x4E487B71 PUSH1 0xE0 SHL PUSH0 MSTORE PUSH1 0x41 PUSH1 0x4 MSTORE PUSH1 0x24 PUSH0 REVERT JUMPDEST PUSH1 0x20 DUP1 SWAP2 PUSH2 0x1178 DUP6 PUSH2 0x1FD6 JUMP JUMPDEST DUP2 MSTORE ADD SWAP3 ADD SWAP2 PUSH2 0xF4B JUMP JUMPDEST PUSH2 0x119C SWAP2 POP PUSH1 0x20 RETURNDATASIZE PUSH1 0x20 GT PUSH2 0x729 JUMPI PUSH2 0x71A DUP2 DUP4 PUSH2 0x21A6 JUMP JUMPDEST DUP11 PUSH2 0xEE1 JUMP JUMPDEST PUSH1 0x40 MLOAD PUSH3 0x461BCD PUSH1 0xE5 SHL DUP2 MSTORE PUSH1 0x20 PUSH1 0x4 DUP3 ADD MSTORE PUSH1 0x18 PUSH1 0x24 DUP3 ADD MSTORE PUSH32 0x564D3A207661756C7420616C7265616479206578697374730000000000000000 PUSH1 0x44 DUP3 ADD MSTORE PUSH1 0x64 SWAP1 REVERT JUMPDEST POP PUSH1 0x64 DUP8 GT ISZERO PUSH2 0xE2D JUMP JUMPDEST POP PUSH1 0xA DUP6 GT ISZERO PUSH2 0xE17 JUMP JUMPDEST PUSH1 0x40 MLOAD PUSH3 0x461BCD PUSH1 0xE5 SHL DUP2 MSTORE PUSH1 0x20 PUSH1 0x4 DUP3 ADD MSTORE PUSH1 0x12 PUSH1 0x24 DUP3 ADD MSTORE PUSH18 0x2B269D1034B73B30B634B2103632B0B232B9 PUSH1 0x71 SHL PUSH1 0x44 DUP3 ADD MSTORE PUSH1 0x64 SWAP1 REVERT JUMPDEST POP PUSH1 0x1 PUSH1 0x1 PUSH1 0xA0 SHL SUB DUP6 AND CALLER EQ ISZERO PUSH2 0xE01 JUMP JUMPDEST CALLVALUE PUSH2 0x257 JUMPI PUSH0 CALLDATASIZE PUSH1 0x3 NOT ADD SLT PUSH2 0x257 JUMPI PUSH1 0x1 SLOAD PUSH1 0x40 MLOAD PUSH1 0x1 PUSH1 0x1 PUSH1 0xA0 SHL SUB SWAP1 SWAP2 AND DUP2 MSTORE PUSH1 0x20 SWAP1 RETURN JUMPDEST CALLVALUE PUSH2 0x257 JUMPI PUSH1 0x20 CALLDATASIZE PUSH1 0x3 NOT ADD SLT PUSH2 0x257 JUMPI PUSH2 0x128B PUSH2 0x1FAA JUMP JUMPDEST PUSH0 SLOAD PUSH1 0x1 PUSH1 0x1 PUSH1 0xA0 SHL SUB SWAP2 SWAP1 PUSH2 0x12A4 SWAP1 DUP4 AND CALLER EQ PUSH2 0x22F6 JUMP JUMPDEST AND DUP1 PUSH1 0x1 PUSH1 0x1 PUSH1 0x60 SHL SUB PUSH1 0xA0 SHL PUSH1 0x1 SLOAD AND OR PUSH1 0x1 SSTORE PUSH32 0x3F32684A32A11DABDBB8C0177DE80AA3AE36A004D75210335B49E544E48CD0AA PUSH0 DUP1 LOG2 STOP JUMPDEST CALLVALUE PUSH2 0x257 JUMPI PUSH1 0x20 CALLDATASIZE PUSH1 0x3 NOT ADD SLT PUSH2 0x257 JUMPI PUSH2 0x12F8 PUSH2 0x1FAA JUMP JUMPDEST CALLER PUSH0 DUP2 DUP2 MSTORE PUSH1 0x7 PUSH1 0x20 MSTORE PUSH1 0x40 DUP2 KECCAK256 DUP1 SLOAD PUSH1 0x1 PUSH1 0x1 PUSH1 0xA0 SHL SUB NOT AND PUSH1 0x1 PUSH1 0x1 PUSH1 0xA0 SHL SUB SWAP1 SWAP5 AND SWAP4 DUP5 OR SWAP1 SSTORE PUSH32 0x50697E88BD427923002F5D3844F352091C05C0C9C3B69E43830863D222463173 SWAP1 DUP1 LOG3 STOP JUMPDEST CALLVALUE PUSH2 0x257 JUMPI PUSH0 CALLDATASIZE PUSH1 0x3 NOT ADD SLT PUSH2 0x257 JUMPI PUSH1 0x2 SLOAD PUSH1 0x40 MLOAD PUSH1 0x1 PUSH1 0x1 PUSH1 0xA0 SHL SUB SWAP1 SWAP2 AND DUP2 MSTORE PUSH1 0x20 SWAP1 RETURN JUMPDEST CALLVALUE PUSH2 0x257 JUMPI PUSH0 CALLDATASIZE PUSH1 0x3 NOT ADD SLT PUSH2 0x257 JUMPI PUSH1 0x20 PUSH1 0x40 MLOAD PUSH3 0xF4240 DUP2 MSTORE RETURN JUMPDEST CALLVALUE PUSH2 0x257 JUMPI PUSH1 0x20 DUP1 PUSH1 0x3 NOT CALLDATASIZE ADD SLT PUSH2 0x257 JUMPI PUSH1 0x1 PUSH1 0x1 PUSH1 0xA0 SHL SUB PUSH2 0x13AF PUSH2 0x1FAA JUMP JUMPDEST AND PUSH0 MSTORE PUSH1 0x5 PUSH1 0x20 MSTORE PUSH1 0x40 PUSH0 KECCAK256 SWAP1 PUSH1 0x40 MLOAD SWAP1 DUP2 PUSH1 0x20 DUP5 SLOAD SWAP2 DUP3 DUP2 MSTORE ADD SWAP4 PUSH0 MSTORE PUSH1 0x20 PUSH0 KECCAK256 SWAP2 PUSH0 SWAP1 JUMPDEST DUP3 DUP3 LT PUSH2 0x13F8 JUMPI PUSH2 0x36A DUP6 PUSH2 0x13EC DUP2 DUP10 SUB DUP3 PUSH2 0x21A6 JUMP JUMPDEST PUSH1 0x40 MLOAD SWAP2 DUP3 SWAP2 DUP3 PUSH2 0x20E9 JUMP JUMPDEST DUP4 SLOAD DUP7 MSTORE SWAP5 DUP6 ADD SWAP5 PUSH1 0x1 SWAP4 DUP5 ADD SWAP4 SWAP1 SWAP2 ADD SWAP1 PUSH2 0x13D5 JUMP JUMPDEST CALLVALUE PUSH2 0x257 JUMPI PUSH1 0x20 CALLDATASIZE PUSH1 0x3 NOT ADD SLT PUSH2 0x257 JUMPI PUSH1 0x1 PUSH1 0x1 PUSH1 0xA0 SHL SUB PUSH2 0x1430 PUSH2 0x1FAA JUMP JUMPDEST AND PUSH0 MSTORE PUSH1 0x8 PUSH1 0x20 MSTORE PUSH1 0x20 PUSH1 0x40 PUSH0 KECCAK256 SLOAD PUSH1 0x40 MLOAD SWAP1 DUP2 MSTORE RETURN JUMPDEST CALLVALUE PUSH2 0x257 JUMPI PUSH1 0x20 DUP1 PUSH1 0x3 NOT CALLDATASIZE ADD SLT PUSH2 0x257 JUMPI PUSH2 0x1464 PUSH2 0x9B8 PUSH2 0x1FAA JUMP JUMPDEST SWAP1 DUP2 PUSH0 MSTORE PUSH1 0x3 DUP2 MSTORE PUSH1 0x40 PUSH0 KECCAK256 PUSH1 0x1 DUP1 PUSH1 0xA0 SHL SUB PUSH2 0x1485 CALLER DUP3 DUP5 SLOAD AND EQ PUSH2 0x2246 JUMP JUMPDEST PUSH1 0x6 DUP3 ADD DUP1 SLOAD SWAP3 PUSH1 0xFF DUP5 AND PUSH1 0x3 DUP2 LT ISZERO PUSH2 0x3F4 JUMPI PUSH1 0x2 EQ PUSH2 0x160C JUMPI PUSH1 0x3 DUP2 ADD SLOAD PUSH2 0x15C7 JUMPI PUSH1 0x2 SWAP1 DUP2 ADD DUP1 SLOAD PUSH0 SWAP2 DUP3 SWAP1 SSTORE PUSH1 0xFF NOT SWAP6 SWAP1 SWAP6 AND SWAP1 SWAP2 OR SWAP1 SWAP2 SSTORE PUSH1 0x40 MLOAD PUSH4 0xA9059CBB PUSH1 0xE0 SHL DUP2 MSTORE CALLER PUSH1 0x4 DUP3 ADD MSTORE PUSH1 0x24 DUP2 ADD DUP5 SWAP1 MSTORE SWAP2 DUP5 SWAP2 DUP4 SWAP2 PUSH1 0x44 SWAP2 DUP4 SWAP2 PUSH32 0x0 AND GAS CALL SWAP1 DUP2 ISZERO PUSH2 0x6F8 JUMPI PUSH0 SWAP2 PUSH2 0x15AA JUMPI JUMPDEST POP ISZERO PUSH2 0x156F JUMPI DUP3 SWAP2 PUSH32 0x1DE10DC7ADF633383767E576A9953D1B3C4F31A05C1635D7656D25604ACA6B1F SWAP2 PUSH1 0x40 MLOAD SWAP1 DUP2 MSTORE LOG2 PUSH32 0xD06EF1BE920EAF099A4E446EC48846ABAE39F5EB6B0877FEA0913A68731AF551 PUSH0 DUP1 LOG2 STOP JUMPDEST PUSH1 0x40 MLOAD PUSH3 0x461BCD PUSH1 0xE5 SHL DUP2 MSTORE PUSH1 0x4 DUP2 ADD DUP4 SWAP1 MSTORE PUSH1 0x13 PUSH1 0x24 DUP3 ADD MSTORE PUSH19 0x15934E881DDA5D1A191C985DC819985A5B1959 PUSH1 0x6A SHL PUSH1 0x44 DUP3 ADD MSTORE PUSH1 0x64 SWAP1 REVERT JUMPDEST PUSH2 0x15C1 SWAP2 POP DUP4 RETURNDATASIZE DUP6 GT PUSH2 0x729 JUMPI PUSH2 0x71A DUP2 DUP4 PUSH2 0x21A6 JUMP JUMPDEST DUP5 PUSH2 0x1518 JUMP JUMPDEST PUSH1 0x40 MLOAD PUSH3 0x461BCD PUSH1 0xE5 SHL DUP2 MSTORE PUSH1 0x4 DUP2 ADD DUP7 SWAP1 MSTORE PUSH1 0x1E PUSH1 0x24 DUP3 ADD MSTORE PUSH32 0x564D3A20636C6F7365206F70656E20706F736974696F6E732066697273740000 PUSH1 0x44 DUP3 ADD MSTORE PUSH1 0x64 SWAP1 REVERT JUMPDEST PUSH1 0x40 MLOAD PUSH3 0x461BCD PUSH1 0xE5 SHL DUP2 MSTORE PUSH1 0x4 DUP2 ADD DUP7 SWAP1 MSTORE PUSH1 0x12 PUSH1 0x24 DUP3 ADD MSTORE PUSH18 0x15934E88185B1C9958591E4818DB1BDCD959 PUSH1 0x72 SHL PUSH1 0x44 DUP3 ADD MSTORE PUSH1 0x64 SWAP1 REVERT JUMPDEST CALLVALUE PUSH2 0x257 JUMPI PUSH1 0x20 CALLDATASIZE PUSH1 0x3 NOT ADD SLT PUSH2 0x257 JUMPI PUSH1 0x4 CALLDATALOAD PUSH0 MSTORE PUSH1 0x4 PUSH1 0x20 MSTORE PUSH1 0x40 PUSH0 KECCAK256 PUSH1 0x1 DUP1 PUSH1 0xA0 SHL SUB SWAP1 DUP2 DUP2 SLOAD AND SWAP1 DUP3 PUSH1 0x1 DUP3 ADD SLOAD AND SWAP1 PUSH1 0x2 DUP2 ADD SLOAD SWAP4 PUSH1 0x3 DUP3 ADD SLOAD AND PUSH1 0x4 DUP3 ADD SLOAD PUSH1 0x5 DUP4 ADD SLOAD PUSH1 0x6 DUP5 ADD SLOAD SWAP1 PUSH1 0x7 DUP6 ADD SLOAD SWAP3 PUSH1 0x8 DUP7 ADD SLOAD SWAP5 PUSH1 0xFF PUSH1 0x9 DUP9 ADD SLOAD AND SWAP10 PUSH1 0xB PUSH1 0xA DUP10 ADD SLOAD SWAP9 ADD SLOAD SWAP9 PUSH1 0x40 MLOAD SWAP11 DUP12 MSTORE PUSH1 0x20 DUP12 ADD MSTORE PUSH1 0x40 DUP11 ADD MSTORE PUSH1 0x60 DUP10 ADD MSTORE PUSH1 0x80 DUP9 ADD MSTORE PUSH1 0xA0 DUP8 ADD MSTORE PUSH1 0xC0 DUP7 ADD MSTORE PUSH1 0xE0 DUP6 ADD MSTORE PUSH2 0x100 DUP5 ADD MSTORE PUSH1 0x2 DUP5 LT ISZERO PUSH2 0x3F4 JUMPI PUSH2 0x180 SWAP4 PUSH2 0x120 DUP5 ADD MSTORE PUSH2 0x140 DUP4 ADD MSTORE PUSH2 0x160 DUP3 ADD MSTORE RETURN JUMPDEST CALLVALUE PUSH2 0x257 JUMPI PUSH1 0x20 CALLDATASIZE PUSH1 0x3 NOT ADD SLT PUSH2 0x257 JUMPI PUSH2 0x1722 PUSH2 0x9B8 PUSH2 0x1FAA JUMP JUMPDEST PUSH0 DUP2 DUP2 MSTORE PUSH1 0x3 PUSH1 0x20 MSTORE PUSH1 0x40 SWAP1 KECCAK256 SLOAD PUSH2 0x1744 SWAP1 PUSH1 0x1 PUSH1 0x1 PUSH1 0xA0 SHL SUB AND CALLER EQ PUSH2 0x2246 JUMP JUMPDEST DUP1 PUSH0 MSTORE PUSH1 0x3 PUSH1 0x20 MSTORE PUSH1 0xFF PUSH1 0x6 PUSH1 0x40 PUSH0 KECCAK256 ADD SLOAD AND PUSH1 0x3 DUP2 LT ISZERO PUSH2 0x3F4 JUMPI PUSH1 0x1 SUB PUSH2 0x17A4 JUMPI DUP1 PUSH0 MSTORE PUSH1 0x3 PUSH1 0x20 MSTORE PUSH1 0x6 PUSH1 0x40 PUSH0 KECCAK256 ADD PUSH1 0xFF NOT DUP2 SLOAD AND SWAP1 SSTORE PUSH32 0xA7B437A7C0BE1EAAAD481743F822ACF86D00E9707A0C18A609F0E3AD97370BA8 PUSH0 DUP1 LOG2 STOP JUMPDEST PUSH1 0x40 MLOAD PUSH3 0x461BCD PUSH1 0xE5 SHL DUP2 MSTORE PUSH1 0x20 PUSH1 0x4 DUP3 ADD MSTORE PUSH1 0xE PUSH1 0x24 DUP3 ADD MSTORE PUSH14 0x15934E881B9BDD081C185D5CD959 PUSH1 0x92 SHL PUSH1 0x44 DUP3 ADD MSTORE PUSH1 0x64 SWAP1 REVERT JUMPDEST CALLVALUE PUSH2 0x257 JUMPI PUSH1 0xFF PUSH2 0x17EA CALLDATASIZE PUSH2 0x2074 JUMP JUMPDEST SWAP7 SWAP1 SWAP2 SWAP4 SWAP6 SWAP3 SWAP6 AND SWAP6 PUSH1 0x1 SWAP6 PUSH1 0x1 DUP9 LT ISZERO DUP1 PUSH2 0x1A50 JUMPI JUMPDEST PUSH2 0x180A SWAP1 PUSH2 0x23AC JUMP JUMPDEST PUSH2 0x1823 PUSH1 0xFF DUP3 AND PUSH1 0x1 DUP2 LT ISZERO SWAP1 DUP2 PUSH2 0x1A44 JUMPI JUMPDEST POP PUSH2 0x23ED JUMP JUMPDEST PUSH2 0x182E DUP4 ISZERO ISZERO PUSH2 0x242C JUMP JUMPDEST PUSH2 0x1839 DUP7 ISZERO ISZERO PUSH2 0x2489 JUMP JUMPDEST PUSH2 0x1842 DUP3 PUSH2 0x2C28 JUMP JUMPDEST PUSH2 0x184C DUP5 CALLER PUSH2 0x25CF JUMP JUMPDEST SWAP8 DUP9 PUSH0 MSTORE PUSH1 0x20 SWAP8 PUSH1 0x3 DUP10 MSTORE PUSH1 0x40 PUSH0 KECCAK256 SWAP5 PUSH1 0x1 DUP1 PUSH1 0xA0 SHL SUB SWAP8 PUSH2 0x1872 CALLER DUP11 DUP10 SLOAD AND EQ PUSH2 0x2246 JUMP JUMPDEST PUSH1 0x6 DUP8 ADD SWAP5 PUSH1 0xFF DUP7 SLOAD AND PUSH1 0x3 DUP2 LT ISZERO PUSH2 0x3F4 JUMPI PUSH1 0x2 SUB PUSH2 0x1A0E JUMPI PUSH1 0x40 MLOAD PUSH4 0x23B872DD PUSH1 0xE0 SHL DUP2 MSTORE CALLER PUSH1 0x4 DUP3 ADD MSTORE ADDRESS PUSH1 0x24 DUP3 ADD MSTORE PUSH1 0x44 DUP2 ADD DUP13 SWAP1 MSTORE SWAP1 DUP13 DUP3 DUP13 DUP2 PUSH0 DUP2 PUSH1 0x64 DUP2 ADD SUB SWAP3 PUSH32 0x0 AND GAS CALL SWAP2 DUP3 ISZERO PUSH2 0x6F8 JUMPI PUSH2 0x192C SWAP3 PUSH2 0x18FB SWAP2 DUP16 PUSH0 SWAP3 PUSH2 0x19F1 JUMPI JUMPDEST POP POP PUSH2 0x234A JUMP JUMPDEST DUP12 PUSH1 0x2 DUP11 ADD SSTORE PUSH0 PUSH1 0x3 DUP11 ADD SSTORE PUSH1 0x4 DUP10 ADD PUSH1 0xFF NOT SWAP7 DUP8 DUP3 SLOAD AND OR DUP2 SSTORE SWAP1 PUSH2 0xFF00 DUP3 SLOAD SWAP2 PUSH1 0x8 SHL AND SWAP1 PUSH2 0xFF00 NOT AND OR SWAP1 SSTORE JUMP JUMPDEST PUSH1 0x5 DUP8 ADD SWAP1 PUSH8 0xFFFFFFFFFFFFFFFF DUP4 GT PUSH2 0x1157 JUMPI PUSH2 0x194A DUP4 DUP4 PUSH2 0x24DB JUMP JUMPDEST SWAP1 PUSH0 MSTORE DUP11 PUSH0 KECCAK256 PUSH0 JUMPDEST DUP4 DUP2 LT PUSH2 0x19D8 JUMPI POP POP POP POP POP PUSH32 0xDE9D4AF6DC6156415163633265210B1348683A9A7E9B955616130CE9D6C58CB2 SWAP6 SWAP5 SWAP4 SWAP3 DUP3 PUSH1 0x80 SWAP3 PUSH1 0xB SWAP5 SLOAD AND SWAP1 SSTORE PUSH1 0x7 DUP5 ADD PUSH2 0xFFFF PUSH2 0x199E DUP4 PUSH2 0x251B JUMP JUMPDEST AND PUSH2 0xFFFF NOT DUP3 SLOAD AND OR SWAP1 SSTORE DUP9 DUP2 ADD CALLDATALOAD PUSH1 0x8 DUP6 ADD SSTORE PUSH1 0x40 DUP2 ADD CALLDATALOAD PUSH1 0x9 DUP6 ADD SSTORE PUSH1 0x60 DUP2 ADD CALLDATALOAD PUSH1 0xA DUP6 ADD SSTORE ADD CALLDATALOAD SWAP2 ADD SSTORE PUSH1 0x40 MLOAD SWAP4 DUP5 MSTORE AND SWAP3 CALLER SWAP3 LOG4 STOP JUMPDEST DUP5 SWAP1 DUP14 PUSH2 0x19E4 DUP6 PUSH2 0x2297 JUMP JUMPDEST SWAP5 ADD SWAP4 DUP2 DUP5 ADD SSTORE ADD PUSH2 0x1952 JUMP JUMPDEST PUSH2 0x1A07 SWAP3 POP DUP1 RETURNDATASIZE LT PUSH2 0x729 JUMPI PUSH2 0x71A DUP2 DUP4 PUSH2 0x21A6 JUMP JUMPDEST PUSH0 DUP16 PUSH2 0x18F4 JUMP JUMPDEST PUSH1 0x40 MLOAD PUSH3 0x461BCD PUSH1 0xE5 SHL DUP2 MSTORE PUSH1 0x4 DUP2 ADD DUP14 SWAP1 MSTORE PUSH1 0xE PUSH1 0x24 DUP3 ADD MSTORE PUSH14 0x15934E881B9BDD0818DB1BDCD959 PUSH1 0x92 SHL PUSH1 0x44 DUP3 ADD MSTORE PUSH1 0x64 SWAP1 REVERT JUMPDEST PUSH1 0x64 SWAP2 POP GT ISZERO DUP11 PUSH2 0x181D JUMP JUMPDEST POP PUSH1 0xA DUP9 GT ISZERO PUSH2 0x1801 JUMP JUMPDEST CALLVALUE PUSH2 0x257 JUMPI PUSH1 0x40 CALLDATASIZE PUSH1 0x3 NOT ADD SLT PUSH2 0x257 JUMPI PUSH2 0x1A74 PUSH2 0x1FAA JUMP JUMPDEST PUSH2 0x1A81 PUSH1 0x24 CALLDATALOAD SWAP2 CALLER PUSH2 0x25CF JUMP JUMPDEST SWAP1 DUP2 PUSH0 MSTORE PUSH1 0x20 PUSH1 0x3 DUP2 MSTORE PUSH1 0xFF PUSH1 0x6 PUSH1 0x40 PUSH0 KECCAK256 ADD SLOAD AND PUSH1 0x3 DUP2 LT ISZERO PUSH2 0x3F4 JUMPI PUSH1 0x2 EQ PUSH2 0x1BAF JUMPI DUP2 ISZERO PUSH2 0x1B79 JUMPI PUSH1 0x40 MLOAD PUSH4 0x23B872DD PUSH1 0xE0 SHL DUP2 MSTORE CALLER PUSH1 0x4 DUP3 ADD MSTORE ADDRESS PUSH1 0x24 DUP3 ADD MSTORE PUSH1 0x44 DUP2 ADD DUP4 SWAP1 MSTORE SWAP2 DUP2 DUP4 PUSH1 0x64 DUP2 PUSH0 PUSH1 0x1 PUSH1 0x1 PUSH1 0xA0 SHL SUB PUSH32 0x0 AND GAS CALL SWAP3 DUP4 ISZERO PUSH2 0x6F8 JUMPI PUSH32 0xF4D5F4313DB9D90750B55863740862117F1A26005F470DF515D532580BE167B2 SWAP4 PUSH2 0x1B38 SWAP2 PUSH0 SWAP2 PUSH2 0x1B5C JUMPI POP PUSH2 0x234A JUMP JUMPDEST DUP4 PUSH0 MSTORE PUSH1 0x3 DUP3 MSTORE PUSH1 0x2 PUSH1 0x40 PUSH0 KECCAK256 ADD PUSH2 0x1B51 DUP3 DUP3 SLOAD PUSH2 0x238B JUMP JUMPDEST SWAP1 SSTORE PUSH1 0x40 MLOAD SWAP1 DUP2 MSTORE LOG2 STOP JUMPDEST PUSH2 0x1B73 SWAP2 POP DUP5 RETURNDATASIZE DUP7 GT PUSH2 0x729 JUMPI PUSH2 0x71A DUP2 DUP4 PUSH2 0x21A6 JUMP JUMPDEST DUP7 PUSH2 0xEE1 JUMP JUMPDEST PUSH1 0x64 SWAP1 PUSH1 0x40 MLOAD SWAP1 PUSH3 0x461BCD PUSH1 0xE5 SHL DUP3 MSTORE PUSH1 0x4 DUP3 ADD MSTORE PUSH1 0xF PUSH1 0x24 DUP3 ADD MSTORE PUSH15 0x15934E881E995C9BC8185B5BDD5B9D PUSH1 0x8A SHL PUSH1 0x44 DUP3 ADD MSTORE REVERT JUMPDEST PUSH1 0x64 SWAP1 PUSH1 0x40 MLOAD SWAP1 PUSH3 0x461BCD PUSH1 0xE5 SHL DUP3 MSTORE PUSH1 0x4 DUP3 ADD MSTORE PUSH1 0x10 PUSH1 0x24 DUP3 ADD MSTORE PUSH16 0x15934E881D985D5B1D0818DB1BDCD959 PUSH1 0x82 SHL PUSH1 0x44 DUP3 ADD MSTORE REVERT JUMPDEST CALLVALUE PUSH2 0x257 JUMPI PUSH1 0x20 CALLDATASIZE PUSH1 0x3 NOT ADD SLT PUSH2 0x257 JUMPI PUSH2 0x1BFF PUSH2 0x1FAA JUMP JUMPDEST PUSH0 SLOAD PUSH1 0x1 PUSH1 0x1 PUSH1 0xA0 SHL SUB SWAP2 SWAP1 PUSH2 0x1C18 SWAP1 DUP4 AND CALLER EQ PUSH2 0x22F6 JUMP JUMPDEST AND DUP1 PUSH1 0x1 PUSH1 0x1 PUSH1 0x60 SHL SUB PUSH1 0xA0 SHL PUSH1 0x2 SLOAD AND OR PUSH1 0x2 SSTORE PUSH32 0x2A5AA8E2A11A8C03EDE8D505C58640F635C8C77B57990C0B704B45E9A53D267B PUSH0 DUP1 LOG2 STOP JUMPDEST CALLVALUE PUSH2 0x257 JUMPI PUSH1 0x20 CALLDATASIZE PUSH1 0x3 NOT ADD SLT PUSH2 0x257 JUMPI PUSH1 0x20 PUSH1 0x1 PUSH1 0x1 PUSH1 0xA0 SHL SUB DUP1 PUSH2 0x1C77 PUSH2 0x1FAA JUMP JUMPDEST AND PUSH0 MSTORE PUSH1 0x7 DUP3 MSTORE PUSH1 0x40 PUSH0 KECCAK256 SLOAD AND PUSH1 0x40 MLOAD SWAP1 DUP2 MSTORE RETURN JUMPDEST CALLVALUE PUSH2 0x257 JUMPI PUSH0 CALLDATASIZE PUSH1 0x3 NOT ADD SLT PUSH2 0x257 JUMPI PUSH1 0x40 MLOAD PUSH32 0x0 PUSH1 0x1 PUSH1 0x1 PUSH1 0xA0 SHL SUB AND DUP2 MSTORE PUSH1 0x20 SWAP1 RETURN JUMPDEST CALLVALUE PUSH2 0x257 JUMPI PUSH1 0x40 CALLDATASIZE PUSH1 0x3 NOT ADD SLT PUSH2 0x257 JUMPI PUSH2 0x1CE9 PUSH2 0x1FAA JUMP JUMPDEST PUSH1 0x1 PUSH1 0x1 PUSH1 0xA0 SHL SUB AND PUSH0 SWAP1 DUP2 MSTORE PUSH1 0x5 PUSH1 0x20 MSTORE PUSH1 0x40 SWAP1 KECCAK256 DUP1 SLOAD PUSH1 0x24 CALLDATALOAD SWAP2 SWAP1 DUP3 LT ISZERO PUSH2 0x257 JUMPI PUSH1 0x20 SWAP2 PUSH2 0x98E SWAP2 PUSH2 0x205F JUMP JUMPDEST CALLVALUE PUSH2 0x257 JUMPI PUSH2 0x1D39 PUSH2 0x1D2A CALLDATASIZE PUSH2 0x201B JUMP JUMPDEST SWAP2 PUSH2 0x9B8 DUP4 SWAP5 SWAP3 SWAP5 ISZERO ISZERO PUSH2 0x2208 JUMP JUMPDEST SWAP1 DUP2 PUSH0 MSTORE PUSH1 0x20 SWAP3 PUSH1 0x3 PUSH1 0x20 MSTORE PUSH1 0x1 DUP1 PUSH1 0xA0 SHL SUB PUSH2 0x1D5D CALLER DUP3 PUSH1 0x40 PUSH0 KECCAK256 SLOAD AND EQ PUSH2 0x2246 JUMP JUMPDEST PUSH0 DUP5 DUP2 MSTORE PUSH1 0x3 PUSH1 0x20 MSTORE PUSH1 0x40 DUP2 KECCAK256 PUSH1 0x5 ADD SWAP6 SWAP1 JUMPDEST DUP5 DUP2 LT PUSH2 0x1DAA JUMPI DUP6 PUSH32 0x6DAA1FF9696B2F02619A3F88B4B180EF2A65D070354484A2689F745BD640B764 DUP7 DUP7 PUSH2 0xD31 PUSH1 0x40 MLOAD SWAP3 DUP4 SWAP3 DUP4 PUSH2 0x22AB JUMP JUMPDEST DUP3 PUSH2 0x1DB9 PUSH2 0xDA3 DUP4 DUP9 DUP9 PUSH2 0x2287 JUMP JUMPDEST AND ISZERO PUSH2 0x1E3B JUMPI PUSH2 0x1DD6 PUSH2 0x1DD0 PUSH2 0xDA3 DUP4 DUP9 DUP9 PUSH2 0x2287 JUMP JUMPDEST DUP9 PUSH2 0x2BDF JUMP JUMPDEST ISZERO PUSH2 0x1DE4 JUMPI JUMPDEST PUSH1 0x1 ADD PUSH2 0x1D70 JUMP JUMPDEST PUSH2 0x1DF2 PUSH2 0xDA3 DUP3 DUP8 DUP8 PUSH2 0x2287 JUMP JUMPDEST SWAP1 DUP8 SLOAD PUSH1 0x1 PUSH1 0x40 SHL DUP2 LT ISZERO PUSH2 0x1157 JUMPI PUSH1 0x1 SWAP3 PUSH2 0x1E16 DUP3 DUP6 PUSH2 0x1E34 SWAP5 ADD DUP13 SSTORE DUP12 PUSH2 0x205F JUMP JUMPDEST SWAP1 SWAP2 SWAP1 PUSH1 0x1 DUP1 PUSH1 0xA0 SHL SUB DUP1 DUP5 SLOAD SWAP3 PUSH1 0x3 SHL SWAP4 AND DUP4 SHL SWAP3 SHL NOT AND OR SWAP1 SSTORE JUMP JUMPDEST SWAP1 POP PUSH2 0x1DDC JUMP JUMPDEST PUSH1 0x40 MLOAD PUSH3 0x461BCD PUSH1 0xE5 SHL DUP2 MSTORE PUSH1 0x4 DUP2 ADD DUP4 SWAP1 MSTORE PUSH1 0x16 PUSH1 0x24 DUP3 ADD MSTORE PUSH22 0x564D3A207A65726F20746F6B656E2061646472657373 PUSH1 0x50 SHL PUSH1 0x44 DUP3 ADD MSTORE PUSH1 0x64 SWAP1 REVERT JUMPDEST CALLVALUE PUSH2 0x257 JUMPI PUSH1 0x40 CALLDATASIZE PUSH1 0x3 NOT ADD SLT PUSH2 0x257 JUMPI PUSH2 0x1E92 PUSH2 0x1FAA JUMP JUMPDEST PUSH1 0x1 SLOAD PUSH1 0x24 CALLDATALOAD SWAP3 PUSH1 0x1 PUSH1 0x1 PUSH1 0xA0 SHL SUB SWAP3 SWAP2 DUP4 AND CALLER EQ DUP1 ISZERO PUSH2 0x1F9E JUMPI JUMPDEST ISZERO PUSH2 0x1F6B JUMPI POP AND SWAP1 DUP2 ISZERO PUSH2 0x1F35 JUMPI DUP1 ISZERO PUSH2 0x1EFC JUMPI PUSH1 0x20 PUSH32 0xD86730737B142FC160892FA8A0F2DB687A92A0E294D1AD70624CF5ACEF03B84 SWAP2 DUP4 PUSH0 MSTORE PUSH1 0x8 DUP3 MSTORE DUP1 PUSH1 0x40 PUSH0 KECCAK256 SSTORE PUSH1 0x40 MLOAD SWAP1 DUP2 MSTORE LOG2 STOP JUMPDEST PUSH1 0x40 MLOAD PUSH3 0x461BCD PUSH1 0xE5 SHL DUP2 MSTORE PUSH1 0x20 PUSH1 0x4 DUP3 ADD MSTORE PUSH1 0x11 PUSH1 0x24 DUP3 ADD MSTORE PUSH17 0x564D3A20696E76616C6964207072696365 PUSH1 0x78 SHL PUSH1 0x44 DUP3 ADD MSTORE PUSH1 0x64 SWAP1 REVERT JUMPDEST PUSH1 0x40 MLOAD PUSH3 0x461BCD PUSH1 0xE5 SHL DUP2 MSTORE PUSH1 0x20 PUSH1 0x4 DUP3 ADD MSTORE PUSH1 0xE PUSH1 0x24 DUP3 ADD MSTORE PUSH14 0x2B269D103D32B937903A37B5B2B7 PUSH1 0x91 SHL PUSH1 0x44 DUP3 ADD MSTORE PUSH1 0x64 SWAP1 REVERT JUMPDEST PUSH3 0x461BCD PUSH1 0xE5 SHL DUP2 MSTORE PUSH1 0x20 PUSH1 0x4 DUP3 ADD MSTORE PUSH1 0xE PUSH1 0x24 DUP3 ADD MSTORE PUSH14 0x564D3A206E6F74206F7261636C65 PUSH1 0x90 SHL PUSH1 0x44 DUP3 ADD MSTORE PUSH1 0x64 SWAP1 REVERT JUMPDEST POP DUP3 PUSH0 SLOAD AND CALLER EQ PUSH2 0x1EAE JUMP JUMPDEST PUSH1 0x4 CALLDATALOAD SWAP1 PUSH1 0x1 PUSH1 0x1 PUSH1 0xA0 SHL SUB DUP3 AND DUP3 SUB PUSH2 0x257 JUMPI JUMP JUMPDEST PUSH1 0x24 CALLDATALOAD SWAP1 PUSH1 0x1 PUSH1 0x1 PUSH1 0xA0 SHL SUB DUP3 AND DUP3 SUB PUSH2 0x257 JUMPI JUMP JUMPDEST CALLDATALOAD SWAP1 PUSH1 0x1 PUSH1 0x1 PUSH1 0xA0 SHL SUB DUP3 AND DUP3 SUB PUSH2 0x257 JUMPI JUMP JUMPDEST SWAP2 DUP2 PUSH1 0x1F DUP5 ADD SLT ISZERO PUSH2 0x257 JUMPI DUP3 CALLDATALOAD SWAP2 PUSH8 0xFFFFFFFFFFFFFFFF DUP4 GT PUSH2 0x257 JUMPI PUSH1 0x20 DUP1 DUP6 ADD SWAP5 DUP5 PUSH1 0x5 SHL ADD ADD GT PUSH2 0x257 JUMPI JUMP JUMPDEST SWAP1 PUSH1 0x40 PUSH1 0x3 NOT DUP4 ADD SLT PUSH2 0x257 JUMPI PUSH1 0x4 CALLDATALOAD PUSH1 0x1 PUSH1 0x1 PUSH1 0xA0 SHL SUB DUP2 AND DUP2 SUB PUSH2 0x257 JUMPI SWAP2 PUSH1 0x24 CALLDATALOAD SWAP1 PUSH8 0xFFFFFFFFFFFFFFFF DUP3 GT PUSH2 0x257 JUMPI PUSH2 0x205B SWAP2 PUSH1 0x4 ADD PUSH2 0x1FEA JUMP JUMPDEST SWAP1 SWAP2 JUMP JUMPDEST DUP1 SLOAD DUP3 LT ISZERO PUSH2 0x3E0 JUMPI PUSH0 MSTORE PUSH1 0x20 PUSH0 KECCAK256 ADD SWAP1 PUSH0 SWAP1 JUMP JUMPDEST PUSH2 0x140 PUSH1 0x3 NOT DUP3 ADD SLT PUSH2 0x257 JUMPI PUSH1 0x4 CALLDATALOAD PUSH1 0x1 PUSH1 0x1 PUSH1 0xA0 SHL SUB DUP2 AND DUP2 SUB PUSH2 0x257 JUMPI SWAP2 PUSH1 0x24 CALLDATALOAD SWAP2 PUSH1 0x44 CALLDATALOAD PUSH1 0xFF DUP2 AND DUP2 SUB PUSH2 0x257 JUMPI SWAP2 PUSH1 0x64 CALLDATALOAD PUSH1 0xFF DUP2 AND DUP2 SUB PUSH2 0x257 JUMPI SWAP2 PUSH1 0x84 CALLDATALOAD SWAP2 PUSH8 0xFFFFFFFFFFFFFFFF DUP4 GT PUSH2 0x257 JUMPI PUSH2 0x20D7 DUP3 PUSH1 0xA0 SWAP5 PUSH1 0x4 ADD PUSH2 0x1FEA JUMP JUMPDEST SWAP1 SWAP4 SWAP1 SWAP3 PUSH1 0xA3 NOT ADD SLT PUSH2 0x257 JUMPI PUSH1 0xA4 SWAP1 JUMP JUMPDEST PUSH1 0x20 SWAP1 PUSH1 0x20 PUSH1 0x40 DUP2 DUP4 ADD SWAP3 DUP3 DUP2 MSTORE DUP6 MLOAD DUP1 SWAP5 MSTORE ADD SWAP4 ADD SWAP2 PUSH0 JUMPDEST DUP3 DUP2 LT PUSH2 0x2110 JUMPI POP POP POP POP SWAP1 JUMP JUMPDEST DUP4 MLOAD DUP6 MSTORE SWAP4 DUP2 ADD SWAP4 SWAP3 DUP2 ADD SWAP3 PUSH1 0x1 ADD PUSH2 0x2102 JUMP JUMPDEST SWAP1 DUP2 MLOAD DUP1 DUP3 MSTORE PUSH1 0x20 DUP1 DUP1 SWAP4 ADD SWAP4 ADD SWAP2 PUSH0 JUMPDEST DUP3 DUP2 LT PUSH2 0x2143 JUMPI POP POP POP POP SWAP1 JUMP JUMPDEST DUP4 MLOAD PUSH1 0x1 PUSH1 0x1 PUSH1 0xA0 SHL SUB AND DUP6 MSTORE SWAP4 DUP2 ADD SWAP4 SWAP3 DUP2 ADD SWAP3 PUSH1 0x1 ADD PUSH2 0x2135 JUMP JUMPDEST SWAP1 PUSH1 0x3 DUP3 LT ISZERO PUSH2 0x3F4 JUMPI MSTORE JUMP JUMPDEST PUSH2 0x120 DUP2 ADD SWAP1 DUP2 LT PUSH8 0xFFFFFFFFFFFFFFFF DUP3 GT OR PUSH2 0x1157 JUMPI PUSH1 0x40 MSTORE JUMP JUMPDEST PUSH1 0xA0 DUP2 ADD SWAP1 DUP2 LT PUSH8 0xFFFFFFFFFFFFFFFF DUP3 GT OR PUSH2 0x1157 JUMPI PUSH1 0x40 MSTORE JUMP JUMPDEST SWAP1 PUSH1 0x1F DUP1 NOT SWAP2 ADD AND DUP2 ADD SWAP1 DUP2 LT PUSH8 0xFFFFFFFFFFFFFFFF DUP3 GT OR PUSH2 0x1157 JUMPI PUSH1 0x40 MSTORE JUMP JUMPDEST SWAP1 PUSH1 0x40 MLOAD PUSH2 0x21D5 DUP2 PUSH2 0x218A JUMP JUMPDEST PUSH1 0x80 PUSH1 0x4 DUP3 SWAP5 PUSH2 0xFFFF DUP2 SLOAD AND DUP5 MSTORE PUSH1 0x1 DUP2 ADD SLOAD PUSH1 0x20 DUP6 ADD MSTORE PUSH1 0x2 DUP2 ADD SLOAD PUSH1 0x40 DUP6 ADD MSTORE PUSH1 0x3 DUP2 ADD SLOAD PUSH1 0x60 DUP6 ADD MSTORE ADD SLOAD SWAP2 ADD MSTORE JUMP JUMPDEST ISZERO PUSH2 0x220F JUMPI JUMP JUMPDEST PUSH1 0x40 MLOAD PUSH3 0x461BCD PUSH1 0xE5 SHL DUP2 MSTORE PUSH1 0x20 PUSH1 0x4 DUP3 ADD MSTORE PUSH1 0xF PUSH1 0x24 DUP3 ADD MSTORE PUSH15 0x564D3A20656D707479206172726179 PUSH1 0x88 SHL PUSH1 0x44 DUP3 ADD MSTORE PUSH1 0x64 SWAP1 REVERT JUMPDEST ISZERO PUSH2 0x224D JUMPI JUMP JUMPDEST PUSH1 0x40 MLOAD PUSH3 0x461BCD PUSH1 0xE5 SHL DUP2 MSTORE PUSH1 0x20 PUSH1 0x4 DUP3 ADD MSTORE PUSH1 0x12 PUSH1 0x24 DUP3 ADD MSTORE PUSH18 0x15934E881B9BDD081E5BDD5C881D985D5B1D PUSH1 0x72 SHL PUSH1 0x44 DUP3 ADD MSTORE PUSH1 0x64 SWAP1 REVERT JUMPDEST SWAP2 SWAP1 DUP2 LT ISZERO PUSH2 0x3E0 JUMPI PUSH1 0x5 SHL ADD SWAP1 JUMP JUMPDEST CALLDATALOAD PUSH1 0x1 PUSH1 0x1 PUSH1 0xA0 SHL SUB DUP2 AND DUP2 SUB PUSH2 0x257 JUMPI SWAP1 JUMP JUMPDEST SWAP1 SWAP2 PUSH1 0x40 PUSH1 0x20 SWAP3 DUP3 PUSH1 0x20 DUP3 ADD PUSH1 0x20 DUP4 MSTORE MSTORE ADD SWAP3 SWAP2 PUSH0 JUMPDEST DUP3 DUP2 LT PUSH2 0x22CF JUMPI POP POP POP POP SWAP1 JUMP JUMPDEST SWAP1 SWAP2 SWAP3 SWAP4 DUP3 DUP1 PUSH1 0x1 SWAP3 DUP4 DUP1 PUSH1 0xA0 SHL SUB PUSH2 0x22E7 DUP10 PUSH2 0x1FD6 JUMP JUMPDEST AND DUP2 MSTORE ADD SWAP6 ADD SWAP4 SWAP3 SWAP2 ADD PUSH2 0x22C1 JUMP JUMPDEST ISZERO PUSH2 0x22FD JUMPI JUMP JUMPDEST PUSH1 0x40 MLOAD PUSH3 0x461BCD PUSH1 0xE5 SHL DUP2 MSTORE PUSH1 0x20 PUSH1 0x4 DUP3 ADD MSTORE PUSH1 0xD PUSH1 0x24 DUP3 ADD MSTORE PUSH13 0x2B269D103737BA1037BBB732B9 PUSH1 0x99 SHL PUSH1 0x44 DUP3 ADD MSTORE PUSH1 0x64 SWAP1 REVERT JUMPDEST SWAP1 DUP2 PUSH1 0x20 SWAP2 SUB SLT PUSH2 0x257 JUMPI MLOAD DUP1 ISZERO ISZERO DUP2 SUB PUSH2 0x257 JUMPI SWAP1 JUMP JUMPDEST ISZERO PUSH2 0x2351 JUMPI JUMP JUMPDEST PUSH1 0x40 MLOAD PUSH3 0x461BCD PUSH1 0xE5 SHL DUP2 MSTORE PUSH1 0x20 PUSH1 0x4 DUP3 ADD MSTORE PUSH1 0x12 PUSH1 0x24 DUP3 ADD MSTORE PUSH18 0x15934E8819195C1BDCDA5D0819985A5B1959 PUSH1 0x72 SHL PUSH1 0x44 DUP3 ADD MSTORE PUSH1 0x64 SWAP1 REVERT JUMPDEST SWAP2 SWAP1 DUP3 ADD DUP1 SWAP3 GT PUSH2 0x2398 JUMPI JUMP JUMPDEST PUSH4 0x4E487B71 PUSH1 0xE0 SHL PUSH0 MSTORE PUSH1 0x11 PUSH1 0x4 MSTORE PUSH1 0x24 PUSH0 REVERT JUMPDEST ISZERO PUSH2 0x23B3 JUMPI JUMP JUMPDEST PUSH1 0x40 MLOAD PUSH3 0x461BCD PUSH1 0xE5 SHL DUP2 MSTORE PUSH1 0x20 PUSH1 0x4 DUP3 ADD MSTORE PUSH1 0x12 PUSH1 0x24 DUP3 ADD MSTORE PUSH18 0x564D3A207269736B4C6576656C20312D313 PUSH1 0x74 SHL PUSH1 0x44 DUP3 ADD MSTORE PUSH1 0x64 SWAP1 REVERT JUMPDEST ISZERO PUSH2 0x23F4 JUMPI JUMP JUMPDEST PUSH1 0x40 MLOAD PUSH3 0x461BCD PUSH1 0xE5 SHL DUP2 MSTORE PUSH1 0x20 PUSH1 0x4 DUP3 ADD MSTORE PUSH1 0x10 PUSH1 0x24 DUP3 ADD MSTORE PUSH16 0x564D3A206D617850637420312D31303 PUSH1 0x84 SHL PUSH1 0x44 DUP3 ADD MSTORE PUSH1 0x64 SWAP1 REVERT JUMPDEST ISZERO PUSH2 0x2433 JUMPI JUMP JUMPDEST PUSH1 0x40 MLOAD PUSH3 0x461BCD PUSH1 0xE5 SHL DUP2 MSTORE PUSH1 0x20 PUSH1 0x4 DUP3 ADD MSTORE PUSH1 0x28 PUSH1 0x24 DUP3 ADD MSTORE PUSH32 0x564D3A20616C6C6F776C69737420656D7074792C206E6F207472616465732077 PUSH1 0x44 DUP3 ADD MSTORE PUSH8 0x696C6C20636F7079 PUSH1 0xC0 SHL PUSH1 0x64 DUP3 ADD MSTORE PUSH1 0x84 SWAP1 REVERT JUMPDEST ISZERO PUSH2 0x2490 JUMPI JUMP JUMPDEST PUSH1 0x40 MLOAD PUSH3 0x461BCD PUSH1 0xE5 SHL DUP2 MSTORE PUSH1 0x20 PUSH1 0x4 DUP3 ADD MSTORE PUSH1 0x10 PUSH1 0x24 DUP3 ADD MSTORE PUSH16 0x15934E881E995C9BC819195C1BDCDA5D PUSH1 0x82 SHL PUSH1 0x44 DUP3 ADD MSTORE PUSH1 0x64 SWAP1 REVERT JUMPDEST DUP2 DUP2 MUL SWAP3 SWAP2 DUP2 ISZERO SWAP2 DUP5 DIV EQ OR ISZERO PUSH2 0x2398 JUMPI JUMP JUMPDEST SWAP1 PUSH1 0x1 PUSH1 0x40 SHL DUP2 GT PUSH2 0x1157 JUMPI DUP2 SLOAD SWAP2 DUP2 DUP2 SSTORE DUP3 DUP3 LT PUSH2 0x24F9 JUMPI POP POP POP JUMP JUMPDEST PUSH0 MSTORE PUSH1 0x20 PUSH0 KECCAK256 SWAP2 DUP3 ADD SWAP2 ADD JUMPDEST DUP2 DUP2 LT PUSH2 0x2510 JUMPI POP POP JUMP JUMPDEST PUSH0 DUP2 SSTORE PUSH1 0x1 ADD PUSH2 0x2505 JUMP JUMPDEST CALLDATALOAD PUSH2 0xFFFF DUP2 AND DUP2 SUB PUSH2 0x257 JUMPI SWAP1 JUMP JUMPDEST PUSH8 0xFFFFFFFFFFFFFFFF DUP2 GT PUSH2 0x1157 JUMPI PUSH1 0x5 SHL PUSH1 0x20 ADD SWAP1 JUMP JUMPDEST DUP1 SLOAD PUSH1 0x1 PUSH1 0x40 SHL DUP2 LT ISZERO PUSH2 0x1157 JUMPI PUSH2 0x255F SWAP2 PUSH1 0x1 DUP3 ADD DUP2 SSTORE PUSH2 0x205F JUMP JUMPDEST DUP2 SWAP3 SWAP2 SLOAD SWAP1 PUSH1 0x3 SHL SWAP2 DUP3 SHL SWAP2 PUSH0 NOT SWAP1 SHL NOT AND OR SWAP1 SSTORE JUMP JUMPDEST SWAP1 PUSH1 0x40 MLOAD SWAP2 DUP3 DUP2 SLOAD SWAP2 DUP3 DUP3 MSTORE PUSH1 0x20 SWAP3 PUSH1 0x20 DUP4 ADD SWAP2 PUSH0 MSTORE PUSH1 0x20 PUSH0 KECCAK256 SWAP4 PUSH0 SWAP1 JUMPDEST DUP3 DUP3 LT PUSH2 0x25AC JUMPI POP POP POP PUSH2 0x25AA SWAP3 POP SUB DUP4 PUSH2 0x21A6 JUMP JUMPDEST JUMP JUMPDEST DUP6 SLOAD PUSH1 0x1 PUSH1 0x1 PUSH1 0xA0 SHL SUB AND DUP5 MSTORE PUSH1 0x1 SWAP6 DUP7 ADD SWAP6 DUP9 SWAP6 POP SWAP4 DUP2 ADD SWAP4 SWAP1 SWAP2 ADD SWAP1 PUSH2 0x2594 JUMP JUMPDEST PUSH1 0x40 MLOAD SWAP1 PUSH1 0x20 DUP3 ADD SWAP3 PUSH1 0x1 PUSH1 0x1 PUSH1 0x60 SHL SUB NOT DUP1 SWAP3 PUSH1 0x60 SHL AND DUP5 MSTORE PUSH1 0x60 SHL AND PUSH1 0x34 DUP3 ADD MSTORE PUSH1 0x28 DUP2 MSTORE PUSH1 0x60 DUP2 ADD DUP2 DUP2 LT PUSH8 0xFFFFFFFFFFFFFFFF DUP3 GT OR PUSH2 0x1157 JUMPI PUSH1 0x40 MSTORE MLOAD SWAP1 KECCAK256 SWAP1 JUMP JUMPDEST DUP2 DUP2 SUB SWAP3 SWAP2 PUSH0 SGT DUP1 ISZERO DUP3 DUP6 SGT AND SWAP2 DUP5 SLT AND OR PUSH2 0x2398 JUMPI JUMP JUMPDEST PUSH1 0x2 DUP1 SLOAD PUSH0 SWAP5 SWAP4 PUSH1 0x1 PUSH1 0x1 PUSH1 0xA0 SHL SUB SWAP4 SWAP2 DUP5 AND SWAP3 SWAP2 DUP4 ISZERO PUSH2 0x27C2 JUMPI SWAP1 PUSH2 0x2656 SWAP2 SWAP5 SWAP4 SWAP5 PUSH2 0x25CF JUMP JUMPDEST PUSH0 MSTORE PUSH1 0x20 SWAP1 PUSH1 0x6 DUP3 MSTORE PUSH1 0x40 SWAP1 PUSH1 0x40 PUSH0 KECCAK256 SWAP3 PUSH0 SWAP6 DUP5 SLOAD SWAP5 JUMPDEST DUP6 DUP9 LT PUSH2 0x267E JUMPI POP POP POP POP POP POP POP POP JUMP JUMPDEST SWAP1 SWAP2 SWAP3 SWAP4 SWAP5 SWAP6 SWAP7 SWAP9 PUSH2 0x2690 DUP11 DUP4 PUSH2 0x205F JUMP JUMPDEST SWAP1 SLOAD PUSH1 0x3 SWAP2 DUP3 SHL SHR PUSH0 MSTORE PUSH1 0x4 SWAP1 DUP2 DUP7 MSTORE DUP8 PUSH0 KECCAK256 SWAP1 PUSH1 0xFF PUSH1 0x9 DUP4 ADD SLOAD AND DUP9 DUP2 LT ISZERO PUSH2 0x27AF JUMPI ISZERO DUP1 ISZERO SWAP1 PUSH2 0x27A3 JUMPI JUMPDEST PUSH2 0x2797 JUMPI DUP2 ADD SLOAD PUSH1 0x5 DUP3 ADD SLOAD DUP10 MLOAD PUSH4 0x47BC9837 PUSH1 0xE1 SHL DUP2 MSTORE SWAP2 DUP13 AND PUSH1 0x1 PUSH1 0x1 PUSH1 0xA0 SHL SUB AND DUP5 DUP4 ADD SWAP1 DUP2 MSTORE PUSH1 0x20 DUP2 ADD SWAP2 SWAP1 SWAP2 MSTORE SWAP1 SWAP2 SWAP1 DUP8 SWAP1 DUP4 SWAP1 DUP2 SWAP1 PUSH1 0x40 ADD SUB DUP2 DUP10 GAS STATICCALL SWAP1 DUP2 ISZERO PUSH2 0x278D JUMPI DUP4 SWAP1 PUSH0 SWAP3 PUSH2 0x275A JUMPI JUMPDEST PUSH2 0x271D SWAP4 POP ADD SLOAD SWAP1 PUSH2 0x2616 JUMP JUMPDEST SWAP2 PUSH0 DUP4 DUP3 ADD SWAP4 DUP5 SLT SWAP2 SLT SWAP1 DUP1 ISZERO DUP3 AND SWAP2 ISZERO AND OR PUSH2 0x2747 JUMPI POP PUSH1 0x1 SWAP1 SWAP10 JUMPDEST ADD SWAP7 SWAP6 SWAP5 SWAP4 SWAP3 SWAP2 SWAP1 PUSH2 0x266D JUMP JUMPDEST PUSH1 0x11 SWAP1 PUSH4 0x4E487B71 PUSH1 0xE0 SHL PUSH0 MSTORE MSTORE PUSH1 0x24 PUSH0 REVERT JUMPDEST SWAP2 POP POP DUP7 DUP3 DUP2 RETURNDATASIZE DUP4 GT PUSH2 0x2786 JUMPI JUMPDEST PUSH2 0x2772 DUP2 DUP4 PUSH2 0x21A6 JUMP JUMPDEST DUP2 ADD SUB SLT PUSH2 0x257 JUMPI DUP3 PUSH2 0x271D SWAP3 MLOAD SWAP2 PUSH2 0x2710 JUMP JUMPDEST POP RETURNDATASIZE PUSH2 0x2768 JUMP JUMPDEST DUP10 MLOAD RETURNDATASIZE PUSH0 DUP3 RETURNDATACOPY RETURNDATASIZE SWAP1 REVERT JUMPDEST POP POP POP SWAP9 PUSH1 0x1 SWAP1 PUSH2 0x273A JUMP JUMPDEST POP PUSH1 0x5 DUP3 ADD SLOAD ISZERO PUSH2 0x26BD JUMP JUMPDEST PUSH1 0x21 DUP5 PUSH4 0x4E487B71 PUSH1 0xE0 SHL PUSH0 MSTORE MSTORE PUSH1 0x24 PUSH0 REVERT JUMPDEST POP PUSH0 SWAP6 POP POP POP POP POP JUMP JUMPDEST ISZERO PUSH2 0x27D3 JUMPI JUMP JUMPDEST PUSH1 0x40 MLOAD PUSH3 0x461BCD PUSH1 0xE5 SHL DUP2 MSTORE PUSH1 0x20 PUSH1 0x4 DUP3 ADD MSTORE PUSH1 0x12 PUSH1 0x24 DUP3 ADD MSTORE PUSH18 0x15934E881B9BDD08185D5D1A1BDC9A5E9959 PUSH1 0x72 SHL PUSH1 0x44 DUP3 ADD MSTORE PUSH1 0x64 SWAP1 REVERT JUMPDEST ISZERO PUSH2 0x2814 JUMPI JUMP JUMPDEST PUSH1 0x40 MLOAD PUSH3 0x461BCD PUSH1 0xE5 SHL DUP2 MSTORE PUSH1 0x20 PUSH1 0x4 DUP3 ADD MSTORE PUSH1 0xF PUSH1 0x24 DUP3 ADD MSTORE PUSH15 0x15934E8819195E081B9BDD081CD95D PUSH1 0x8A SHL PUSH1 0x44 DUP3 ADD MSTORE PUSH1 0x64 SWAP1 REVERT JUMPDEST SWAP1 PUSH2 0xFFFF DUP1 SWAP3 AND PUSH2 0x2710 SUB SWAP2 DUP3 GT PUSH2 0x2398 JUMPI JUMP JUMPDEST SWAP2 SWAP1 DUP3 SUB SWAP2 DUP3 GT PUSH2 0x2398 JUMPI JUMP JUMPDEST PUSH0 NOT DUP2 EQ PUSH2 0x2398 JUMPI PUSH1 0x1 ADD SWAP1 JUMP JUMPDEST SWAP1 PUSH2 0x2889 SWAP2 SWAP7 SWAP6 SWAP3 SWAP4 SWAP7 PUSH2 0x25CF JUMP JUMPDEST SWAP5 DUP6 PUSH0 MSTORE PUSH1 0x20 SWAP2 PUSH1 0x3 DUP4 MSTORE PUSH1 0x40 SWAP2 DUP3 PUSH0 KECCAK256 SWAP1 PUSH1 0xFF PUSH1 0x6 DUP4 ADD SLOAD AND PUSH1 0x3 DUP2 LT ISZERO PUSH2 0x3F4 JUMPI PUSH2 0x2BA4 JUMPI PUSH2 0x12C PUSH2 0x293F PUSH2 0x28C1 PUSH1 0xA SLOAD PUSH2 0x286C JUMP JUMPDEST SWAP5 DUP6 PUSH1 0xA SSTORE DUP12 DUP7 PUSH32 0xC242ABEBBE8A335DB4BF285FC9A63EF4E3CBB891D4664707D44AE79A4AC505B9 DUP7 DUP13 PUSH2 0x2936 DUP7 DUP14 MLOAD SWAP4 DUP5 SWAP4 DUP9 DUP9 PUSH32 0x7D0D4A45B610C689953AC3D1DF4E7739F7BA0E76107B191B9170D4EB27B90B4E PUSH0 DUP1 LOG3 PUSH1 0x1 PUSH1 0x1 PUSH1 0xA0 SHL SUB AND DUP5 MSTORE PUSH1 0x20 DUP5 ADD MSTORE PUSH1 0x40 DUP4 ADD MSTORE PUSH1 0x60 DUP3 ADD SWAP1 JUMP JUMPDEST SUB SWAP1 LOG3 TIMESTAMP PUSH2 0x285F JUMP JUMPDEST GT PUSH2 0x2B6A JUMPI PUSH2 0x2951 DUP7 PUSH1 0x5 DUP5 ADD PUSH2 0x2BDF JUMP JUMPDEST ISZERO PUSH2 0x2B25 JUMPI PUSH1 0x8 DUP3 ADD SLOAD DUP1 ISZERO ISZERO SWAP1 DUP2 PUSH2 0x2B1B JUMPI JUMPDEST POP PUSH2 0x2ACF JUMPI PUSH1 0x9 DUP3 ADD SLOAD DUP1 ISZERO ISZERO SWAP2 DUP3 PUSH2 0x2AC5 JUMPI JUMPDEST POP POP PUSH2 0x2A7A JUMPI PUSH2 0x298C PUSH3 0xF4240 SWAP2 PUSH2 0x2E4D JUMP JUMPDEST GT ISZERO PUSH2 0x2A30 JUMPI PUSH1 0x64 PUSH1 0xFF DUP8 AND GT PUSH2 0x2A27 JUMPI JUMPDEST DUP7 PUSH1 0xFF DUP8 AND SWAP2 PUSH32 0xAC7C244F5A94874741BDE286781FC342DA57EB796EA3B4F271BA72C0B515B105 DUP5 PUSH1 0xA DUP6 LT SWAP5 DUP2 MLOAD SWAP1 DUP2 MSTORE DUP6 ISZERO DUP9 DUP3 ADD MSTORE LOG3 PUSH2 0x29E6 JUMPI POP POP PUSH2 0x25AA SWAP4 PUSH2 0x2E72 JUMP JUMPDEST PUSH0 DUP1 MLOAD PUSH1 0x20 PUSH2 0x33A9 DUP4 CODECOPY DUP2 MLOAD SWAP2 MSTORE SWAP5 POP PUSH1 0x60 SWAP4 POP PUSH21 0x1CD8DBDC994818995B1BDDC81D1A1C995CDA1BDB19 PUSH1 0x5A SHL SWAP2 SWAP3 POP PUSH1 0x15 DUP2 MLOAD SWAP4 DUP1 DUP6 MSTORE DUP5 ADD MSTORE DUP3 ADD MSTORE LOG2 JUMP JUMPDEST PUSH1 0x64 SWAP6 POP PUSH2 0x299E JUMP JUMPDEST POP PUSH0 DUP1 MLOAD PUSH1 0x20 PUSH2 0x33A9 DUP4 CODECOPY DUP2 MLOAD SWAP2 MSTORE SWAP5 POP PUSH1 0x60 SWAP4 POP PUSH32 0x696E73756666696369656E7420667265652062616C616E636500000000000000 SWAP2 SWAP3 POP PUSH1 0x19 DUP2 MLOAD SWAP4 DUP1 DUP6 MSTORE DUP5 ADD MSTORE DUP3 ADD MSTORE LOG2 JUMP JUMPDEST POP POP PUSH0 DUP1 MLOAD PUSH1 0x20 PUSH2 0x33A9 DUP4 CODECOPY DUP2 MLOAD SWAP2 MSTORE SWAP5 POP PUSH1 0x60 SWAP4 POP PUSH32 0x6C65616465722074726164652061626F7665206D6178696D756D000000000000 SWAP2 SWAP3 POP PUSH1 0x1A DUP2 MLOAD SWAP4 DUP1 DUP6 MSTORE DUP5 ADD MSTORE DUP3 ADD MSTORE LOG2 JUMP JUMPDEST GT SWAP1 POP PUSH0 DUP1 PUSH2 0x2979 JUMP JUMPDEST POP POP POP PUSH0 DUP1 MLOAD PUSH1 0x20 PUSH2 0x33A9 DUP4 CODECOPY DUP2 MLOAD SWAP2 MSTORE SWAP5 POP PUSH1 0x60 SWAP4 POP PUSH32 0x6C65616465722074726164652062656C6F77206D696E696D756D000000000000 SWAP2 SWAP3 POP PUSH1 0x1A DUP2 MLOAD SWAP4 DUP1 DUP6 MSTORE DUP5 ADD MSTORE DUP3 ADD MSTORE LOG2 JUMP JUMPDEST SWAP1 POP DUP2 LT PUSH0 PUSH2 0x2965 JUMP JUMPDEST POP POP POP PUSH0 DUP1 MLOAD PUSH1 0x20 PUSH2 0x33A9 DUP4 CODECOPY DUP2 MLOAD SWAP2 MSTORE SWAP5 POP PUSH1 0x60 SWAP4 POP PUSH22 0x1D1BDAD95B881B9BDD081A5B88185B1B1BDDDB1A5CDD PUSH1 0x52 SHL SWAP2 SWAP3 POP PUSH1 0x16 DUP2 MLOAD SWAP4 DUP1 DUP6 MSTORE DUP5 ADD MSTORE DUP3 ADD MSTORE LOG2 JUMP JUMPDEST POP POP POP PUSH0 DUP1 MLOAD PUSH1 0x20 PUSH2 0x33A9 DUP4 CODECOPY DUP2 MLOAD SWAP2 MSTORE SWAP5 POP PUSH1 0x60 SWAP4 POP PUSH11 0x7374616C65207472616465 PUSH1 0xA8 SHL SWAP2 SWAP3 POP PUSH1 0xB DUP2 MLOAD SWAP4 DUP1 DUP6 MSTORE DUP5 ADD MSTORE DUP3 ADD MSTORE LOG2 JUMP JUMPDEST DUP4 MLOAD PUSH3 0x461BCD PUSH1 0xE5 SHL DUP2 MSTORE PUSH1 0x4 DUP2 ADD DUP7 SWAP1 MSTORE PUSH1 0x14 PUSH1 0x24 DUP3 ADD MSTORE PUSH20 0x564D3A207661756C74206E6F7420616374697665 PUSH1 0x60 SHL PUSH1 0x44 DUP3 ADD MSTORE PUSH1 0x64 SWAP1 REVERT JUMPDEST SWAP1 PUSH0 JUMPDEST DUP3 SLOAD DUP2 LT ISZERO PUSH2 0x2C21 JUMPI PUSH2 0x2BF5 DUP2 DUP5 PUSH2 0x205F JUMP JUMPDEST SWAP1 SLOAD PUSH1 0x3 SWAP2 SWAP1 SWAP2 SHL SHR PUSH1 0x1 PUSH1 0x1 PUSH1 0xA0 SHL SUB SWAP1 DUP2 AND SWAP1 DUP4 AND EQ PUSH2 0x2C19 JUMPI PUSH1 0x1 ADD PUSH2 0x2BE2 JUMP JUMPDEST POP POP POP PUSH1 0x1 SWAP1 JUMP JUMPDEST POP POP POP PUSH0 SWAP1 JUMP JUMPDEST PUSH2 0xFFFF PUSH1 0xA DUP2 PUSH2 0x2C37 DUP5 PUSH2 0x251B JUMP JUMPDEST AND LT ISZERO SWAP1 DUP2 PUSH2 0x2D89 JUMPI JUMPDEST POP ISZERO PUSH2 0x2D44 JUMPI PUSH1 0x20 DUP2 ADD CALLDATALOAD DUP1 ISZERO SWAP1 DUP2 ISZERO PUSH2 0x2D37 JUMPI JUMPDEST DUP2 ISZERO PUSH2 0x2D28 JUMPI JUMPDEST POP ISZERO PUSH2 0x2CE3 JUMPI PUSH1 0x60 DUP2 ADD CALLDATALOAD DUP1 ISZERO SWAP2 DUP3 ISZERO PUSH2 0x2CD6 JUMPI JUMPDEST DUP3 ISZERO PUSH2 0x2CC7 JUMPI JUMPDEST POP POP ISZERO PUSH2 0x2C82 JUMPI JUMP JUMPDEST PUSH1 0x40 MLOAD PUSH3 0x461BCD PUSH1 0xE5 SHL DUP2 MSTORE PUSH1 0x20 PUSH1 0x4 DUP3 ADD MSTORE PUSH1 0x17 PUSH1 0x24 DUP3 ADD MSTORE PUSH32 0x564D3A20616C6C6F632072616E676520696E76616C6964000000000000000000 PUSH1 0x44 DUP3 ADD MSTORE PUSH1 0x64 SWAP1 REVERT JUMPDEST PUSH1 0x80 ADD CALLDATALOAD LT ISZERO SWAP1 POP PUSH0 DUP1 PUSH2 0x2C79 JUMP JUMPDEST PUSH1 0x80 DUP2 ADD CALLDATALOAD ISZERO SWAP3 POP PUSH2 0x2C72 JUMP JUMPDEST PUSH1 0x40 MLOAD PUSH3 0x461BCD PUSH1 0xE5 SHL DUP2 MSTORE PUSH1 0x20 PUSH1 0x4 DUP3 ADD MSTORE PUSH1 0x1E PUSH1 0x24 DUP3 ADD MSTORE PUSH32 0x564D3A206C65616465722074726164652072616E676520696E76616C69640000 PUSH1 0x44 DUP3 ADD MSTORE PUSH1 0x64 SWAP1 REVERT JUMPDEST SWAP1 POP PUSH1 0x40 DUP3 ADD CALLDATALOAD LT ISZERO PUSH0 PUSH2 0x2C5D JUMP JUMPDEST PUSH1 0x40 DUP4 ADD CALLDATALOAD ISZERO SWAP2 POP PUSH2 0x2C56 JUMP JUMPDEST PUSH1 0x40 MLOAD PUSH3 0x461BCD PUSH1 0xE5 SHL DUP2 MSTORE PUSH1 0x20 PUSH1 0x4 DUP3 ADD MSTORE PUSH1 0x17 PUSH1 0x24 DUP3 ADD MSTORE PUSH32 0x564D3A20736C6970706167654270732031302D32303030000000000000000000 PUSH1 0x44 DUP3 ADD MSTORE PUSH1 0x64 SWAP1 REVERT JUMPDEST PUSH2 0x7D0 SWAP2 POP PUSH2 0x2D97 DUP4 PUSH2 0x251B JUMP JUMPDEST AND GT ISZERO PUSH0 PUSH2 0x2C41 JUMP JUMPDEST PUSH0 SWAP2 JUMPDEST DUP2 SLOAD SWAP3 DUP4 DUP2 LT ISZERO PUSH2 0x2E47 JUMPI PUSH2 0x2DB8 DUP2 DUP5 PUSH2 0x205F JUMP JUMPDEST SWAP1 SLOAD PUSH1 0x3 SWAP6 PUSH1 0x1 PUSH1 0x1 PUSH1 0xA0 SHL SUB SWAP3 SWAP1 SWAP2 SWAP1 DUP8 SHL SHR DUP3 AND DUP5 DUP4 AND EQ PUSH2 0x2DE2 JUMPI POP POP PUSH1 0x1 ADD SWAP3 POP PUSH2 0x2DA3 JUMP JUMPDEST SWAP1 SWAP3 POP PUSH0 NOT SWAP2 DUP3 DUP3 ADD SWAP2 DUP3 GT PUSH2 0x2398 JUMPI PUSH2 0x1E16 DUP5 PUSH2 0x2E03 PUSH2 0x2E11 SWAP5 DUP9 PUSH2 0x205F JUMP JUMPDEST SWAP1 SLOAD SWAP1 DUP10 SHL SHR AND SWAP2 DUP7 PUSH2 0x205F JUMP JUMPDEST DUP3 SLOAD DUP1 ISZERO PUSH2 0x2E33 JUMPI ADD SWAP3 PUSH2 0x2E25 DUP5 DUP5 PUSH2 0x205F JUMP JUMPDEST DUP2 SWAP4 SWAP2 SLOAD SWAP3 SHL SHL NOT AND SWAP1 SSTORE SSTORE JUMP JUMPDEST PUSH4 0x4E487B71 PUSH1 0xE0 SHL PUSH0 MSTORE PUSH1 0x31 PUSH1 0x4 MSTORE PUSH1 0x24 PUSH0 REVERT JUMPDEST POP POP POP POP JUMP JUMPDEST PUSH1 0x2 PUSH1 0x3 DUP3 ADD SLOAD SWAP2 ADD SLOAD SWAP1 DUP2 DUP2 LT ISZERO PUSH2 0x2E6C JUMPI PUSH2 0x2E69 SWAP2 PUSH2 0x285F JUMP JUMPDEST SWAP1 JUMP JUMPDEST POP POP PUSH0 SWAP1 JUMP JUMPDEST PUSH0 DUP2 DUP2 MSTORE PUSH1 0x3 PUSH1 0x20 MSTORE PUSH1 0x40 SWAP1 KECCAK256 PUSH1 0x2 SLOAD SWAP4 SWAP5 SWAP2 SWAP4 PUSH1 0x1 PUSH1 0x1 PUSH1 0xA0 SHL SUB AND SWAP2 PUSH2 0x2E9B DUP4 ISZERO ISZERO PUSH2 0x280D JUMP JUMPDEST PUSH2 0x2EA4 DUP3 PUSH2 0x2E4D JUMP JUMPDEST SWAP2 PUSH1 0x64 PUSH2 0x2EC0 PUSH1 0x2 DUP4 ADD SLOAD PUSH1 0xFF PUSH1 0x4 DUP6 ADD SLOAD PUSH1 0x8 SHR AND SWAP1 PUSH2 0x24C8 JUMP JUMPDEST DIV SWAP2 DUP4 DUP4 GT PUSH2 0x33A0 JUMPI JUMPDEST PUSH2 0x2EDA PUSH1 0xFF PUSH1 0x64 SWAP3 AND DUP1 SWAP5 PUSH2 0x24C8 JUMP JUMPDEST DIV SWAP3 PUSH1 0xA DUP3 ADD SLOAD PUSH3 0xF4240 DUP1 DUP3 GT PUSH0 EQ PUSH2 0x3399 JUMPI POP JUMPDEST DUP5 LT PUSH2 0x334A JUMPI DUP1 DUP5 GT PUSH2 0x3342 JUMPI JUMPDEST POP PUSH1 0xB DUP2 ADD SLOAD DUP1 ISZERO ISZERO DUP1 PUSH2 0x3339 JUMPI JUMPDEST PUSH2 0x3331 JUMPI JUMPDEST POP PUSH1 0x40 MLOAD PUSH4 0x47BC9837 PUSH1 0xE1 SHL DUP2 MSTORE PUSH32 0x0 PUSH1 0x1 PUSH1 0x1 PUSH1 0xA0 SHL SUB DUP2 AND PUSH1 0x4 DUP4 ADD MSTORE PUSH1 0x24 DUP3 ADD DUP6 SWAP1 MSTORE SWAP1 SWAP5 SWAP1 PUSH1 0x20 DUP7 PUSH1 0x44 DUP2 DUP6 GAS STATICCALL SWAP6 DUP7 ISZERO PUSH2 0x6F8 JUMPI PUSH0 SWAP7 PUSH2 0x32FC JUMPI JUMPDEST POP PUSH1 0x20 DUP6 PUSH2 0x2710 PUSH2 0x2F91 PUSH2 0x2FC7 SWAP10 PUSH2 0xFFFF PUSH2 0x553 DUP2 PUSH1 0x7 DUP12 ADD SLOAD AND PUSH2 0x284B JUMP JUMPDEST PUSH1 0x40 MLOAD PUSH4 0x95EA7B3 PUSH1 0xE0 SHL DUP2 MSTORE PUSH1 0x1 PUSH1 0x1 PUSH1 0xA0 SHL SUB SWAP1 SWAP7 AND PUSH1 0x4 DUP8 ADD MSTORE PUSH1 0x24 DUP7 ADD SWAP3 SWAP1 SWAP3 MSTORE SWAP4 SWAP8 SWAP4 SWAP1 DIV SWAP3 DUP8 SWAP1 DUP2 SWAP1 PUSH1 0x44 DUP3 ADD SWAP1 JUMP JUMPDEST SUB DUP2 PUSH0 PUSH1 0x1 PUSH1 0x1 PUSH1 0xA0 SHL SUB DUP7 AND GAS CALL SWAP2 DUP3 ISZERO PUSH2 0x6F8 JUMPI PUSH2 0x3034 SWAP7 PUSH1 0x20 SWAP4 PUSH2 0x32DF JUMPI JUMPDEST POP PUSH1 0x2 SLOAD PUSH1 0x40 MLOAD PUSH4 0x79F37545 PUSH1 0xE1 SHL DUP2 MSTORE PUSH1 0x1 PUSH1 0x1 PUSH1 0xA0 SHL SUB SWAP4 DUP5 AND PUSH1 0x4 DUP3 ADD MSTORE PUSH1 0x24 DUP2 ADD DUP9 SWAP1 MSTORE PUSH1 0x44 DUP2 ADD SWAP3 SWAP1 SWAP3 MSTORE ADDRESS PUSH1 0x64 DUP4 ADD MSTORE SWAP1 SWAP7 DUP8 SWAP3 SWAP1 SWAP2 AND SWAP1 DUP3 SWAP1 PUSH0 SWAP1 DUP3 SWAP1 PUSH1 0x84 DUP3 ADD SWAP1 JUMP JUMPDEST SUB SWAP3 GAS CALL SWAP4 DUP5 ISZERO PUSH2 0x6F8 JUMPI PUSH0 SWAP5 PUSH2 0x32AB JUMPI JUMPDEST POP PUSH1 0x1 PUSH1 0x1 PUSH1 0xA0 SHL SUB DUP6 AND PUSH0 DUP2 DUP2 MSTORE PUSH1 0x8 PUSH1 0x20 MSTORE PUSH1 0x40 SWAP1 KECCAK256 SLOAD SWAP1 SWAP8 DUP2 ISZERO PUSH2 0x32A3 JUMPI POP SWAP5 JUMPDEST PUSH2 0x3075 PUSH1 0x9 SLOAD PUSH2 0x286C JUMP JUMPDEST DUP1 PUSH1 0x9 SSTORE PUSH1 0x40 MLOAD PUSH1 0x20 DUP2 ADD SWAP2 DUP10 DUP4 MSTORE TIMESTAMP PUSH1 0x40 DUP4 ADD MSTORE PUSH1 0x1 PUSH1 0x1 PUSH1 0x60 SHL SUB NOT DUP5 PUSH1 0x60 SHL AND PUSH1 0x60 DUP4 ADD MSTORE PUSH1 0x74 DUP3 ADD MSTORE PUSH1 0x74 DUP2 MSTORE PUSH2 0x30AF DUP2 PUSH2 0x218A JUMP JUMPDEST MLOAD SWAP1 KECCAK256 DUP3 SLOAD PUSH1 0x1 DUP5 ADD SLOAD PUSH1 0x40 MLOAD SWAP8 SWAP3 SWAP4 SWAP3 SWAP2 PUSH1 0x1 PUSH1 0x1 PUSH1 0xA0 SHL SUB SWAP2 DUP3 AND SWAP2 AND PUSH2 0x180 DUP10 ADD PUSH8 0xFFFFFFFFFFFFFFFF DUP2 GT DUP11 DUP3 LT OR PUSH2 0x1157 JUMPI PUSH1 0x40 MSTORE DUP9 MSTORE PUSH1 0x20 DUP9 ADD MSTORE DUP9 PUSH1 0x40 DUP9 ADD MSTORE DUP10 PUSH1 0x60 DUP9 ADD MSTORE DUP6 PUSH1 0x80 DUP9 ADD MSTORE PUSH1 0xA0 DUP8 ADD MSTORE DUP7 PUSH1 0xC0 DUP8 ADD MSTORE PUSH0 PUSH1 0xE0 DUP8 ADD MSTORE PUSH0 PUSH2 0x100 DUP8 ADD MSTORE PUSH0 PUSH2 0x120 DUP8 ADD MSTORE TIMESTAMP PUSH2 0x140 DUP8 ADD MSTORE PUSH0 PUSH2 0x160 DUP8 ADD MSTORE DUP2 PUSH0 MSTORE PUSH1 0x4 PUSH1 0x20 MSTORE PUSH1 0x40 PUSH0 KECCAK256 SWAP1 PUSH1 0x1 DUP1 PUSH1 0xA0 SHL SUB DUP8 MLOAD AND PUSH1 0x1 PUSH1 0x1 PUSH1 0x60 SHL SUB PUSH1 0xA0 SHL SWAP1 DUP2 DUP5 SLOAD AND OR DUP4 SSTORE PUSH1 0x1 DUP4 ADD PUSH1 0x1 DUP1 PUSH1 0xA0 SHL SUB PUSH1 0x20 DUP11 ADD MLOAD AND DUP3 DUP3 SLOAD AND OR SWAP1 SSTORE PUSH1 0x40 DUP9 ADD MLOAD PUSH1 0x2 DUP5 ADD SSTORE PUSH1 0x3 DUP4 ADD SWAP1 PUSH1 0x1 DUP1 PUSH1 0xA0 SHL SUB PUSH1 0x60 DUP11 ADD MLOAD AND SWAP1 DUP3 SLOAD AND OR SWAP1 SSTORE PUSH1 0x80 DUP8 ADD MLOAD PUSH1 0x4 DUP4 ADD SSTORE PUSH1 0xA0 DUP8 ADD MLOAD PUSH1 0x5 DUP4 ADD SSTORE PUSH1 0xC0 DUP8 ADD MLOAD PUSH1 0x6 DUP4 ADD SSTORE PUSH1 0xE0 DUP8 ADD MLOAD PUSH1 0x7 DUP4 ADD SSTORE PUSH2 0x100 DUP8 ADD MLOAD PUSH1 0x8 DUP4 ADD SSTORE PUSH1 0x9 DUP3 ADD SWAP1 PUSH2 0x120 DUP9 ADD MLOAD PUSH1 0x2 DUP2 LT ISZERO PUSH2 0x3F4 JUMPI PUSH32 0xFAC05F01C50AE793F1A1FB2912053546D62525AC2DFAD4ADBC641F37C09BF8A SWAP10 PUSH1 0x3 DUP13 SWAP8 PUSH32 0xB1EEFDDB5E15079C801481DD2D9558F62B8D6E4BA1D15D3E8DA341E1D07CCD18 SWAP7 PUSH1 0xB PUSH2 0x160 PUSH1 0x40 SWAP15 DUP15 SWAP10 PUSH2 0x3293 SWAP9 PUSH1 0xFF DUP1 NOT DUP4 SLOAD AND SWAP2 AND OR SWAP1 SSTORE PUSH2 0x140 DUP2 ADD MLOAD PUSH1 0xA DUP6 ADD SSTORE ADD MLOAD SWAP2 ADD SSTORE DUP9 PUSH0 MSTORE PUSH1 0x6 PUSH1 0x20 MSTORE PUSH2 0x3261 DUP9 DUP14 PUSH0 KECCAK256 PUSH2 0x2542 JUMP JUMPDEST ADD PUSH2 0x326D DUP6 DUP3 SLOAD PUSH2 0x238B JUMP JUMPDEST SWAP1 SSTORE DUP10 MLOAD SWAP4 DUP5 SWAP4 DUP5 PUSH1 0x40 SWAP2 SWAP5 SWAP4 SWAP3 PUSH1 0x60 DUP3 ADD SWAP6 PUSH1 0x1 DUP1 PUSH1 0xA0 SHL SUB AND DUP3 MSTORE PUSH1 0x20 DUP3 ADD MSTORE ADD MSTORE JUMP JUMPDEST SUB SWAP1 LOG3 DUP3 MLOAD SWAP2 DUP3 MSTORE PUSH1 0x20 DUP3 ADD MSTORE LOG3 JUMP JUMPDEST SWAP1 POP SWAP5 PUSH2 0x306A JUMP JUMPDEST SWAP1 SWAP4 POP PUSH1 0x20 DUP2 RETURNDATASIZE PUSH1 0x20 GT PUSH2 0x32D7 JUMPI JUMPDEST DUP2 PUSH2 0x32C7 PUSH1 0x20 SWAP4 DUP4 PUSH2 0x21A6 JUMP JUMPDEST DUP2 ADD SUB SLT PUSH2 0x257 JUMPI MLOAD SWAP3 PUSH0 PUSH2 0x3046 JUMP JUMPDEST RETURNDATASIZE SWAP2 POP PUSH2 0x32BA JUMP JUMPDEST PUSH2 0x32F5 SWAP1 DUP5 RETURNDATASIZE DUP7 GT PUSH2 0x729 JUMPI PUSH2 0x71A DUP2 DUP4 PUSH2 0x21A6 JUMP JUMPDEST POP PUSH0 PUSH2 0x2FE9 JUMP JUMPDEST SWAP6 POP PUSH1 0x20 DUP7 RETURNDATASIZE PUSH1 0x20 GT PUSH2 0x3329 JUMPI JUMPDEST DUP2 PUSH2 0x3317 PUSH1 0x20 SWAP4 DUP4 PUSH2 0x21A6 JUMP JUMPDEST DUP2 ADD SUB SLT PUSH2 0x257 JUMPI SWAP5 MLOAD SWAP5 PUSH1 0x20 PUSH2 0x2F71 JUMP JUMPDEST RETURNDATASIZE SWAP2 POP PUSH2 0x330A JUMP JUMPDEST SWAP3 POP PUSH0 PUSH2 0x2F12 JUMP JUMPDEST POP DUP1 DUP5 GT PUSH2 0x2F0D JUMP JUMPDEST SWAP3 POP PUSH0 PUSH2 0x2EFE JUMP JUMPDEST POP POP POP POP POP POP SWAP1 POP PUSH0 DUP1 MLOAD PUSH1 0x20 PUSH2 0x33A9 DUP4 CODECOPY DUP2 MLOAD SWAP2 MSTORE PUSH1 0x60 PUSH1 0x40 MLOAD PUSH1 0x20 DUP2 MSTORE PUSH1 0x18 PUSH1 0x20 DUP3 ADD MSTORE PUSH32 0x616C6C6F636174696F6E2062656C6F77206D696E696D756D0000000000000000 PUSH1 0x40 DUP3 ADD MSTORE LOG2 JUMP JUMPDEST SWAP1 POP PUSH2 0x2EF0 JUMP JUMPDEST DUP4 SWAP3 POP PUSH2 0x2ECA JUMP INVALID AND AND MULMOD 0xED MOD MSIZE PC EXTCODECOPY COINBASE 0x24 0xF9 CALLDATACOPY SWAP5 0xAA 0xDE KECCAK256 PUSH32 0xA9FE3124C4EE08CB05A724F0E760CAA26469706673582212201A4D5C28B365C3 0xCF PUSH16 0xCA9B7074842C167B545662BA339713B7 PUSH28 0xECE1FBF7C00064736F6C634300081800330000000000000000000000 "},"methodIdentifiers":{"AUSD()":"2fd7d1fd","MAX_SLIPPAGE_BPS()":"e229cd76","MAX_TRADE_AGE()":"9530b30f","MIN_COPY_SCORE()":"b8ff783d","MIN_SLIPPAGE_BPS()":"19530a82","MIN_TRADE_AUSD()":"5a2d6f5d","addToAllowlist(address,address[])":"1aac9197","closePosition(bytes32)":"e54a2ad5","createVault(address,uint256,uint8,uint8,address[],(uint16,uint256,uint256,uint256,uint256))":"7e169023","deposit(address,uint256)":"47e7ef24","dex()":"692058c2","executeCopyTrade(address,address,address,uint256,uint256,uint256,uint8)":"f4fe2f94","followerVaults(address,uint256)":"1fb3e24e","getAllowlist(address,address)":"d01ec4a6","getFollowerVaults(address)":"572fcdcd","getFreeBalance(address,address)":"de700da6","getOpenPositions(address,address)":"e8134712","getUnrealizedPnL(address,address)":"d4805742","getVault(address,address)":"bbd7edc5","keeperOf(address)":"3c4ce221","latestPrice(address)":"53084eff","oracle()":"7dc0d1d0","owner()":"8da5cb5b","pauseVault(address)":"c0bd6f9e","positions(bytes32)":"514ea4bf","removeFromAllowlist(address,address[])":"92bc6914","reopenVault(address,uint256,uint8,uint8,address[],(uint16,uint256,uint256,uint256,uint256))":"4a5010a0","resumeVault(address)":"4e6ec0e6","setDex(address)":"447fa8b7","setKeeper(address)":"748747e6","setOracle(address)":"7adbf973","setPrice(address,uint256)":"00e4768b","transferOwnership(address)":"f2fde38b","vaultId(address,address)":"bd44815f","vaultPositions(bytes32,uint256)":"c81e62e6","vaults(bytes32)":"cca23bf2","withdraw(address)":"51cff8d9"}}}}}