{"contracts/Greeting.sol":{"Greeting":{"abi":[{"inputs":[{"internalType":"string","name":"_greeting","type":"string"}],"stateMutability":"nonpayable","type":"constructor"},{"anonymous":false,"inputs":[{"indexed":true,"internalType":"address","name":"updatedBy","type":"address"},{"indexed":false,"internalType":"string","name":"newGreeting","type":"string"}],"name":"GreetingChanged","type":"event"},{"inputs":[],"name":"greeting","outputs":[{"internalType":"string","name":"","type":"string"}],"stateMutability":"view","type":"function"},{"inputs":[],"name":"owner","outputs":[{"internalType":"address","name":"","type":"address"}],"stateMutability":"view","type":"function"},{"inputs":[{"internalType":"string","name":"_greeting","type":"string"}],"name":"setGreeting","outputs":[],"stateMutability":"nonpayable","type":"function"}],"evm":{"bytecode":{"linkReferences":{},"object":"6080604052346101f05761062280380380610019816101f4565b92833981019060209081818403126101f05780516001600160401b03918282116101f0570191601f908482850112156101f05783518381116101c857601f1994610068828501871684016101f4565b968288528383830101116101f05782905f5b8381106101dc5750505f918701015284519283116101c8575f54936001948581811c911680156101be575b838210146101aa57838111610167575b508192841160011461010a5750508192935f926100ff575b50505f19600383901b1c191690821b175f555b80546001600160a01b03191633179055604051610408908161021a8239f35b015190505f806100cd565b5f808052828120918516969193925b87821061015057505083859610610138575b505050811b015f556100e0565b01515f1960f88460031b161c191690555f808061012b565b808785968294968601518155019501930190610119565b5f8052825f208480870160051c8201928588106101a1575b0160051c019086905b8281106101965750506100b5565b5f8155018690610188565b9250819261017f565b634e487b7160e01b5f52602260045260245ffd5b90607f16906100a5565b634e487b7160e01b5f52604160045260245ffd5b81810183015189820184015284920161007a565b5f80fd5b6040519190601f01601f191682016001600160401b038111838210176101c85760405256fe6080806040526004361015610012575f80fd5b5f3560e01c9081638da5cb5b1461030e57508063a41368621461011e5763ef690cc01461003d575f80fd5b3461011a575f36600319011261011a576040515f805461005c81610353565b808452906020906001908181169081156100f05750600114610099575b6100958561008981870382610331565b6040519182918261038b565b0390f35b5f80805293507f290decd9548b62a8d60345a988386fc84ba6bc95484008f6362f93160ef3e5635b8385106100dd5750505050810160200161008982610095610079565b80548686018401529382019381016100c1565b8695506100959693506020925061008994915060ff191682840152151560051b8201019293610079565b5f80fd5b3461011a5760208060031936011261011a5760043567ffffffffffffffff80821161011a573660238301121561011a5781600401358181116102fa57601f1990604051936101738684601f8501160186610331565b818552366024838301011161011a57815f926024889301838801378501015282519182116102fa576101a55f54610353565b93601f8511610299575b829394508091601f841160011461021c5750505f91610211575b508160011b915f199060031b1c1916175f555b7fea07f7ca8b8b2cfaab1214b6e1459ad859cf1ff2d60a948a1f9c4644970c89506040518061020c33948261038b565b0390a2005b9050820151836101c9565b9092165f80527f290decd9548b62a8d60345a988386fc84ba6bc95484008f6362f93160ef3e563925f905b8282106102815750509083600194939210610269575b5050811b015f556101dc565b8401515f1960f88460031b161c19169055838061025d565b80600185968294968a01518155019501930190610247565b5f80527f290decd9548b62a8d60345a988386fc84ba6bc95484008f6362f93160ef3e563601f840160051c8101958285106102f0575b601f0160051c01945b8581106102e557506101af565b5f81556001016102d8565b90955085906102cf565b634e487b7160e01b5f52604160045260245ffd5b3461011a575f36600319011261011a576001546001600160a01b03168152602090f35b90601f8019910116810190811067ffffffffffffffff8211176102fa57604052565b90600182811c92168015610381575b602083101461036d57565b634e487b7160e01b5f52602260045260245ffd5b91607f1691610362565b602080825282518183018190529093925f5b8281106103be57505060409293505f838284010152601f8019910116010190565b81810186015184820160400152850161039d56fea2646970667358221220279014413ffb5b490e4b15bab6dca0c7b0d864990b3c592fa9c2d5ea0acd8e5b64736f6c63430008180033","opcodes":"PUSH1 0x80 PUSH1 0x40 MSTORE CALLVALUE PUSH2 0x1F0 JUMPI PUSH2 0x622 DUP1 CODESIZE SUB DUP1 PUSH2 0x19 DUP2 PUSH2 0x1F4 JUMP JUMPDEST SWAP3 DUP4 CODECOPY DUP2 ADD SWAP1 PUSH1 0x20 SWAP1 DUP2 DUP2 DUP5 SUB SLT PUSH2 0x1F0 JUMPI DUP1 MLOAD PUSH1 0x1 PUSH1 0x1 PUSH1 0x40 SHL SUB SWAP2 DUP3 DUP3 GT PUSH2 0x1F0 JUMPI ADD SWAP2 PUSH1 0x1F SWAP1 DUP5 DUP3 DUP6 ADD SLT ISZERO PUSH2 0x1F0 JUMPI DUP4 MLOAD DUP4 DUP2 GT PUSH2 0x1C8 JUMPI PUSH1 0x1F NOT SWAP5 PUSH2 0x68 DUP3 DUP6 ADD DUP8 AND DUP5 ADD PUSH2 0x1F4 JUMP JUMPDEST SWAP7 DUP3 DUP9 MSTORE DUP4 DUP4 DUP4 ADD ADD GT PUSH2 0x1F0 JUMPI DUP3 SWAP1 PUSH0 JUMPDEST DUP4 DUP2 LT PUSH2 0x1DC JUMPI POP POP PUSH0 SWAP2 DUP8 ADD ADD MSTORE DUP5 MLOAD SWAP3 DUP4 GT PUSH2 0x1C8 JUMPI PUSH0 SLOAD SWAP4 PUSH1 0x1 SWAP5 DUP6 DUP2 DUP2 SHR SWAP2 AND DUP1 ISZERO PUSH2 0x1BE JUMPI JUMPDEST DUP4 DUP3 LT EQ PUSH2 0x1AA JUMPI DUP4 DUP2 GT PUSH2 0x167 JUMPI JUMPDEST POP DUP2 SWAP3 DUP5 GT PUSH1 0x1 EQ PUSH2 0x10A JUMPI POP POP DUP2 SWAP3 SWAP4 PUSH0 SWAP3 PUSH2 0xFF JUMPI JUMPDEST POP POP PUSH0 NOT PUSH1 0x3 DUP4 SWAP1 SHL SHR NOT AND SWAP1 DUP3 SHL OR PUSH0 SSTORE JUMPDEST DUP1 SLOAD PUSH1 0x1 PUSH1 0x1 PUSH1 0xA0 SHL SUB NOT AND CALLER OR SWAP1 SSTORE PUSH1 0x40 MLOAD PUSH2 0x408 SWAP1 DUP2 PUSH2 0x21A DUP3 CODECOPY RETURN JUMPDEST ADD MLOAD SWAP1 POP PUSH0 DUP1 PUSH2 0xCD JUMP JUMPDEST PUSH0 DUP1 DUP1 MSTORE DUP3 DUP2 KECCAK256 SWAP2 DUP6 AND SWAP7 SWAP2 SWAP4 SWAP3 JUMPDEST DUP8 DUP3 LT PUSH2 0x150 JUMPI POP POP DUP4 DUP6 SWAP7 LT PUSH2 0x138 JUMPI JUMPDEST POP POP POP DUP2 SHL ADD PUSH0 SSTORE PUSH2 0xE0 JUMP JUMPDEST ADD MLOAD PUSH0 NOT PUSH1 0xF8 DUP5 PUSH1 0x3 SHL AND SHR NOT AND SWAP1 SSTORE PUSH0 DUP1 DUP1 PUSH2 0x12B JUMP JUMPDEST DUP1 DUP8 DUP6 SWAP7 DUP3 SWAP5 SWAP7 DUP7 ADD MLOAD DUP2 SSTORE ADD SWAP6 ADD SWAP4 ADD SWAP1 PUSH2 0x119 JUMP JUMPDEST PUSH0 DUP1 MSTORE DUP3 PUSH0 KECCAK256 DUP5 DUP1 DUP8 ADD PUSH1 0x5 SHR DUP3 ADD SWAP3 DUP6 DUP9 LT PUSH2 0x1A1 JUMPI JUMPDEST ADD PUSH1 0x5 SHR ADD SWAP1 DUP7 SWAP1 JUMPDEST DUP3 DUP2 LT PUSH2 0x196 JUMPI POP POP PUSH2 0xB5 JUMP JUMPDEST PUSH0 DUP2 SSTORE ADD DUP7 SWAP1 PUSH2 0x188 JUMP JUMPDEST SWAP3 POP DUP2 SWAP3 PUSH2 0x17F JUMP JUMPDEST PUSH4 0x4E487B71 PUSH1 0xE0 SHL PUSH0 MSTORE PUSH1 0x22 PUSH1 0x4 MSTORE PUSH1 0x24 PUSH0 REVERT JUMPDEST SWAP1 PUSH1 0x7F AND SWAP1 PUSH2 0xA5 JUMP JUMPDEST PUSH4 0x4E487B71 PUSH1 0xE0 SHL PUSH0 MSTORE PUSH1 0x41 PUSH1 0x4 MSTORE PUSH1 0x24 PUSH0 REVERT JUMPDEST DUP2 DUP2 ADD DUP4 ADD MLOAD DUP10 DUP3 ADD DUP5 ADD MSTORE DUP5 SWAP3 ADD PUSH2 0x7A JUMP JUMPDEST PUSH0 DUP1 REVERT JUMPDEST PUSH1 0x40 MLOAD SWAP2 SWAP1 PUSH1 0x1F ADD PUSH1 0x1F NOT AND DUP3 ADD PUSH1 0x1 PUSH1 0x1 PUSH1 0x40 SHL SUB DUP2 GT DUP4 DUP3 LT OR PUSH2 0x1C8 JUMPI PUSH1 0x40 MSTORE JUMP INVALID PUSH1 0x80 DUP1 PUSH1 0x40 MSTORE PUSH1 0x4 CALLDATASIZE LT ISZERO PUSH2 0x12 JUMPI PUSH0 DUP1 REVERT JUMPDEST PUSH0 CALLDATALOAD PUSH1 0xE0 SHR SWAP1 DUP2 PUSH4 0x8DA5CB5B EQ PUSH2 0x30E JUMPI POP DUP1 PUSH4 0xA4136862 EQ PUSH2 0x11E JUMPI PUSH4 0xEF690CC0 EQ PUSH2 0x3D JUMPI PUSH0 DUP1 REVERT JUMPDEST CALLVALUE PUSH2 0x11A JUMPI PUSH0 CALLDATASIZE PUSH1 0x3 NOT ADD SLT PUSH2 0x11A JUMPI PUSH1 0x40 MLOAD PUSH0 DUP1 SLOAD PUSH2 0x5C DUP2 PUSH2 0x353 JUMP JUMPDEST DUP1 DUP5 MSTORE SWAP1 PUSH1 0x20 SWAP1 PUSH1 0x1 SWAP1 DUP2 DUP2 AND SWAP1 DUP2 ISZERO PUSH2 0xF0 JUMPI POP PUSH1 0x1 EQ PUSH2 0x99 JUMPI JUMPDEST PUSH2 0x95 DUP6 PUSH2 0x89 DUP2 DUP8 SUB DUP3 PUSH2 0x331 JUMP JUMPDEST PUSH1 0x40 MLOAD SWAP2 DUP3 SWAP2 DUP3 PUSH2 0x38B JUMP JUMPDEST SUB SWAP1 RETURN JUMPDEST PUSH0 DUP1 DUP1 MSTORE SWAP4 POP PUSH32 0x290DECD9548B62A8D60345A988386FC84BA6BC95484008F6362F93160EF3E563 JUMPDEST DUP4 DUP6 LT PUSH2 0xDD JUMPI POP POP POP POP DUP2 ADD PUSH1 0x20 ADD PUSH2 0x89 DUP3 PUSH2 0x95 PUSH2 0x79 JUMP JUMPDEST DUP1 SLOAD DUP7 DUP7 ADD DUP5 ADD MSTORE SWAP4 DUP3 ADD SWAP4 DUP2 ADD PUSH2 0xC1 JUMP JUMPDEST DUP7 SWAP6 POP PUSH2 0x95 SWAP7 SWAP4 POP PUSH1 0x20 SWAP3 POP PUSH2 0x89 SWAP5 SWAP2 POP PUSH1 0xFF NOT AND DUP3 DUP5 ADD MSTORE ISZERO ISZERO PUSH1 0x5 SHL DUP3 ADD ADD SWAP3 SWAP4 PUSH2 0x79 JUMP JUMPDEST PUSH0 DUP1 REVERT JUMPDEST CALLVALUE PUSH2 0x11A JUMPI PUSH1 0x20 DUP1 PUSH1 0x3 NOT CALLDATASIZE ADD SLT PUSH2 0x11A JUMPI PUSH1 0x4 CALLDATALOAD PUSH8 0xFFFFFFFFFFFFFFFF DUP1 DUP3 GT PUSH2 0x11A JUMPI CALLDATASIZE PUSH1 0x23 DUP4 ADD SLT ISZERO PUSH2 0x11A JUMPI DUP2 PUSH1 0x4 ADD CALLDATALOAD DUP2 DUP2 GT PUSH2 0x2FA JUMPI PUSH1 0x1F NOT SWAP1 PUSH1 0x40 MLOAD SWAP4 PUSH2 0x173 DUP7 DUP5 PUSH1 0x1F DUP6 ADD AND ADD DUP7 PUSH2 0x331 JUMP JUMPDEST DUP2 DUP6 MSTORE CALLDATASIZE PUSH1 0x24 DUP4 DUP4 ADD ADD GT PUSH2 0x11A JUMPI DUP2 PUSH0 SWAP3 PUSH1 0x24 DUP9 SWAP4 ADD DUP4 DUP9 ADD CALLDATACOPY DUP6 ADD ADD MSTORE DUP3 MLOAD SWAP2 DUP3 GT PUSH2 0x2FA JUMPI PUSH2 0x1A5 PUSH0 SLOAD PUSH2 0x353 JUMP JUMPDEST SWAP4 PUSH1 0x1F DUP6 GT PUSH2 0x299 JUMPI JUMPDEST DUP3 SWAP4 SWAP5 POP DUP1 SWAP2 PUSH1 0x1F DUP5 GT PUSH1 0x1 EQ PUSH2 0x21C JUMPI POP POP PUSH0 SWAP2 PUSH2 0x211 JUMPI JUMPDEST POP DUP2 PUSH1 0x1 SHL SWAP2 PUSH0 NOT SWAP1 PUSH1 0x3 SHL SHR NOT AND OR PUSH0 SSTORE JUMPDEST PUSH32 0xEA07F7CA8B8B2CFAAB1214B6E1459AD859CF1FF2D60A948A1F9C4644970C8950 PUSH1 0x40 MLOAD DUP1 PUSH2 0x20C CALLER SWAP5 DUP3 PUSH2 0x38B JUMP JUMPDEST SUB SWAP1 LOG2 STOP JUMPDEST SWAP1 POP DUP3 ADD MLOAD DUP4 PUSH2 0x1C9 JUMP JUMPDEST SWAP1 SWAP3 AND PUSH0 DUP1 MSTORE PUSH32 0x290DECD9548B62A8D60345A988386FC84BA6BC95484008F6362F93160EF3E563 SWAP3 PUSH0 SWAP1 JUMPDEST DUP3 DUP3 LT PUSH2 0x281 JUMPI POP POP SWAP1 DUP4 PUSH1 0x1 SWAP5 SWAP4 SWAP3 LT PUSH2 0x269 JUMPI JUMPDEST POP POP DUP2 SHL ADD PUSH0 SSTORE PUSH2 0x1DC JUMP JUMPDEST DUP5 ADD MLOAD PUSH0 NOT PUSH1 0xF8 DUP5 PUSH1 0x3 SHL AND SHR NOT AND SWAP1 SSTORE DUP4 DUP1 PUSH2 0x25D JUMP JUMPDEST DUP1 PUSH1 0x1 DUP6 SWAP7 DUP3 SWAP5 SWAP7 DUP11 ADD MLOAD DUP2 SSTORE ADD SWAP6 ADD SWAP4 ADD SWAP1 PUSH2 0x247 JUMP JUMPDEST PUSH0 DUP1 MSTORE PUSH32 0x290DECD9548B62A8D60345A988386FC84BA6BC95484008F6362F93160EF3E563 PUSH1 0x1F DUP5 ADD PUSH1 0x5 SHR DUP2 ADD SWAP6 DUP3 DUP6 LT PUSH2 0x2F0 JUMPI JUMPDEST PUSH1 0x1F ADD PUSH1 0x5 SHR ADD SWAP5 JUMPDEST DUP6 DUP2 LT PUSH2 0x2E5 JUMPI POP PUSH2 0x1AF JUMP JUMPDEST PUSH0 DUP2 SSTORE PUSH1 0x1 ADD PUSH2 0x2D8 JUMP JUMPDEST SWAP1 SWAP6 POP DUP6 SWAP1 PUSH2 0x2CF JUMP JUMPDEST PUSH4 0x4E487B71 PUSH1 0xE0 SHL PUSH0 MSTORE PUSH1 0x41 PUSH1 0x4 MSTORE PUSH1 0x24 PUSH0 REVERT JUMPDEST CALLVALUE PUSH2 0x11A JUMPI PUSH0 CALLDATASIZE PUSH1 0x3 NOT ADD SLT PUSH2 0x11A JUMPI PUSH1 0x1 SLOAD PUSH1 0x1 PUSH1 0x1 PUSH1 0xA0 SHL SUB AND DUP2 MSTORE PUSH1 0x20 SWAP1 RETURN JUMPDEST SWAP1 PUSH1 0x1F DUP1 NOT SWAP2 ADD AND DUP2 ADD SWAP1 DUP2 LT PUSH8 0xFFFFFFFFFFFFFFFF DUP3 GT OR PUSH2 0x2FA JUMPI PUSH1 0x40 MSTORE JUMP JUMPDEST SWAP1 PUSH1 0x1 DUP3 DUP2 SHR SWAP3 AND DUP1 ISZERO PUSH2 0x381 JUMPI JUMPDEST PUSH1 0x20 DUP4 LT EQ PUSH2 0x36D JUMPI JUMP JUMPDEST PUSH4 0x4E487B71 PUSH1 0xE0 SHL PUSH0 MSTORE PUSH1 0x22 PUSH1 0x4 MSTORE PUSH1 0x24 PUSH0 REVERT JUMPDEST SWAP2 PUSH1 0x7F AND SWAP2 PUSH2 0x362 JUMP JUMPDEST PUSH1 0x20 DUP1 DUP3 MSTORE DUP3 MLOAD DUP2 DUP4 ADD DUP2 SWAP1 MSTORE SWAP1 SWAP4 SWAP3 PUSH0 JUMPDEST DUP3 DUP2 LT PUSH2 0x3BE JUMPI POP POP PUSH1 0x40 SWAP3 SWAP4 POP PUSH0 DUP4 DUP3 DUP5 ADD ADD MSTORE PUSH1 0x1F DUP1 NOT SWAP2 ADD AND ADD ADD SWAP1 JUMP JUMPDEST DUP2 DUP2 ADD DUP7 ADD MLOAD DUP5 DUP3 ADD PUSH1 0x40 ADD MSTORE DUP6 ADD PUSH2 0x39D JUMP INVALID LOG2 PUSH5 0x6970667358 0x22 SLT KECCAK256 0x27 SWAP1 EQ COINBASE EXTCODEHASH 0xFB JUMPDEST BLOBHASH 0xE 0x4B ISZERO 0xBA 0xB6 0xDC LOG0 0xC7 0xB0 0xD8 PUSH5 0x990B3C592F 0xA9 0xC2 0xD5 0xEA EXP 0xCD DUP15 JUMPDEST PUSH5 0x736F6C6343 STOP ADDMOD XOR STOP CALLER "},"methodIdentifiers":{"greeting()":"ef690cc0","owner()":"8da5cb5b","setGreeting(string)":"a4136862"}}}}}