{"contracts/SimpleAMM.sol":{"SimpleAMM":{"abi":[{"inputs":[{"internalType":"address","name":"_tokenA","type":"address"},{"internalType":"address","name":"_tokenB","type":"address"}],"stateMutability":"nonpayable","type":"constructor"},{"anonymous":false,"inputs":[{"indexed":false,"internalType":"uint256","name":"amountA","type":"uint256"},{"indexed":false,"internalType":"uint256","name":"amountB","type":"uint256"}],"name":"LiquidityAdded","type":"event"},{"anonymous":false,"inputs":[{"indexed":true,"internalType":"address","name":"tokenIn","type":"address"},{"indexed":false,"internalType":"uint256","name":"amountIn","type":"uint256"},{"indexed":false,"internalType":"uint256","name":"amountOut","type":"uint256"},{"indexed":true,"internalType":"address","name":"to","type":"address"}],"name":"Swapped","type":"event"},{"inputs":[],"name":"FEE_BPS","outputs":[{"internalType":"uint16","name":"","type":"uint16"}],"stateMutability":"view","type":"function"},{"inputs":[{"internalType":"uint256","name":"amountA","type":"uint256"},{"internalType":"uint256","name":"amountB","type":"uint256"}],"name":"addLiquidity","outputs":[],"stateMutability":"nonpayable","type":"function"},{"inputs":[{"internalType":"uint256","name":"amountIn","type":"uint256"},{"internalType":"uint256","name":"reserveIn","type":"uint256"},{"internalType":"uint256","name":"reserveOut","type":"uint256"}],"name":"getAmountOut","outputs":[{"internalType":"uint256","name":"","type":"uint256"}],"stateMutability":"pure","type":"function"},{"inputs":[{"internalType":"address","name":"tokenIn","type":"address"},{"internalType":"uint256","name":"amountIn","type":"uint256"}],"name":"quote","outputs":[{"internalType":"uint256","name":"","type":"uint256"}],"stateMutability":"view","type":"function"},{"inputs":[],"name":"reserveA","outputs":[{"internalType":"uint256","name":"","type":"uint256"}],"stateMutability":"view","type":"function"},{"inputs":[],"name":"reserveB","outputs":[{"internalType":"uint256","name":"","type":"uint256"}],"stateMutability":"view","type":"function"},{"inputs":[{"internalType":"address","name":"tokenIn","type":"address"},{"internalType":"uint256","name":"amountIn","type":"uint256"},{"internalType":"uint256","name":"minOut","type":"uint256"},{"internalType":"address","name":"to","type":"address"}],"name":"swap","outputs":[{"internalType":"uint256","name":"amountOut","type":"uint256"}],"stateMutability":"nonpayable","type":"function"},{"inputs":[],"name":"tokenA","outputs":[{"internalType":"address","name":"","type":"address"}],"stateMutability":"view","type":"function"},{"inputs":[],"name":"tokenB","outputs":[{"internalType":"address","name":"","type":"address"}],"stateMutability":"view","type":"function"}],"evm":{"bytecode":{"linkReferences":{},"object":"60c03461010757601f610aa138819003918201601f19168301916001600160401b0383118484101761010b57808492604094855283398101031261010757610052602061004b8361011f565b920161011f565b906001600160a01b03808216151590816100fb575b50156100c45760805260a05260405161096d9081610134823960805181818160b90152818161043f015281816106530152610753015260a05181818161012001528181610378015281816104a2015281816106b401526106f20152f35b60405162461bcd60e51b815260206004820152600f60248201526e20a6a69d103d32b937903a37b5b2b760891b6044820152606490fd5b9050821615155f610067565b5f80fd5b634e487b7160e01b5f52604160045260245ffd5b51906001600160a01b03821682036101075756fe60406080815260049081361015610014575f80fd5b5f3560e01c8063054d50d4146107825780630fc63d101461073f57806319e36f3b146107215780635f64b55b146106de5780638f79306e146106275780639cd441da146103dc578063bf333f2c146103c1578063dc5fa6c5146103a45763f3e6ea8a1461007f575f80fd5b346103a05760803660031901126103a0576100986107a8565b90602480356044906064359260018060a01b03968785168095036103a057877f0000000000000000000000000000000000000000000000000000000000000000971693888816851492838015610375575b6100f29061089f565b84156103455783156103375761010e5f54600154905b876107df565b9882358a1061030657841561030157507f00000000000000000000000000000000000000000000000000000000000000005b88516323b872dd60e01b81523385820190815230602082810191909152604082018990529c91908d908290819060600103815f8d5af19081156102f7575f916102da575b50156102a6578a848a5f8f948e51968795869463a9059cbb60e01b86528c86015289850152165af190811561029c575f9161026f575b501561023c575050507f50994f8bcf54474cf3e35793e3537d1f44ec39d92f19a3d7a01b36723b886fc09185915f1461021b576101f8815f546107be565b5f556102068760015461092a565b6001555b81519081528688820152a351908152f35b610227816001546107be565b600155610235875f5461092a565b5f5561020a565b875162461bcd60e51b81529283018a9052600f908301526e1053534e881bdd5d0819985a5b1959608a1b90820152606490fd5b61028f91508b3d8d11610295575b61028781836108dc565b810190610912565b5f6101ba565b503d61027d565b89513d5f823e3d90fd5b5050875162461bcd60e51b81529283018a9052600e908301526d1053534e881a5b8819985a5b195960921b90820152606490fd5b6102f191508d803d106102955761028781836108dc565b5f610184565b8b513d5f823e3d90fd5b610140565b885162461bcd60e51b8152602081860152600d818401526c414d4d3a20736c69707061676560981b81850152606490fd5b61010e6001545f5490610108565b60649291600c6b20a6a69d103d32b9379034b760a11b9260208b519562461bcd60e51b8752860152840152820152fd5b507f00000000000000000000000000000000000000000000000000000000000000008a1686146100e9565b5f80fd5b50346103a0575f3660031901126103a0576020905f549051908152f35b50346103a0575f3660031901126103a05760209051601e8152f35b50346103a057806003193601126103a05781356024358115158061061e575b156105e55782516323b872dd60e01b808252338683019081523060208281019190915260408201869052926001600160a01b03929184908290819060600103815f877f0000000000000000000000000000000000000000000000000000000000000000165af19081156105db575f916105be575b501561058357855190815233878201908152306020820152604081018590529091839183919082905f90829060600103927f0000000000000000000000000000000000000000000000000000000000000000165af1908115610579575f9161055c575b5015610522577f38f8a0c92f4c5b0b6877f878cb4c0c8d348a47b76d716c8e78f425043df9515b9450610506835f546107be565b5f55610514826001546107be565b6001558351928352820152a1005b8460649185519162461bcd60e51b835282015260156024820152741053534e881d1bdad95b90881a5b8819985a5b1959605a1b6044820152fd5b6105739150823d84116102955761028781836108dc565b5f6104d2565b85513d5f823e3d90fd5b855162461bcd60e51b815280880184905260156024820152741053534e881d1bdad95b90481a5b8819985a5b1959605a1b6044820152606490fd5b6105d59150843d86116102955761028781836108dc565b5f61046f565b87513d5f823e3d90fd5b825162461bcd60e51b81526020818601526013602482015272414d4d3a207a65726f206c697175696469747960681b6044820152606490fd5b508015156103fb565b50346103a057806003193601126103a0576020906106436107a8565b61068660018060a01b03809216827f000000000000000000000000000000000000000000000000000000000000000016811490819382156106b2575b505061089f565b156106a45761069d5f54600154905b6024356107df565b9051908152f35b61069d6001545f5490610695565b7f000000000000000000000000000000000000000000000000000000000000000016149050858061067f565b50346103a0575f3660031901126103a057517f00000000000000000000000000000000000000000000000000000000000000006001600160a01b03168152602090f35b50346103a0575f3660031901126103a0576020906001549051908152f35b50346103a0575f3660031901126103a057517f00000000000000000000000000000000000000000000000000000000000000006001600160a01b03168152602090f35b50346103a05760603660031901126103a05761069d6020926044359060243590356107df565b600435906001600160a01b03821682036103a057565b919082018092116107cb57565b634e487b7160e01b5f52601160045260245ffd5b801590811580610896575b8061088d575b15610854576126f29081810292818404831417156107cb578402029281840414811517156107cb57612710918281029281840414901517156107cb57610835916107be565b908115610840570490565b634e487b7160e01b5f52601260045260245ffd5b60405162461bcd60e51b81526020600482015260116024820152701053534e881a5b9cdd59999a58da595b9d607a1b6044820152606490fd5b508315156107f0565b508215156107ea565b156108a657565b60405162461bcd60e51b815260206004820152600e60248201526d20a6a69d103130b2103a37b5b2b760911b6044820152606490fd5b90601f8019910116810190811067ffffffffffffffff8211176108fe57604052565b634e487b7160e01b5f52604160045260245ffd5b908160209103126103a0575180151581036103a05790565b919082039182116107cb5756fea264697066735822122027baf557828407fe54e2e6aecf38e52599e02ad16d095602f9159feb1753c16d64736f6c63430008180033","opcodes":"PUSH1 0xC0 CALLVALUE PUSH2 0x107 JUMPI PUSH1 0x1F PUSH2 0xAA1 CODESIZE DUP2 SWAP1 SUB SWAP2 DUP3 ADD PUSH1 0x1F NOT AND DUP4 ADD SWAP2 PUSH1 0x1 PUSH1 0x1 PUSH1 0x40 SHL SUB DUP4 GT DUP5 DUP5 LT OR PUSH2 0x10B JUMPI DUP1 DUP5 SWAP3 PUSH1 0x40 SWAP5 DUP6 MSTORE DUP4 CODECOPY DUP2 ADD SUB SLT PUSH2 0x107 JUMPI PUSH2 0x52 PUSH1 0x20 PUSH2 0x4B DUP4 PUSH2 0x11F JUMP JUMPDEST SWAP3 ADD PUSH2 0x11F JUMP JUMPDEST SWAP1 PUSH1 0x1 PUSH1 0x1 PUSH1 0xA0 SHL SUB DUP1 DUP3 AND ISZERO ISZERO SWAP1 DUP2 PUSH2 0xFB JUMPI JUMPDEST POP ISZERO PUSH2 0xC4 JUMPI PUSH1 0x80 MSTORE PUSH1 0xA0 MSTORE PUSH1 0x40 MLOAD PUSH2 0x96D SWAP1 DUP2 PUSH2 0x134 DUP3 CODECOPY PUSH1 0x80 MLOAD DUP2 DUP2 DUP2 PUSH1 0xB9 ADD MSTORE DUP2 DUP2 PUSH2 0x43F ADD MSTORE DUP2 DUP2 PUSH2 0x653 ADD MSTORE PUSH2 0x753 ADD MSTORE PUSH1 0xA0 MLOAD DUP2 DUP2 DUP2 PUSH2 0x120 ADD MSTORE DUP2 DUP2 PUSH2 0x378 ADD MSTORE DUP2 DUP2 PUSH2 0x4A2 ADD MSTORE DUP2 DUP2 PUSH2 0x6B4 ADD MSTORE PUSH2 0x6F2 ADD MSTORE RETURN JUMPDEST PUSH1 0x40 MLOAD PUSH3 0x461BCD PUSH1 0xE5 SHL DUP2 MSTORE PUSH1 0x20 PUSH1 0x4 DUP3 ADD MSTORE PUSH1 0xF PUSH1 0x24 DUP3 ADD MSTORE PUSH15 0x20A6A69D103D32B937903A37B5B2B7 PUSH1 0x89 SHL PUSH1 0x44 DUP3 ADD MSTORE PUSH1 0x64 SWAP1 REVERT JUMPDEST SWAP1 POP DUP3 AND ISZERO ISZERO PUSH0 PUSH2 0x67 JUMP JUMPDEST PUSH0 DUP1 REVERT JUMPDEST PUSH4 0x4E487B71 PUSH1 0xE0 SHL PUSH0 MSTORE PUSH1 0x41 PUSH1 0x4 MSTORE PUSH1 0x24 PUSH0 REVERT JUMPDEST MLOAD SWAP1 PUSH1 0x1 PUSH1 0x1 PUSH1 0xA0 SHL SUB DUP3 AND DUP3 SUB PUSH2 0x107 JUMPI JUMP INVALID PUSH1 0x40 PUSH1 0x80 DUP2 MSTORE PUSH1 0x4 SWAP1 DUP2 CALLDATASIZE LT ISZERO PUSH2 0x14 JUMPI PUSH0 DUP1 REVERT JUMPDEST PUSH0 CALLDATALOAD PUSH1 0xE0 SHR DUP1 PUSH4 0x54D50D4 EQ PUSH2 0x782 JUMPI DUP1 PUSH4 0xFC63D10 EQ PUSH2 0x73F JUMPI DUP1 PUSH4 0x19E36F3B EQ PUSH2 0x721 JUMPI DUP1 PUSH4 0x5F64B55B EQ PUSH2 0x6DE JUMPI DUP1 PUSH4 0x8F79306E EQ PUSH2 0x627 JUMPI DUP1 PUSH4 0x9CD441DA EQ PUSH2 0x3DC JUMPI DUP1 PUSH4 0xBF333F2C EQ PUSH2 0x3C1 JUMPI DUP1 PUSH4 0xDC5FA6C5 EQ PUSH2 0x3A4 JUMPI PUSH4 0xF3E6EA8A EQ PUSH2 0x7F JUMPI PUSH0 DUP1 REVERT JUMPDEST CALLVALUE PUSH2 0x3A0 JUMPI PUSH1 0x80 CALLDATASIZE PUSH1 0x3 NOT ADD SLT PUSH2 0x3A0 JUMPI PUSH2 0x98 PUSH2 0x7A8 JUMP JUMPDEST SWAP1 PUSH1 0x24 DUP1 CALLDATALOAD PUSH1 0x44 SWAP1 PUSH1 0x64 CALLDATALOAD SWAP3 PUSH1 0x1 DUP1 PUSH1 0xA0 SHL SUB SWAP7 DUP8 DUP6 AND DUP1 SWAP6 SUB PUSH2 0x3A0 JUMPI DUP8 PUSH32 0x0 SWAP8 AND SWAP4 DUP9 DUP9 AND DUP6 EQ SWAP3 DUP4 DUP1 ISZERO PUSH2 0x375 JUMPI JUMPDEST PUSH2 0xF2 SWAP1 PUSH2 0x89F JUMP JUMPDEST DUP5 ISZERO PUSH2 0x345 JUMPI DUP4 ISZERO PUSH2 0x337 JUMPI PUSH2 0x10E PUSH0 SLOAD PUSH1 0x1 SLOAD SWAP1 JUMPDEST DUP8 PUSH2 0x7DF JUMP JUMPDEST SWAP9 DUP3 CALLDATALOAD DUP11 LT PUSH2 0x306 JUMPI DUP5 ISZERO PUSH2 0x301 JUMPI POP PUSH32 0x0 JUMPDEST DUP9 MLOAD PUSH4 0x23B872DD PUSH1 0xE0 SHL DUP2 MSTORE CALLER DUP6 DUP3 ADD SWAP1 DUP2 MSTORE ADDRESS PUSH1 0x20 DUP3 DUP2 ADD SWAP2 SWAP1 SWAP2 MSTORE PUSH1 0x40 DUP3 ADD DUP10 SWAP1 MSTORE SWAP13 SWAP2 SWAP1 DUP14 SWAP1 DUP3 SWAP1 DUP2 SWAP1 PUSH1 0x60 ADD SUB DUP2 PUSH0 DUP14 GAS CALL SWAP1 DUP2 ISZERO PUSH2 0x2F7 JUMPI PUSH0 SWAP2 PUSH2 0x2DA JUMPI JUMPDEST POP ISZERO PUSH2 0x2A6 JUMPI DUP11 DUP5 DUP11 PUSH0 DUP16 SWAP5 DUP15 MLOAD SWAP7 DUP8 SWAP6 DUP7 SWAP5 PUSH4 0xA9059CBB PUSH1 0xE0 SHL DUP7 MSTORE DUP13 DUP7 ADD MSTORE DUP10 DUP6 ADD MSTORE AND GAS CALL SWAP1 DUP2 ISZERO PUSH2 0x29C JUMPI PUSH0 SWAP2 PUSH2 0x26F JUMPI JUMPDEST POP ISZERO PUSH2 0x23C JUMPI POP POP POP PUSH32 0x50994F8BCF54474CF3E35793E3537D1F44EC39D92F19A3D7A01B36723B886FC0 SWAP2 DUP6 SWAP2 PUSH0 EQ PUSH2 0x21B JUMPI PUSH2 0x1F8 DUP2 PUSH0 SLOAD PUSH2 0x7BE JUMP JUMPDEST PUSH0 SSTORE PUSH2 0x206 DUP8 PUSH1 0x1 SLOAD PUSH2 0x92A JUMP JUMPDEST PUSH1 0x1 SSTORE JUMPDEST DUP2 MLOAD SWAP1 DUP2 MSTORE DUP7 DUP9 DUP3 ADD MSTORE LOG3 MLOAD SWAP1 DUP2 MSTORE RETURN JUMPDEST PUSH2 0x227 DUP2 PUSH1 0x1 SLOAD PUSH2 0x7BE JUMP JUMPDEST PUSH1 0x1 SSTORE PUSH2 0x235 DUP8 PUSH0 SLOAD PUSH2 0x92A JUMP JUMPDEST PUSH0 SSTORE PUSH2 0x20A JUMP JUMPDEST DUP8 MLOAD PUSH3 0x461BCD PUSH1 0xE5 SHL DUP2 MSTORE SWAP3 DUP4 ADD DUP11 SWAP1 MSTORE PUSH1 0xF SWAP1 DUP4 ADD MSTORE PUSH15 0x1053534E881BDD5D0819985A5B1959 PUSH1 0x8A SHL SWAP1 DUP3 ADD MSTORE PUSH1 0x64 SWAP1 REVERT JUMPDEST PUSH2 0x28F SWAP2 POP DUP12 RETURNDATASIZE DUP14 GT PUSH2 0x295 JUMPI JUMPDEST PUSH2 0x287 DUP2 DUP4 PUSH2 0x8DC JUMP JUMPDEST DUP2 ADD SWAP1 PUSH2 0x912 JUMP JUMPDEST PUSH0 PUSH2 0x1BA JUMP JUMPDEST POP RETURNDATASIZE PUSH2 0x27D JUMP JUMPDEST DUP10 MLOAD RETURNDATASIZE PUSH0 DUP3 RETURNDATACOPY RETURNDATASIZE SWAP1 REVERT JUMPDEST POP POP DUP8 MLOAD PUSH3 0x461BCD PUSH1 0xE5 SHL DUP2 MSTORE SWAP3 DUP4 ADD DUP11 SWAP1 MSTORE PUSH1 0xE SWAP1 DUP4 ADD MSTORE PUSH14 0x1053534E881A5B8819985A5B1959 PUSH1 0x92 SHL SWAP1 DUP3 ADD MSTORE PUSH1 0x64 SWAP1 REVERT JUMPDEST PUSH2 0x2F1 SWAP2 POP DUP14 DUP1 RETURNDATASIZE LT PUSH2 0x295 JUMPI PUSH2 0x287 DUP2 DUP4 PUSH2 0x8DC JUMP JUMPDEST PUSH0 PUSH2 0x184 JUMP JUMPDEST DUP12 MLOAD RETURNDATASIZE PUSH0 DUP3 RETURNDATACOPY RETURNDATASIZE SWAP1 REVERT JUMPDEST PUSH2 0x140 JUMP JUMPDEST DUP9 MLOAD PUSH3 0x461BCD PUSH1 0xE5 SHL DUP2 MSTORE PUSH1 0x20 DUP2 DUP7 ADD MSTORE PUSH1 0xD DUP2 DUP5 ADD MSTORE PUSH13 0x414D4D3A20736C697070616765 PUSH1 0x98 SHL DUP2 DUP6 ADD MSTORE PUSH1 0x64 SWAP1 REVERT JUMPDEST PUSH2 0x10E PUSH1 0x1 SLOAD PUSH0 SLOAD SWAP1 PUSH2 0x108 JUMP JUMPDEST PUSH1 0x64 SWAP3 SWAP2 PUSH1 0xC PUSH12 0x20A6A69D103D32B9379034B7 PUSH1 0xA1 SHL SWAP3 PUSH1 0x20 DUP12 MLOAD SWAP6 PUSH3 0x461BCD PUSH1 0xE5 SHL DUP8 MSTORE DUP7 ADD MSTORE DUP5 ADD MSTORE DUP3 ADD MSTORE REVERT JUMPDEST POP PUSH32 0x0 DUP11 AND DUP7 EQ PUSH2 0xE9 JUMP JUMPDEST PUSH0 DUP1 REVERT JUMPDEST POP CALLVALUE PUSH2 0x3A0 JUMPI PUSH0 CALLDATASIZE PUSH1 0x3 NOT ADD SLT PUSH2 0x3A0 JUMPI PUSH1 0x20 SWAP1 PUSH0 SLOAD SWAP1 MLOAD SWAP1 DUP2 MSTORE RETURN JUMPDEST POP CALLVALUE PUSH2 0x3A0 JUMPI PUSH0 CALLDATASIZE PUSH1 0x3 NOT ADD SLT PUSH2 0x3A0 JUMPI PUSH1 0x20 SWAP1 MLOAD PUSH1 0x1E DUP2 MSTORE RETURN JUMPDEST POP CALLVALUE PUSH2 0x3A0 JUMPI DUP1 PUSH1 0x3 NOT CALLDATASIZE ADD SLT PUSH2 0x3A0 JUMPI DUP2 CALLDATALOAD PUSH1 0x24 CALLDATALOAD DUP2 ISZERO ISZERO DUP1 PUSH2 0x61E JUMPI JUMPDEST ISZERO PUSH2 0x5E5 JUMPI DUP3 MLOAD PUSH4 0x23B872DD PUSH1 0xE0 SHL DUP1 DUP3 MSTORE CALLER DUP7 DUP4 ADD SWAP1 DUP2 MSTORE ADDRESS PUSH1 0x20 DUP3 DUP2 ADD SWAP2 SWAP1 SWAP2 MSTORE PUSH1 0x40 DUP3 ADD DUP7 SWAP1 MSTORE SWAP3 PUSH1 0x1 PUSH1 0x1 PUSH1 0xA0 SHL SUB SWAP3 SWAP2 DUP5 SWAP1 DUP3 SWAP1 DUP2 SWAP1 PUSH1 0x60 ADD SUB DUP2 PUSH0 DUP8 PUSH32 0x0 AND GAS CALL SWAP1 DUP2 ISZERO PUSH2 0x5DB JUMPI PUSH0 SWAP2 PUSH2 0x5BE JUMPI JUMPDEST POP ISZERO PUSH2 0x583 JUMPI DUP6 MLOAD SWAP1 DUP2 MSTORE CALLER DUP8 DUP3 ADD SWAP1 DUP2 MSTORE ADDRESS PUSH1 0x20 DUP3 ADD MSTORE PUSH1 0x40 DUP2 ADD DUP6 SWAP1 MSTORE SWAP1 SWAP2 DUP4 SWAP2 DUP4 SWAP2 SWAP1 DUP3 SWAP1 PUSH0 SWAP1 DUP3 SWAP1 PUSH1 0x60 ADD SUB SWAP3 PUSH32 0x0 AND GAS CALL SWAP1 DUP2 ISZERO PUSH2 0x579 JUMPI PUSH0 SWAP2 PUSH2 0x55C JUMPI JUMPDEST POP ISZERO PUSH2 0x522 JUMPI PUSH32 0x38F8A0C92F4C5B0B6877F878CB4C0C8D348A47B76D716C8E78F425043DF9515B SWAP5 POP PUSH2 0x506 DUP4 PUSH0 SLOAD PUSH2 0x7BE JUMP JUMPDEST PUSH0 SSTORE PUSH2 0x514 DUP3 PUSH1 0x1 SLOAD PUSH2 0x7BE JUMP JUMPDEST PUSH1 0x1 SSTORE DUP4 MLOAD SWAP3 DUP4 MSTORE DUP3 ADD MSTORE LOG1 STOP JUMPDEST DUP5 PUSH1 0x64 SWAP2 DUP6 MLOAD SWAP2 PUSH3 0x461BCD PUSH1 0xE5 SHL DUP4 MSTORE DUP3 ADD MSTORE PUSH1 0x15 PUSH1 0x24 DUP3 ADD MSTORE PUSH21 0x1053534E881D1BDAD95B90881A5B8819985A5B1959 PUSH1 0x5A SHL PUSH1 0x44 DUP3 ADD MSTORE REVERT JUMPDEST PUSH2 0x573 SWAP2 POP DUP3 RETURNDATASIZE DUP5 GT PUSH2 0x295 JUMPI PUSH2 0x287 DUP2 DUP4 PUSH2 0x8DC JUMP JUMPDEST PUSH0 PUSH2 0x4D2 JUMP JUMPDEST DUP6 MLOAD RETURNDATASIZE PUSH0 DUP3 RETURNDATACOPY RETURNDATASIZE SWAP1 REVERT JUMPDEST DUP6 MLOAD PUSH3 0x461BCD PUSH1 0xE5 SHL DUP2 MSTORE DUP1 DUP9 ADD DUP5 SWAP1 MSTORE PUSH1 0x15 PUSH1 0x24 DUP3 ADD MSTORE PUSH21 0x1053534E881D1BDAD95B90481A5B8819985A5B1959 PUSH1 0x5A SHL PUSH1 0x44 DUP3 ADD MSTORE PUSH1 0x64 SWAP1 REVERT JUMPDEST PUSH2 0x5D5 SWAP2 POP DUP5 RETURNDATASIZE DUP7 GT PUSH2 0x295 JUMPI PUSH2 0x287 DUP2 DUP4 PUSH2 0x8DC JUMP JUMPDEST PUSH0 PUSH2 0x46F JUMP JUMPDEST DUP8 MLOAD RETURNDATASIZE PUSH0 DUP3 RETURNDATACOPY RETURNDATASIZE SWAP1 REVERT JUMPDEST DUP3 MLOAD PUSH3 0x461BCD PUSH1 0xE5 SHL DUP2 MSTORE PUSH1 0x20 DUP2 DUP7 ADD MSTORE PUSH1 0x13 PUSH1 0x24 DUP3 ADD MSTORE PUSH19 0x414D4D3A207A65726F206C6971756964697479 PUSH1 0x68 SHL PUSH1 0x44 DUP3 ADD MSTORE PUSH1 0x64 SWAP1 REVERT JUMPDEST POP DUP1 ISZERO ISZERO PUSH2 0x3FB JUMP JUMPDEST POP CALLVALUE PUSH2 0x3A0 JUMPI DUP1 PUSH1 0x3 NOT CALLDATASIZE ADD SLT PUSH2 0x3A0 JUMPI PUSH1 0x20 SWAP1 PUSH2 0x643 PUSH2 0x7A8 JUMP JUMPDEST PUSH2 0x686 PUSH1 0x1 DUP1 PUSH1 0xA0 SHL SUB DUP1 SWAP3 AND DUP3 PUSH32 0x0 AND DUP2 EQ SWAP1 DUP2 SWAP4 DUP3 ISZERO PUSH2 0x6B2 JUMPI JUMPDEST POP POP PUSH2 0x89F JUMP JUMPDEST ISZERO PUSH2 0x6A4 JUMPI PUSH2 0x69D PUSH0 SLOAD PUSH1 0x1 SLOAD SWAP1 JUMPDEST PUSH1 0x24 CALLDATALOAD PUSH2 0x7DF JUMP JUMPDEST SWAP1 MLOAD SWAP1 DUP2 MSTORE RETURN JUMPDEST PUSH2 0x69D PUSH1 0x1 SLOAD PUSH0 SLOAD SWAP1 PUSH2 0x695 JUMP JUMPDEST PUSH32 0x0 AND EQ SWAP1 POP DUP6 DUP1 PUSH2 0x67F JUMP JUMPDEST POP CALLVALUE PUSH2 0x3A0 JUMPI PUSH0 CALLDATASIZE PUSH1 0x3 NOT ADD SLT PUSH2 0x3A0 JUMPI MLOAD PUSH32 0x0 PUSH1 0x1 PUSH1 0x1 PUSH1 0xA0 SHL SUB AND DUP2 MSTORE PUSH1 0x20 SWAP1 RETURN JUMPDEST POP CALLVALUE PUSH2 0x3A0 JUMPI PUSH0 CALLDATASIZE PUSH1 0x3 NOT ADD SLT PUSH2 0x3A0 JUMPI PUSH1 0x20 SWAP1 PUSH1 0x1 SLOAD SWAP1 MLOAD SWAP1 DUP2 MSTORE RETURN JUMPDEST POP CALLVALUE PUSH2 0x3A0 JUMPI PUSH0 CALLDATASIZE PUSH1 0x3 NOT ADD SLT PUSH2 0x3A0 JUMPI MLOAD PUSH32 0x0 PUSH1 0x1 PUSH1 0x1 PUSH1 0xA0 SHL SUB AND DUP2 MSTORE PUSH1 0x20 SWAP1 RETURN JUMPDEST POP CALLVALUE PUSH2 0x3A0 JUMPI PUSH1 0x60 CALLDATASIZE PUSH1 0x3 NOT ADD SLT PUSH2 0x3A0 JUMPI PUSH2 0x69D PUSH1 0x20 SWAP3 PUSH1 0x44 CALLDATALOAD SWAP1 PUSH1 0x24 CALLDATALOAD SWAP1 CALLDATALOAD PUSH2 0x7DF JUMP JUMPDEST PUSH1 0x4 CALLDATALOAD SWAP1 PUSH1 0x1 PUSH1 0x1 PUSH1 0xA0 SHL SUB DUP3 AND DUP3 SUB PUSH2 0x3A0 JUMPI JUMP JUMPDEST SWAP2 SWAP1 DUP3 ADD DUP1 SWAP3 GT PUSH2 0x7CB JUMPI JUMP JUMPDEST PUSH4 0x4E487B71 PUSH1 0xE0 SHL PUSH0 MSTORE PUSH1 0x11 PUSH1 0x4 MSTORE PUSH1 0x24 PUSH0 REVERT JUMPDEST DUP1 ISZERO SWAP1 DUP2 ISZERO DUP1 PUSH2 0x896 JUMPI JUMPDEST DUP1 PUSH2 0x88D JUMPI JUMPDEST ISZERO PUSH2 0x854 JUMPI PUSH2 0x26F2 SWAP1 DUP2 DUP2 MUL SWAP3 DUP2 DUP5 DIV DUP4 EQ OR ISZERO PUSH2 0x7CB JUMPI DUP5 MUL MUL SWAP3 DUP2 DUP5 DIV EQ DUP2 ISZERO OR ISZERO PUSH2 0x7CB JUMPI PUSH2 0x2710 SWAP2 DUP3 DUP2 MUL SWAP3 DUP2 DUP5 DIV EQ SWAP1 ISZERO OR ISZERO PUSH2 0x7CB JUMPI PUSH2 0x835 SWAP2 PUSH2 0x7BE JUMP JUMPDEST SWAP1 DUP2 ISZERO PUSH2 0x840 JUMPI DIV SWAP1 JUMP JUMPDEST PUSH4 0x4E487B71 PUSH1 0xE0 SHL PUSH0 MSTORE PUSH1 0x12 PUSH1 0x4 MSTORE PUSH1 0x24 PUSH0 REVERT JUMPDEST PUSH1 0x40 MLOAD PUSH3 0x461BCD PUSH1 0xE5 SHL DUP2 MSTORE PUSH1 0x20 PUSH1 0x4 DUP3 ADD MSTORE PUSH1 0x11 PUSH1 0x24 DUP3 ADD MSTORE PUSH17 0x1053534E881A5B9CDD59999A58DA595B9D PUSH1 0x7A SHL PUSH1 0x44 DUP3 ADD MSTORE PUSH1 0x64 SWAP1 REVERT JUMPDEST POP DUP4 ISZERO ISZERO PUSH2 0x7F0 JUMP JUMPDEST POP DUP3 ISZERO ISZERO PUSH2 0x7EA JUMP JUMPDEST ISZERO PUSH2 0x8A6 JUMPI JUMP JUMPDEST PUSH1 0x40 MLOAD PUSH3 0x461BCD PUSH1 0xE5 SHL DUP2 MSTORE PUSH1 0x20 PUSH1 0x4 DUP3 ADD MSTORE PUSH1 0xE PUSH1 0x24 DUP3 ADD MSTORE PUSH14 0x20A6A69D103130B2103A37B5B2B7 PUSH1 0x91 SHL PUSH1 0x44 DUP3 ADD MSTORE PUSH1 0x64 SWAP1 REVERT JUMPDEST SWAP1 PUSH1 0x1F DUP1 NOT SWAP2 ADD AND DUP2 ADD SWAP1 DUP2 LT PUSH8 0xFFFFFFFFFFFFFFFF DUP3 GT OR PUSH2 0x8FE JUMPI PUSH1 0x40 MSTORE JUMP JUMPDEST PUSH4 0x4E487B71 PUSH1 0xE0 SHL PUSH0 MSTORE PUSH1 0x41 PUSH1 0x4 MSTORE PUSH1 0x24 PUSH0 REVERT JUMPDEST SWAP1 DUP2 PUSH1 0x20 SWAP2 SUB SLT PUSH2 0x3A0 JUMPI MLOAD DUP1 ISZERO ISZERO DUP2 SUB PUSH2 0x3A0 JUMPI SWAP1 JUMP JUMPDEST SWAP2 SWAP1 DUP3 SUB SWAP2 DUP3 GT PUSH2 0x7CB JUMPI JUMP INVALID LOG2 PUSH5 0x6970667358 0x22 SLT KECCAK256 0x27 0xBA CREATE2 JUMPI DUP3 DUP5 SMOD INVALID SLOAD 0xE2 0xE6 0xAE 0xCF CODESIZE 0xE5 0x25 SWAP10 0xE0 0x2A 0xD1 PUSH14 0x95602F9159FEB1753C16D64736F PUSH13 0x63430008180033000000000000 "},"methodIdentifiers":{"FEE_BPS()":"bf333f2c","addLiquidity(uint256,uint256)":"9cd441da","getAmountOut(uint256,uint256,uint256)":"054d50d4","quote(address,uint256)":"8f79306e","reserveA()":"dc5fa6c5","reserveB()":"19e36f3b","swap(address,uint256,uint256,address)":"f3e6ea8a","tokenA()":"0fc63d10","tokenB()":"5f64b55b"}}}}}