{"contracts/SimpleAMM.sol":{"SimpleAMM":{"abi":[{"inputs":[{"internalType":"address","name":"_tokenA","type":"address"},{"internalType":"address","name":"_tokenB","type":"address"}],"stateMutability":"nonpayable","type":"constructor"},{"anonymous":false,"inputs":[{"indexed":false,"internalType":"uint256","name":"amountA","type":"uint256"},{"indexed":false,"internalType":"uint256","name":"amountB","type":"uint256"}],"name":"LiquidityAdded","type":"event"},{"anonymous":false,"inputs":[{"indexed":true,"internalType":"address","name":"tokenIn","type":"address"},{"indexed":false,"internalType":"uint256","name":"amountIn","type":"uint256"},{"indexed":false,"internalType":"uint256","name":"amountOut","type":"uint256"},{"indexed":true,"internalType":"address","name":"to","type":"address"}],"name":"Swapped","type":"event"},{"inputs":[],"name":"FEE_BPS","outputs":[{"internalType":"uint16","name":"","type":"uint16"}],"stateMutability":"view","type":"function"},{"inputs":[{"internalType":"uint256","name":"amountA","type":"uint256"},{"internalType":"uint256","name":"amountB","type":"uint256"}],"name":"addLiquidity","outputs":[],"stateMutability":"nonpayable","type":"function"},{"inputs":[{"internalType":"uint256","name":"amountIn","type":"uint256"},{"internalType":"uint256","name":"reserveIn","type":"uint256"},{"internalType":"uint256","name":"reserveOut","type":"uint256"}],"name":"getAmountOut","outputs":[{"internalType":"uint256","name":"","type":"uint256"}],"stateMutability":"pure","type":"function"},{"inputs":[{"internalType":"uint256","name":"amountIn","type":"uint256"},{"internalType":"address[]","name":"path","type":"address[]"}],"name":"getAmountsOut","outputs":[{"internalType":"uint256[]","name":"amounts","type":"uint256[]"}],"stateMutability":"view","type":"function"},{"inputs":[{"internalType":"address","name":"tokenIn","type":"address"},{"internalType":"uint256","name":"amountIn","type":"uint256"}],"name":"quote","outputs":[{"internalType":"uint256","name":"","type":"uint256"}],"stateMutability":"view","type":"function"},{"inputs":[],"name":"reserveA","outputs":[{"internalType":"uint256","name":"","type":"uint256"}],"stateMutability":"view","type":"function"},{"inputs":[],"name":"reserveB","outputs":[{"internalType":"uint256","name":"","type":"uint256"}],"stateMutability":"view","type":"function"},{"inputs":[{"internalType":"address","name":"tokenIn","type":"address"},{"internalType":"uint256","name":"amountIn","type":"uint256"},{"internalType":"uint256","name":"minOut","type":"uint256"},{"internalType":"address","name":"to","type":"address"}],"name":"swap","outputs":[{"internalType":"uint256","name":"amountOut","type":"uint256"}],"stateMutability":"nonpayable","type":"function"},{"inputs":[{"internalType":"uint256","name":"amountIn","type":"uint256"},{"internalType":"uint256","name":"amountOutMin","type":"uint256"},{"internalType":"address[]","name":"path","type":"address[]"},{"internalType":"address","name":"to","type":"address"},{"internalType":"uint256","name":"","type":"uint256"}],"name":"swapExactTokensForTokens","outputs":[{"internalType":"uint256[]","name":"amounts","type":"uint256[]"}],"stateMutability":"nonpayable","type":"function"},{"inputs":[],"name":"tokenA","outputs":[{"internalType":"address","name":"","type":"address"}],"stateMutability":"view","type":"function"},{"inputs":[],"name":"tokenB","outputs":[{"internalType":"address","name":"","type":"address"}],"stateMutability":"view","type":"function"}],"evm":{"bytecode":{"linkReferences":{},"object":"60c03461011657601f610dd438819003918201601f19168301916001600160401b0383118484101761011a57808492604094855283398101031261011657610052602061004b8361012e565b920161012e565b906001600160a01b038082161515908161010a575b50156100d35760805260a052604051610c919081610143823960805181818161014f015281816102c3015281816104e7015281816106740152610991015260a05181818161021c01528181610326015281816105410152818161057f015281816109f40152610c330152f35b60405162461bcd60e51b815260206004820152600f60248201526e20a6a69d103d32b937903a37b5b2b760891b6044820152606490fd5b9050821615155f610067565b5f80fd5b634e487b7160e01b5f52604160045260245ffd5b51906001600160a01b03821682036101165756fe604060808152600480361015610013575f80fd5b5f3560e01c908163054d50d4146106a35781630fc63d101461066057816319e36f3b1461064257816338ed1739146105ae5781635f64b55b1461056b5781638f79306e146104bb5781639cd441da14610260578163bf333f2c14610245578163d06ca61f146100f357508063dc5fa6c5146100d65763f3e6ea8a14610096575f80fd5b346100d25760803660031901126100d2576020906100cb6100b5610710565b6100bd6106fa565b906044359060243590610980565b9051908152f35b5f80fd5b50346100d2575f3660031901126100d2576020905f549051908152f35b82346100d257806003193601126100d25781359060243567ffffffffffffffff81116100d25761012690369085016106c9565b61013560028296939614610842565b1590816101f65761014585610887565b6001600160a01b037f0000000000000000000000000000000000000000000000000000000000000000811693909291831684148015610209575b6101889061091e565b6101f657506101996101e495610887565b16036101e8576101d05f54600154905b8351946101b58661089b565b6002865284366020880137806101ca876108ed565b52610782565b6101d98361090e565b525191829182610726565b0390f35b6101d06001545f54906101a9565b603290634e487b7160e01b5f525260245ffd5b50505f61018861021888610887565b84167f0000000000000000000000000000000000000000000000000000000000000000851614905061017f565b82346100d2575f3660031901126100d25760209051601e8152f35b82346100d257806003193601126100d2578135602435811515806104b2575b156104795782516323b872dd60e01b808252338683019081523060208281019190915260408201869052926001600160a01b03929184908290819060600103815f877f0000000000000000000000000000000000000000000000000000000000000000165af190811561046f575f91610452575b501561041757855190815233878201908152306020820152604081018590529091839183919082905f90829060600103927f0000000000000000000000000000000000000000000000000000000000000000165af190811561040d575f916103e0575b50156103a6577f38f8a0c92f4c5b0b6877f878cb4c0c8d348a47b76d716c8e78f425043df9515b945061038a835f54610761565b5f5561039882600154610761565b6001558351928352820152a1005b8460649185519162461bcd60e51b835282015260156024820152741053534e881d1bdad95b90881a5b8819985a5b1959605a1b6044820152fd5b6104009150823d8411610406575b6103f881836108cb565b81019061095b565b86610356565b503d6103ee565b85513d5f823e3d90fd5b855162461bcd60e51b815280880184905260156024820152741053534e881d1bdad95b90481a5b8819985a5b1959605a1b6044820152606490fd5b6104699150843d8611610406576103f881836108cb565b886102f3565b87513d5f823e3d90fd5b825162461bcd60e51b81526020818601526013602482015272414d4d3a207a65726f206c697175696469747960681b6044820152606490fd5b5080151561027f565b82346100d257806003193601126100d2576020906104d7610710565b61051a60018060a01b03809216827f0000000000000000000000000000000000000000000000000000000000000000168114908193821561053f575b505061091e565b15610531576100cb5f54600154905b602435610782565b6100cb6001545f5490610529565b7f0000000000000000000000000000000000000000000000000000000000000000161490508580610513565b82346100d2575f3660031901126100d257517f00000000000000000000000000000000000000000000000000000000000000006001600160a01b03168152602090f35b82346100d25760a03660031901126100d25781359060443567ffffffffffffffff81116100d2576105e290369085016106c9565b936105eb6106fa565b946105f860028214610842565b156101f657506101e493610618918461061360243592610887565b610980565b8151926106248461089b565b6002845282366020860137610638846108ed565b526101d98361090e565b82346100d2575f3660031901126100d2576020906001549051908152f35b82346100d2575f3660031901126100d257517f00000000000000000000000000000000000000000000000000000000000000006001600160a01b03168152602090f35b82346100d25760603660031901126100d2576100cb602092604435906024359035610782565b9181601f840112156100d25782359167ffffffffffffffff83116100d2576020808501948460051b0101116100d257565b606435906001600160a01b03821682036100d257565b600435906001600160a01b03821682036100d257565b60209060206040818301928281528551809452019301915f5b82811061074d575050505090565b83518552938101939281019260010161073f565b9190820180921161076e57565b634e487b7160e01b5f52601160045260245ffd5b801590811580610839575b80610830575b156107f7576126f290818102928184048314171561076e5784020292818404148115171561076e576127109182810292818404149015171561076e576107d891610761565b9081156107e3570490565b634e487b7160e01b5f52601260045260245ffd5b60405162461bcd60e51b81526020600482015260116024820152701053534e881a5b9cdd59999a58da595b9d607a1b6044820152606490fd5b50831515610793565b5082151561078d565b1561084957565b60405162461bcd60e51b8152602060048201526016602482015275414d4d3a20322d746f6b656e2070617468206f6e6c7960501b6044820152606490fd5b356001600160a01b03811681036100d25790565b6060810190811067ffffffffffffffff8211176108b757604052565b634e487b7160e01b5f52604160045260245ffd5b90601f8019910116810190811067ffffffffffffffff8211176108b757604052565b8051156108fa5760200190565b634e487b7160e01b5f52603260045260245ffd5b8051600110156108fa5760400190565b1561092557565b60405162461bcd60e51b815260206004820152600e60248201526d20a6a69d103130b2103a37b5b2b760911b6044820152606490fd5b908160209103126100d2575180151581036100d25790565b9190820391821161076e57565b6001600160a01b03949293908516917f000000000000000000000000000000000000000000000000000000000000000086811684149290838015610c30575b6109c89061091e565b8215610bfc578315610bee576109e45f54600154905b85610782565b968710610bb9578315610bb357507f0000000000000000000000000000000000000000000000000000000000000000925b604080516323b872dd60e01b8152336004820152306024820152604481018590529094602093909184816064815f8c5af190811561046f575f91610b96575b5015610b615789604485925f8c9d8a9d9c9d51968795869463a9059cbb60e01b8652169d8e60048601526024850152165af190811561040d575f91610b44575b5015610b0e577f50994f8bcf54474cf3e35793e3537d1f44ec39d92f19a3d7a01b36723b886fc0939291889115610aed57610ad0835f54610761565b5f55610ade82600154610973565b6001555b8351928352820152a3565b610af983600154610761565b600155610b07825f54610973565b5f55610ae2565b835162461bcd60e51b815260048101839052600f60248201526e1053534e881bdd5d0819985a5b1959608a1b6044820152606490fd5b610b5b9150833d8511610406576103f881836108cb565b5f610a94565b855162461bcd60e51b815260048101859052600e60248201526d1053534e881a5b8819985a5b195960921b6044820152606490fd5b610bad9150853d8711610406576103f881836108cb565b5f610a54565b92610a15565b60405162461bcd60e51b815260206004820152600d60248201526c414d4d3a20736c69707061676560981b6044820152606490fd5b6109e46001545f54906109de565b60405162461bcd60e51b815260206004820152600c60248201526b20a6a69d103d32b9379034b760a11b6044820152606490fd5b507f0000000000000000000000000000000000000000000000000000000000000000881685146109bf56fea2646970667358221220f167f6f4e0f2f29f4bd9a31fe9ea525e397166eb73e5cfd95e91a4c58ae8620364736f6c63430008180033","opcodes":"PUSH1 0xC0 CALLVALUE PUSH2 0x116 JUMPI PUSH1 0x1F PUSH2 0xDD4 CODESIZE DUP2 SWAP1 SUB SWAP2 DUP3 ADD PUSH1 0x1F NOT AND DUP4 ADD SWAP2 PUSH1 0x1 PUSH1 0x1 PUSH1 0x40 SHL SUB DUP4 GT DUP5 DUP5 LT OR PUSH2 0x11A JUMPI DUP1 DUP5 SWAP3 PUSH1 0x40 SWAP5 DUP6 MSTORE DUP4 CODECOPY DUP2 ADD SUB SLT PUSH2 0x116 JUMPI PUSH2 0x52 PUSH1 0x20 PUSH2 0x4B DUP4 PUSH2 0x12E JUMP JUMPDEST SWAP3 ADD PUSH2 0x12E JUMP JUMPDEST SWAP1 PUSH1 0x1 PUSH1 0x1 PUSH1 0xA0 SHL SUB DUP1 DUP3 AND ISZERO ISZERO SWAP1 DUP2 PUSH2 0x10A JUMPI JUMPDEST POP ISZERO PUSH2 0xD3 JUMPI PUSH1 0x80 MSTORE PUSH1 0xA0 MSTORE PUSH1 0x40 MLOAD PUSH2 0xC91 SWAP1 DUP2 PUSH2 0x143 DUP3 CODECOPY PUSH1 0x80 MLOAD DUP2 DUP2 DUP2 PUSH2 0x14F ADD MSTORE DUP2 DUP2 PUSH2 0x2C3 ADD MSTORE DUP2 DUP2 PUSH2 0x4E7 ADD MSTORE DUP2 DUP2 PUSH2 0x674 ADD MSTORE PUSH2 0x991 ADD MSTORE PUSH1 0xA0 MLOAD DUP2 DUP2 DUP2 PUSH2 0x21C ADD MSTORE DUP2 DUP2 PUSH2 0x326 ADD MSTORE DUP2 DUP2 PUSH2 0x541 ADD MSTORE DUP2 DUP2 PUSH2 0x57F ADD MSTORE DUP2 DUP2 PUSH2 0x9F4 ADD MSTORE PUSH2 0xC33 ADD MSTORE RETURN JUMPDEST PUSH1 0x40 MLOAD PUSH3 0x461BCD PUSH1 0xE5 SHL DUP2 MSTORE PUSH1 0x20 PUSH1 0x4 DUP3 ADD MSTORE PUSH1 0xF PUSH1 0x24 DUP3 ADD MSTORE PUSH15 0x20A6A69D103D32B937903A37B5B2B7 PUSH1 0x89 SHL PUSH1 0x44 DUP3 ADD MSTORE PUSH1 0x64 SWAP1 REVERT JUMPDEST SWAP1 POP DUP3 AND ISZERO ISZERO PUSH0 PUSH2 0x67 JUMP JUMPDEST PUSH0 DUP1 REVERT JUMPDEST PUSH4 0x4E487B71 PUSH1 0xE0 SHL PUSH0 MSTORE PUSH1 0x41 PUSH1 0x4 MSTORE PUSH1 0x24 PUSH0 REVERT JUMPDEST MLOAD SWAP1 PUSH1 0x1 PUSH1 0x1 PUSH1 0xA0 SHL SUB DUP3 AND DUP3 SUB PUSH2 0x116 JUMPI JUMP INVALID PUSH1 0x40 PUSH1 0x80 DUP2 MSTORE PUSH1 0x4 DUP1 CALLDATASIZE LT ISZERO PUSH2 0x13 JUMPI PUSH0 DUP1 REVERT JUMPDEST PUSH0 CALLDATALOAD PUSH1 0xE0 SHR SWAP1 DUP2 PUSH4 0x54D50D4 EQ PUSH2 0x6A3 JUMPI DUP2 PUSH4 0xFC63D10 EQ PUSH2 0x660 JUMPI DUP2 PUSH4 0x19E36F3B EQ PUSH2 0x642 JUMPI DUP2 PUSH4 0x38ED1739 EQ PUSH2 0x5AE JUMPI DUP2 PUSH4 0x5F64B55B EQ PUSH2 0x56B JUMPI DUP2 PUSH4 0x8F79306E EQ PUSH2 0x4BB JUMPI DUP2 PUSH4 0x9CD441DA EQ PUSH2 0x260 JUMPI DUP2 PUSH4 0xBF333F2C EQ PUSH2 0x245 JUMPI DUP2 PUSH4 0xD06CA61F EQ PUSH2 0xF3 JUMPI POP DUP1 PUSH4 0xDC5FA6C5 EQ PUSH2 0xD6 JUMPI PUSH4 0xF3E6EA8A EQ PUSH2 0x96 JUMPI PUSH0 DUP1 REVERT JUMPDEST CALLVALUE PUSH2 0xD2 JUMPI PUSH1 0x80 CALLDATASIZE PUSH1 0x3 NOT ADD SLT PUSH2 0xD2 JUMPI PUSH1 0x20 SWAP1 PUSH2 0xCB PUSH2 0xB5 PUSH2 0x710 JUMP JUMPDEST PUSH2 0xBD PUSH2 0x6FA JUMP JUMPDEST SWAP1 PUSH1 0x44 CALLDATALOAD SWAP1 PUSH1 0x24 CALLDATALOAD SWAP1 PUSH2 0x980 JUMP JUMPDEST SWAP1 MLOAD SWAP1 DUP2 MSTORE RETURN JUMPDEST PUSH0 DUP1 REVERT JUMPDEST POP CALLVALUE PUSH2 0xD2 JUMPI PUSH0 CALLDATASIZE PUSH1 0x3 NOT ADD SLT PUSH2 0xD2 JUMPI PUSH1 0x20 SWAP1 PUSH0 SLOAD SWAP1 MLOAD SWAP1 DUP2 MSTORE RETURN JUMPDEST DUP3 CALLVALUE PUSH2 0xD2 JUMPI DUP1 PUSH1 0x3 NOT CALLDATASIZE ADD SLT PUSH2 0xD2 JUMPI DUP2 CALLDATALOAD SWAP1 PUSH1 0x24 CALLDATALOAD PUSH8 0xFFFFFFFFFFFFFFFF DUP2 GT PUSH2 0xD2 JUMPI PUSH2 0x126 SWAP1 CALLDATASIZE SWAP1 DUP6 ADD PUSH2 0x6C9 JUMP JUMPDEST PUSH2 0x135 PUSH1 0x2 DUP3 SWAP7 SWAP4 SWAP7 EQ PUSH2 0x842 JUMP JUMPDEST ISZERO SWAP1 DUP2 PUSH2 0x1F6 JUMPI PUSH2 0x145 DUP6 PUSH2 0x887 JUMP JUMPDEST PUSH1 0x1 PUSH1 0x1 PUSH1 0xA0 SHL SUB PUSH32 0x0 DUP2 AND SWAP4 SWAP1 SWAP3 SWAP2 DUP4 AND DUP5 EQ DUP1 ISZERO PUSH2 0x209 JUMPI JUMPDEST PUSH2 0x188 SWAP1 PUSH2 0x91E JUMP JUMPDEST PUSH2 0x1F6 JUMPI POP PUSH2 0x199 PUSH2 0x1E4 SWAP6 PUSH2 0x887 JUMP JUMPDEST AND SUB PUSH2 0x1E8 JUMPI PUSH2 0x1D0 PUSH0 SLOAD PUSH1 0x1 SLOAD SWAP1 JUMPDEST DUP4 MLOAD SWAP5 PUSH2 0x1B5 DUP7 PUSH2 0x89B JUMP JUMPDEST PUSH1 0x2 DUP7 MSTORE DUP5 CALLDATASIZE PUSH1 0x20 DUP9 ADD CALLDATACOPY DUP1 PUSH2 0x1CA DUP8 PUSH2 0x8ED JUMP JUMPDEST MSTORE PUSH2 0x782 JUMP JUMPDEST PUSH2 0x1D9 DUP4 PUSH2 0x90E JUMP JUMPDEST MSTORE MLOAD SWAP2 DUP3 SWAP2 DUP3 PUSH2 0x726 JUMP JUMPDEST SUB SWAP1 RETURN JUMPDEST PUSH2 0x1D0 PUSH1 0x1 SLOAD PUSH0 SLOAD SWAP1 PUSH2 0x1A9 JUMP JUMPDEST PUSH1 0x32 SWAP1 PUSH4 0x4E487B71 PUSH1 0xE0 SHL PUSH0 MSTORE MSTORE PUSH1 0x24 PUSH0 REVERT JUMPDEST POP POP PUSH0 PUSH2 0x188 PUSH2 0x218 DUP9 PUSH2 0x887 JUMP JUMPDEST DUP5 AND PUSH32 0x0 DUP6 AND EQ SWAP1 POP PUSH2 0x17F JUMP JUMPDEST DUP3 CALLVALUE PUSH2 0xD2 JUMPI PUSH0 CALLDATASIZE PUSH1 0x3 NOT ADD SLT PUSH2 0xD2 JUMPI PUSH1 0x20 SWAP1 MLOAD PUSH1 0x1E DUP2 MSTORE RETURN JUMPDEST DUP3 CALLVALUE PUSH2 0xD2 JUMPI DUP1 PUSH1 0x3 NOT CALLDATASIZE ADD SLT PUSH2 0xD2 JUMPI DUP2 CALLDATALOAD PUSH1 0x24 CALLDATALOAD DUP2 ISZERO ISZERO DUP1 PUSH2 0x4B2 JUMPI JUMPDEST ISZERO PUSH2 0x479 JUMPI DUP3 MLOAD PUSH4 0x23B872DD PUSH1 0xE0 SHL DUP1 DUP3 MSTORE CALLER DUP7 DUP4 ADD SWAP1 DUP2 MSTORE ADDRESS PUSH1 0x20 DUP3 DUP2 ADD SWAP2 SWAP1 SWAP2 MSTORE PUSH1 0x40 DUP3 ADD DUP7 SWAP1 MSTORE SWAP3 PUSH1 0x1 PUSH1 0x1 PUSH1 0xA0 SHL SUB SWAP3 SWAP2 DUP5 SWAP1 DUP3 SWAP1 DUP2 SWAP1 PUSH1 0x60 ADD SUB DUP2 PUSH0 DUP8 PUSH32 0x0 AND GAS CALL SWAP1 DUP2 ISZERO PUSH2 0x46F JUMPI PUSH0 SWAP2 PUSH2 0x452 JUMPI JUMPDEST POP ISZERO PUSH2 0x417 JUMPI DUP6 MLOAD SWAP1 DUP2 MSTORE CALLER DUP8 DUP3 ADD SWAP1 DUP2 MSTORE ADDRESS PUSH1 0x20 DUP3 ADD MSTORE PUSH1 0x40 DUP2 ADD DUP6 SWAP1 MSTORE SWAP1 SWAP2 DUP4 SWAP2 DUP4 SWAP2 SWAP1 DUP3 SWAP1 PUSH0 SWAP1 DUP3 SWAP1 PUSH1 0x60 ADD SUB SWAP3 PUSH32 0x0 AND GAS CALL SWAP1 DUP2 ISZERO PUSH2 0x40D JUMPI PUSH0 SWAP2 PUSH2 0x3E0 JUMPI JUMPDEST POP ISZERO PUSH2 0x3A6 JUMPI PUSH32 0x38F8A0C92F4C5B0B6877F878CB4C0C8D348A47B76D716C8E78F425043DF9515B SWAP5 POP PUSH2 0x38A DUP4 PUSH0 SLOAD PUSH2 0x761 JUMP JUMPDEST PUSH0 SSTORE PUSH2 0x398 DUP3 PUSH1 0x1 SLOAD PUSH2 0x761 JUMP JUMPDEST PUSH1 0x1 SSTORE DUP4 MLOAD SWAP3 DUP4 MSTORE DUP3 ADD MSTORE LOG1 STOP JUMPDEST DUP5 PUSH1 0x64 SWAP2 DUP6 MLOAD SWAP2 PUSH3 0x461BCD PUSH1 0xE5 SHL DUP4 MSTORE DUP3 ADD MSTORE PUSH1 0x15 PUSH1 0x24 DUP3 ADD MSTORE PUSH21 0x1053534E881D1BDAD95B90881A5B8819985A5B1959 PUSH1 0x5A SHL PUSH1 0x44 DUP3 ADD MSTORE REVERT JUMPDEST PUSH2 0x400 SWAP2 POP DUP3 RETURNDATASIZE DUP5 GT PUSH2 0x406 JUMPI JUMPDEST PUSH2 0x3F8 DUP2 DUP4 PUSH2 0x8CB JUMP JUMPDEST DUP2 ADD SWAP1 PUSH2 0x95B JUMP JUMPDEST DUP7 PUSH2 0x356 JUMP JUMPDEST POP RETURNDATASIZE PUSH2 0x3EE JUMP JUMPDEST DUP6 MLOAD RETURNDATASIZE PUSH0 DUP3 RETURNDATACOPY RETURNDATASIZE SWAP1 REVERT JUMPDEST DUP6 MLOAD PUSH3 0x461BCD PUSH1 0xE5 SHL DUP2 MSTORE DUP1 DUP9 ADD DUP5 SWAP1 MSTORE PUSH1 0x15 PUSH1 0x24 DUP3 ADD MSTORE PUSH21 0x1053534E881D1BDAD95B90481A5B8819985A5B1959 PUSH1 0x5A SHL PUSH1 0x44 DUP3 ADD MSTORE PUSH1 0x64 SWAP1 REVERT JUMPDEST PUSH2 0x469 SWAP2 POP DUP5 RETURNDATASIZE DUP7 GT PUSH2 0x406 JUMPI PUSH2 0x3F8 DUP2 DUP4 PUSH2 0x8CB JUMP JUMPDEST DUP9 PUSH2 0x2F3 JUMP JUMPDEST DUP8 MLOAD RETURNDATASIZE PUSH0 DUP3 RETURNDATACOPY RETURNDATASIZE SWAP1 REVERT JUMPDEST DUP3 MLOAD PUSH3 0x461BCD PUSH1 0xE5 SHL DUP2 MSTORE PUSH1 0x20 DUP2 DUP7 ADD MSTORE PUSH1 0x13 PUSH1 0x24 DUP3 ADD MSTORE PUSH19 0x414D4D3A207A65726F206C6971756964697479 PUSH1 0x68 SHL PUSH1 0x44 DUP3 ADD MSTORE PUSH1 0x64 SWAP1 REVERT JUMPDEST POP DUP1 ISZERO ISZERO PUSH2 0x27F JUMP JUMPDEST DUP3 CALLVALUE PUSH2 0xD2 JUMPI DUP1 PUSH1 0x3 NOT CALLDATASIZE ADD SLT PUSH2 0xD2 JUMPI PUSH1 0x20 SWAP1 PUSH2 0x4D7 PUSH2 0x710 JUMP JUMPDEST PUSH2 0x51A PUSH1 0x1 DUP1 PUSH1 0xA0 SHL SUB DUP1 SWAP3 AND DUP3 PUSH32 0x0 AND DUP2 EQ SWAP1 DUP2 SWAP4 DUP3 ISZERO PUSH2 0x53F JUMPI JUMPDEST POP POP PUSH2 0x91E JUMP JUMPDEST ISZERO PUSH2 0x531 JUMPI PUSH2 0xCB PUSH0 SLOAD PUSH1 0x1 SLOAD SWAP1 JUMPDEST PUSH1 0x24 CALLDATALOAD PUSH2 0x782 JUMP JUMPDEST PUSH2 0xCB PUSH1 0x1 SLOAD PUSH0 SLOAD SWAP1 PUSH2 0x529 JUMP JUMPDEST PUSH32 0x0 AND EQ SWAP1 POP DUP6 DUP1 PUSH2 0x513 JUMP JUMPDEST DUP3 CALLVALUE PUSH2 0xD2 JUMPI PUSH0 CALLDATASIZE PUSH1 0x3 NOT ADD SLT PUSH2 0xD2 JUMPI MLOAD PUSH32 0x0 PUSH1 0x1 PUSH1 0x1 PUSH1 0xA0 SHL SUB AND DUP2 MSTORE PUSH1 0x20 SWAP1 RETURN JUMPDEST DUP3 CALLVALUE PUSH2 0xD2 JUMPI PUSH1 0xA0 CALLDATASIZE PUSH1 0x3 NOT ADD SLT PUSH2 0xD2 JUMPI DUP2 CALLDATALOAD SWAP1 PUSH1 0x44 CALLDATALOAD PUSH8 0xFFFFFFFFFFFFFFFF DUP2 GT PUSH2 0xD2 JUMPI PUSH2 0x5E2 SWAP1 CALLDATASIZE SWAP1 DUP6 ADD PUSH2 0x6C9 JUMP JUMPDEST SWAP4 PUSH2 0x5EB PUSH2 0x6FA JUMP JUMPDEST SWAP5 PUSH2 0x5F8 PUSH1 0x2 DUP3 EQ PUSH2 0x842 JUMP JUMPDEST ISZERO PUSH2 0x1F6 JUMPI POP PUSH2 0x1E4 SWAP4 PUSH2 0x618 SWAP2 DUP5 PUSH2 0x613 PUSH1 0x24 CALLDATALOAD SWAP3 PUSH2 0x887 JUMP JUMPDEST PUSH2 0x980 JUMP JUMPDEST DUP2 MLOAD SWAP3 PUSH2 0x624 DUP5 PUSH2 0x89B JUMP JUMPDEST PUSH1 0x2 DUP5 MSTORE DUP3 CALLDATASIZE PUSH1 0x20 DUP7 ADD CALLDATACOPY PUSH2 0x638 DUP5 PUSH2 0x8ED JUMP JUMPDEST MSTORE PUSH2 0x1D9 DUP4 PUSH2 0x90E JUMP JUMPDEST DUP3 CALLVALUE PUSH2 0xD2 JUMPI PUSH0 CALLDATASIZE PUSH1 0x3 NOT ADD SLT PUSH2 0xD2 JUMPI PUSH1 0x20 SWAP1 PUSH1 0x1 SLOAD SWAP1 MLOAD SWAP1 DUP2 MSTORE RETURN JUMPDEST DUP3 CALLVALUE PUSH2 0xD2 JUMPI PUSH0 CALLDATASIZE PUSH1 0x3 NOT ADD SLT PUSH2 0xD2 JUMPI MLOAD PUSH32 0x0 PUSH1 0x1 PUSH1 0x1 PUSH1 0xA0 SHL SUB AND DUP2 MSTORE PUSH1 0x20 SWAP1 RETURN JUMPDEST DUP3 CALLVALUE PUSH2 0xD2 JUMPI PUSH1 0x60 CALLDATASIZE PUSH1 0x3 NOT ADD SLT PUSH2 0xD2 JUMPI PUSH2 0xCB PUSH1 0x20 SWAP3 PUSH1 0x44 CALLDATALOAD SWAP1 PUSH1 0x24 CALLDATALOAD SWAP1 CALLDATALOAD PUSH2 0x782 JUMP JUMPDEST SWAP2 DUP2 PUSH1 0x1F DUP5 ADD SLT ISZERO PUSH2 0xD2 JUMPI DUP3 CALLDATALOAD SWAP2 PUSH8 0xFFFFFFFFFFFFFFFF DUP4 GT PUSH2 0xD2 JUMPI PUSH1 0x20 DUP1 DUP6 ADD SWAP5 DUP5 PUSH1 0x5 SHL ADD ADD GT PUSH2 0xD2 JUMPI JUMP JUMPDEST PUSH1 0x64 CALLDATALOAD SWAP1 PUSH1 0x1 PUSH1 0x1 PUSH1 0xA0 SHL SUB DUP3 AND DUP3 SUB PUSH2 0xD2 JUMPI JUMP JUMPDEST PUSH1 0x4 CALLDATALOAD SWAP1 PUSH1 0x1 PUSH1 0x1 PUSH1 0xA0 SHL SUB DUP3 AND DUP3 SUB PUSH2 0xD2 JUMPI JUMP JUMPDEST PUSH1 0x20 SWAP1 PUSH1 0x20 PUSH1 0x40 DUP2 DUP4 ADD SWAP3 DUP3 DUP2 MSTORE DUP6 MLOAD DUP1 SWAP5 MSTORE ADD SWAP4 ADD SWAP2 PUSH0 JUMPDEST DUP3 DUP2 LT PUSH2 0x74D JUMPI POP POP POP POP SWAP1 JUMP JUMPDEST DUP4 MLOAD DUP6 MSTORE SWAP4 DUP2 ADD SWAP4 SWAP3 DUP2 ADD SWAP3 PUSH1 0x1 ADD PUSH2 0x73F JUMP JUMPDEST SWAP2 SWAP1 DUP3 ADD DUP1 SWAP3 GT PUSH2 0x76E JUMPI JUMP JUMPDEST PUSH4 0x4E487B71 PUSH1 0xE0 SHL PUSH0 MSTORE PUSH1 0x11 PUSH1 0x4 MSTORE PUSH1 0x24 PUSH0 REVERT JUMPDEST DUP1 ISZERO SWAP1 DUP2 ISZERO DUP1 PUSH2 0x839 JUMPI JUMPDEST DUP1 PUSH2 0x830 JUMPI JUMPDEST ISZERO PUSH2 0x7F7 JUMPI PUSH2 0x26F2 SWAP1 DUP2 DUP2 MUL SWAP3 DUP2 DUP5 DIV DUP4 EQ OR ISZERO PUSH2 0x76E JUMPI DUP5 MUL MUL SWAP3 DUP2 DUP5 DIV EQ DUP2 ISZERO OR ISZERO PUSH2 0x76E JUMPI PUSH2 0x2710 SWAP2 DUP3 DUP2 MUL SWAP3 DUP2 DUP5 DIV EQ SWAP1 ISZERO OR ISZERO PUSH2 0x76E JUMPI PUSH2 0x7D8 SWAP2 PUSH2 0x761 JUMP JUMPDEST SWAP1 DUP2 ISZERO PUSH2 0x7E3 JUMPI DIV SWAP1 JUMP JUMPDEST PUSH4 0x4E487B71 PUSH1 0xE0 SHL PUSH0 MSTORE PUSH1 0x12 PUSH1 0x4 MSTORE PUSH1 0x24 PUSH0 REVERT JUMPDEST PUSH1 0x40 MLOAD PUSH3 0x461BCD PUSH1 0xE5 SHL DUP2 MSTORE PUSH1 0x20 PUSH1 0x4 DUP3 ADD MSTORE PUSH1 0x11 PUSH1 0x24 DUP3 ADD MSTORE PUSH17 0x1053534E881A5B9CDD59999A58DA595B9D PUSH1 0x7A SHL PUSH1 0x44 DUP3 ADD MSTORE PUSH1 0x64 SWAP1 REVERT JUMPDEST POP DUP4 ISZERO ISZERO PUSH2 0x793 JUMP JUMPDEST POP DUP3 ISZERO ISZERO PUSH2 0x78D JUMP JUMPDEST ISZERO PUSH2 0x849 JUMPI JUMP JUMPDEST PUSH1 0x40 MLOAD PUSH3 0x461BCD PUSH1 0xE5 SHL DUP2 MSTORE PUSH1 0x20 PUSH1 0x4 DUP3 ADD MSTORE PUSH1 0x16 PUSH1 0x24 DUP3 ADD MSTORE PUSH22 0x414D4D3A20322D746F6B656E2070617468206F6E6C79 PUSH1 0x50 SHL PUSH1 0x44 DUP3 ADD MSTORE PUSH1 0x64 SWAP1 REVERT JUMPDEST CALLDATALOAD PUSH1 0x1 PUSH1 0x1 PUSH1 0xA0 SHL SUB DUP2 AND DUP2 SUB PUSH2 0xD2 JUMPI SWAP1 JUMP JUMPDEST PUSH1 0x60 DUP2 ADD SWAP1 DUP2 LT PUSH8 0xFFFFFFFFFFFFFFFF DUP3 GT OR PUSH2 0x8B7 JUMPI PUSH1 0x40 MSTORE JUMP JUMPDEST PUSH4 0x4E487B71 PUSH1 0xE0 SHL PUSH0 MSTORE PUSH1 0x41 PUSH1 0x4 MSTORE PUSH1 0x24 PUSH0 REVERT JUMPDEST SWAP1 PUSH1 0x1F DUP1 NOT SWAP2 ADD AND DUP2 ADD SWAP1 DUP2 LT PUSH8 0xFFFFFFFFFFFFFFFF DUP3 GT OR PUSH2 0x8B7 JUMPI PUSH1 0x40 MSTORE JUMP JUMPDEST DUP1 MLOAD ISZERO PUSH2 0x8FA JUMPI PUSH1 0x20 ADD SWAP1 JUMP JUMPDEST PUSH4 0x4E487B71 PUSH1 0xE0 SHL PUSH0 MSTORE PUSH1 0x32 PUSH1 0x4 MSTORE PUSH1 0x24 PUSH0 REVERT JUMPDEST DUP1 MLOAD PUSH1 0x1 LT ISZERO PUSH2 0x8FA JUMPI PUSH1 0x40 ADD SWAP1 JUMP JUMPDEST ISZERO PUSH2 0x925 JUMPI JUMP JUMPDEST PUSH1 0x40 MLOAD PUSH3 0x461BCD PUSH1 0xE5 SHL DUP2 MSTORE PUSH1 0x20 PUSH1 0x4 DUP3 ADD MSTORE PUSH1 0xE PUSH1 0x24 DUP3 ADD MSTORE PUSH14 0x20A6A69D103130B2103A37B5B2B7 PUSH1 0x91 SHL PUSH1 0x44 DUP3 ADD MSTORE PUSH1 0x64 SWAP1 REVERT JUMPDEST SWAP1 DUP2 PUSH1 0x20 SWAP2 SUB SLT PUSH2 0xD2 JUMPI MLOAD DUP1 ISZERO ISZERO DUP2 SUB PUSH2 0xD2 JUMPI SWAP1 JUMP JUMPDEST SWAP2 SWAP1 DUP3 SUB SWAP2 DUP3 GT PUSH2 0x76E JUMPI JUMP JUMPDEST PUSH1 0x1 PUSH1 0x1 PUSH1 0xA0 SHL SUB SWAP5 SWAP3 SWAP4 SWAP1 DUP6 AND SWAP2 PUSH32 0x0 DUP7 DUP2 AND DUP5 EQ SWAP3 SWAP1 DUP4 DUP1 ISZERO PUSH2 0xC30 JUMPI JUMPDEST PUSH2 0x9C8 SWAP1 PUSH2 0x91E JUMP JUMPDEST DUP3 ISZERO PUSH2 0xBFC JUMPI DUP4 ISZERO PUSH2 0xBEE JUMPI PUSH2 0x9E4 PUSH0 SLOAD PUSH1 0x1 SLOAD SWAP1 JUMPDEST DUP6 PUSH2 0x782 JUMP JUMPDEST SWAP7 DUP8 LT PUSH2 0xBB9 JUMPI DUP4 ISZERO PUSH2 0xBB3 JUMPI POP PUSH32 0x0 SWAP3 JUMPDEST PUSH1 0x40 DUP1 MLOAD PUSH4 0x23B872DD PUSH1 0xE0 SHL DUP2 MSTORE CALLER PUSH1 0x4 DUP3 ADD MSTORE ADDRESS PUSH1 0x24 DUP3 ADD MSTORE PUSH1 0x44 DUP2 ADD DUP6 SWAP1 MSTORE SWAP1 SWAP5 PUSH1 0x20 SWAP4 SWAP1 SWAP2 DUP5 DUP2 PUSH1 0x64 DUP2 PUSH0 DUP13 GAS CALL SWAP1 DUP2 ISZERO PUSH2 0x46F JUMPI PUSH0 SWAP2 PUSH2 0xB96 JUMPI JUMPDEST POP ISZERO PUSH2 0xB61 JUMPI DUP10 PUSH1 0x44 DUP6 SWAP3 PUSH0 DUP13 SWAP14 DUP11 SWAP14 SWAP13 SWAP14 MLOAD SWAP7 DUP8 SWAP6 DUP7 SWAP5 PUSH4 0xA9059CBB PUSH1 0xE0 SHL DUP7 MSTORE AND SWAP14 DUP15 PUSH1 0x4 DUP7 ADD MSTORE PUSH1 0x24 DUP6 ADD MSTORE AND GAS CALL SWAP1 DUP2 ISZERO PUSH2 0x40D JUMPI PUSH0 SWAP2 PUSH2 0xB44 JUMPI JUMPDEST POP ISZERO PUSH2 0xB0E JUMPI PUSH32 0x50994F8BCF54474CF3E35793E3537D1F44EC39D92F19A3D7A01B36723B886FC0 SWAP4 SWAP3 SWAP2 DUP9 SWAP2 ISZERO PUSH2 0xAED JUMPI PUSH2 0xAD0 DUP4 PUSH0 SLOAD PUSH2 0x761 JUMP JUMPDEST PUSH0 SSTORE PUSH2 0xADE DUP3 PUSH1 0x1 SLOAD PUSH2 0x973 JUMP JUMPDEST PUSH1 0x1 SSTORE JUMPDEST DUP4 MLOAD SWAP3 DUP4 MSTORE DUP3 ADD MSTORE LOG3 JUMP JUMPDEST PUSH2 0xAF9 DUP4 PUSH1 0x1 SLOAD PUSH2 0x761 JUMP JUMPDEST PUSH1 0x1 SSTORE PUSH2 0xB07 DUP3 PUSH0 SLOAD PUSH2 0x973 JUMP JUMPDEST PUSH0 SSTORE PUSH2 0xAE2 JUMP JUMPDEST DUP4 MLOAD PUSH3 0x461BCD PUSH1 0xE5 SHL DUP2 MSTORE PUSH1 0x4 DUP2 ADD DUP4 SWAP1 MSTORE PUSH1 0xF PUSH1 0x24 DUP3 ADD MSTORE PUSH15 0x1053534E881BDD5D0819985A5B1959 PUSH1 0x8A SHL PUSH1 0x44 DUP3 ADD MSTORE PUSH1 0x64 SWAP1 REVERT JUMPDEST PUSH2 0xB5B SWAP2 POP DUP4 RETURNDATASIZE DUP6 GT PUSH2 0x406 JUMPI PUSH2 0x3F8 DUP2 DUP4 PUSH2 0x8CB JUMP JUMPDEST PUSH0 PUSH2 0xA94 JUMP JUMPDEST DUP6 MLOAD PUSH3 0x461BCD PUSH1 0xE5 SHL DUP2 MSTORE PUSH1 0x4 DUP2 ADD DUP6 SWAP1 MSTORE PUSH1 0xE PUSH1 0x24 DUP3 ADD MSTORE PUSH14 0x1053534E881A5B8819985A5B1959 PUSH1 0x92 SHL PUSH1 0x44 DUP3 ADD MSTORE PUSH1 0x64 SWAP1 REVERT JUMPDEST PUSH2 0xBAD SWAP2 POP DUP6 RETURNDATASIZE DUP8 GT PUSH2 0x406 JUMPI PUSH2 0x3F8 DUP2 DUP4 PUSH2 0x8CB JUMP JUMPDEST PUSH0 PUSH2 0xA54 JUMP JUMPDEST SWAP3 PUSH2 0xA15 JUMP JUMPDEST PUSH1 0x40 MLOAD PUSH3 0x461BCD PUSH1 0xE5 SHL DUP2 MSTORE PUSH1 0x20 PUSH1 0x4 DUP3 ADD MSTORE PUSH1 0xD PUSH1 0x24 DUP3 ADD MSTORE PUSH13 0x414D4D3A20736C697070616765 PUSH1 0x98 SHL PUSH1 0x44 DUP3 ADD MSTORE PUSH1 0x64 SWAP1 REVERT JUMPDEST PUSH2 0x9E4 PUSH1 0x1 SLOAD PUSH0 SLOAD SWAP1 PUSH2 0x9DE JUMP JUMPDEST PUSH1 0x40 MLOAD PUSH3 0x461BCD PUSH1 0xE5 SHL DUP2 MSTORE PUSH1 0x20 PUSH1 0x4 DUP3 ADD MSTORE PUSH1 0xC PUSH1 0x24 DUP3 ADD MSTORE PUSH12 0x20A6A69D103D32B9379034B7 PUSH1 0xA1 SHL PUSH1 0x44 DUP3 ADD MSTORE PUSH1 0x64 SWAP1 REVERT JUMPDEST POP PUSH32 0x0 DUP9 AND DUP6 EQ PUSH2 0x9BF JUMP INVALID LOG2 PUSH5 0x6970667358 0x22 SLT KECCAK256 CALL PUSH8 0xF6F4E0F2F29F4BD9 LOG3 0x1F 0xE9 0xEA MSTORE MCOPY CODECOPY PUSH18 0x66EB73E5CFD95E91A4C58AE8620364736F6C PUSH4 0x43000818 STOP CALLER "},"methodIdentifiers":{"FEE_BPS()":"bf333f2c","addLiquidity(uint256,uint256)":"9cd441da","getAmountOut(uint256,uint256,uint256)":"054d50d4","getAmountsOut(uint256,address[])":"d06ca61f","quote(address,uint256)":"8f79306e","reserveA()":"dc5fa6c5","reserveB()":"19e36f3b","swap(address,uint256,uint256,address)":"f3e6ea8a","swapExactTokensForTokens(uint256,uint256,address[],address,uint256)":"38ed1739","tokenA()":"0fc63d10","tokenB()":"5f64b55b"}}}}}