{"contracts/FollowerRegistry.sol":{"FollowerRegistry":{"abi":[{"anonymous":false,"inputs":[{"indexed":true,"internalType":"address","name":"follower","type":"address"},{"indexed":true,"internalType":"address","name":"leader","type":"address"}],"name":"Followed","type":"event"},{"anonymous":false,"inputs":[{"indexed":true,"internalType":"address","name":"follower","type":"address"},{"indexed":true,"internalType":"address","name":"leader","type":"address"}],"name":"Unfollowed","type":"event"},{"anonymous":false,"inputs":[{"indexed":true,"internalType":"address","name":"user","type":"address"},{"indexed":false,"internalType":"uint256","name":"virtualUsdc","type":"uint256"}],"name":"VaultCreated","type":"event"},{"anonymous":false,"inputs":[{"indexed":true,"internalType":"address","name":"user","type":"address"},{"indexed":false,"internalType":"uint256","name":"virtualUsdc","type":"uint256"}],"name":"VaultReset","type":"event"},{"inputs":[{"internalType":"uint256","name":"virtualUsdc","type":"uint256"}],"name":"createVault","outputs":[],"stateMutability":"nonpayable","type":"function"},{"inputs":[{"internalType":"address","name":"leader","type":"address"}],"name":"follow","outputs":[],"stateMutability":"nonpayable","type":"function"},{"inputs":[{"internalType":"address","name":"","type":"address"},{"internalType":"address","name":"","type":"address"}],"name":"followIndex","outputs":[{"internalType":"uint256","name":"","type":"uint256"}],"stateMutability":"view","type":"function"},{"inputs":[{"internalType":"address","name":"","type":"address"},{"internalType":"uint256","name":"","type":"uint256"}],"name":"followers","outputs":[{"internalType":"address","name":"","type":"address"}],"stateMutability":"view","type":"function"},{"inputs":[{"internalType":"address","name":"","type":"address"},{"internalType":"uint256","name":"","type":"uint256"}],"name":"following","outputs":[{"internalType":"address","name":"","type":"address"}],"stateMutability":"view","type":"function"},{"inputs":[{"internalType":"address","name":"leader","type":"address"}],"name":"getFollowers","outputs":[{"internalType":"address[]","name":"","type":"address[]"}],"stateMutability":"view","type":"function"},{"inputs":[{"internalType":"address","name":"user","type":"address"}],"name":"getFollowing","outputs":[{"internalType":"address[]","name":"","type":"address[]"}],"stateMutability":"view","type":"function"},{"inputs":[{"internalType":"address","name":"user","type":"address"}],"name":"getVault","outputs":[{"internalType":"uint256","name":"virtualUsdc","type":"uint256"},{"internalType":"uint256","name":"startingCapital","type":"uint256"},{"internalType":"bool","name":"exists","type":"bool"}],"stateMutability":"view","type":"function"},{"inputs":[{"internalType":"address","name":"","type":"address"},{"internalType":"address","name":"","type":"address"}],"name":"isFollowing","outputs":[{"internalType":"bool","name":"","type":"bool"}],"stateMutability":"view","type":"function"},{"inputs":[{"internalType":"uint256","name":"virtualUsdc","type":"uint256"}],"name":"resetVault","outputs":[],"stateMutability":"nonpayable","type":"function"},{"inputs":[{"internalType":"address","name":"leader","type":"address"}],"name":"unfollow","outputs":[],"stateMutability":"nonpayable","type":"function"},{"inputs":[{"internalType":"address","name":"","type":"address"}],"name":"vaults","outputs":[{"internalType":"uint256","name":"virtualUsdc","type":"uint256"},{"internalType":"uint256","name":"startingCapital","type":"uint256"},{"internalType":"bool","name":"exists","type":"bool"}],"stateMutability":"view","type":"function"}],"evm":{"bytecode":{"linkReferences":{},"object":"6080806040523461001657610ba5908161001c8239f35b600080fdfe608060408181526004918236101561001657600080fd5b600092833560e01c918263015a4ead146107b9575081630eb9af38146103a957816332a69447146107705781634dbf27cc146105a25781639139cda51461055857816399ec3a421461050a5781639abbdf4b14610401578163a622ee7c146103a9578163bdafaeef1461021057508063c2fe202214610194578063d8236dff146101075763ebd009d3146100a957600080fd5b346101035780600319360112610103576100c161092c565b6001600160a01b03908116835260026020528183208054602435949085101561010057506020936100f19161095d565b92905490519260031b1c168152f35b80fd5b5080fd5b5034610103576020906020600319360112610190576001600160a01b03928361012e61092c565b1681526001806020528282209483519081956020885493848152019785526020852094915b83831061017957610175888861016b828d0383610a92565b519182918261098b565b0390f35b855481168952978101979484019491840191610153565b8280fd5b5034610103576020906020600319360112610190576001600160a01b0392836101bb61092c565b16815260026020528181209382519081946020875493848152019684526020842093915b8383106101f757610175878761016b828c0383610a92565b84548116885296810196600194850194909201916101df565b83915034610103576020806003193601126101905781359133845283825260ff60028686200154161561037d575061024d620f4240831015610a53565b338352600193848252848185208251808286829454938481520190895286892092895b868983831061035f575050505061028992500382610a92565b85825b610304575b505050338452848252808420805490858155816102e8575b5050827f3a8eabff634bb5475550a20ad9674a38e5fa723f3cea9fa567113bec80cb03ad9394953387528684528287208281550155519283523392a280f35b8552828520908101905b818110156102a95785815586016102f2565b815181101561035a5782906001600160a01b0361032d33826103268588610ab4565b5116610ac8565b33895260038752858920906103428386610ab4565b511689528652848820805460ff19169055018261028c565b610291565b86546001600160a01b03168552958101958795509093019201610270565b60649185519162461bcd60e51b83528201526008602482015267139bc81d985d5b1d60c21b6044820152fd5b505034610103576020366003190112610103579081906001600160a01b036103cf61092c565b16815260208181529190208054600182015460029092015493519081529182015260ff90911615156040820152606090f35b838334610103576020806003193601126101905783359133845283825260ff60028286200154166104d05761043b620f4240841015610a53565b80516060810181811067ffffffffffffffff8211176104bd577fa510df27d6e51efd91d3f55722bad1f26bf924a63e5dcee07c2ab4c3d4992dcc949596508252848152600283820191868352838101926001845233895288865284892091518255516001820155019051151560ff80198354169116179055519283523392a280f35b634e487b7160e01b865260418752602486fd5b5162461bcd60e51b81528085019190915260146024820152735661756c7420616c72656164792065786973747360601b6044820152606490fd5b50503461010357806003193601126101035760ff8160209361052a61092c565b610532610947565b6001600160a01b0391821683526003875283832091168252855220549151911615158152f35b50503461010357806003193601126101035761057261092c565b6001600160a01b03908116835260016020528183208054602435949085101561010057506020936100f19161095d565b919050346101905760208060031936011261076c576105bf61092c565b33855284825260ff60028487200154161561073557338552600382528285206001600160a01b0382168087529083528386205490949060ff166106fe573385146106c257841561068e579061063791338752600184528487205490845284872086885284528487205533865260018352838620610a13565b8284526002815261064a33838620610a13565b3384526003815281842090838552528220600160ff19825416179055337f6178e95c138f06036cdc07a49ed6a3d23008969fa143baeceb037ebae22e8d148380a380f35b835162461bcd60e51b8152908101839052600e60248201526d24b73b30b634b2103632b0b232b960911b6044820152606490fd5b835162461bcd60e51b8152908101839052601660248201527521b0b73737ba103337b63637bb903cb7bab939b2b63360511b6044820152606490fd5b835162461bcd60e51b81529081018390526011602482015270416c726561647920666f6c6c6f77696e6760781b6044820152606490fd5b50905162461bcd60e51b815291820152601260248201527110dc99585d19481d985d5b1d08199a5c9cdd60721b6044820152606490fd5b8380fd5b905034610190578160031936011261019057602092829161078f61092c565b610797610947565b6001600160a01b03918216845291865283832091168252845220549051908152f35b84908434610190576020908160031936011261076c576107d761092c565b91338552600381528185209360018060a01b039081851695868852835260ff8488205416156108fb575033865260038252828620858752825282862060ff1981541690553386528682528286208587528252828620543387526001835283872091825460001981019081116108e857838995938b9361085e6108a9946108c09b9a9861095d565b90549060031b1c1661089281610874848661095d565b90919060018060a01b038084549260031b9316831b921b1916179055565b3388528486528688209088528552858720556109d0565b338452815281832090868452528120553390610ac8565b337f25b48012798806863072289354ed0b3849b73152482d9c6694e5cbb35f38d5e38380a380f35b634e487b7160e01b895260118a52602489fd5b62461bcd60e51b8152878101839052600d60248201526c4e6f7420666f6c6c6f77696e6760981b6044820152606490fd5b600435906001600160a01b038216820361094257565b600080fd5b602435906001600160a01b038216820361094257565b80548210156109755760005260206000200190600090565b634e487b7160e01b600052603260045260246000fd5b602090602060408183019282815285518094520193019160005b8281106109b3575050505090565b83516001600160a01b0316855293810193928101926001016109a5565b805480156109fd5760001901906109e7828261095d565b81549060018060a01b039060031b1b1916905555565b634e487b7160e01b600052603160045260246000fd5b9081549168010000000000000000831015610a3d5782610874916001610a3b9501815561095d565b565b634e487b7160e01b600052604160045260246000fd5b15610a5a57565b60405162461bcd60e51b815260206004820152601060248201526f4d696e696d756d203120555344432e6560801b6044820152606490fd5b90601f8019910116810190811067ffffffffffffffff821117610a3d57604052565b80518210156109755760209160051b010190565b9060018060a01b038060009316600052600260205260406000209160005b835480821015610b6757610afa828661095d565b905460039291831b1c851684861614610b17575050600101610ae6565b9194959092506000198201918211610b535750610b4e92859492610b4161087493610a3b9861095d565b9054911b1c16918461095d565b6109d0565b634e487b7160e01b81526011600452602490fd5b50505050505056fea2646970667358221220ce961b1dc05c39457826f30b9e38d3e04fa7642e7b9580d67daee5cd2cf5b76e64736f6c63430008180033","opcodes":"PUSH1 0x80 DUP1 PUSH1 0x40 MSTORE CALLVALUE PUSH2 0x16 JUMPI PUSH2 0xBA5 SWAP1 DUP2 PUSH2 0x1C DUP3 CODECOPY RETURN JUMPDEST PUSH1 0x0 DUP1 REVERT INVALID PUSH1 0x80 PUSH1 0x40 DUP2 DUP2 MSTORE PUSH1 0x4 SWAP2 DUP3 CALLDATASIZE LT ISZERO PUSH2 0x16 JUMPI PUSH1 0x0 DUP1 REVERT JUMPDEST PUSH1 0x0 SWAP3 DUP4 CALLDATALOAD PUSH1 0xE0 SHR SWAP2 DUP3 PUSH4 0x15A4EAD EQ PUSH2 0x7B9 JUMPI POP DUP2 PUSH4 0xEB9AF38 EQ PUSH2 0x3A9 JUMPI DUP2 PUSH4 0x32A69447 EQ PUSH2 0x770 JUMPI DUP2 PUSH4 0x4DBF27CC EQ PUSH2 0x5A2 JUMPI DUP2 PUSH4 0x9139CDA5 EQ PUSH2 0x558 JUMPI DUP2 PUSH4 0x99EC3A42 EQ PUSH2 0x50A JUMPI DUP2 PUSH4 0x9ABBDF4B EQ PUSH2 0x401 JUMPI DUP2 PUSH4 0xA622EE7C EQ PUSH2 0x3A9 JUMPI DUP2 PUSH4 0xBDAFAEEF EQ PUSH2 0x210 JUMPI POP DUP1 PUSH4 0xC2FE2022 EQ PUSH2 0x194 JUMPI DUP1 PUSH4 0xD8236DFF EQ PUSH2 0x107 JUMPI PUSH4 0xEBD009D3 EQ PUSH2 0xA9 JUMPI PUSH1 0x0 DUP1 REVERT JUMPDEST CALLVALUE PUSH2 0x103 JUMPI DUP1 PUSH1 0x3 NOT CALLDATASIZE ADD SLT PUSH2 0x103 JUMPI PUSH2 0xC1 PUSH2 0x92C JUMP JUMPDEST PUSH1 0x1 PUSH1 0x1 PUSH1 0xA0 SHL SUB SWAP1 DUP2 AND DUP4 MSTORE PUSH1 0x2 PUSH1 0x20 MSTORE DUP2 DUP4 KECCAK256 DUP1 SLOAD PUSH1 0x24 CALLDATALOAD SWAP5 SWAP1 DUP6 LT ISZERO PUSH2 0x100 JUMPI POP PUSH1 0x20 SWAP4 PUSH2 0xF1 SWAP2 PUSH2 0x95D JUMP JUMPDEST SWAP3 SWAP1 SLOAD SWAP1 MLOAD SWAP3 PUSH1 0x3 SHL SHR AND DUP2 MSTORE RETURN JUMPDEST DUP1 REVERT JUMPDEST POP DUP1 REVERT JUMPDEST POP CALLVALUE PUSH2 0x103 JUMPI PUSH1 0x20 SWAP1 PUSH1 0x20 PUSH1 0x3 NOT CALLDATASIZE ADD SLT PUSH2 0x190 JUMPI PUSH1 0x1 PUSH1 0x1 PUSH1 0xA0 SHL SUB SWAP3 DUP4 PUSH2 0x12E PUSH2 0x92C JUMP JUMPDEST AND DUP2 MSTORE PUSH1 0x1 DUP1 PUSH1 0x20 MSTORE DUP3 DUP3 KECCAK256 SWAP5 DUP4 MLOAD SWAP1 DUP2 SWAP6 PUSH1 0x20 DUP9 SLOAD SWAP4 DUP5 DUP2 MSTORE ADD SWAP8 DUP6 MSTORE PUSH1 0x20 DUP6 KECCAK256 SWAP5 SWAP2 JUMPDEST DUP4 DUP4 LT PUSH2 0x179 JUMPI PUSH2 0x175 DUP9 DUP9 PUSH2 0x16B DUP3 DUP14 SUB DUP4 PUSH2 0xA92 JUMP JUMPDEST MLOAD SWAP2 DUP3 SWAP2 DUP3 PUSH2 0x98B JUMP JUMPDEST SUB SWAP1 RETURN JUMPDEST DUP6 SLOAD DUP2 AND DUP10 MSTORE SWAP8 DUP2 ADD SWAP8 SWAP5 DUP5 ADD SWAP5 SWAP2 DUP5 ADD SWAP2 PUSH2 0x153 JUMP JUMPDEST DUP3 DUP1 REVERT JUMPDEST POP CALLVALUE PUSH2 0x103 JUMPI PUSH1 0x20 SWAP1 PUSH1 0x20 PUSH1 0x3 NOT CALLDATASIZE ADD SLT PUSH2 0x190 JUMPI PUSH1 0x1 PUSH1 0x1 PUSH1 0xA0 SHL SUB SWAP3 DUP4 PUSH2 0x1BB PUSH2 0x92C JUMP JUMPDEST AND DUP2 MSTORE PUSH1 0x2 PUSH1 0x20 MSTORE DUP2 DUP2 KECCAK256 SWAP4 DUP3 MLOAD SWAP1 DUP2 SWAP5 PUSH1 0x20 DUP8 SLOAD SWAP4 DUP5 DUP2 MSTORE ADD SWAP7 DUP5 MSTORE PUSH1 0x20 DUP5 KECCAK256 SWAP4 SWAP2 JUMPDEST DUP4 DUP4 LT PUSH2 0x1F7 JUMPI PUSH2 0x175 DUP8 DUP8 PUSH2 0x16B DUP3 DUP13 SUB DUP4 PUSH2 0xA92 JUMP JUMPDEST DUP5 SLOAD DUP2 AND DUP9 MSTORE SWAP7 DUP2 ADD SWAP7 PUSH1 0x1 SWAP5 DUP6 ADD SWAP5 SWAP1 SWAP3 ADD SWAP2 PUSH2 0x1DF JUMP JUMPDEST DUP4 SWAP2 POP CALLVALUE PUSH2 0x103 JUMPI PUSH1 0x20 DUP1 PUSH1 0x3 NOT CALLDATASIZE ADD SLT PUSH2 0x190 JUMPI DUP2 CALLDATALOAD SWAP2 CALLER DUP5 MSTORE DUP4 DUP3 MSTORE PUSH1 0xFF PUSH1 0x2 DUP7 DUP7 KECCAK256 ADD SLOAD AND ISZERO PUSH2 0x37D JUMPI POP PUSH2 0x24D PUSH3 0xF4240 DUP4 LT ISZERO PUSH2 0xA53 JUMP JUMPDEST CALLER DUP4 MSTORE PUSH1 0x1 SWAP4 DUP5 DUP3 MSTORE DUP5 DUP2 DUP6 KECCAK256 DUP3 MLOAD DUP1 DUP3 DUP7 DUP3 SWAP5 SLOAD SWAP4 DUP5 DUP2 MSTORE ADD SWAP1 DUP10 MSTORE DUP7 DUP10 KECCAK256 SWAP3 DUP10 JUMPDEST DUP7 DUP10 DUP4 DUP4 LT PUSH2 0x35F JUMPI POP POP POP POP PUSH2 0x289 SWAP3 POP SUB DUP3 PUSH2 0xA92 JUMP JUMPDEST DUP6 DUP3 JUMPDEST PUSH2 0x304 JUMPI JUMPDEST POP POP POP CALLER DUP5 MSTORE DUP5 DUP3 MSTORE DUP1 DUP5 KECCAK256 DUP1 SLOAD SWAP1 DUP6 DUP2 SSTORE DUP2 PUSH2 0x2E8 JUMPI JUMPDEST POP POP DUP3 PUSH32 0x3A8EABFF634BB5475550A20AD9674A38E5FA723F3CEA9FA567113BEC80CB03AD SWAP4 SWAP5 SWAP6 CALLER DUP8 MSTORE DUP7 DUP5 MSTORE DUP3 DUP8 KECCAK256 DUP3 DUP2 SSTORE ADD SSTORE MLOAD SWAP3 DUP4 MSTORE CALLER SWAP3 LOG2 DUP1 RETURN JUMPDEST DUP6 MSTORE DUP3 DUP6 KECCAK256 SWAP1 DUP2 ADD SWAP1 JUMPDEST DUP2 DUP2 LT ISZERO PUSH2 0x2A9 JUMPI DUP6 DUP2 SSTORE DUP7 ADD PUSH2 0x2F2 JUMP JUMPDEST DUP2 MLOAD DUP2 LT ISZERO PUSH2 0x35A JUMPI DUP3 SWAP1 PUSH1 0x1 PUSH1 0x1 PUSH1 0xA0 SHL SUB PUSH2 0x32D CALLER DUP3 PUSH2 0x326 DUP6 DUP9 PUSH2 0xAB4 JUMP JUMPDEST MLOAD AND PUSH2 0xAC8 JUMP JUMPDEST CALLER DUP10 MSTORE PUSH1 0x3 DUP8 MSTORE DUP6 DUP10 KECCAK256 SWAP1 PUSH2 0x342 DUP4 DUP7 PUSH2 0xAB4 JUMP JUMPDEST MLOAD AND DUP10 MSTORE DUP7 MSTORE DUP5 DUP9 KECCAK256 DUP1 SLOAD PUSH1 0xFF NOT AND SWAP1 SSTORE ADD DUP3 PUSH2 0x28C JUMP JUMPDEST PUSH2 0x291 JUMP JUMPDEST DUP7 SLOAD PUSH1 0x1 PUSH1 0x1 PUSH1 0xA0 SHL SUB AND DUP6 MSTORE SWAP6 DUP2 ADD SWAP6 DUP8 SWAP6 POP SWAP1 SWAP4 ADD SWAP3 ADD PUSH2 0x270 JUMP JUMPDEST PUSH1 0x64 SWAP2 DUP6 MLOAD SWAP2 PUSH3 0x461BCD PUSH1 0xE5 SHL DUP4 MSTORE DUP3 ADD MSTORE PUSH1 0x8 PUSH1 0x24 DUP3 ADD MSTORE PUSH8 0x139BC81D985D5B1D PUSH1 0xC2 SHL PUSH1 0x44 DUP3 ADD MSTORE REVERT JUMPDEST POP POP CALLVALUE PUSH2 0x103 JUMPI PUSH1 0x20 CALLDATASIZE PUSH1 0x3 NOT ADD SLT PUSH2 0x103 JUMPI SWAP1 DUP2 SWAP1 PUSH1 0x1 PUSH1 0x1 PUSH1 0xA0 SHL SUB PUSH2 0x3CF PUSH2 0x92C JUMP JUMPDEST AND DUP2 MSTORE PUSH1 0x20 DUP2 DUP2 MSTORE SWAP2 SWAP1 KECCAK256 DUP1 SLOAD PUSH1 0x1 DUP3 ADD SLOAD PUSH1 0x2 SWAP1 SWAP3 ADD SLOAD SWAP4 MLOAD SWAP1 DUP2 MSTORE SWAP2 DUP3 ADD MSTORE PUSH1 0xFF SWAP1 SWAP2 AND ISZERO ISZERO PUSH1 0x40 DUP3 ADD MSTORE PUSH1 0x60 SWAP1 RETURN JUMPDEST DUP4 DUP4 CALLVALUE PUSH2 0x103 JUMPI PUSH1 0x20 DUP1 PUSH1 0x3 NOT CALLDATASIZE ADD SLT PUSH2 0x190 JUMPI DUP4 CALLDATALOAD SWAP2 CALLER DUP5 MSTORE DUP4 DUP3 MSTORE PUSH1 0xFF PUSH1 0x2 DUP3 DUP7 KECCAK256 ADD SLOAD AND PUSH2 0x4D0 JUMPI PUSH2 0x43B PUSH3 0xF4240 DUP5 LT ISZERO PUSH2 0xA53 JUMP JUMPDEST DUP1 MLOAD PUSH1 0x60 DUP2 ADD DUP2 DUP2 LT PUSH8 0xFFFFFFFFFFFFFFFF DUP3 GT OR PUSH2 0x4BD JUMPI PUSH32 0xA510DF27D6E51EFD91D3F55722BAD1F26BF924A63E5DCEE07C2AB4C3D4992DCC SWAP5 SWAP6 SWAP7 POP DUP3 MSTORE DUP5 DUP2 MSTORE PUSH1 0x2 DUP4 DUP3 ADD SWAP2 DUP7 DUP4 MSTORE DUP4 DUP2 ADD SWAP3 PUSH1 0x1 DUP5 MSTORE CALLER DUP10 MSTORE DUP9 DUP7 MSTORE DUP5 DUP10 KECCAK256 SWAP2 MLOAD DUP3 SSTORE MLOAD PUSH1 0x1 DUP3 ADD SSTORE ADD SWAP1 MLOAD ISZERO ISZERO PUSH1 0xFF DUP1 NOT DUP4 SLOAD AND SWAP2 AND OR SWAP1 SSTORE MLOAD SWAP3 DUP4 MSTORE CALLER SWAP3 LOG2 DUP1 RETURN JUMPDEST PUSH4 0x4E487B71 PUSH1 0xE0 SHL DUP7 MSTORE PUSH1 0x41 DUP8 MSTORE PUSH1 0x24 DUP7 REVERT JUMPDEST MLOAD PUSH3 0x461BCD PUSH1 0xE5 SHL DUP2 MSTORE DUP1 DUP6 ADD SWAP2 SWAP1 SWAP2 MSTORE PUSH1 0x14 PUSH1 0x24 DUP3 ADD MSTORE PUSH20 0x5661756C7420616C726561647920657869737473 PUSH1 0x60 SHL PUSH1 0x44 DUP3 ADD MSTORE PUSH1 0x64 SWAP1 REVERT JUMPDEST POP POP CALLVALUE PUSH2 0x103 JUMPI DUP1 PUSH1 0x3 NOT CALLDATASIZE ADD SLT PUSH2 0x103 JUMPI PUSH1 0xFF DUP2 PUSH1 0x20 SWAP4 PUSH2 0x52A PUSH2 0x92C JUMP JUMPDEST PUSH2 0x532 PUSH2 0x947 JUMP JUMPDEST PUSH1 0x1 PUSH1 0x1 PUSH1 0xA0 SHL SUB SWAP2 DUP3 AND DUP4 MSTORE PUSH1 0x3 DUP8 MSTORE DUP4 DUP4 KECCAK256 SWAP2 AND DUP3 MSTORE DUP6 MSTORE KECCAK256 SLOAD SWAP2 MLOAD SWAP2 AND ISZERO ISZERO DUP2 MSTORE RETURN JUMPDEST POP POP CALLVALUE PUSH2 0x103 JUMPI DUP1 PUSH1 0x3 NOT CALLDATASIZE ADD SLT PUSH2 0x103 JUMPI PUSH2 0x572 PUSH2 0x92C JUMP JUMPDEST PUSH1 0x1 PUSH1 0x1 PUSH1 0xA0 SHL SUB SWAP1 DUP2 AND DUP4 MSTORE PUSH1 0x1 PUSH1 0x20 MSTORE DUP2 DUP4 KECCAK256 DUP1 SLOAD PUSH1 0x24 CALLDATALOAD SWAP5 SWAP1 DUP6 LT ISZERO PUSH2 0x100 JUMPI POP PUSH1 0x20 SWAP4 PUSH2 0xF1 SWAP2 PUSH2 0x95D JUMP JUMPDEST SWAP2 SWAP1 POP CALLVALUE PUSH2 0x190 JUMPI PUSH1 0x20 DUP1 PUSH1 0x3 NOT CALLDATASIZE ADD SLT PUSH2 0x76C JUMPI PUSH2 0x5BF PUSH2 0x92C JUMP JUMPDEST CALLER DUP6 MSTORE DUP5 DUP3 MSTORE PUSH1 0xFF PUSH1 0x2 DUP5 DUP8 KECCAK256 ADD SLOAD AND ISZERO PUSH2 0x735 JUMPI CALLER DUP6 MSTORE PUSH1 0x3 DUP3 MSTORE DUP3 DUP6 KECCAK256 PUSH1 0x1 PUSH1 0x1 PUSH1 0xA0 SHL SUB DUP3 AND DUP1 DUP8 MSTORE SWAP1 DUP4 MSTORE DUP4 DUP7 KECCAK256 SLOAD SWAP1 SWAP5 SWAP1 PUSH1 0xFF AND PUSH2 0x6FE JUMPI CALLER DUP6 EQ PUSH2 0x6C2 JUMPI DUP5 ISZERO PUSH2 0x68E JUMPI SWAP1 PUSH2 0x637 SWAP2 CALLER DUP8 MSTORE PUSH1 0x1 DUP5 MSTORE DUP5 DUP8 KECCAK256 SLOAD SWAP1 DUP5 MSTORE DUP5 DUP8 KECCAK256 DUP7 DUP9 MSTORE DUP5 MSTORE DUP5 DUP8 KECCAK256 SSTORE CALLER DUP7 MSTORE PUSH1 0x1 DUP4 MSTORE DUP4 DUP7 KECCAK256 PUSH2 0xA13 JUMP JUMPDEST DUP3 DUP5 MSTORE PUSH1 0x2 DUP2 MSTORE PUSH2 0x64A CALLER DUP4 DUP7 KECCAK256 PUSH2 0xA13 JUMP JUMPDEST CALLER DUP5 MSTORE PUSH1 0x3 DUP2 MSTORE DUP2 DUP5 KECCAK256 SWAP1 DUP4 DUP6 MSTORE MSTORE DUP3 KECCAK256 PUSH1 0x1 PUSH1 0xFF NOT DUP3 SLOAD AND OR SWAP1 SSTORE CALLER PUSH32 0x6178E95C138F06036CDC07A49ED6A3D23008969FA143BAECEB037EBAE22E8D14 DUP4 DUP1 LOG3 DUP1 RETURN JUMPDEST DUP4 MLOAD PUSH3 0x461BCD PUSH1 0xE5 SHL DUP2 MSTORE SWAP1 DUP2 ADD DUP4 SWAP1 MSTORE PUSH1 0xE PUSH1 0x24 DUP3 ADD MSTORE PUSH14 0x24B73B30B634B2103632B0B232B9 PUSH1 0x91 SHL PUSH1 0x44 DUP3 ADD MSTORE PUSH1 0x64 SWAP1 REVERT JUMPDEST DUP4 MLOAD PUSH3 0x461BCD PUSH1 0xE5 SHL DUP2 MSTORE SWAP1 DUP2 ADD DUP4 SWAP1 MSTORE PUSH1 0x16 PUSH1 0x24 DUP3 ADD MSTORE PUSH22 0x21B0B73737BA103337B63637BB903CB7BAB939B2B633 PUSH1 0x51 SHL PUSH1 0x44 DUP3 ADD MSTORE PUSH1 0x64 SWAP1 REVERT JUMPDEST DUP4 MLOAD PUSH3 0x461BCD PUSH1 0xE5 SHL DUP2 MSTORE SWAP1 DUP2 ADD DUP4 SWAP1 MSTORE PUSH1 0x11 PUSH1 0x24 DUP3 ADD MSTORE PUSH17 0x416C726561647920666F6C6C6F77696E67 PUSH1 0x78 SHL PUSH1 0x44 DUP3 ADD MSTORE PUSH1 0x64 SWAP1 REVERT JUMPDEST POP SWAP1 MLOAD PUSH3 0x461BCD PUSH1 0xE5 SHL DUP2 MSTORE SWAP2 DUP3 ADD MSTORE PUSH1 0x12 PUSH1 0x24 DUP3 ADD MSTORE PUSH18 0x10DC99585D19481D985D5B1D08199A5C9CDD PUSH1 0x72 SHL PUSH1 0x44 DUP3 ADD MSTORE PUSH1 0x64 SWAP1 REVERT JUMPDEST DUP4 DUP1 REVERT JUMPDEST SWAP1 POP CALLVALUE PUSH2 0x190 JUMPI DUP2 PUSH1 0x3 NOT CALLDATASIZE ADD SLT PUSH2 0x190 JUMPI PUSH1 0x20 SWAP3 DUP3 SWAP2 PUSH2 0x78F PUSH2 0x92C JUMP JUMPDEST PUSH2 0x797 PUSH2 0x947 JUMP JUMPDEST PUSH1 0x1 PUSH1 0x1 PUSH1 0xA0 SHL SUB SWAP2 DUP3 AND DUP5 MSTORE SWAP2 DUP7 MSTORE DUP4 DUP4 KECCAK256 SWAP2 AND DUP3 MSTORE DUP5 MSTORE KECCAK256 SLOAD SWAP1 MLOAD SWAP1 DUP2 MSTORE RETURN JUMPDEST DUP5 SWAP1 DUP5 CALLVALUE PUSH2 0x190 JUMPI PUSH1 0x20 SWAP1 DUP2 PUSH1 0x3 NOT CALLDATASIZE ADD SLT PUSH2 0x76C JUMPI PUSH2 0x7D7 PUSH2 0x92C JUMP JUMPDEST SWAP2 CALLER DUP6 MSTORE PUSH1 0x3 DUP2 MSTORE DUP2 DUP6 KECCAK256 SWAP4 PUSH1 0x1 DUP1 PUSH1 0xA0 SHL SUB SWAP1 DUP2 DUP6 AND SWAP6 DUP7 DUP9 MSTORE DUP4 MSTORE PUSH1 0xFF DUP5 DUP9 KECCAK256 SLOAD AND ISZERO PUSH2 0x8FB JUMPI POP CALLER DUP7 MSTORE PUSH1 0x3 DUP3 MSTORE DUP3 DUP7 KECCAK256 DUP6 DUP8 MSTORE DUP3 MSTORE DUP3 DUP7 KECCAK256 PUSH1 0xFF NOT DUP2 SLOAD AND SWAP1 SSTORE CALLER DUP7 MSTORE DUP7 DUP3 MSTORE DUP3 DUP7 KECCAK256 DUP6 DUP8 MSTORE DUP3 MSTORE DUP3 DUP7 KECCAK256 SLOAD CALLER DUP8 MSTORE PUSH1 0x1 DUP4 MSTORE DUP4 DUP8 KECCAK256 SWAP2 DUP3 SLOAD PUSH1 0x0 NOT DUP2 ADD SWAP1 DUP2 GT PUSH2 0x8E8 JUMPI DUP4 DUP10 SWAP6 SWAP4 DUP12 SWAP4 PUSH2 0x85E PUSH2 0x8A9 SWAP5 PUSH2 0x8C0 SWAP12 SWAP11 SWAP9 PUSH2 0x95D JUMP JUMPDEST SWAP1 SLOAD SWAP1 PUSH1 0x3 SHL SHR AND PUSH2 0x892 DUP2 PUSH2 0x874 DUP5 DUP7 PUSH2 0x95D JUMP JUMPDEST SWAP1 SWAP2 SWAP1 PUSH1 0x1 DUP1 PUSH1 0xA0 SHL SUB DUP1 DUP5 SLOAD SWAP3 PUSH1 0x3 SHL SWAP4 AND DUP4 SHL SWAP3 SHL NOT AND OR SWAP1 SSTORE JUMP JUMPDEST CALLER DUP9 MSTORE DUP5 DUP7 MSTORE DUP7 DUP9 KECCAK256 SWAP1 DUP9 MSTORE DUP6 MSTORE DUP6 DUP8 KECCAK256 SSTORE PUSH2 0x9D0 JUMP JUMPDEST CALLER DUP5 MSTORE DUP2 MSTORE DUP2 DUP4 KECCAK256 SWAP1 DUP7 DUP5 MSTORE MSTORE DUP2 KECCAK256 SSTORE CALLER SWAP1 PUSH2 0xAC8 JUMP JUMPDEST CALLER PUSH32 0x25B48012798806863072289354ED0B3849B73152482D9C6694E5CBB35F38D5E3 DUP4 DUP1 LOG3 DUP1 RETURN JUMPDEST PUSH4 0x4E487B71 PUSH1 0xE0 SHL DUP10 MSTORE PUSH1 0x11 DUP11 MSTORE PUSH1 0x24 DUP10 REVERT JUMPDEST PUSH3 0x461BCD PUSH1 0xE5 SHL DUP2 MSTORE DUP8 DUP2 ADD DUP4 SWAP1 MSTORE PUSH1 0xD PUSH1 0x24 DUP3 ADD MSTORE PUSH13 0x4E6F7420666F6C6C6F77696E67 PUSH1 0x98 SHL PUSH1 0x44 DUP3 ADD MSTORE PUSH1 0x64 SWAP1 REVERT JUMPDEST PUSH1 0x4 CALLDATALOAD SWAP1 PUSH1 0x1 PUSH1 0x1 PUSH1 0xA0 SHL SUB DUP3 AND DUP3 SUB PUSH2 0x942 JUMPI JUMP JUMPDEST PUSH1 0x0 DUP1 REVERT JUMPDEST PUSH1 0x24 CALLDATALOAD SWAP1 PUSH1 0x1 PUSH1 0x1 PUSH1 0xA0 SHL SUB DUP3 AND DUP3 SUB PUSH2 0x942 JUMPI JUMP JUMPDEST DUP1 SLOAD DUP3 LT ISZERO PUSH2 0x975 JUMPI PUSH1 0x0 MSTORE PUSH1 0x20 PUSH1 0x0 KECCAK256 ADD SWAP1 PUSH1 0x0 SWAP1 JUMP JUMPDEST PUSH4 0x4E487B71 PUSH1 0xE0 SHL PUSH1 0x0 MSTORE PUSH1 0x32 PUSH1 0x4 MSTORE PUSH1 0x24 PUSH1 0x0 REVERT JUMPDEST PUSH1 0x20 SWAP1 PUSH1 0x20 PUSH1 0x40 DUP2 DUP4 ADD SWAP3 DUP3 DUP2 MSTORE DUP6 MLOAD DUP1 SWAP5 MSTORE ADD SWAP4 ADD SWAP2 PUSH1 0x0 JUMPDEST DUP3 DUP2 LT PUSH2 0x9B3 JUMPI POP POP POP POP SWAP1 JUMP JUMPDEST DUP4 MLOAD PUSH1 0x1 PUSH1 0x1 PUSH1 0xA0 SHL SUB AND DUP6 MSTORE SWAP4 DUP2 ADD SWAP4 SWAP3 DUP2 ADD SWAP3 PUSH1 0x1 ADD PUSH2 0x9A5 JUMP JUMPDEST DUP1 SLOAD DUP1 ISZERO PUSH2 0x9FD JUMPI PUSH1 0x0 NOT ADD SWAP1 PUSH2 0x9E7 DUP3 DUP3 PUSH2 0x95D JUMP JUMPDEST DUP2 SLOAD SWAP1 PUSH1 0x1 DUP1 PUSH1 0xA0 SHL SUB SWAP1 PUSH1 0x3 SHL SHL NOT AND SWAP1 SSTORE SSTORE JUMP JUMPDEST PUSH4 0x4E487B71 PUSH1 0xE0 SHL PUSH1 0x0 MSTORE PUSH1 0x31 PUSH1 0x4 MSTORE PUSH1 0x24 PUSH1 0x0 REVERT JUMPDEST SWAP1 DUP2 SLOAD SWAP2 PUSH9 0x10000000000000000 DUP4 LT ISZERO PUSH2 0xA3D JUMPI DUP3 PUSH2 0x874 SWAP2 PUSH1 0x1 PUSH2 0xA3B SWAP6 ADD DUP2 SSTORE PUSH2 0x95D JUMP JUMPDEST JUMP JUMPDEST PUSH4 0x4E487B71 PUSH1 0xE0 SHL PUSH1 0x0 MSTORE PUSH1 0x41 PUSH1 0x4 MSTORE PUSH1 0x24 PUSH1 0x0 REVERT JUMPDEST ISZERO PUSH2 0xA5A JUMPI JUMP JUMPDEST PUSH1 0x40 MLOAD PUSH3 0x461BCD PUSH1 0xE5 SHL DUP2 MSTORE PUSH1 0x20 PUSH1 0x4 DUP3 ADD MSTORE PUSH1 0x10 PUSH1 0x24 DUP3 ADD MSTORE PUSH16 0x4D696E696D756D203120555344432E65 PUSH1 0x80 SHL PUSH1 0x44 DUP3 ADD MSTORE PUSH1 0x64 SWAP1 REVERT JUMPDEST SWAP1 PUSH1 0x1F DUP1 NOT SWAP2 ADD AND DUP2 ADD SWAP1 DUP2 LT PUSH8 0xFFFFFFFFFFFFFFFF DUP3 GT OR PUSH2 0xA3D JUMPI PUSH1 0x40 MSTORE JUMP JUMPDEST DUP1 MLOAD DUP3 LT ISZERO PUSH2 0x975 JUMPI PUSH1 0x20 SWAP2 PUSH1 0x5 SHL ADD ADD SWAP1 JUMP JUMPDEST SWAP1 PUSH1 0x1 DUP1 PUSH1 0xA0 SHL SUB DUP1 PUSH1 0x0 SWAP4 AND PUSH1 0x0 MSTORE PUSH1 0x2 PUSH1 0x20 MSTORE PUSH1 0x40 PUSH1 0x0 KECCAK256 SWAP2 PUSH1 0x0 JUMPDEST DUP4 SLOAD DUP1 DUP3 LT ISZERO PUSH2 0xB67 JUMPI PUSH2 0xAFA DUP3 DUP7 PUSH2 0x95D JUMP JUMPDEST SWAP1 SLOAD PUSH1 0x3 SWAP3 SWAP2 DUP4 SHL SHR DUP6 AND DUP5 DUP7 AND EQ PUSH2 0xB17 JUMPI POP POP PUSH1 0x1 ADD PUSH2 0xAE6 JUMP JUMPDEST SWAP2 SWAP5 SWAP6 SWAP1 SWAP3 POP PUSH1 0x0 NOT DUP3 ADD SWAP2 DUP3 GT PUSH2 0xB53 JUMPI POP PUSH2 0xB4E SWAP3 DUP6 SWAP5 SWAP3 PUSH2 0xB41 PUSH2 0x874 SWAP4 PUSH2 0xA3B SWAP9 PUSH2 0x95D JUMP JUMPDEST SWAP1 SLOAD SWAP2 SHL SHR AND SWAP2 DUP5 PUSH2 0x95D JUMP JUMPDEST PUSH2 0x9D0 JUMP JUMPDEST PUSH4 0x4E487B71 PUSH1 0xE0 SHL DUP2 MSTORE PUSH1 0x11 PUSH1 0x4 MSTORE PUSH1 0x24 SWAP1 REVERT JUMPDEST POP POP POP POP POP POP JUMP INVALID LOG2 PUSH5 0x6970667358 0x22 SLT KECCAK256 0xCE SWAP7 SHL SAR 0xC0 TLOAD CODECOPY GASLIMIT PUSH25 0x26F30B9E38D3E04FA7642E7B9580D67DAEE5CD2CF5B76E6473 PUSH16 0x6C634300081800330000000000000000 "},"methodIdentifiers":{"createVault(uint256)":"9abbdf4b","follow(address)":"4dbf27cc","followIndex(address,address)":"32a69447","followers(address,uint256)":"ebd009d3","following(address,uint256)":"9139cda5","getFollowers(address)":"c2fe2022","getFollowing(address)":"d8236dff","getVault(address)":"0eb9af38","isFollowing(address,address)":"99ec3a42","resetVault(uint256)":"bdafaeef","unfollow(address)":"015a4ead","vaults(address)":"a622ee7c"}}}}}