{
  "_format": "hh-sol-artifact-1",
  "contractName": "aUSD",
  "sourceName": "contracts/aUSD.sol",
  "abi": [
    {
      "inputs": [],
      "stateMutability": "nonpayable",
      "type": "constructor"
    },
    {
      "inputs": [
        {
          "internalType": "address",
          "name": "spender",
          "type": "address"
        },
        {
          "internalType": "uint256",
          "name": "allowance",
          "type": "uint256"
        },
        {
          "internalType": "uint256",
          "name": "needed",
          "type": "uint256"
        }
      ],
      "name": "ERC20InsufficientAllowance",
      "type": "error"
    },
    {
      "inputs": [
        {
          "internalType": "address",
          "name": "sender",
          "type": "address"
        },
        {
          "internalType": "uint256",
          "name": "balance",
          "type": "uint256"
        },
        {
          "internalType": "uint256",
          "name": "needed",
          "type": "uint256"
        }
      ],
      "name": "ERC20InsufficientBalance",
      "type": "error"
    },
    {
      "inputs": [
        {
          "internalType": "address",
          "name": "approver",
          "type": "address"
        }
      ],
      "name": "ERC20InvalidApprover",
      "type": "error"
    },
    {
      "inputs": [
        {
          "internalType": "address",
          "name": "receiver",
          "type": "address"
        }
      ],
      "name": "ERC20InvalidReceiver",
      "type": "error"
    },
    {
      "inputs": [
        {
          "internalType": "address",
          "name": "sender",
          "type": "address"
        }
      ],
      "name": "ERC20InvalidSender",
      "type": "error"
    },
    {
      "inputs": [
        {
          "internalType": "address",
          "name": "spender",
          "type": "address"
        }
      ],
      "name": "ERC20InvalidSpender",
      "type": "error"
    },
    {
      "anonymous": false,
      "inputs": [
        {
          "indexed": true,
          "internalType": "address",
          "name": "owner",
          "type": "address"
        },
        {
          "indexed": true,
          "internalType": "address",
          "name": "spender",
          "type": "address"
        },
        {
          "indexed": false,
          "internalType": "uint256",
          "name": "value",
          "type": "uint256"
        }
      ],
      "name": "Approval",
      "type": "event"
    },
    {
      "anonymous": false,
      "inputs": [
        {
          "indexed": true,
          "internalType": "address",
          "name": "user",
          "type": "address"
        },
        {
          "indexed": false,
          "internalType": "uint256",
          "name": "amount",
          "type": "uint256"
        }
      ],
      "name": "FaucetClaimed",
      "type": "event"
    },
    {
      "anonymous": false,
      "inputs": [
        {
          "indexed": true,
          "internalType": "address",
          "name": "minter",
          "type": "address"
        }
      ],
      "name": "MinterAdded",
      "type": "event"
    },
    {
      "anonymous": false,
      "inputs": [
        {
          "indexed": true,
          "internalType": "address",
          "name": "minter",
          "type": "address"
        }
      ],
      "name": "MinterRemoved",
      "type": "event"
    },
    {
      "anonymous": false,
      "inputs": [
        {
          "indexed": true,
          "internalType": "address",
          "name": "previousOwner",
          "type": "address"
        },
        {
          "indexed": true,
          "internalType": "address",
          "name": "newOwner",
          "type": "address"
        }
      ],
      "name": "OwnershipTransferred",
      "type": "event"
    },
    {
      "anonymous": false,
      "inputs": [
        {
          "indexed": true,
          "internalType": "address",
          "name": "from",
          "type": "address"
        },
        {
          "indexed": true,
          "internalType": "address",
          "name": "to",
          "type": "address"
        },
        {
          "indexed": false,
          "internalType": "uint256",
          "name": "value",
          "type": "uint256"
        }
      ],
      "name": "Transfer",
      "type": "event"
    },
    {
      "inputs": [],
      "name": "FAUCET_AMOUNT",
      "outputs": [
        {
          "internalType": "uint256",
          "name": "",
          "type": "uint256"
        }
      ],
      "stateMutability": "view",
      "type": "function"
    },
    {
      "inputs": [],
      "name": "FAUCET_COOLDOWN",
      "outputs": [
        {
          "internalType": "uint256",
          "name": "",
          "type": "uint256"
        }
      ],
      "stateMutability": "view",
      "type": "function"
    },
    {
      "inputs": [
        {
          "internalType": "address",
          "name": "minter",
          "type": "address"
        }
      ],
      "name": "addMinter",
      "outputs": [],
      "stateMutability": "nonpayable",
      "type": "function"
    },
    {
      "inputs": [
        {
          "internalType": "address",
          "name": "owner",
          "type": "address"
        },
        {
          "internalType": "address",
          "name": "spender",
          "type": "address"
        }
      ],
      "name": "allowance",
      "outputs": [
        {
          "internalType": "uint256",
          "name": "",
          "type": "uint256"
        }
      ],
      "stateMutability": "view",
      "type": "function"
    },
    {
      "inputs": [
        {
          "internalType": "address",
          "name": "spender",
          "type": "address"
        },
        {
          "internalType": "uint256",
          "name": "value",
          "type": "uint256"
        }
      ],
      "name": "approve",
      "outputs": [
        {
          "internalType": "bool",
          "name": "",
          "type": "bool"
        }
      ],
      "stateMutability": "nonpayable",
      "type": "function"
    },
    {
      "inputs": [
        {
          "internalType": "address",
          "name": "account",
          "type": "address"
        }
      ],
      "name": "balanceOf",
      "outputs": [
        {
          "internalType": "uint256",
          "name": "",
          "type": "uint256"
        }
      ],
      "stateMutability": "view",
      "type": "function"
    },
    {
      "inputs": [],
      "name": "decimals",
      "outputs": [
        {
          "internalType": "uint8",
          "name": "",
          "type": "uint8"
        }
      ],
      "stateMutability": "pure",
      "type": "function"
    },
    {
      "inputs": [],
      "name": "faucet",
      "outputs": [],
      "stateMutability": "nonpayable",
      "type": "function"
    },
    {
      "inputs": [
        {
          "internalType": "address",
          "name": "user",
          "type": "address"
        }
      ],
      "name": "faucetCooldownRemaining",
      "outputs": [
        {
          "internalType": "uint256",
          "name": "",
          "type": "uint256"
        }
      ],
      "stateMutability": "view",
      "type": "function"
    },
    {
      "inputs": [
        {
          "internalType": "address",
          "name": "",
          "type": "address"
        }
      ],
      "name": "lastFaucet",
      "outputs": [
        {
          "internalType": "uint256",
          "name": "",
          "type": "uint256"
        }
      ],
      "stateMutability": "view",
      "type": "function"
    },
    {
      "inputs": [
        {
          "internalType": "address",
          "name": "to",
          "type": "address"
        },
        {
          "internalType": "uint256",
          "name": "amount",
          "type": "uint256"
        }
      ],
      "name": "mint",
      "outputs": [],
      "stateMutability": "nonpayable",
      "type": "function"
    },
    {
      "inputs": [
        {
          "internalType": "address",
          "name": "",
          "type": "address"
        }
      ],
      "name": "minters",
      "outputs": [
        {
          "internalType": "bool",
          "name": "",
          "type": "bool"
        }
      ],
      "stateMutability": "view",
      "type": "function"
    },
    {
      "inputs": [],
      "name": "name",
      "outputs": [
        {
          "internalType": "string",
          "name": "",
          "type": "string"
        }
      ],
      "stateMutability": "view",
      "type": "function"
    },
    {
      "inputs": [],
      "name": "owner",
      "outputs": [
        {
          "internalType": "address",
          "name": "",
          "type": "address"
        }
      ],
      "stateMutability": "view",
      "type": "function"
    },
    {
      "inputs": [
        {
          "internalType": "address",
          "name": "minter",
          "type": "address"
        }
      ],
      "name": "removeMinter",
      "outputs": [],
      "stateMutability": "nonpayable",
      "type": "function"
    },
    {
      "inputs": [],
      "name": "symbol",
      "outputs": [
        {
          "internalType": "string",
          "name": "",
          "type": "string"
        }
      ],
      "stateMutability": "view",
      "type": "function"
    },
    {
      "inputs": [],
      "name": "totalSupply",
      "outputs": [
        {
          "internalType": "uint256",
          "name": "",
          "type": "uint256"
        }
      ],
      "stateMutability": "view",
      "type": "function"
    },
    {
      "inputs": [
        {
          "internalType": "address",
          "name": "to",
          "type": "address"
        },
        {
          "internalType": "uint256",
          "name": "value",
          "type": "uint256"
        }
      ],
      "name": "transfer",
      "outputs": [
        {
          "internalType": "bool",
          "name": "",
          "type": "bool"
        }
      ],
      "stateMutability": "nonpayable",
      "type": "function"
    },
    {
      "inputs": [
        {
          "internalType": "address",
          "name": "from",
          "type": "address"
        },
        {
          "internalType": "address",
          "name": "to",
          "type": "address"
        },
        {
          "internalType": "uint256",
          "name": "value",
          "type": "uint256"
        }
      ],
      "name": "transferFrom",
      "outputs": [
        {
          "internalType": "bool",
          "name": "",
          "type": "bool"
        }
      ],
      "stateMutability": "nonpayable",
      "type": "function"
    },
    {
      "inputs": [
        {
          "internalType": "address",
          "name": "newOwner",
          "type": "address"
        }
      ],
      "name": "transferOwnership",
      "outputs": [],
      "stateMutability": "nonpayable",
      "type": "function"
    }
  ],
  "bytecode": "0x60803462000330576040906001600160401b0390808301828111828210176200031c578352600a815260209169105a5bdb9a5cc81554d160b21b83830152835192848401848110838211176200031c57855260049384815263185554d160e21b8282015283519083821162000309576003928354926001968785811c95168015620002fe575b83861014620002eb578190601f9586811162000298575b50839086831160011462000235575f9262000229575b50505f1982871b1c191690871b1784555b8151948511620002165786548681811c911680156200020b575b82821014620001f857838111620001b0575b50809285116001146200014657509383949184925f956200013a575b50501b925f19911b1c19161790555b600580546001600160a01b0319163317905551610c619081620003358239f35b015193505f806200010b565b92919084601f198116885f52855f20955f905b898383106200019557505050106200017b575b50505050811b0190556200011a565b01519060f8845f19921b161c191690555f8080806200016c565b85870151895590970196948501948893509081019062000159565b875f52815f208480880160051c820192848910620001ee575b0160051c019087905b828110620001e2575050620000ef565b5f8155018790620001d2565b92508192620001c9565b602288634e487b7160e01b5f525260245ffd5b90607f1690620000dd565b604187634e487b7160e01b5f525260245ffd5b015190505f80620000b2565b90899350601f19831691885f52855f20925f5b8782821062000281575050841162000269575b505050811b018455620000c3565b01515f1983891b60f8161c191690555f80806200025b565b8385015186558d9790950194938401930162000248565b909150865f52835f208680850160051c820192868610620002e1575b918b91869594930160051c01915b828110620002d25750506200009c565b5f81558594508b9101620002c2565b92508192620002b4565b602289634e487b7160e01b5f525260245ffd5b94607f169462000085565b604186634e487b7160e01b5f525260245ffd5b634e487b7160e01b5f52604160045260245ffd5b5f80fdfe6080604090808252600480361015610015575f80fd5b5f3560e01c91826306fdde031461097157508163095ea7b3146108c957816318160ddd146108ab57816323b872dd146107b95781633092afd51461074b578163313ce5671461073057816340c10f19146106265781634799e212146105ef57816370a08231146105b9578163766976401461059a5781637d1d5d191461057d5781638da5cb5b1461055557816395d89b4114610436578163983b2d56146103c5578163a9059cbb14610395578163b44bae8e14610369578163dd62ed3e14610320578163de5f72fd146101e9578163f2fde38b1461013b575063f46eccc4146100fc575f80fd5b34610137576020366003190112610137576020906001600160a01b03610120610a90565b165f526006825260ff815f20541690519015158152f35b5f80fd5b90503461013757602036600319011261013757610156610a90565b600554916001600160a01b0380841692610171338514610abc565b169384156101b157505082907f8be0079c531659141344cd1fd0a4f28419497f9722a3daafe3b4186f6b6457e05f80a36001600160a01b03191617600555005b906020606492519162461bcd60e51b83528201526012602482015271615553443a207a65726f206164647265737360701b6044820152fd5b8234610137575f36600319011261013757335f52602060078152815f205462015180810180911161030d5742106102d457335f526007815242825f205533156102be57600254916402540be400928381018091116102ab577f5d4f415c63cd8a5874d9d291cdd64cec37e5dc236d90d659c958d109d78074b3939450600255335f525f8252805f2084815401905580518481525f7fddf252ad1be2c89b69c2b068fc378daa952ba7f163c4a11628f55a4df523b3ef843393a3519283523392a2005b601185634e487b7160e01b5f525260245ffd5b815163ec442f0560e01b81525f81850152602490fd5b905162461bcd60e51b8152918201526015602482015274615553443a20636f6f6c646f776e2061637469766560581b6044820152606490fd5b601184634e487b7160e01b5f525260245ffd5b823461013757806003193601126101375760209061033c610a90565b610344610aa6565b9060018060a01b038091165f5260018452825f2091165f528252805f20549051908152f35b82346101375760203660031901126101375760209061038e610389610a90565b610afa565b9051908152f35b82346101375780600319360112610137576020906103be6103b4610a90565b6024359033610b51565b5160018152f35b8234610137576020366003190112610137576103df610a90565b6005546001600160a01b0391906103f99083163314610abc565b1690815f5260066020525f20600160ff198254161790557f6ae172837ea30b801fbfcdd4108aa1d5bf8ff775444fd70256b44e6bf3dfc3f65f80a2005b8234610137575f366003190112610137578051905f835460018160011c906001831692831561054b575b60209384841081146105385783885290811561051c57506001146104c8575b505050829003601f01601f191682019267ffffffffffffffff8411838510176104b557508291826104b1925282610a49565b0390f35b604190634e487b7160e01b5f525260245ffd5b5f878152929350837f8a35acfbc15ff81a39ae7d344fd709f28e8600b4aa8c65c6b64bfe7fe36bd19b5b838510610508575050505083010184808061047f565b8054888601830152930192849082016104f2565b60ff1916878501525050151560051b840101905084808061047f565b602289634e487b7160e01b5f525260245ffd5b91607f1691610460565b8234610137575f3660031901126101375760055490516001600160a01b039091168152602090f35b8234610137575f3660031901126101375760209051620151808152f35b8234610137575f36600319011261013757602090516402540be4008152f35b8234610137576020366003190112610137576020906001600160a01b036105de610a90565b165f525f8252805f20549051908152f35b8234610137576020366003190112610137576020906001600160a01b03610614610a90565b165f5260078252805f20549051908152f35b823461013757806003193601126101375761063f610a90565b9060243591335f52600660205260ff825f205416801561071c575b156106e6576001600160a01b03169283156106d157600254908382018092116106be57505f927fddf252ad1be2c89b69c2b068fc378daa952ba7f163c4a11628f55a4df523b3ef9260209260025585855284835280852082815401905551908152a3005b601190634e487b7160e01b5f525260245ffd5b5f602492519163ec442f0560e01b8352820152fd5b815162461bcd60e51b8152602081860152601060248201526f30aaa9a21d103737ba1036b4b73a32b960811b6044820152606490fd5b506005546001600160a01b0316331461065a565b8234610137575f366003190112610137576020905160068152f35b823461013757602036600319011261013757610765610a90565b6005546001600160a01b03919061077f9083163314610abc565b1690815f5260066020525f2060ff1981541690557fe94479a9f7e1952cc78f2d6baab678adc1b772d936c6583def489e524cb666925f80a2005b905034610137576060366003190112610137576107d4610a90565b6107dc610aa6565b906044359260018060a01b038216805f526001602052855f20335f52602052855f2054915f198310610817575b6020876103be888888610b51565b85831061087f57811561086957331561085357505f908152600160209081528682203383528152908690209185900390915582906103be610809565b6024905f885191634a1406b160e11b8352820152fd5b6024905f88519163e602df0560e01b8352820152fd5b8651637dc7a0d960e11b8152339181019182526020820193909352604081018690528291506060010390fd5b8234610137575f366003190112610137576020906002549051908152f35b82346101375780600319360112610137576108e2610a90565b60243590331561095b576001600160a01b03169081156109455760209350335f5260018452825f20825f52845280835f205582519081527f8c5be1e5ebec7d5bd14f71427d1e84f3dd0314c0f7b2291e5b200ac8c7c3b925843392a35160018152f35b8251634a1406b160e11b81525f81860152602490fd5b825163e602df0560e01b81525f81860152602490fd5b8334610137575f366003190112610137575f60035460018160011c9060018316928315610a3f575b60209384841081146105385783885290811561051c57506001146109e957505050829003601f01601f191682019267ffffffffffffffff8411838510176104b557508291826104b1925282610a49565b60035f908152929350837fc2575a0e9e593c00f959f8c92f12db2869c3395a3b0502d05e2516446f71f85b5b838510610a2b575050505083010184808061047f565b805488860183015293019284908201610a15565b91607f1691610999565b602080825282518183018190529093925f5b828110610a7c57505060409293505f838284010152601f8019910116010190565b818101860151848201604001528501610a5b565b600435906001600160a01b038216820361013757565b602435906001600160a01b038216820361013757565b15610ac357565b60405162461bcd60e51b815260206004820152600f60248201526e30aaa9a21d103737ba1037bbb732b960891b6044820152606490fd5b6001600160a01b03165f908152600760205260409020546201518080820191828111610b365782421015610b4a5742900301908111610b365790565b634e487b7160e01b5f52601160045260245ffd5b5050505f90565b916001600160a01b03808416928315610c135716928315610bfb57825f525f60205260405f205490828210610bc95750817fddf252ad1be2c89b69c2b068fc378daa952ba7f163c4a11628f55a4df523b3ef92602092855f525f84520360405f2055845f5260405f20818154019055604051908152a3565b60405163391434e360e21b81526001600160a01b03919091166004820152602481019190915260448101829052606490fd5b60405163ec442f0560e01b81525f6004820152602490fd5b604051634b637e8f60e11b81525f6004820152602490fdfea264697066735822122094239fdc56e5631ec2fd5bf2a5d834764a8f6c1198f516d9c523ee3802bfdca464736f6c63430008180033",
  "linkReferences": {},
  "deployedLinkReferences": {}
}