{
  "_format": "hh-sol-artifact-1",
  "contractName": "FollowerRegistry",
  "sourceName": "contracts/FollowerRegistry.sol",
  "abi": [
    {
      "anonymous": false,
      "inputs": [
        {
          "indexed": true,
          "internalType": "address",
          "name": "follower",
          "type": "address"
        },
        {
          "indexed": true,
          "internalType": "address",
          "name": "leader",
          "type": "address"
        }
      ],
      "name": "Followed",
      "type": "event"
    },
    {
      "anonymous": false,
      "inputs": [
        {
          "indexed": true,
          "internalType": "address",
          "name": "follower",
          "type": "address"
        },
        {
          "indexed": true,
          "internalType": "address",
          "name": "leader",
          "type": "address"
        }
      ],
      "name": "Unfollowed",
      "type": "event"
    },
    {
      "anonymous": false,
      "inputs": [
        {
          "indexed": true,
          "internalType": "address",
          "name": "user",
          "type": "address"
        },
        {
          "indexed": false,
          "internalType": "uint256",
          "name": "virtualUsdc",
          "type": "uint256"
        }
      ],
      "name": "VaultCreated",
      "type": "event"
    },
    {
      "anonymous": false,
      "inputs": [
        {
          "indexed": true,
          "internalType": "address",
          "name": "user",
          "type": "address"
        },
        {
          "indexed": false,
          "internalType": "uint256",
          "name": "virtualUsdc",
          "type": "uint256"
        }
      ],
      "name": "VaultReset",
      "type": "event"
    },
    {
      "inputs": [
        {
          "internalType": "uint256",
          "name": "virtualUsdc",
          "type": "uint256"
        }
      ],
      "name": "createVault",
      "outputs": [],
      "stateMutability": "nonpayable",
      "type": "function"
    },
    {
      "inputs": [
        {
          "internalType": "address",
          "name": "leader",
          "type": "address"
        }
      ],
      "name": "follow",
      "outputs": [],
      "stateMutability": "nonpayable",
      "type": "function"
    },
    {
      "inputs": [
        {
          "internalType": "address",
          "name": "",
          "type": "address"
        },
        {
          "internalType": "address",
          "name": "",
          "type": "address"
        }
      ],
      "name": "followIndex",
      "outputs": [
        {
          "internalType": "uint256",
          "name": "",
          "type": "uint256"
        }
      ],
      "stateMutability": "view",
      "type": "function"
    },
    {
      "inputs": [
        {
          "internalType": "address",
          "name": "",
          "type": "address"
        },
        {
          "internalType": "uint256",
          "name": "",
          "type": "uint256"
        }
      ],
      "name": "followers",
      "outputs": [
        {
          "internalType": "address",
          "name": "",
          "type": "address"
        }
      ],
      "stateMutability": "view",
      "type": "function"
    },
    {
      "inputs": [
        {
          "internalType": "address",
          "name": "",
          "type": "address"
        },
        {
          "internalType": "uint256",
          "name": "",
          "type": "uint256"
        }
      ],
      "name": "following",
      "outputs": [
        {
          "internalType": "address",
          "name": "",
          "type": "address"
        }
      ],
      "stateMutability": "view",
      "type": "function"
    },
    {
      "inputs": [
        {
          "internalType": "address",
          "name": "leader",
          "type": "address"
        }
      ],
      "name": "getFollowers",
      "outputs": [
        {
          "internalType": "address[]",
          "name": "",
          "type": "address[]"
        }
      ],
      "stateMutability": "view",
      "type": "function"
    },
    {
      "inputs": [
        {
          "internalType": "address",
          "name": "user",
          "type": "address"
        }
      ],
      "name": "getFollowing",
      "outputs": [
        {
          "internalType": "address[]",
          "name": "",
          "type": "address[]"
        }
      ],
      "stateMutability": "view",
      "type": "function"
    },
    {
      "inputs": [
        {
          "internalType": "address",
          "name": "user",
          "type": "address"
        }
      ],
      "name": "getVault",
      "outputs": [
        {
          "internalType": "uint256",
          "name": "virtualUsdc",
          "type": "uint256"
        },
        {
          "internalType": "uint256",
          "name": "startingCapital",
          "type": "uint256"
        },
        {
          "internalType": "bool",
          "name": "exists",
          "type": "bool"
        }
      ],
      "stateMutability": "view",
      "type": "function"
    },
    {
      "inputs": [
        {
          "internalType": "address",
          "name": "",
          "type": "address"
        },
        {
          "internalType": "address",
          "name": "",
          "type": "address"
        }
      ],
      "name": "isFollowing",
      "outputs": [
        {
          "internalType": "bool",
          "name": "",
          "type": "bool"
        }
      ],
      "stateMutability": "view",
      "type": "function"
    },
    {
      "inputs": [
        {
          "internalType": "uint256",
          "name": "virtualUsdc",
          "type": "uint256"
        }
      ],
      "name": "resetVault",
      "outputs": [],
      "stateMutability": "nonpayable",
      "type": "function"
    },
    {
      "inputs": [
        {
          "internalType": "address",
          "name": "leader",
          "type": "address"
        }
      ],
      "name": "unfollow",
      "outputs": [],
      "stateMutability": "nonpayable",
      "type": "function"
    },
    {
      "inputs": [
        {
          "internalType": "address",
          "name": "",
          "type": "address"
        }
      ],
      "name": "vaults",
      "outputs": [
        {
          "internalType": "uint256",
          "name": "virtualUsdc",
          "type": "uint256"
        },
        {
          "internalType": "uint256",
          "name": "startingCapital",
          "type": "uint256"
        },
        {
          "internalType": "bool",
          "name": "exists",
          "type": "bool"
        }
      ],
      "stateMutability": "view",
      "type": "function"
    }
  ],
  "bytecode": "0x6080806040523461001657610b64908161001b8239f35b5f80fdfe6080604090808252600480361015610015575f80fd5b5f3560e01c918263015a4ead14610796575081630eb9af381461039857816332a694471461074c5781634dbf27cc146105885781639139cda51461054157816399ec3a42146104f35781639abbdf4b146103ef578163a622ee7c14610398578163bdafaeef1461020257508063c2fe202214610187578063d8236dff146100fd5763ebd009d3146100a4575f80fd5b346100f957806003193601126100f9576100bc610905565b906024359160018060a01b038091165f526002602052815f2080548410156100f9576020936100ea91610931565b92905490519260031b1c168152f35b5f80fd5b50346100f9576020806003193601126100f957906001600160a01b039081610123610905565b165f526001926001602052815f209382518094602087549283815201965f5260205f20935f915b8383106101705761016c8888610162828d0383610a5b565b519182918261095a565b0390f35b85548116895297810197948401949184019161014a565b50346100f9576020806003193601126100f957906001600160a01b0390816101ad610905565b165f526002602052805f209281518093602086549283815201955f5260205f20925f915b8383106101e95761016c8787610162828c0383610a5b565b84548116885296810196600194850194909201916101d1565b9050346100f9576020806003193601126100f957813591335f525f825260ff6002855f200154161561036c575061023e620f4240831015610a1c565b335f5260019283825283815f2082518082868294549384815201905f52865f20925f5b868983831061034e575050505061027a92500382610a5b565b5f825b6102f3575b505050335f52838252805f208054905f8155816102d7575b5050827f3a8eabff634bb5475550a20ad9674a38e5fa723f3cea9fa567113bec80cb03ad9394335f525f8452825f208281550155519283523392a2005b5f52825f20908101905b8181101561029a575f815585016102e1565b81518110156103495782906001600160a01b0361031c33826103158588610a7d565b5116610a91565b335f5260038752855f20906103318386610a7d565b51165f528652845f2060ff198154169055018261027d565b610282565b86546001600160a01b03168552958101958795509093019201610261565b60649184519162461bcd60e51b83528201526008602482015267139bc81d985d5b1d60c21b6044820152fd5b82346100f95760203660031901126100f9576001600160a01b036103ba610905565b165f9081526020818152908290208054600182015460029092015493519081529182015260ff90911615156040820152606090f35b82346100f9576020806003193601126100f957823591335f525f825260ff6002825f200154166104bb57610428620f4240841015610a1c565b80516060810181811067ffffffffffffffff8211176104a8577fa510df27d6e51efd91d3f55722bad1f26bf924a63e5dcee07c2ab4c3d4992dcc94955082528481526002838201918683528381019260018452335f525f8652845f2091518255516001820155019051151560ff80198354169116179055519283523392a2005b604186634e487b7160e01b5f525260245ffd5b5162461bcd60e51b8152928301525060146024820152735661756c7420616c72656164792065786973747360601b6044820152606490fd5b82346100f957806003193601126100f95760209061050f610905565b61051761091b565b9060018060a01b038091165f5260038452825f2091165f52825260ff815f20541690519015158152f35b82346100f957806003193601126100f95761055a610905565b906024359160018060a01b038091165f526001602052815f2080548410156100f9576020936100ea91610931565b82346100f9576020806003193601126100f9576105a3610905565b335f525f825260ff6002845f200154161561071557335f5260038252825f209360018060a01b03821694855f52835260ff845f2054166106de573385146106a257841561066e579061061891335f5260018452845f2054908452845f20865f528452845f2055335f5260018352835f206109de565b825f526002815261062b33835f206109de565b335f5260038152815f2090835f52525f20600160ff19825416179055337f6178e95c138f06036cdc07a49ed6a3d23008969fa143baeceb037ebae22e8d145f80a3005b835162461bcd60e51b8152908101839052600e60248201526d24b73b30b634b2103632b0b232b960911b6044820152606490fd5b835162461bcd60e51b8152908101839052601660248201527521b0b73737ba103337b63637bb903cb7bab939b2b63360511b6044820152606490fd5b835162461bcd60e51b81529081018390526011602482015270416c726561647920666f6c6c6f77696e6760781b6044820152606490fd5b50905162461bcd60e51b815291820152601260248201527110dc99585d19481d985d5b1d08199a5c9cdd60721b6044820152606490fd5b82346100f957806003193601126100f957602091610768610905565b61077061091b565b6001600160a01b039182165f908152928552838320911682528352819020549051908152f35b83346100f957602090816003193601126100f9576107b2610905565b91335f5260038152815f209360018060a01b039081851695865f52835260ff845f205416156108d45750335f5260038252825f20855f528252825f2060ff198154169055335f52858252825f20855f528252825f2054335f5260018352835f209182545f1981019081116108c1579261089a979892610883926108385f98979684610931565b90549060031b1c1661086c8161084e8486610931565b90919060018060a01b038084549260031b9316831b921b1916179055565b33885284865286882090885285528587205561099e565b338452815281832090868452528120553390610a91565b337f25b48012798806863072289354ed0b3849b73152482d9c6694e5cbb35f38d5e35f80a3005b601189634e487b7160e01b5f525260245ffd5b62461bcd60e51b8152868101839052600d60248201526c4e6f7420666f6c6c6f77696e6760981b6044820152606490fd5b600435906001600160a01b03821682036100f957565b602435906001600160a01b03821682036100f957565b8054821015610946575f5260205f2001905f90565b634e487b7160e01b5f52603260045260245ffd5b60209060206040818301928281528551809452019301915f5b828110610981575050505090565b83516001600160a01b031685529381019392810192600101610973565b805480156109ca575f1901906109b48282610931565b81549060018060a01b039060031b1b1916905555565b634e487b7160e01b5f52603160045260245ffd5b9081549168010000000000000000831015610a08578261084e916001610a0695018155610931565b565b634e487b7160e01b5f52604160045260245ffd5b15610a2357565b60405162461bcd60e51b815260206004820152601060248201526f4d696e696d756d203120555344432e6560801b6044820152606490fd5b90601f8019910116810190811067ffffffffffffffff821117610a0857604052565b80518210156109465760209160051b010190565b6001600160a01b039081165f908152600260205260408120905b815480821015610b2757610abf8284610931565b905460039291831b1c851686861614610adc575050600101610aab565b93945091925f198101908111610b1357610a0694610b0e93610b0161084e9387610931565b9054911b1c169184610931565b61099e565b634e487b7160e01b5f52601160045260245ffd5b505050505056fea2646970667358221220cede11f992172e18968c01281b0951ada04dd2f244488fe52b870ae2212ca83764736f6c63430008180033",
  "linkReferences": {},
  "deployedLinkReferences": {}
}